{
  "contractName": "ERC721",
  "abi": [
    {
      "anonymous": false,
      "inputs": [
        {
          "indexed": true,
          "internalType": "address",
          "name": "_owner",
          "type": "address"
        },
        {
          "indexed": true,
          "internalType": "address",
          "name": "_approved",
          "type": "address"
        },
        {
          "indexed": true,
          "internalType": "uint256",
          "name": "_tokenId",
          "type": "uint256"
        }
      ],
      "name": "Approval",
      "type": "event"
    },
    {
      "anonymous": false,
      "inputs": [
        {
          "indexed": true,
          "internalType": "address",
          "name": "_owner",
          "type": "address"
        },
        {
          "indexed": true,
          "internalType": "address",
          "name": "_operator",
          "type": "address"
        },
        {
          "indexed": false,
          "internalType": "bool",
          "name": "_approved",
          "type": "bool"
        }
      ],
      "name": "ApprovalForAll",
      "type": "event"
    },
    {
      "anonymous": false,
      "inputs": [
        {
          "indexed": true,
          "internalType": "address",
          "name": "_from",
          "type": "address"
        },
        {
          "indexed": true,
          "internalType": "address",
          "name": "_to",
          "type": "address"
        },
        {
          "indexed": true,
          "internalType": "uint256",
          "name": "_tokenId",
          "type": "uint256"
        }
      ],
      "name": "Transfer",
      "type": "event"
    },
    {
      "inputs": [
        {
          "internalType": "string",
          "name": "_model",
          "type": "string"
        },
        {
          "internalType": "string",
          "name": "_imei",
          "type": "string"
        },
        {
          "internalType": "string",
          "name": "_brand",
          "type": "string"
        },
        {
          "internalType": "string",
          "name": "_colour",
          "type": "string"
        },
        {
          "internalType": "uint256",
          "name": "_price",
          "type": "uint256"
        },
        {
          "internalType": "uint256",
          "name": "_salePrice",
          "type": "uint256"
        },
        {
          "internalType": "uint16",
          "name": "_ram",
          "type": "uint16"
        },
        {
          "internalType": "uint32",
          "name": "_mem",
          "type": "uint32"
        },
        {
          "internalType": "string",
          "name": "_url",
          "type": "string"
        }
      ],
      "name": "createPhone",
      "outputs": [],
      "stateMutability": "nonpayable",
      "type": "function"
    },
    {
      "inputs": [
        {
          "internalType": "address",
          "name": "_address",
          "type": "address"
        }
      ],
      "name": "getAllPhonesInAddress",
      "outputs": [
        {
          "components": [
            {
              "internalType": "uint256",
              "name": "id",
              "type": "uint256"
            },
            {
              "internalType": "string",
              "name": "model",
              "type": "string"
            },
            {
              "internalType": "string",
              "name": "brand",
              "type": "string"
            },
            {
              "internalType": "string",
              "name": "colour",
              "type": "string"
            },
            {
              "internalType": "uint16",
              "name": "ram",
              "type": "uint16"
            },
            {
              "internalType": "uint32",
              "name": "mem",
              "type": "uint32"
            },
            {
              "internalType": "address[]",
              "name": "owners",
              "type": "address[]"
            },
            {
              "internalType": "uint256[]",
              "name": "saleTime",
              "type": "uint256[]"
            },
            {
              "internalType": "uint256[]",
              "name": "salePrice",
              "type": "uint256[]"
            },
            {
              "internalType": "uint256",
              "name": "price",
              "type": "uint256"
            },
            {
              "internalType": "string",
              "name": "url",
              "type": "string"
            }
          ],
          "internalType": "struct SecondHandChain.Phone[]",
          "name": "",
          "type": "tuple[]"
        }
      ],
      "stateMutability": "view",
      "type": "function",
      "constant": true
    },
    {
      "inputs": [],
      "name": "getAllPhonesOnSale",
      "outputs": [
        {
          "components": [
            {
              "internalType": "uint256",
              "name": "id",
              "type": "uint256"
            },
            {
              "internalType": "string",
              "name": "model",
              "type": "string"
            },
            {
              "internalType": "string",
              "name": "brand",
              "type": "string"
            },
            {
              "internalType": "string",
              "name": "colour",
              "type": "string"
            },
            {
              "internalType": "uint16",
              "name": "ram",
              "type": "uint16"
            },
            {
              "internalType": "uint32",
              "name": "mem",
              "type": "uint32"
            },
            {
              "internalType": "address[]",
              "name": "owners",
              "type": "address[]"
            },
            {
              "internalType": "uint256[]",
              "name": "saleTime",
              "type": "uint256[]"
            },
            {
              "internalType": "uint256[]",
              "name": "salePrice",
              "type": "uint256[]"
            },
            {
              "internalType": "uint256",
              "name": "price",
              "type": "uint256"
            },
            {
              "internalType": "string",
              "name": "url",
              "type": "string"
            }
          ],
          "internalType": "struct SecondHandChain.Phone[]",
          "name": "",
          "type": "tuple[]"
        }
      ],
      "stateMutability": "view",
      "type": "function",
      "constant": true
    },
    {
      "inputs": [
        {
          "internalType": "uint256",
          "name": "_id",
          "type": "uint256"
        }
      ],
      "name": "getIsPhoneOnSale",
      "outputs": [
        {
          "internalType": "bool",
          "name": "",
          "type": "bool"
        }
      ],
      "stateMutability": "view",
      "type": "function",
      "constant": true
    },
    {
      "inputs": [
        {
          "internalType": "uint256",
          "name": "_id",
          "type": "uint256"
        }
      ],
      "name": "getPhoneOwner",
      "outputs": [
        {
          "internalType": "address",
          "name": "",
          "type": "address"
        }
      ],
      "stateMutability": "view",
      "type": "function",
      "constant": true
    },
    {
      "inputs": [],
      "name": "getPhones",
      "outputs": [
        {
          "components": [
            {
              "internalType": "uint256",
              "name": "id",
              "type": "uint256"
            },
            {
              "internalType": "string",
              "name": "model",
              "type": "string"
            },
            {
              "internalType": "string",
              "name": "brand",
              "type": "string"
            },
            {
              "internalType": "string",
              "name": "colour",
              "type": "string"
            },
            {
              "internalType": "uint16",
              "name": "ram",
              "type": "uint16"
            },
            {
              "internalType": "uint32",
              "name": "mem",
              "type": "uint32"
            },
            {
              "internalType": "address[]",
              "name": "owners",
              "type": "address[]"
            },
            {
              "internalType": "uint256[]",
              "name": "saleTime",
              "type": "uint256[]"
            },
            {
              "internalType": "uint256[]",
              "name": "salePrice",
              "type": "uint256[]"
            },
            {
              "internalType": "uint256",
              "name": "price",
              "type": "uint256"
            },
            {
              "internalType": "string",
              "name": "url",
              "type": "string"
            }
          ],
          "internalType": "struct SecondHandChain.Phone[]",
          "name": "",
          "type": "tuple[]"
        }
      ],
      "stateMutability": "view",
      "type": "function",
      "constant": true
    },
    {
      "inputs": [
        {
          "internalType": "string",
          "name": "_imei",
          "type": "string"
        }
      ],
      "name": "imeiRegistered",
      "outputs": [
        {
          "internalType": "bool",
          "name": "",
          "type": "bool"
        }
      ],
      "stateMutability": "view",
      "type": "function",
      "constant": true
    },
    {
      "inputs": [
        {
          "internalType": "uint256",
          "name": "",
          "type": "uint256"
        }
      ],
      "name": "phones",
      "outputs": [
        {
          "internalType": "uint256",
          "name": "id",
          "type": "uint256"
        },
        {
          "internalType": "string",
          "name": "model",
          "type": "string"
        },
        {
          "internalType": "string",
          "name": "brand",
          "type": "string"
        },
        {
          "internalType": "string",
          "name": "colour",
          "type": "string"
        },
        {
          "internalType": "uint16",
          "name": "ram",
          "type": "uint16"
        },
        {
          "internalType": "uint32",
          "name": "mem",
          "type": "uint32"
        },
        {
          "internalType": "uint256",
          "name": "price",
          "type": "uint256"
        },
        {
          "internalType": "string",
          "name": "url",
          "type": "string"
        }
      ],
      "stateMutability": "view",
      "type": "function",
      "constant": true
    },
    {
      "inputs": [
        {
          "internalType": "uint256",
          "name": "_price",
          "type": "uint256"
        },
        {
          "internalType": "uint256",
          "name": "_phoneId",
          "type": "uint256"
        }
      ],
      "name": "putPhoneOnSale",
      "outputs": [],
      "stateMutability": "nonpayable",
      "type": "function"
    },
    {
      "inputs": [
        {
          "internalType": "uint256",
          "name": "_phoneId",
          "type": "uint256"
        }
      ],
      "name": "removePhoneFromSale",
      "outputs": [],
      "stateMutability": "nonpayable",
      "type": "function"
    },
    {
      "inputs": [
        {
          "internalType": "address",
          "name": "_owner",
          "type": "address"
        }
      ],
      "name": "balanceOf",
      "outputs": [
        {
          "internalType": "uint256",
          "name": "",
          "type": "uint256"
        }
      ],
      "stateMutability": "view",
      "type": "function",
      "constant": true
    },
    {
      "inputs": [
        {
          "internalType": "uint256",
          "name": "_tokenId",
          "type": "uint256"
        }
      ],
      "name": "ownerOf",
      "outputs": [
        {
          "internalType": "address",
          "name": "",
          "type": "address"
        }
      ],
      "stateMutability": "view",
      "type": "function",
      "constant": true
    },
    {
      "inputs": [
        {
          "internalType": "address",
          "name": "_from",
          "type": "address"
        },
        {
          "internalType": "address",
          "name": "_to",
          "type": "address"
        },
        {
          "internalType": "uint256",
          "name": "_tokenId",
          "type": "uint256"
        }
      ],
      "name": "safeTransferFrom",
      "outputs": [],
      "stateMutability": "payable",
      "type": "function",
      "payable": true
    },
    {
      "inputs": [
        {
          "internalType": "address",
          "name": "_from",
          "type": "address"
        },
        {
          "internalType": "address",
          "name": "_to",
          "type": "address"
        },
        {
          "internalType": "uint256",
          "name": "_tokenId",
          "type": "uint256"
        },
        {
          "internalType": "bytes",
          "name": "data",
          "type": "bytes"
        }
      ],
      "name": "safeTransferFrom",
      "outputs": [],
      "stateMutability": "payable",
      "type": "function",
      "payable": true
    },
    {
      "inputs": [
        {
          "internalType": "address",
          "name": "_from",
          "type": "address"
        },
        {
          "internalType": "address",
          "name": "_to",
          "type": "address"
        },
        {
          "internalType": "uint256",
          "name": "_tokenId",
          "type": "uint256"
        }
      ],
      "name": "transferFrom",
      "outputs": [],
      "stateMutability": "payable",
      "type": "function",
      "payable": true
    },
    {
      "inputs": [
        {
          "internalType": "address",
          "name": "_approved",
          "type": "address"
        },
        {
          "internalType": "uint256",
          "name": "_tokenId",
          "type": "uint256"
        }
      ],
      "name": "approve",
      "outputs": [],
      "stateMutability": "payable",
      "type": "function",
      "payable": true
    },
    {
      "inputs": [
        {
          "internalType": "address",
          "name": "_operator",
          "type": "address"
        },
        {
          "internalType": "bool",
          "name": "_approved",
          "type": "bool"
        }
      ],
      "name": "setApprovalForAll",
      "outputs": [],
      "stateMutability": "nonpayable",
      "type": "function"
    },
    {
      "inputs": [
        {
          "internalType": "uint256",
          "name": "_tokenId",
          "type": "uint256"
        }
      ],
      "name": "getApproved",
      "outputs": [
        {
          "internalType": "address",
          "name": "",
          "type": "address"
        }
      ],
      "stateMutability": "view",
      "type": "function",
      "constant": true
    },
    {
      "inputs": [
        {
          "internalType": "address",
          "name": "_owner",
          "type": "address"
        },
        {
          "internalType": "address",
          "name": "_operator",
          "type": "address"
        }
      ],
      "name": "isApprovedForAll",
      "outputs": [
        {
          "internalType": "bool",
          "name": "",
          "type": "bool"
        }
      ],
      "stateMutability": "view",
      "type": "function",
      "constant": true
    }
  ],
  "bytecode": "0x608060405234801561001057600080fd5b506144d3806100206000396000f3fe6080604052600436106101145760003560e01c806370a08231116100a0578063d4dbc41c11610064578063d4dbc41c14610389578063d72bbae2146103b4578063e985e9c5146103f1578063f09e19f21461042e578063f37306531461046b57610114565b806370a08231146102b557806374c97cd5146102f2578063a22cb4651461031b578063b88d4fde14610344578063bc2a1c281461036057610114565b80633664e2de116100e75780633664e2de146101b7578063418696fa146101f457806342842e0e146102315780635b884f6f1461024d5780636352211e1461027857610114565b8063081812fc14610119578063095ea7b31461015657806323b104fa1461017257806323b872dd1461019b575b600080fd5b34801561012557600080fd5b50610140600480360381019061013b9190613085565b6104af565b60405161014d91906130f3565b60405180910390f35b610170600480360381019061016b919061313a565b6104ec565b005b34801561017e57600080fd5b5061019960048036038101906101949190613085565b610671565b005b6101b560048036038101906101b0919061317a565b6107ac565b005b3480156101c357600080fd5b506101de60048036038101906101d99190613085565b6109ce565b6040516101eb91906131e8565b60405180910390f35b34801561020057600080fd5b5061021b60048036038101906102169190613203565b6109f8565b6040516102289190613653565b60405180910390f35b61024b6004803603810190610246919061317a565b610f61565b005b34801561025957600080fd5b50610262611183565b60405161026f9190613653565b60405180910390f35b34801561028457600080fd5b5061029f600480360381019061029a9190613085565b61166d565b6040516102ac91906130f3565b60405180910390f35b3480156102c157600080fd5b506102dc60048036038101906102d79190613203565b6116aa565b6040516102e99190613684565b60405180910390f35b3480156102fe57600080fd5b506103196004803603810190610314919061369f565b6116f3565b005b34801561032757600080fd5b50610342600480360381019061033d919061370b565b611858565b005b61035e60048036038101906103599190613880565b6119ca565b005b34801561036c57600080fd5b50610387600480360381019061038291906139fc565b611bed565b005b34801561039557600080fd5b5061039e612099565b6040516103ab9190613653565b60405180910390f35b3480156103c057600080fd5b506103db60048036038101906103d69190613b52565b6124d9565b6040516103e891906131e8565b60405180910390f35b3480156103fd57600080fd5b5061041860048036038101906104139190613b9b565b61250e565b60405161042591906131e8565b60405180910390f35b34801561043a57600080fd5b5061045560048036038101906104509190613085565b6125b6565b60405161046291906130f3565b60405180910390f35b34801561047757600080fd5b50610492600480360381019061048d9190613085565b6125f3565b6040516104a6989796959493929190613c43565b60405180910390f35b60006007600083815260200190815260200160002060009054906101000a900473ffffffffffffffffffffffffffffffffffffffff169050919050565b6002600082815260200190815260200160002060009054906101000a900473ffffffffffffffffffffffffffffffffffffffff1673ffffffffffffffffffffffffffffffffffffffff163373ffffffffffffffffffffffffffffffffffffffff161461058d576040517f08c379a000000000000000000000000000000000000000000000000000000000815260040161058490613d29565b60405180910390fd5b816007600083815260200190815260200160002060006101000a81548173ffffffffffffffffffffffffffffffffffffffff021916908373ffffffffffffffffffffffffffffffffffffffff160217905550808273ffffffffffffffffffffffffffffffffffffffff166002600084815260200190815260200160002060009054906101000a900473ffffffffffffffffffffffffffffffffffffffff1673ffffffffffffffffffffffffffffffffffffffff167f8c5be1e5ebec7d5bd14f71427d1e84f3dd0314c0f7b2291e5b200ac8c7c3b92560405160405180910390a45050565b3373ffffffffffffffffffffffffffffffffffffffff166002600083815260200190815260200160002060009054906101000a900473ffffffffffffffffffffffffffffffffffffffff1673ffffffffffffffffffffffffffffffffffffffff1614610712576040517f08c379a000000000000000000000000000000000000000000000000000000000815260040161070990613d95565b60405180910390fd5b60006006600083815260200190815260200160002060006101000a81548160ff02191690831515021790555060006007600083815260200190815260200160002060006101000a81548173ffffffffffffffffffffffffffffffffffffffff021916908373ffffffffffffffffffffffffffffffffffffffff160217905550600160008154809291906107a490613de4565b919050555050565b6107b7838383612889565b600081815481106107cb576107ca613e0d565b5b90600052602060002090600a02016008015434101561081f576040517f08c379a000000000000000000000000000000000000000000000000000000000815260040161081690613e88565b60405180910390fd5b6000818154811061083357610832613e0d565b5b90600052602060002090600a0201600801543411156108c4573373ffffffffffffffffffffffffffffffffffffffff166108fc6000838154811061087a57610879613e0d565b5b90600052602060002090600a020160080154346108979190613ea8565b9081150290604051600060405180830381858888f193505050501580156108c2573d6000803e3d6000fd5b505b6002600082815260200190815260200160002060009054906101000a900473ffffffffffffffffffffffffffffffffffffffff1673ffffffffffffffffffffffffffffffffffffffff166108fc6000838154811061092557610924613e0d565b5b90600052602060002090600a0201600801549081150290604051600060405180830381858888f19350505050158015610962573d6000803e3d6000fd5b5061096e838383612c08565b808273ffffffffffffffffffffffffffffffffffffffff168473ffffffffffffffffffffffffffffffffffffffff167fddf252ad1be2c89b69c2b068fc378daa952ba7f163c4a11628f55a4df523b3ef60405160405180910390a4505050565b60006006600083815260200190815260200160002060009054906101000a900460ff169050919050565b60606000600360008473ffffffffffffffffffffffffffffffffffffffff1673ffffffffffffffffffffffffffffffffffffffff1681526020019081526020016000205467ffffffffffffffff811115610a5557610a54613755565b5b604051908082528060200260200182016040528015610a8e57816020015b610a7b612ee3565b815260200190600190039081610a735790505b5090506000805b600080549050811015610f56578473ffffffffffffffffffffffffffffffffffffffff166002600083815260200190815260200160002060009054906101000a900473ffffffffffffffffffffffffffffffffffffffff1673ffffffffffffffffffffffffffffffffffffffff1603610f435760008181548110610b1c57610b1b613e0d565b5b90600052602060002090600a02016040518061016001604052908160008201548152602001600182018054610b5090613f0b565b80601f0160208091040260200160405190810160405280929190818152602001828054610b7c90613f0b565b8015610bc95780601f10610b9e57610100808354040283529160200191610bc9565b820191906000526020600020905b815481529060010190602001808311610bac57829003601f168201915b50505050508152602001600282018054610be290613f0b565b80601f0160208091040260200160405190810160405280929190818152602001828054610c0e90613f0b565b8015610c5b5780601f10610c3057610100808354040283529160200191610c5b565b820191906000526020600020905b815481529060010190602001808311610c3e57829003601f168201915b50505050508152602001600382018054610c7490613f0b565b80601f0160208091040260200160405190810160405280929190818152602001828054610ca090613f0b565b8015610ced5780601f10610cc257610100808354040283529160200191610ced565b820191906000526020600020905b815481529060010190602001808311610cd057829003601f168201915b505050505081526020016004820160009054906101000a900461ffff1661ffff1661ffff1681526020016004820160029054906101000a900463ffffffff1663ffffffff1663ffffffff16815260200160058201805480602002602001604051908101604052809291908181526020018280548015610dc157602002820191906000526020600020905b8160009054906101000a900473ffffffffffffffffffffffffffffffffffffffff1673ffffffffffffffffffffffffffffffffffffffff1681526020019060010190808311610d77575b5050505050815260200160068201805480602002602001604051908101604052809291908181526020018280548015610e1957602002820191906000526020600020905b815481526020019060010190808311610e05575b5050505050815260200160078201805480602002602001604051908101604052809291908181526020018280548015610e7157602002820191906000526020600020905b815481526020019060010190808311610e5d575b5050505050815260200160088201548152602001600982018054610e9490613f0b565b80601f0160208091040260200160405190810160405280929190818152602001828054610ec090613f0b565b8015610f0d5780601f10610ee257610100808354040283529160200191610f0d565b820191906000526020600020905b815481529060010190602001808311610ef057829003601f168201915b505050505081525050838381518110610f2957610f28613e0d565b5b60200260200101819052508180610f3f90613f3c565b9250505b8080610f4e90613f3c565b915050610a95565b508192505050919050565b610f6c838383612889565b60008181548110610f8057610f7f613e0d565b5b90600052602060002090600a020160080154341015610fd4576040517f08c379a0000000000000000000000000000000000000000000000000000000008152600401610fcb90613e88565b60405180910390fd5b60008181548110610fe857610fe7613e0d565b5b90600052602060002090600a020160080154341115611079573373ffffffffffffffffffffffffffffffffffffffff166108fc6000838154811061102f5761102e613e0d565b5b90600052602060002090600a0201600801543461104c9190613ea8565b9081150290604051600060405180830381858888f19350505050158015611077573d6000803e3d6000fd5b505b6002600082815260200190815260200160002060009054906101000a900473ffffffffffffffffffffffffffffffffffffffff1673ffffffffffffffffffffffffffffffffffffffff166108fc600083815481106110da576110d9613e0d565b5b90600052602060002090600a0201600801549081150290604051600060405180830381858888f19350505050158015611117573d6000803e3d6000fd5b50611123838383612c08565b808273ffffffffffffffffffffffffffffffffffffffff168473ffffffffffffffffffffffffffffffffffffffff167fddf252ad1be2c89b69c2b068fc378daa952ba7f163c4a11628f55a4df523b3ef60405160405180910390a4505050565b6060600060015467ffffffffffffffff8111156111a3576111a2613755565b5b6040519080825280602002602001820160405280156111dc57816020015b6111c9612ee3565b8152602001906001900390816111c15790505b5090506000805b600080549050811015611664576006600082815260200190815260200160002060009054906101000a900460ff1615611651576000818154811061122a57611229613e0d565b5b90600052602060002090600a0201604051806101600160405290816000820154815260200160018201805461125e90613f0b565b80601f016020809104026020016040519081016040528092919081815260200182805461128a90613f0b565b80156112d75780601f106112ac576101008083540402835291602001916112d7565b820191906000526020600020905b8154815290600101906020018083116112ba57829003601f168201915b505050505081526020016002820180546112f090613f0b565b80601f016020809104026020016040519081016040528092919081815260200182805461131c90613f0b565b80156113695780601f1061133e57610100808354040283529160200191611369565b820191906000526020600020905b81548152906001019060200180831161134c57829003601f168201915b5050505050815260200160038201805461138290613f0b565b80601f01602080910402602001604051908101604052809291908181526020018280546113ae90613f0b565b80156113fb5780601f106113d0576101008083540402835291602001916113fb565b820191906000526020600020905b8154815290600101906020018083116113de57829003601f168201915b505050505081526020016004820160009054906101000a900461ffff1661ffff1661ffff1681526020016004820160029054906101000a900463ffffffff1663ffffffff1663ffffffff168152602001600582018054806020026020016040519081016040528092919081815260200182805480156114cf57602002820191906000526020600020905b8160009054906101000a900473ffffffffffffffffffffffffffffffffffffffff1673ffffffffffffffffffffffffffffffffffffffff1681526020019060010190808311611485575b505050505081526020016006820180548060200260200160405190810160405280929190818152602001828054801561152757602002820191906000526020600020905b815481526020019060010190808311611513575b505050505081526020016007820180548060200260200160405190810160405280929190818152602001828054801561157f57602002820191906000526020600020905b81548152602001906001019080831161156b575b50505050508152602001600882015481526020016009820180546115a290613f0b565b80601f01602080910402602001604051908101604052809291908181526020018280546115ce90613f0b565b801561161b5780601f106115f05761010080835404028352916020019161161b565b820191906000526020600020905b8154815290600101906020018083116115fe57829003601f168201915b50505050508152505083838151811061163757611636613e0d565b5b6020026020010181905250818061164d90613f3c565b9250505b808061165c90613f3c565b9150506111e3565b50819250505090565b60006002600083815260200190815260200160002060009054906101000a900473ffffffffffffffffffffffffffffffffffffffff169050919050565b6000600360008373ffffffffffffffffffffffffffffffffffffffff1673ffffffffffffffffffffffffffffffffffffffff168152602001908152602001600020549050919050565b3373ffffffffffffffffffffffffffffffffffffffff166002600083815260200190815260200160002060009054906101000a900473ffffffffffffffffffffffffffffffffffffffff1673ffffffffffffffffffffffffffffffffffffffff1614611794576040517f08c379a000000000000000000000000000000000000000000000000000000000815260040161178b90613d95565b60405180910390fd5b60016006600083815260200190815260200160002060006101000a81548160ff02191690831515021790555081600082815481106117d5576117d4613e0d565b5b90600052602060002090600a020160080181905550306007600083815260200190815260200160002060006101000a81548173ffffffffffffffffffffffffffffffffffffffff021916908373ffffffffffffffffffffffffffffffffffffffff1602179055506001600081548092919061184f90613f3c565b91905055505050565b80156118e15781600860003373ffffffffffffffffffffffffffffffffffffffff1673ffffffffffffffffffffffffffffffffffffffff16815260200190815260200160002060006101000a81548173ffffffffffffffffffffffffffffffffffffffff021916908373ffffffffffffffffffffffffffffffffffffffff160217905550611961565b6000600860003373ffffffffffffffffffffffffffffffffffffffff1673ffffffffffffffffffffffffffffffffffffffff16815260200190815260200160002060006101000a81548173ffffffffffffffffffffffffffffffffffffffff021916908373ffffffffffffffffffffffffffffffffffffffff1602179055505b8173ffffffffffffffffffffffffffffffffffffffff163373ffffffffffffffffffffffffffffffffffffffff167f17307eab39ab6107e8899845ad3d59bd9653f200f220920489ca2b5937696c31836040516119be91906131e8565b60405180910390a35050565b6119d5848484612889565b600082815481106119e9576119e8613e0d565b5b90600052602060002090600a020160080154341015611a3d576040517f08c379a0000000000000000000000000000000000000000000000000000000008152600401611a3490613e88565b60405180910390fd5b60008281548110611a5157611a50613e0d565b5b90600052602060002090600a020160080154341115611ae2573373ffffffffffffffffffffffffffffffffffffffff166108fc60008481548110611a9857611a97613e0d565b5b90600052602060002090600a02016008015434611ab59190613ea8565b9081150290604051600060405180830381858888f19350505050158015611ae0573d6000803e3d6000fd5b505b6002600083815260200190815260200160002060009054906101000a900473ffffffffffffffffffffffffffffffffffffffff1673ffffffffffffffffffffffffffffffffffffffff166108fc60008481548110611b4357611b42613e0d565b5b90600052602060002090600a0201600801549081150290604051600060405180830381858888f19350505050158015611b80573d6000803e3d6000fd5b50611b8c848484612c08565b818373ffffffffffffffffffffffffffffffffffffffff168573ffffffffffffffffffffffffffffffffffffffff167fddf252ad1be2c89b69c2b068fc378daa952ba7f163c4a11628f55a4df523b3ef60405160405180910390a450505050565b60001515600589604051611c019190613fc0565b908152602001604051809103902060009054906101000a900460ff16151514611c5f576040517f08c379a0000000000000000000000000000000000000000000000000000000008152600401611c5690614023565b60405180910390fd5b611c67612ee3565b89816020018190525087816040018190525086816060018190525083816080019061ffff16908161ffff1681525050828160a0019063ffffffff16908163ffffffff168152505084816101200181815250508181610140018190525060008190806001815401808255809150506001900390600052602060002090600a0201600090919091909150600082015181600001556020820151816001019081611d0e91906141ef565b506040820151816002019081611d2491906141ef565b506060820151816003019081611d3a91906141ef565b5060808201518160040160006101000a81548161ffff021916908361ffff16021790555060a08201518160040160026101000a81548163ffffffff021916908363ffffffff16021790555060c0820151816005019080519060200190611da1929190612f47565b5060e0820151816006019080519060200190611dbe929190612fd1565b50610100820151816007019080519060200190611ddc929190612fd1565b506101208201518160080155610140820151816009019081611dfe91906141ef565b505050600360003373ffffffffffffffffffffffffffffffffffffffff1673ffffffffffffffffffffffffffffffffffffffff1681526020019081526020016000206000815480929190611e5190613f3c565b919050555060006001600080549050611e6a9190613ea8565b90508060008281548110611e8157611e80613e0d565b5b90600052602060002090600a02016000018190555060008181548110611eaa57611ea9613e0d565b5b90600052602060002090600a0201600501339080600181540180825580915050600190039060005260206000200160009091909190916101000a81548173ffffffffffffffffffffffffffffffffffffffff021916908373ffffffffffffffffffffffffffffffffffffffff16021790555060008181548110611f3057611f2f613e0d565b5b90600052602060002090600a020160060142908060018154018082558091505060019003906000526020600020016000909190919091505560008181548110611f7c57611f7b613e0d565b5b90600052602060002090600a0201600701879080600181540180825580915050600190039060005260206000200160009091909190915055336002600083815260200190815260200160002060006101000a81548173ffffffffffffffffffffffffffffffffffffffff021916908373ffffffffffffffffffffffffffffffffffffffff1602179055508060048b6040516120179190613fc0565b90815260200160405180910390208190555060006006600083815260200190815260200160002060006101000a81548160ff021916908315150217905550600160058b6040516120679190613fc0565b908152602001604051809103902060006101000a81548160ff0219169083151502179055505050505050505050505050565b60606000805480602002602001604051908101604052809291908181526020016000905b828210156124d057838290600052602060002090600a020160405180610160016040529081600082015481526020016001820180546120fb90613f0b565b80601f016020809104026020016040519081016040528092919081815260200182805461212790613f0b565b80156121745780601f1061214957610100808354040283529160200191612174565b820191906000526020600020905b81548152906001019060200180831161215757829003601f168201915b5050505050815260200160028201805461218d90613f0b565b80601f01602080910402602001604051908101604052809291908181526020018280546121b990613f0b565b80156122065780601f106121db57610100808354040283529160200191612206565b820191906000526020600020905b8154815290600101906020018083116121e957829003601f168201915b5050505050815260200160038201805461221f90613f0b565b80601f016020809104026020016040519081016040528092919081815260200182805461224b90613f0b565b80156122985780601f1061226d57610100808354040283529160200191612298565b820191906000526020600020905b81548152906001019060200180831161227b57829003601f168201915b505050505081526020016004820160009054906101000a900461ffff1661ffff1661ffff1681526020016004820160029054906101000a900463ffffffff1663ffffffff1663ffffffff1681526020016005820180548060200260200160405190810160405280929190818152602001828054801561236c57602002820191906000526020600020905b8160009054906101000a900473ffffffffffffffffffffffffffffffffffffffff1673ffffffffffffffffffffffffffffffffffffffff1681526020019060010190808311612322575b50505050508152602001600682018054806020026020016040519081016040528092919081815260200182805480156123c457602002820191906000526020600020905b8154815260200190600101908083116123b0575b505050505081526020016007820180548060200260200160405190810160405280929190818152602001828054801561241c57602002820191906000526020600020905b815481526020019060010190808311612408575b505050505081526020016008820154815260200160098201805461243f90613f0b565b80601f016020809104026020016040519081016040528092919081815260200182805461246b90613f0b565b80156124b85780601f1061248d576101008083540402835291602001916124b8565b820191906000526020600020905b81548152906001019060200180831161249b57829003601f168201915b505050505081525050815260200190600101906120bd565b50505050905090565b60006005826040516124eb9190613fc0565b908152602001604051809103902060009054906101000a900460ff169050919050565b60008173ffffffffffffffffffffffffffffffffffffffff16600860008573ffffffffffffffffffffffffffffffffffffffff1673ffffffffffffffffffffffffffffffffffffffff16815260200190815260200160002060009054906101000a900473ffffffffffffffffffffffffffffffffffffffff1673ffffffffffffffffffffffffffffffffffffffff16036125ab57600190506125b0565b600090505b92915050565b60006002600083815260200190815260200160002060009054906101000a900473ffffffffffffffffffffffffffffffffffffffff169050919050565b6000818154811061260357600080fd5b90600052602060002090600a020160009150905080600001549080600101805461262c90613f0b565b80601f016020809104026020016040519081016040528092919081815260200182805461265890613f0b565b80156126a55780601f1061267a576101008083540402835291602001916126a5565b820191906000526020600020905b81548152906001019060200180831161268857829003601f168201915b5050505050908060020180546126ba90613f0b565b80601f01602080910402602001604051908101604052809291908181526020018280546126e690613f0b565b80156127335780601f1061270857610100808354040283529160200191612733565b820191906000526020600020905b81548152906001019060200180831161271657829003601f168201915b50505050509080600301805461274890613f0b565b80601f016020809104026020016040519081016040528092919081815260200182805461277490613f0b565b80156127c15780601f10612796576101008083540402835291602001916127c1565b820191906000526020600020905b8154815290600101906020018083116127a457829003601f168201915b5050505050908060040160009054906101000a900461ffff16908060040160029054906101000a900463ffffffff169080600801549080600901805461280690613f0b565b80601f016020809104026020016040519081016040528092919081815260200182805461283290613f0b565b801561287f5780601f106128545761010080835404028352916020019161287f565b820191906000526020600020905b81548152906001019060200180831161286257829003601f168201915b5050505050905088565b600073ffffffffffffffffffffffffffffffffffffffff168273ffffffffffffffffffffffffffffffffffffffff16141580156128f257508273ffffffffffffffffffffffffffffffffffffffff168273ffffffffffffffffffffffffffffffffffffffff1614155b612931576040517f08c379a000000000000000000000000000000000000000000000000000000000815260040161292890614333565b60405180910390fd5b6002600082815260200190815260200160002060009054906101000a900473ffffffffffffffffffffffffffffffffffffffff1673ffffffffffffffffffffffffffffffffffffffff168373ffffffffffffffffffffffffffffffffffffffff16146129d2576040517f08c379a00000000000000000000000000000000000000000000000000000000081526004016129c99061439f565b60405180910390fd5b6002600082815260200190815260200160002060009054906101000a900473ffffffffffffffffffffffffffffffffffffffff1673ffffffffffffffffffffffffffffffffffffffff163373ffffffffffffffffffffffffffffffffffffffff161480612a9d57506007600082815260200190815260200160002060009054906101000a900473ffffffffffffffffffffffffffffffffffffffff1673ffffffffffffffffffffffffffffffffffffffff163373ffffffffffffffffffffffffffffffffffffffff16145b80612b325750600860003373ffffffffffffffffffffffffffffffffffffffff1673ffffffffffffffffffffffffffffffffffffffff16815260200190815260200160002060009054906101000a900473ffffffffffffffffffffffffffffffffffffffff1673ffffffffffffffffffffffffffffffffffffffff163373ffffffffffffffffffffffffffffffffffffffff16145b80612bc457506006600082815260200190815260200160002060009054906101000a900460ff168015612bc357503073ffffffffffffffffffffffffffffffffffffffff166007600083815260200190815260200160002060009054906101000a900473ffffffffffffffffffffffffffffffffffffffff1673ffffffffffffffffffffffffffffffffffffffff16145b5b612c03576040517f08c379a0000000000000000000000000000000000000000000000000000000008152600401612bfa9061447d565b60405180910390fd5b505050565b600360008473ffffffffffffffffffffffffffffffffffffffff1673ffffffffffffffffffffffffffffffffffffffff1681526020019081526020016000206000815480929190612c5890613de4565b9190505550600360008373ffffffffffffffffffffffffffffffffffffffff1673ffffffffffffffffffffffffffffffffffffffff1681526020019081526020016000206000815480929190612cad90613f3c565b9190505550816002600083815260200190815260200160002060006101000a81548173ffffffffffffffffffffffffffffffffffffffff021916908373ffffffffffffffffffffffffffffffffffffffff16021790555060008181548110612d1857612d17613e0d565b5b90600052602060002090600a0201600501829080600181540180825580915050600190039060005260206000200160009091909190916101000a81548173ffffffffffffffffffffffffffffffffffffffff021916908373ffffffffffffffffffffffffffffffffffffffff16021790555060008181548110612d9e57612d9d613e0d565b5b90600052602060002090600a020160060142908060018154018082558091505060019003906000526020600020016000909190919091505560008181548110612dea57612de9613e0d565b5b90600052602060002090600a020160070160008281548110612e0f57612e0e613e0d565b5b90600052602060002090600a020160080154908060018154018082558091505060019003906000526020600020016000909190919091505560006006600083815260200190815260200160002060006101000a81548160ff02191690831515021790555060016000815480929190612e8690613de4565b919050555060006007600083815260200190815260200160002060006101000a81548173ffffffffffffffffffffffffffffffffffffffff021916908373ffffffffffffffffffffffffffffffffffffffff160217905550505050565b60405180610160016040528060008152602001606081526020016060815260200160608152602001600061ffff168152602001600063ffffffff16815260200160608152602001606081526020016060815260200160008152602001606081525090565b828054828255906000526020600020908101928215612fc0579160200282015b82811115612fbf5782518260006101000a81548173ffffffffffffffffffffffffffffffffffffffff021916908373ffffffffffffffffffffffffffffffffffffffff16021790555091602001919060010190612f67565b5b509050612fcd919061301e565b5090565b82805482825590600052602060002090810192821561300d579160200282015b8281111561300c578251825591602001919060010190612ff1565b5b50905061301a919061301e565b5090565b5b8082111561303757600081600090555060010161301f565b5090565b6000604051905090565b600080fd5b600080fd5b6000819050919050565b6130628161304f565b811461306d57600080fd5b50565b60008135905061307f81613059565b92915050565b60006020828403121561309b5761309a613045565b5b60006130a984828501613070565b91505092915050565b600073ffffffffffffffffffffffffffffffffffffffff82169050919050565b60006130dd826130b2565b9050919050565b6130ed816130d2565b82525050565b600060208201905061310860008301846130e4565b92915050565b613117816130d2565b811461312257600080fd5b50565b6000813590506131348161310e565b92915050565b6000806040838503121561315157613150613045565b5b600061315f85828601613125565b925050602061317085828601613070565b9150509250929050565b60008060006060848603121561319357613192613045565b5b60006131a186828701613125565b93505060206131b286828701613125565b92505060406131c386828701613070565b9150509250925092565b60008115159050919050565b6131e2816131cd565b82525050565b60006020820190506131fd60008301846131d9565b92915050565b60006020828403121561321957613218613045565b5b600061322784828501613125565b91505092915050565b600081519050919050565b600082825260208201905092915050565b6000819050602082019050919050565b6132658161304f565b82525050565b600081519050919050565b600082825260208201905092915050565b60005b838110156132a557808201518184015260208101905061328a565b60008484015250505050565b6000601f19601f8301169050919050565b60006132cd8261326b565b6132d78185613276565b93506132e7818560208601613287565b6132f0816132b1565b840191505092915050565b600061ffff82169050919050565b613312816132fb565b82525050565b600063ffffffff82169050919050565b61333181613318565b82525050565b600081519050919050565b600082825260208201905092915050565b6000819050602082019050919050565b61336c816130d2565b82525050565b600061337e8383613363565b60208301905092915050565b6000602082019050919050565b60006133a282613337565b6133ac8185613342565b93506133b783613353565b8060005b838110156133e85781516133cf8882613372565b97506133da8361338a565b9250506001810190506133bb565b5085935050505092915050565b600081519050919050565b600082825260208201905092915050565b6000819050602082019050919050565b600061342d838361325c565b60208301905092915050565b6000602082019050919050565b6000613451826133f5565b61345b8185613400565b935061346683613411565b8060005b8381101561349757815161347e8882613421565b975061348983613439565b92505060018101905061346a565b5085935050505092915050565b6000610160830160008301516134bd600086018261325c565b50602083015184820360208601526134d582826132c2565b915050604083015184820360408601526134ef82826132c2565b9150506060830151848203606086015261350982826132c2565b915050608083015161351e6080860182613309565b5060a083015161353160a0860182613328565b5060c083015184820360c08601526135498282613397565b91505060e083015184820360e08601526135638282613446565b91505061010083015184820361010086015261357f8282613446565b91505061012083015161359661012086018261325c565b506101408301518482036101408601526135b082826132c2565b9150508091505092915050565b60006135c983836134a4565b905092915050565b6000602082019050919050565b60006135e982613230565b6135f3818561323b565b9350836020820285016136058561324c565b8060005b85811015613641578484038952815161362285826135bd565b945061362d836135d1565b925060208a01995050600181019050613609565b50829750879550505050505092915050565b6000602082019050818103600083015261366d81846135de565b905092915050565b61367e8161304f565b82525050565b60006020820190506136996000830184613675565b92915050565b600080604083850312156136b6576136b5613045565b5b60006136c485828601613070565b92505060206136d585828601613070565b9150509250929050565b6136e8816131cd565b81146136f357600080fd5b50565b600081359050613705816136df565b92915050565b6000806040838503121561372257613721613045565b5b600061373085828601613125565b9250506020613741858286016136f6565b9150509250929050565b600080fd5b600080fd5b7f4e487b7100000000000000000000000000000000000000000000000000000000600052604160045260246000fd5b61378d826132b1565b810181811067ffffffffffffffff821117156137ac576137ab613755565b5b80604052505050565b60006137bf61303b565b90506137cb8282613784565b919050565b600067ffffffffffffffff8211156137eb576137ea613755565b5b6137f4826132b1565b9050602081019050919050565b82818337600083830152505050565b600061382361381e846137d0565b6137b5565b90508281526020810184848401111561383f5761383e613750565b5b61384a848285613801565b509392505050565b600082601f8301126138675761386661374b565b5b8135613877848260208601613810565b91505092915050565b6000806000806080858703121561389a57613899613045565b5b60006138a887828801613125565b94505060206138b987828801613125565b93505060406138ca87828801613070565b925050606085013567ffffffffffffffff8111156138eb576138ea61304a565b5b6138f787828801613852565b91505092959194509250565b600067ffffffffffffffff82111561391e5761391d613755565b5b613927826132b1565b9050602081019050919050565b600061394761394284613903565b6137b5565b90508281526020810184848401111561396357613962613750565b5b61396e848285613801565b509392505050565b600082601f83011261398b5761398a61374b565b5b813561399b848260208601613934565b91505092915050565b6139ad816132fb565b81146139b857600080fd5b50565b6000813590506139ca816139a4565b92915050565b6139d981613318565b81146139e457600080fd5b50565b6000813590506139f6816139d0565b92915050565b60008060008060008060008060006101208a8c031215613a1f57613a1e613045565b5b60008a013567ffffffffffffffff811115613a3d57613a3c61304a565b5b613a498c828d01613976565b99505060208a013567ffffffffffffffff811115613a6a57613a6961304a565b5b613a768c828d01613976565b98505060408a013567ffffffffffffffff811115613a9757613a9661304a565b5b613aa38c828d01613976565b97505060608a013567ffffffffffffffff811115613ac457613ac361304a565b5b613ad08c828d01613976565b9650506080613ae18c828d01613070565b95505060a0613af28c828d01613070565b94505060c0613b038c828d016139bb565b93505060e0613b148c828d016139e7565b9250506101008a013567ffffffffffffffff811115613b3657613b3561304a565b5b613b428c828d01613976565b9150509295985092959850929598565b600060208284031215613b6857613b67613045565b5b600082013567ffffffffffffffff811115613b8657613b8561304a565b5b613b9284828501613976565b91505092915050565b60008060408385031215613bb257613bb1613045565b5b6000613bc085828601613125565b9250506020613bd185828601613125565b9150509250929050565b600082825260208201905092915050565b6000613bf78261326b565b613c018185613bdb565b9350613c11818560208601613287565b613c1a816132b1565b840191505092915050565b613c2e816132fb565b82525050565b613c3d81613318565b82525050565b600061010082019050613c59600083018b613675565b8181036020830152613c6b818a613bec565b90508181036040830152613c7f8189613bec565b90508181036060830152613c938188613bec565b9050613ca26080830187613c25565b613caf60a0830186613c34565b613cbc60c0830185613675565b81810360e0830152613cce8184613bec565b90509998505050505050505050565b7f596f7520646f206e6f74206f776e207468697320746f6b656e00000000000000600082015250565b6000613d13601983613bdb565b9150613d1e82613cdd565b602082019050919050565b60006020820190508181036000830152613d4281613d06565b9050919050565b7f596f7520646f206e6f74206f776e20746861742070686f6e6549640000000000600082015250565b6000613d7f601b83613bdb565b9150613d8a82613d49565b602082019050919050565b60006020820190508181036000830152613dae81613d72565b9050919050565b7f4e487b7100000000000000000000000000000000000000000000000000000000600052601160045260246000fd5b6000613def8261304f565b915060008203613e0257613e01613db5565b5b600182039050919050565b7f4e487b7100000000000000000000000000000000000000000000000000000000600052603260045260246000fd5b7f4e6f207061796d656e74206e6f20746f6b656e00000000000000000000000000600082015250565b6000613e72601383613bdb565b9150613e7d82613e3c565b602082019050919050565b60006020820190508181036000830152613ea181613e65565b9050919050565b6000613eb38261304f565b9150613ebe8361304f565b9250828203905081811115613ed657613ed5613db5565b5b92915050565b7f4e487b7100000000000000000000000000000000000000000000000000000000600052602260045260246000fd5b60006002820490506001821680613f2357607f821691505b602082108103613f3657613f35613edc565b5b50919050565b6000613f478261304f565b91507fffffffffffffffffffffffffffffffffffffffffffffffffffffffffffffffff8203613f7957613f78613db5565b5b600182019050919050565b600081905092915050565b6000613f9a8261326b565b613fa48185613f84565b9350613fb4818560208601613287565b80840191505092915050565b6000613fcc8284613f8f565b915081905092915050565b7f494d454920616c72656164792065786973747300000000000000000000000000600082015250565b600061400d601383613bdb565b915061401882613fd7565b602082019050919050565b6000602082019050818103600083015261403c81614000565b9050919050565b60008190508160005260206000209050919050565b60006020601f8301049050919050565b600082821b905092915050565b6000600883026140a57fffffffffffffffffffffffffffffffffffffffffffffffffffffffffffffffff82614068565b6140af8683614068565b95508019841693508086168417925050509392505050565b6000819050919050565b60006140ec6140e76140e28461304f565b6140c7565b61304f565b9050919050565b6000819050919050565b614106836140d1565b61411a614112826140f3565b848454614075565b825550505050565b600090565b61412f614122565b61413a8184846140fd565b505050565b5b8181101561415e57614153600082614127565b600181019050614140565b5050565b601f8211156141a35761417481614043565b61417d84614058565b8101602085101561418c578190505b6141a061419885614058565b83018261413f565b50505b505050565b600082821c905092915050565b60006141c6600019846008026141a8565b1980831691505092915050565b60006141df83836141b5565b9150826002028217905092915050565b6141f88261326b565b67ffffffffffffffff81111561421157614210613755565b5b61421b8254613f0b565b614226828285614162565b600060209050601f8311600181146142595760008415614247578287015190505b61425185826141d3565b8655506142b9565b601f19841661426786614043565b60005b8281101561428f5784890151825560018201915060208501945060208101905061426a565b868310156142ac57848901516142a8601f8916826141b5565b8355505b6001600288020188555050505b505050505050565b7f5472616e7366657220697320746f20616464726573732030206f7220746f207460008201527f6865206f776e6572000000000000000000000000000000000000000000000000602082015250565b600061431d602883613bdb565b9150614328826142c1565b604082019050919050565b6000602082019050818103600083015261434c81614310565b9050919050565b7f46726f6d206973206e6f7420746865206f776e65720000000000000000000000600082015250565b6000614389601583613bdb565b915061439482614353565b602082019050919050565b600060208201905081810360008301526143b88161437c565b9050919050565b7f5468652073656e646572206973206e6f7420746865206f776e65722c20616e2060008201527f617070726f766564206163636f756e742c20616e20617070726f766564206f7060208201527f657261746f7220666f7220616c6c20746f6b656e73206f722074686520746f6b60408201527f656e206973206f6e2073616c6500000000000000000000000000000000000000606082015250565b6000614467606d83613bdb565b9150614472826143bf565b608082019050919050565b600060208201905081810360008301526144968161445a565b905091905056fea2646970667358221220d3a50a6cda76c9f0e52e50bece87bb132248afc4548df5adcb78229c77702e3a64736f6c63430008130033",
  "immutableReferences": {},
  "source": "// SPDX-License-Identifier: MIT\r\npragma solidity >=0.4.22 <0.9.0;\r\n\r\nimport \"./IERC721.sol\";\r\nimport \"./SecondHandChain.sol\";\r\n\r\ncontract ERC721 is IERC721, SecondHandChain {\r\n\r\n    function balanceOf(address _owner) external view returns (uint256){\r\n        return phonesPerOwner[_owner];\r\n    }\r\n\r\n    function ownerOf(uint256 _tokenId) external view returns (address){\r\n        return phoneOwner[_tokenId];\r\n    }\r\n\r\n    function _validationPreTransfer(address _from, address _to, uint _phoneId) private view {        \r\n        require(_to != address(0) && _to != _from, \"Transfer is to address 0 or to the owner\" );\r\n        require(_from == phoneOwner[_phoneId] , \"From is not the owner\");\r\n        require(msg.sender == phoneOwner[_phoneId]\r\n            || msg.sender == phoneApproval[_phoneId]\r\n            || msg.sender == approvalForAll[msg.sender]\r\n            || ( isPhoneOnSale[_phoneId] && phoneApproval[_phoneId] == address(this))\r\n            , \"The sender is not the owner, an approved account, an approved operator for all tokens or the token is on sale\"\r\n        );\r\n    }\r\n\r\n\r\n    function _transfer(address _from, address _to, uint _phoneId) private {\r\n        phonesPerOwner[_from]--;\r\n        phonesPerOwner[_to]++;\r\n        phoneOwner[_phoneId]=_to;\r\n        phones[_phoneId].owners.push(_to);\r\n        phones[_phoneId].saleTime.push(block.timestamp);\r\n        phones[_phoneId].salePrice.push(phones[_phoneId].price);\r\n        isPhoneOnSale[_phoneId] = false;\r\n        numberOfPhonesOnSale--;\r\n        phoneApproval[_phoneId] = address(0);\r\n    }\r\n\r\n    function safeTransferFrom(address _from, address _to, uint256 _tokenId, bytes memory data) external payable{\r\n        _validationPreTransfer(_from, _to, _tokenId);\r\n\r\n        require(msg.value >= phones[_tokenId].price, \"No payment no token\");\r\n\r\n        if (msg.value > phones[_tokenId].price){\r\n            payable(msg.sender).transfer(msg.value - phones[_tokenId].price);\r\n        }\r\n\r\n        payable(phoneOwner[_tokenId]).transfer(phones[_tokenId].price);\r\n    \r\n        _transfer(_from, _to, _tokenId);\r\n        emit Transfer(_from, _to, _tokenId);\r\n    }\r\n\r\n    function safeTransferFrom(address _from, address _to, uint256 _tokenId) external payable{\r\n        _validationPreTransfer(_from, _to, _tokenId);\r\n\r\n        require(msg.value >= phones[_tokenId].price, \"No payment no token\");\r\n\r\n        if (msg.value > phones[_tokenId].price){\r\n            payable(msg.sender).transfer(msg.value - phones[_tokenId].price);\r\n        }\r\n\r\n        payable(phoneOwner[_tokenId]).transfer(phones[_tokenId].price);\r\n\r\n        _transfer(_from, _to, _tokenId);\r\n        emit Transfer(_from, _to, _tokenId);\r\n    }\r\n\r\n    function transferFrom(address _from, address _to, uint256 _tokenId) external payable{\r\n        _validationPreTransfer(_from, _to, _tokenId);\r\n        require(msg.value >= phones[_tokenId].price, \"No payment no token\");\r\n        \r\n        if (msg.value > phones[_tokenId].price){\r\n            payable(msg.sender).transfer(msg.value - phones[_tokenId].price);\r\n        }\r\n\r\n        payable(phoneOwner[_tokenId]).transfer(phones[_tokenId].price);\r\n        _transfer(_from, _to, _tokenId);\r\n        emit Transfer(_from, _to, _tokenId);\r\n    }\r\n\r\n    function approve(address _approved, uint256 _tokenId) external payable {\r\n        require(msg.sender == phoneOwner[_tokenId], \"You do not own this token\");\r\n        phoneApproval[_tokenId]=_approved;\r\n        emit Approval(phoneOwner[_tokenId], _approved, _tokenId);\r\n    }\r\n\r\n    function setApprovalForAll(address _operator, bool _approved) external {\r\n        if(_approved){\r\n            approvalForAll[msg.sender]=_operator;\r\n        }else{\r\n            approvalForAll[msg.sender]=address(0);\r\n        }\r\n\r\n        emit ApprovalForAll(msg.sender, _operator, _approved);\r\n    }\r\n\r\n    function getApproved(uint256 _tokenId) external view returns (address) {\r\n        return phoneApproval[_tokenId];\r\n    }\r\n\r\n    function isApprovedForAll(address _owner, address _operator) external view returns (bool) {\r\n        if (approvalForAll[_owner]==_operator){\r\n            return true;\r\n        }\r\n        return false;\r\n    }\r\n\r\n}",
  "sourcePath": "D:\\TFG\\ubu-secondhandchain\\truffle\\contracts\\ERC721.sol",
  "compiler": {
    "name": "solc",
    "version": "0.8.19+commit.7dd6d404.Emscripten.clang"
  },
  "schemaVersion": "3.4.13",
  "updatedAt": "2023-06-18T18:02:50.092Z",
  "networkType": "ethereum",
  "devdoc": {
    "events": {
      "Approval(address,address,uint256)": {
        "details": "This emits when the approved address for an NFT is changed or  reaffirmed. The zero address indicates there is no approved address.  When a Transfer event emits, this also indicates that the approved  address for that NFT (if any) is reset to none."
      },
      "ApprovalForAll(address,address,bool)": {
        "details": "This emits when an operator is enabled or disabled for an owner.  The operator can manage all NFTs of the owner."
      },
      "Transfer(address,address,uint256)": {
        "details": "This emits when ownership of any NFT changes by any mechanism.  This event emits when NFTs are created (`from` == 0) and destroyed  (`to` == 0). Exception: during contract creation, any number of NFTs  may be created and assigned without emitting Transfer. At the time of  any transfer, the approved address for that NFT (if any) is reset to none."
      }
    },
    "kind": "dev",
    "methods": {
      "approve(address,uint256)": {
        "details": "The zero address indicates there is no approved address.  Throws unless `msg.sender` is the current NFT owner, or an authorized  operator of the current owner.",
        "params": {
          "_approved": "The new approved NFT controller",
          "_tokenId": "The NFT to approve"
        }
      },
      "balanceOf(address)": {
        "details": "NFTs assigned to the zero address are considered invalid, and this  function throws for queries about the zero address.",
        "params": {
          "_owner": "An address for whom to query the balance"
        },
        "returns": {
          "_0": "The number of NFTs owned by `_owner`, possibly zero"
        }
      },
      "getApproved(uint256)": {
        "details": "Throws if `_tokenId` is not a valid NFT.",
        "params": {
          "_tokenId": "The NFT to find the approved address for"
        },
        "returns": {
          "_0": "The approved address for this NFT, or the zero address if there is none"
        }
      },
      "isApprovedForAll(address,address)": {
        "params": {
          "_operator": "The address that acts on behalf of the owner",
          "_owner": "The address that owns the NFTs"
        },
        "returns": {
          "_0": "True if `_operator` is an approved operator for `_owner`, false otherwise"
        }
      },
      "ownerOf(uint256)": {
        "details": "NFTs assigned to zero address are considered invalid, and queries  about them do throw.",
        "params": {
          "_tokenId": "The identifier for an NFT"
        },
        "returns": {
          "_0": "The address of the owner of the NFT"
        }
      },
      "safeTransferFrom(address,address,uint256)": {
        "details": "This works identically to the other function with an extra data parameter,  except this function just sets data to \"\".",
        "params": {
          "_from": "The current owner of the NFT",
          "_to": "The new owner",
          "_tokenId": "The NFT to transfer"
        }
      },
      "safeTransferFrom(address,address,uint256,bytes)": {
        "details": "Throws unless `msg.sender` is the current owner, an authorized  operator, or the approved address for this NFT. Throws if `_from` is  not the current owner. Throws if `_to` is the zero address. Throws if  `_tokenId` is not a valid NFT. When transfer is complete, this function  checks if `_to` is a smart contract (code size > 0). If so, it calls  `onERC721Received` on `_to` and throws if the return value is not  `bytes4(keccak256(\"onERC721Received(address,address,uint256,bytes)\"))`.",
        "params": {
          "_from": "The current owner of the NFT",
          "_to": "The new owner",
          "_tokenId": "The NFT to transfer",
          "data": "Additional data with no specified format, sent in call to `_to`"
        }
      },
      "setApprovalForAll(address,bool)": {
        "details": "Emits the ApprovalForAll event. The contract MUST allow  multiple operators per owner.",
        "params": {
          "_approved": "True if the operator is approved, false to revoke approval",
          "_operator": "Address to add to the set of authorized operators"
        }
      },
      "transferFrom(address,address,uint256)": {
        "details": "Throws unless `msg.sender` is the current owner, an authorized  operator, or the approved address for this NFT. Throws if `_from` is  not the current owner. Throws if `_to` is the zero address. Throws if  `_tokenId` is not a valid NFT.",
        "params": {
          "_from": "The current owner of the NFT",
          "_to": "The new owner",
          "_tokenId": "The NFT to transfer"
        }
      }
    },
    "version": 1
  },
  "userdoc": {
    "kind": "user",
    "methods": {
      "approve(address,uint256)": {
        "notice": "Change or reaffirm the approved address for an NFT"
      },
      "balanceOf(address)": {
        "notice": "Count all NFTs assigned to an owner"
      },
      "getApproved(uint256)": {
        "notice": "Get the approved address for a single NFT"
      },
      "isApprovedForAll(address,address)": {
        "notice": "Query if an address is an authorized operator for another address"
      },
      "ownerOf(uint256)": {
        "notice": "Find the owner of an NFT"
      },
      "safeTransferFrom(address,address,uint256)": {
        "notice": "Transfers the ownership of an NFT from one address to another address"
      },
      "safeTransferFrom(address,address,uint256,bytes)": {
        "notice": "Transfers the ownership of an NFT from one address to another address"
      },
      "setApprovalForAll(address,bool)": {
        "notice": "Enable or disable approval for a third party (\"operator\") to manage  all of `msg.sender`'s assets"
      },
      "transferFrom(address,address,uint256)": {
        "notice": "Transfer ownership of an NFT -- THE CALLER IS RESPONSIBLE  TO CONFIRM THAT `_to` IS CAPABLE OF RECEIVING NFTS OR ELSE  THEY MAY BE PERMANENTLY LOST"
      }
    },
    "version": 1
  }
}