{
  "contractName": "ERC721",
  "abi": [
    {
      "anonymous": false,
      "inputs": [
        {
          "indexed": true,
          "internalType": "address",
          "name": "_owner",
          "type": "address"
        },
        {
          "indexed": true,
          "internalType": "address",
          "name": "_approved",
          "type": "address"
        },
        {
          "indexed": true,
          "internalType": "uint256",
          "name": "_tokenId",
          "type": "uint256"
        }
      ],
      "name": "Approval",
      "type": "event"
    },
    {
      "anonymous": false,
      "inputs": [
        {
          "indexed": true,
          "internalType": "address",
          "name": "_owner",
          "type": "address"
        },
        {
          "indexed": true,
          "internalType": "address",
          "name": "_operator",
          "type": "address"
        },
        {
          "indexed": false,
          "internalType": "bool",
          "name": "_approved",
          "type": "bool"
        }
      ],
      "name": "ApprovalForAll",
      "type": "event"
    },
    {
      "anonymous": false,
      "inputs": [
        {
          "indexed": true,
          "internalType": "address",
          "name": "_from",
          "type": "address"
        },
        {
          "indexed": true,
          "internalType": "address",
          "name": "_to",
          "type": "address"
        },
        {
          "indexed": true,
          "internalType": "uint256",
          "name": "_tokenId",
          "type": "uint256"
        }
      ],
      "name": "Transfer",
      "type": "event"
    },
    {
      "inputs": [
        {
          "internalType": "string",
          "name": "_model",
          "type": "string"
        },
        {
          "internalType": "string",
          "name": "_imei",
          "type": "string"
        },
        {
          "internalType": "string",
          "name": "_brand",
          "type": "string"
        },
        {
          "internalType": "string",
          "name": "_colour",
          "type": "string"
        },
        {
          "internalType": "uint256",
          "name": "_price",
          "type": "uint256"
        },
        {
          "internalType": "uint256",
          "name": "_salePrice",
          "type": "uint256"
        },
        {
          "internalType": "uint16",
          "name": "_ram",
          "type": "uint16"
        },
        {
          "internalType": "uint32",
          "name": "_mem",
          "type": "uint32"
        }
      ],
      "name": "createPhone",
      "outputs": [],
      "stateMutability": "nonpayable",
      "type": "function"
    },
    {
      "inputs": [
        {
          "internalType": "address",
          "name": "_address",
          "type": "address"
        }
      ],
      "name": "getAllPhonesInAddress",
      "outputs": [
        {
          "components": [
            {
              "internalType": "uint256",
              "name": "id",
              "type": "uint256"
            },
            {
              "internalType": "string",
              "name": "model",
              "type": "string"
            },
            {
              "internalType": "string",
              "name": "brand",
              "type": "string"
            },
            {
              "internalType": "string",
              "name": "colour",
              "type": "string"
            },
            {
              "internalType": "uint16",
              "name": "ram",
              "type": "uint16"
            },
            {
              "internalType": "uint32",
              "name": "mem",
              "type": "uint32"
            },
            {
              "internalType": "address[]",
              "name": "owners",
              "type": "address[]"
            },
            {
              "internalType": "uint256[]",
              "name": "saleTime",
              "type": "uint256[]"
            },
            {
              "internalType": "uint256[]",
              "name": "salePrice",
              "type": "uint256[]"
            },
            {
              "internalType": "uint256",
              "name": "price",
              "type": "uint256"
            }
          ],
          "internalType": "struct SecondHandChain.Phone[]",
          "name": "",
          "type": "tuple[]"
        }
      ],
      "stateMutability": "view",
      "type": "function",
      "constant": true
    },
    {
      "inputs": [],
      "name": "getAllPhonesOnSale",
      "outputs": [
        {
          "components": [
            {
              "internalType": "uint256",
              "name": "id",
              "type": "uint256"
            },
            {
              "internalType": "string",
              "name": "model",
              "type": "string"
            },
            {
              "internalType": "string",
              "name": "brand",
              "type": "string"
            },
            {
              "internalType": "string",
              "name": "colour",
              "type": "string"
            },
            {
              "internalType": "uint16",
              "name": "ram",
              "type": "uint16"
            },
            {
              "internalType": "uint32",
              "name": "mem",
              "type": "uint32"
            },
            {
              "internalType": "address[]",
              "name": "owners",
              "type": "address[]"
            },
            {
              "internalType": "uint256[]",
              "name": "saleTime",
              "type": "uint256[]"
            },
            {
              "internalType": "uint256[]",
              "name": "salePrice",
              "type": "uint256[]"
            },
            {
              "internalType": "uint256",
              "name": "price",
              "type": "uint256"
            }
          ],
          "internalType": "struct SecondHandChain.Phone[]",
          "name": "",
          "type": "tuple[]"
        }
      ],
      "stateMutability": "view",
      "type": "function",
      "constant": true
    },
    {
      "inputs": [
        {
          "internalType": "uint256",
          "name": "_id",
          "type": "uint256"
        }
      ],
      "name": "getIsPhoneOnSale",
      "outputs": [
        {
          "internalType": "bool",
          "name": "",
          "type": "bool"
        }
      ],
      "stateMutability": "view",
      "type": "function",
      "constant": true
    },
    {
      "inputs": [
        {
          "internalType": "uint256",
          "name": "_id",
          "type": "uint256"
        }
      ],
      "name": "getPhoneOwner",
      "outputs": [
        {
          "internalType": "address",
          "name": "",
          "type": "address"
        }
      ],
      "stateMutability": "view",
      "type": "function",
      "constant": true
    },
    {
      "inputs": [],
      "name": "getPhones",
      "outputs": [
        {
          "components": [
            {
              "internalType": "uint256",
              "name": "id",
              "type": "uint256"
            },
            {
              "internalType": "string",
              "name": "model",
              "type": "string"
            },
            {
              "internalType": "string",
              "name": "brand",
              "type": "string"
            },
            {
              "internalType": "string",
              "name": "colour",
              "type": "string"
            },
            {
              "internalType": "uint16",
              "name": "ram",
              "type": "uint16"
            },
            {
              "internalType": "uint32",
              "name": "mem",
              "type": "uint32"
            },
            {
              "internalType": "address[]",
              "name": "owners",
              "type": "address[]"
            },
            {
              "internalType": "uint256[]",
              "name": "saleTime",
              "type": "uint256[]"
            },
            {
              "internalType": "uint256[]",
              "name": "salePrice",
              "type": "uint256[]"
            },
            {
              "internalType": "uint256",
              "name": "price",
              "type": "uint256"
            }
          ],
          "internalType": "struct SecondHandChain.Phone[]",
          "name": "",
          "type": "tuple[]"
        }
      ],
      "stateMutability": "view",
      "type": "function",
      "constant": true
    },
    {
      "inputs": [
        {
          "internalType": "uint256",
          "name": "",
          "type": "uint256"
        }
      ],
      "name": "phones",
      "outputs": [
        {
          "internalType": "uint256",
          "name": "id",
          "type": "uint256"
        },
        {
          "internalType": "string",
          "name": "model",
          "type": "string"
        },
        {
          "internalType": "string",
          "name": "brand",
          "type": "string"
        },
        {
          "internalType": "string",
          "name": "colour",
          "type": "string"
        },
        {
          "internalType": "uint16",
          "name": "ram",
          "type": "uint16"
        },
        {
          "internalType": "uint32",
          "name": "mem",
          "type": "uint32"
        },
        {
          "internalType": "uint256",
          "name": "price",
          "type": "uint256"
        }
      ],
      "stateMutability": "view",
      "type": "function",
      "constant": true
    },
    {
      "inputs": [
        {
          "internalType": "uint256",
          "name": "_price",
          "type": "uint256"
        },
        {
          "internalType": "uint256",
          "name": "_phoneId",
          "type": "uint256"
        }
      ],
      "name": "putPhoneOnSale",
      "outputs": [],
      "stateMutability": "nonpayable",
      "type": "function"
    },
    {
      "inputs": [
        {
          "internalType": "uint256",
          "name": "_phoneId",
          "type": "uint256"
        }
      ],
      "name": "removePhoneFromSale",
      "outputs": [],
      "stateMutability": "nonpayable",
      "type": "function"
    },
    {
      "inputs": [
        {
          "internalType": "address",
          "name": "_owner",
          "type": "address"
        }
      ],
      "name": "balanceOf",
      "outputs": [
        {
          "internalType": "uint256",
          "name": "",
          "type": "uint256"
        }
      ],
      "stateMutability": "view",
      "type": "function",
      "constant": true
    },
    {
      "inputs": [
        {
          "internalType": "uint256",
          "name": "_tokenId",
          "type": "uint256"
        }
      ],
      "name": "ownerOf",
      "outputs": [
        {
          "internalType": "address",
          "name": "",
          "type": "address"
        }
      ],
      "stateMutability": "view",
      "type": "function",
      "constant": true
    },
    {
      "inputs": [
        {
          "internalType": "address",
          "name": "_from",
          "type": "address"
        },
        {
          "internalType": "address",
          "name": "_to",
          "type": "address"
        },
        {
          "internalType": "uint256",
          "name": "_tokenId",
          "type": "uint256"
        }
      ],
      "name": "safeTransferFrom",
      "outputs": [],
      "stateMutability": "payable",
      "type": "function",
      "payable": true
    },
    {
      "inputs": [
        {
          "internalType": "address",
          "name": "_from",
          "type": "address"
        },
        {
          "internalType": "address",
          "name": "_to",
          "type": "address"
        },
        {
          "internalType": "uint256",
          "name": "_tokenId",
          "type": "uint256"
        },
        {
          "internalType": "bytes",
          "name": "data",
          "type": "bytes"
        }
      ],
      "name": "safeTransferFrom",
      "outputs": [],
      "stateMutability": "payable",
      "type": "function",
      "payable": true
    },
    {
      "inputs": [
        {
          "internalType": "address",
          "name": "_from",
          "type": "address"
        },
        {
          "internalType": "address",
          "name": "_to",
          "type": "address"
        },
        {
          "internalType": "uint256",
          "name": "_tokenId",
          "type": "uint256"
        }
      ],
      "name": "transferFrom",
      "outputs": [],
      "stateMutability": "payable",
      "type": "function",
      "payable": true
    },
    {
      "inputs": [
        {
          "internalType": "address",
          "name": "_approved",
          "type": "address"
        },
        {
          "internalType": "uint256",
          "name": "_tokenId",
          "type": "uint256"
        }
      ],
      "name": "approve",
      "outputs": [],
      "stateMutability": "payable",
      "type": "function",
      "payable": true
    },
    {
      "inputs": [
        {
          "internalType": "address",
          "name": "_operator",
          "type": "address"
        },
        {
          "internalType": "bool",
          "name": "_approved",
          "type": "bool"
        }
      ],
      "name": "setApprovalForAll",
      "outputs": [],
      "stateMutability": "nonpayable",
      "type": "function"
    },
    {
      "inputs": [
        {
          "internalType": "uint256",
          "name": "_tokenId",
          "type": "uint256"
        }
      ],
      "name": "getApproved",
      "outputs": [
        {
          "internalType": "address",
          "name": "",
          "type": "address"
        }
      ],
      "stateMutability": "view",
      "type": "function",
      "constant": true
    },
    {
      "inputs": [
        {
          "internalType": "address",
          "name": "_owner",
          "type": "address"
        },
        {
          "internalType": "address",
          "name": "_operator",
          "type": "address"
        }
      ],
      "name": "isApprovedForAll",
      "outputs": [
        {
          "internalType": "bool",
          "name": "",
          "type": "bool"
        }
      ],
      "stateMutability": "view",
      "type": "function",
      "constant": true
    }
  ],
  "bytecode": "0x608060405234801561001057600080fd5b5061413d806100206000396000f3fe6080604052600436106101095760003560e01c806370a0823111610095578063c199441611610064578063c199441614610355578063d4dbc41c1461037e578063e985e9c5146103a9578063f09e19f2146103e6578063f37306531461042357610109565b806370a08231146102aa57806374c97cd5146102e7578063a22cb46514610310578063b88d4fde1461033957610109565b80633664e2de116100dc5780633664e2de146101ac578063418696fa146101e957806342842e0e146102265780635b884f6f146102425780636352211e1461026d57610109565b8063081812fc1461010e578063095ea7b31461014b57806323b104fa1461016757806323b872dd14610190575b600080fd5b34801561011a57600080fd5b5061013560048036038101906101309190612d9a565b610466565b6040516101429190612e08565b60405180910390f35b61016560048036038101906101609190612e4f565b6104a3565b005b34801561017357600080fd5b5061018e60048036038101906101899190612d9a565b610628565b005b6101aa60048036038101906101a59190612e8f565b610763565b005b3480156101b857600080fd5b506101d360048036038101906101ce9190612d9a565b610985565b6040516101e09190612efd565b60405180910390f35b3480156101f557600080fd5b50610210600480360381019061020b9190612f18565b6109af565b60405161021d919061334c565b60405180910390f35b610240600480360381019061023b9190612e8f565b610e86565b005b34801561024e57600080fd5b506102576110a8565b604051610264919061334c565b60405180910390f35b34801561027957600080fd5b50610294600480360381019061028f9190612d9a565b611500565b6040516102a19190612e08565b60405180910390f35b3480156102b657600080fd5b506102d160048036038101906102cc9190612f18565b61153d565b6040516102de919061337d565b60405180910390f35b3480156102f357600080fd5b5061030e60048036038101906103099190613398565b611586565b005b34801561031c57600080fd5b5061033760048036038101906103329190613404565b6116eb565b005b610353600480360381019061034e9190613579565b61185d565b005b34801561036157600080fd5b5061037c600480360381019061037791906136f5565b611a80565b005b34801561038a57600080fd5b50610393611f0a565b6040516103a0919061334c565b60405180910390f35b3480156103b557600080fd5b506103d060048036038101906103cb919061381b565b6122b8565b6040516103dd9190612efd565b60405180910390f35b3480156103f257600080fd5b5061040d60048036038101906104089190612d9a565b612360565b60405161041a9190612e08565b60405180910390f35b34801561042f57600080fd5b5061044a60048036038101906104459190612d9a565b61239d565b60405161045d97969594939291906138c3565b60405180910390f35b60006007600083815260200190815260200160002060009054906101000a900473ffffffffffffffffffffffffffffffffffffffff169050919050565b6002600082815260200190815260200160002060009054906101000a900473ffffffffffffffffffffffffffffffffffffffff1673ffffffffffffffffffffffffffffffffffffffff163373ffffffffffffffffffffffffffffffffffffffff1614610544576040517f08c379a000000000000000000000000000000000000000000000000000000000815260040161053b90613993565b60405180910390fd5b816007600083815260200190815260200160002060006101000a81548173ffffffffffffffffffffffffffffffffffffffff021916908373ffffffffffffffffffffffffffffffffffffffff160217905550808273ffffffffffffffffffffffffffffffffffffffff166002600084815260200190815260200160002060009054906101000a900473ffffffffffffffffffffffffffffffffffffffff1673ffffffffffffffffffffffffffffffffffffffff167f8c5be1e5ebec7d5bd14f71427d1e84f3dd0314c0f7b2291e5b200ac8c7c3b92560405160405180910390a45050565b3373ffffffffffffffffffffffffffffffffffffffff166002600083815260200190815260200160002060009054906101000a900473ffffffffffffffffffffffffffffffffffffffff1673ffffffffffffffffffffffffffffffffffffffff16146106c9576040517f08c379a00000000000000000000000000000000000000000000000000000000081526004016106c0906139ff565b60405180910390fd5b60006006600083815260200190815260200160002060006101000a81548160ff02191690831515021790555060006007600083815260200190815260200160002060006101000a81548173ffffffffffffffffffffffffffffffffffffffff021916908373ffffffffffffffffffffffffffffffffffffffff1602179055506001600081548092919061075b90613a4e565b919050555050565b61076e8383836125a5565b6000818154811061078257610781613a77565b5b9060005260206000209060090201600801543410156107d6576040517f08c379a00000000000000000000000000000000000000000000000000000000081526004016107cd90613af2565b60405180910390fd5b600081815481106107ea576107e9613a77565b5b90600052602060002090600902016008015434111561087b573373ffffffffffffffffffffffffffffffffffffffff166108fc6000838154811061083157610830613a77565b5b9060005260206000209060090201600801543461084e9190613b12565b9081150290604051600060405180830381858888f19350505050158015610879573d6000803e3d6000fd5b505b6002600082815260200190815260200160002060009054906101000a900473ffffffffffffffffffffffffffffffffffffffff1673ffffffffffffffffffffffffffffffffffffffff166108fc600083815481106108dc576108db613a77565b5b9060005260206000209060090201600801549081150290604051600060405180830381858888f19350505050158015610919573d6000803e3d6000fd5b50610925838383612924565b808273ffffffffffffffffffffffffffffffffffffffff168473ffffffffffffffffffffffffffffffffffffffff167fddf252ad1be2c89b69c2b068fc378daa952ba7f163c4a11628f55a4df523b3ef60405160405180910390a4505050565b60006006600083815260200190815260200160002060009054906101000a900460ff169050919050565b60606000600360008473ffffffffffffffffffffffffffffffffffffffff1673ffffffffffffffffffffffffffffffffffffffff1681526020019081526020016000205467ffffffffffffffff811115610a0c57610a0b61344e565b5b604051908082528060200260200182016040528015610a4557816020015b610a32612bff565b815260200190600190039081610a2a5790505b5090506000805b600080549050811015610e7b578473ffffffffffffffffffffffffffffffffffffffff166002600083815260200190815260200160002060009054906101000a900473ffffffffffffffffffffffffffffffffffffffff1673ffffffffffffffffffffffffffffffffffffffff1603610e685760008181548110610ad357610ad2613a77565b5b90600052602060002090600902016040518061014001604052908160008201548152602001600182018054610b0790613b75565b80601f0160208091040260200160405190810160405280929190818152602001828054610b3390613b75565b8015610b805780601f10610b5557610100808354040283529160200191610b80565b820191906000526020600020905b815481529060010190602001808311610b6357829003601f168201915b50505050508152602001600282018054610b9990613b75565b80601f0160208091040260200160405190810160405280929190818152602001828054610bc590613b75565b8015610c125780601f10610be757610100808354040283529160200191610c12565b820191906000526020600020905b815481529060010190602001808311610bf557829003601f168201915b50505050508152602001600382018054610c2b90613b75565b80601f0160208091040260200160405190810160405280929190818152602001828054610c5790613b75565b8015610ca45780601f10610c7957610100808354040283529160200191610ca4565b820191906000526020600020905b815481529060010190602001808311610c8757829003601f168201915b505050505081526020016004820160009054906101000a900461ffff1661ffff1661ffff1681526020016004820160029054906101000a900463ffffffff1663ffffffff1663ffffffff16815260200160058201805480602002602001604051908101604052809291908181526020018280548015610d7857602002820191906000526020600020905b8160009054906101000a900473ffffffffffffffffffffffffffffffffffffffff1673ffffffffffffffffffffffffffffffffffffffff1681526020019060010190808311610d2e575b5050505050815260200160068201805480602002602001604051908101604052809291908181526020018280548015610dd057602002820191906000526020600020905b815481526020019060010190808311610dbc575b5050505050815260200160078201805480602002602001604051908101604052809291908181526020018280548015610e2857602002820191906000526020600020905b815481526020019060010190808311610e14575b50505050508152602001600882015481525050838381518110610e4e57610e4d613a77565b5b60200260200101819052508180610e6490613ba6565b9250505b8080610e7390613ba6565b915050610a4c565b508192505050919050565b610e918383836125a5565b60008181548110610ea557610ea4613a77565b5b906000526020600020906009020160080154341015610ef9576040517f08c379a0000000000000000000000000000000000000000000000000000000008152600401610ef090613af2565b60405180910390fd5b60008181548110610f0d57610f0c613a77565b5b906000526020600020906009020160080154341115610f9e573373ffffffffffffffffffffffffffffffffffffffff166108fc60008381548110610f5457610f53613a77565b5b90600052602060002090600902016008015434610f719190613b12565b9081150290604051600060405180830381858888f19350505050158015610f9c573d6000803e3d6000fd5b505b6002600082815260200190815260200160002060009054906101000a900473ffffffffffffffffffffffffffffffffffffffff1673ffffffffffffffffffffffffffffffffffffffff166108fc60008381548110610fff57610ffe613a77565b5b9060005260206000209060090201600801549081150290604051600060405180830381858888f1935050505015801561103c573d6000803e3d6000fd5b50611048838383612924565b808273ffffffffffffffffffffffffffffffffffffffff168473ffffffffffffffffffffffffffffffffffffffff167fddf252ad1be2c89b69c2b068fc378daa952ba7f163c4a11628f55a4df523b3ef60405160405180910390a4505050565b6060600060015467ffffffffffffffff8111156110c8576110c761344e565b5b60405190808252806020026020018201604052801561110157816020015b6110ee612bff565b8152602001906001900390816110e65790505b5090506000805b6000805490508110156114f7576006600082815260200190815260200160002060009054906101000a900460ff16156114e4576000818154811061114f5761114e613a77565b5b9060005260206000209060090201604051806101400160405290816000820154815260200160018201805461118390613b75565b80601f01602080910402602001604051908101604052809291908181526020018280546111af90613b75565b80156111fc5780601f106111d1576101008083540402835291602001916111fc565b820191906000526020600020905b8154815290600101906020018083116111df57829003601f168201915b5050505050815260200160028201805461121590613b75565b80601f016020809104026020016040519081016040528092919081815260200182805461124190613b75565b801561128e5780601f106112635761010080835404028352916020019161128e565b820191906000526020600020905b81548152906001019060200180831161127157829003601f168201915b505050505081526020016003820180546112a790613b75565b80601f01602080910402602001604051908101604052809291908181526020018280546112d390613b75565b80156113205780601f106112f557610100808354040283529160200191611320565b820191906000526020600020905b81548152906001019060200180831161130357829003601f168201915b505050505081526020016004820160009054906101000a900461ffff1661ffff1661ffff1681526020016004820160029054906101000a900463ffffffff1663ffffffff1663ffffffff168152602001600582018054806020026020016040519081016040528092919081815260200182805480156113f457602002820191906000526020600020905b8160009054906101000a900473ffffffffffffffffffffffffffffffffffffffff1673ffffffffffffffffffffffffffffffffffffffff16815260200190600101908083116113aa575b505050505081526020016006820180548060200260200160405190810160405280929190818152602001828054801561144c57602002820191906000526020600020905b815481526020019060010190808311611438575b50505050508152602001600782018054806020026020016040519081016040528092919081815260200182805480156114a457602002820191906000526020600020905b815481526020019060010190808311611490575b505050505081526020016008820154815250508383815181106114ca576114c9613a77565b5b602002602001018190525081806114e090613ba6565b9250505b80806114ef90613ba6565b915050611108565b50819250505090565b60006002600083815260200190815260200160002060009054906101000a900473ffffffffffffffffffffffffffffffffffffffff169050919050565b6000600360008373ffffffffffffffffffffffffffffffffffffffff1673ffffffffffffffffffffffffffffffffffffffff168152602001908152602001600020549050919050565b3373ffffffffffffffffffffffffffffffffffffffff166002600083815260200190815260200160002060009054906101000a900473ffffffffffffffffffffffffffffffffffffffff1673ffffffffffffffffffffffffffffffffffffffff1614611627576040517f08c379a000000000000000000000000000000000000000000000000000000000815260040161161e906139ff565b60405180910390fd5b60016006600083815260200190815260200160002060006101000a81548160ff021916908315150217905550816000828154811061166857611667613a77565b5b906000526020600020906009020160080181905550306007600083815260200190815260200160002060006101000a81548173ffffffffffffffffffffffffffffffffffffffff021916908373ffffffffffffffffffffffffffffffffffffffff160217905550600160008154809291906116e290613ba6565b91905055505050565b80156117745781600860003373ffffffffffffffffffffffffffffffffffffffff1673ffffffffffffffffffffffffffffffffffffffff16815260200190815260200160002060006101000a81548173ffffffffffffffffffffffffffffffffffffffff021916908373ffffffffffffffffffffffffffffffffffffffff1602179055506117f4565b6000600860003373ffffffffffffffffffffffffffffffffffffffff1673ffffffffffffffffffffffffffffffffffffffff16815260200190815260200160002060006101000a81548173ffffffffffffffffffffffffffffffffffffffff021916908373ffffffffffffffffffffffffffffffffffffffff1602179055505b8173ffffffffffffffffffffffffffffffffffffffff163373ffffffffffffffffffffffffffffffffffffffff167f17307eab39ab6107e8899845ad3d59bd9653f200f220920489ca2b5937696c31836040516118519190612efd565b60405180910390a35050565b6118688484846125a5565b6000828154811061187c5761187b613a77565b5b9060005260206000209060090201600801543410156118d0576040517f08c379a00000000000000000000000000000000000000000000000000000000081526004016118c790613af2565b60405180910390fd5b600082815481106118e4576118e3613a77565b5b906000526020600020906009020160080154341115611975573373ffffffffffffffffffffffffffffffffffffffff166108fc6000848154811061192b5761192a613a77565b5b906000526020600020906009020160080154346119489190613b12565b9081150290604051600060405180830381858888f19350505050158015611973573d6000803e3d6000fd5b505b6002600083815260200190815260200160002060009054906101000a900473ffffffffffffffffffffffffffffffffffffffff1673ffffffffffffffffffffffffffffffffffffffff166108fc600084815481106119d6576119d5613a77565b5b9060005260206000209060090201600801549081150290604051600060405180830381858888f19350505050158015611a13573d6000803e3d6000fd5b50611a1f848484612924565b818373ffffffffffffffffffffffffffffffffffffffff168573ffffffffffffffffffffffffffffffffffffffff167fddf252ad1be2c89b69c2b068fc378daa952ba7f163c4a11628f55a4df523b3ef60405160405180910390a450505050565b60001515600588604051611a949190613c2a565b908152602001604051809103902060009054906101000a900460ff16151514611af2576040517f08c379a0000000000000000000000000000000000000000000000000000000008152600401611ae990613c8d565b60405180910390fd5b611afa612bff565b88816020018190525086816040018190525085816060018190525082816080019061ffff16908161ffff1681525050818160a0019063ffffffff16908163ffffffff168152505083816101200181815250506000819080600181540180825580915050600190039060005260206000209060090201600090919091909150600082015181600001556020820151816001019081611b979190613e59565b506040820151816002019081611bad9190613e59565b506060820151816003019081611bc39190613e59565b5060808201518160040160006101000a81548161ffff021916908361ffff16021790555060a08201518160040160026101000a81548163ffffffff021916908363ffffffff16021790555060c0820151816005019080519060200190611c2a929190612c5c565b5060e0820151816006019080519060200190611c47929190612ce6565b50610100820151816007019080519060200190611c65929190612ce6565b5061012082015181600801555050600360003373ffffffffffffffffffffffffffffffffffffffff1673ffffffffffffffffffffffffffffffffffffffff1681526020019081526020016000206000815480929190611cc390613ba6565b919050555060006001600080549050611cdc9190613b12565b90508060008281548110611cf357611cf2613a77565b5b90600052602060002090600902016000018190555060008181548110611d1c57611d1b613a77565b5b9060005260206000209060090201600501339080600181540180825580915050600190039060005260206000200160009091909190916101000a81548173ffffffffffffffffffffffffffffffffffffffff021916908373ffffffffffffffffffffffffffffffffffffffff16021790555060008181548110611da257611da1613a77565b5b906000526020600020906009020160060142908060018154018082558091505060019003906000526020600020016000909190919091505560008181548110611dee57611ded613a77565b5b9060005260206000209060090201600701869080600181540180825580915050600190039060005260206000200160009091909190915055336002600083815260200190815260200160002060006101000a81548173ffffffffffffffffffffffffffffffffffffffff021916908373ffffffffffffffffffffffffffffffffffffffff1602179055508060048a604051611e899190613c2a565b90815260200160405180910390208190555060006006600083815260200190815260200160002060006101000a81548160ff021916908315150217905550600160058a604051611ed99190613c2a565b908152602001604051809103902060006101000a81548160ff02191690831515021790555050505050505050505050565b60606000805480602002602001604051908101604052809291908181526020016000905b828210156122af57838290600052602060002090600902016040518061014001604052908160008201548152602001600182018054611f6c90613b75565b80601f0160208091040260200160405190810160405280929190818152602001828054611f9890613b75565b8015611fe55780601f10611fba57610100808354040283529160200191611fe5565b820191906000526020600020905b815481529060010190602001808311611fc857829003601f168201915b50505050508152602001600282018054611ffe90613b75565b80601f016020809104026020016040519081016040528092919081815260200182805461202a90613b75565b80156120775780601f1061204c57610100808354040283529160200191612077565b820191906000526020600020905b81548152906001019060200180831161205a57829003601f168201915b5050505050815260200160038201805461209090613b75565b80601f01602080910402602001604051908101604052809291908181526020018280546120bc90613b75565b80156121095780601f106120de57610100808354040283529160200191612109565b820191906000526020600020905b8154815290600101906020018083116120ec57829003601f168201915b505050505081526020016004820160009054906101000a900461ffff1661ffff1661ffff1681526020016004820160029054906101000a900463ffffffff1663ffffffff1663ffffffff168152602001600582018054806020026020016040519081016040528092919081815260200182805480156121dd57602002820191906000526020600020905b8160009054906101000a900473ffffffffffffffffffffffffffffffffffffffff1673ffffffffffffffffffffffffffffffffffffffff1681526020019060010190808311612193575b505050505081526020016006820180548060200260200160405190810160405280929190818152602001828054801561223557602002820191906000526020600020905b815481526020019060010190808311612221575b505050505081526020016007820180548060200260200160405190810160405280929190818152602001828054801561228d57602002820191906000526020600020905b815481526020019060010190808311612279575b5050505050815260200160088201548152505081526020019060010190611f2e565b50505050905090565b60008173ffffffffffffffffffffffffffffffffffffffff16600860008573ffffffffffffffffffffffffffffffffffffffff1673ffffffffffffffffffffffffffffffffffffffff16815260200190815260200160002060009054906101000a900473ffffffffffffffffffffffffffffffffffffffff1673ffffffffffffffffffffffffffffffffffffffff1603612355576001905061235a565b600090505b92915050565b60006002600083815260200190815260200160002060009054906101000a900473ffffffffffffffffffffffffffffffffffffffff169050919050565b600081815481106123ad57600080fd5b90600052602060002090600902016000915090508060000154908060010180546123d690613b75565b80601f016020809104026020016040519081016040528092919081815260200182805461240290613b75565b801561244f5780601f106124245761010080835404028352916020019161244f565b820191906000526020600020905b81548152906001019060200180831161243257829003601f168201915b50505050509080600201805461246490613b75565b80601f016020809104026020016040519081016040528092919081815260200182805461249090613b75565b80156124dd5780601f106124b2576101008083540402835291602001916124dd565b820191906000526020600020905b8154815290600101906020018083116124c057829003601f168201915b5050505050908060030180546124f290613b75565b80601f016020809104026020016040519081016040528092919081815260200182805461251e90613b75565b801561256b5780601f106125405761010080835404028352916020019161256b565b820191906000526020600020905b81548152906001019060200180831161254e57829003601f168201915b5050505050908060040160009054906101000a900461ffff16908060040160029054906101000a900463ffffffff16908060080154905087565b600073ffffffffffffffffffffffffffffffffffffffff168273ffffffffffffffffffffffffffffffffffffffff161415801561260e57508273ffffffffffffffffffffffffffffffffffffffff168273ffffffffffffffffffffffffffffffffffffffff1614155b61264d576040517f08c379a000000000000000000000000000000000000000000000000000000000815260040161264490613f9d565b60405180910390fd5b6002600082815260200190815260200160002060009054906101000a900473ffffffffffffffffffffffffffffffffffffffff1673ffffffffffffffffffffffffffffffffffffffff168373ffffffffffffffffffffffffffffffffffffffff16146126ee576040517f08c379a00000000000000000000000000000000000000000000000000000000081526004016126e590614009565b60405180910390fd5b6002600082815260200190815260200160002060009054906101000a900473ffffffffffffffffffffffffffffffffffffffff1673ffffffffffffffffffffffffffffffffffffffff163373ffffffffffffffffffffffffffffffffffffffff1614806127b957506007600082815260200190815260200160002060009054906101000a900473ffffffffffffffffffffffffffffffffffffffff1673ffffffffffffffffffffffffffffffffffffffff163373ffffffffffffffffffffffffffffffffffffffff16145b8061284e5750600860003373ffffffffffffffffffffffffffffffffffffffff1673ffffffffffffffffffffffffffffffffffffffff16815260200190815260200160002060009054906101000a900473ffffffffffffffffffffffffffffffffffffffff1673ffffffffffffffffffffffffffffffffffffffff163373ffffffffffffffffffffffffffffffffffffffff16145b806128e057506006600082815260200190815260200160002060009054906101000a900460ff1680156128df57503073ffffffffffffffffffffffffffffffffffffffff166007600083815260200190815260200160002060009054906101000a900473ffffffffffffffffffffffffffffffffffffffff1673ffffffffffffffffffffffffffffffffffffffff16145b5b61291f576040517f08c379a0000000000000000000000000000000000000000000000000000000008152600401612916906140e7565b60405180910390fd5b505050565b600360008473ffffffffffffffffffffffffffffffffffffffff1673ffffffffffffffffffffffffffffffffffffffff168152602001908152602001600020600081548092919061297490613a4e565b9190505550600360008373ffffffffffffffffffffffffffffffffffffffff1673ffffffffffffffffffffffffffffffffffffffff16815260200190815260200160002060008154809291906129c990613ba6565b9190505550816002600083815260200190815260200160002060006101000a81548173ffffffffffffffffffffffffffffffffffffffff021916908373ffffffffffffffffffffffffffffffffffffffff16021790555060008181548110612a3457612a33613a77565b5b9060005260206000209060090201600501829080600181540180825580915050600190039060005260206000200160009091909190916101000a81548173ffffffffffffffffffffffffffffffffffffffff021916908373ffffffffffffffffffffffffffffffffffffffff16021790555060008181548110612aba57612ab9613a77565b5b906000526020600020906009020160060142908060018154018082558091505060019003906000526020600020016000909190919091505560008181548110612b0657612b05613a77565b5b906000526020600020906009020160070160008281548110612b2b57612b2a613a77565b5b906000526020600020906009020160080154908060018154018082558091505060019003906000526020600020016000909190919091505560006006600083815260200190815260200160002060006101000a81548160ff02191690831515021790555060016000815480929190612ba290613a4e565b919050555060006007600083815260200190815260200160002060006101000a81548173ffffffffffffffffffffffffffffffffffffffff021916908373ffffffffffffffffffffffffffffffffffffffff160217905550505050565b60405180610140016040528060008152602001606081526020016060815260200160608152602001600061ffff168152602001600063ffffffff168152602001606081526020016060815260200160608152602001600081525090565b828054828255906000526020600020908101928215612cd5579160200282015b82811115612cd45782518260006101000a81548173ffffffffffffffffffffffffffffffffffffffff021916908373ffffffffffffffffffffffffffffffffffffffff16021790555091602001919060010190612c7c565b5b509050612ce29190612d33565b5090565b828054828255906000526020600020908101928215612d22579160200282015b82811115612d21578251825591602001919060010190612d06565b5b509050612d2f9190612d33565b5090565b5b80821115612d4c576000816000905550600101612d34565b5090565b6000604051905090565b600080fd5b600080fd5b6000819050919050565b612d7781612d64565b8114612d8257600080fd5b50565b600081359050612d9481612d6e565b92915050565b600060208284031215612db057612daf612d5a565b5b6000612dbe84828501612d85565b91505092915050565b600073ffffffffffffffffffffffffffffffffffffffff82169050919050565b6000612df282612dc7565b9050919050565b612e0281612de7565b82525050565b6000602082019050612e1d6000830184612df9565b92915050565b612e2c81612de7565b8114612e3757600080fd5b50565b600081359050612e4981612e23565b92915050565b60008060408385031215612e6657612e65612d5a565b5b6000612e7485828601612e3a565b9250506020612e8585828601612d85565b9150509250929050565b600080600060608486031215612ea857612ea7612d5a565b5b6000612eb686828701612e3a565b9350506020612ec786828701612e3a565b9250506040612ed886828701612d85565b9150509250925092565b60008115159050919050565b612ef781612ee2565b82525050565b6000602082019050612f126000830184612eee565b92915050565b600060208284031215612f2e57612f2d612d5a565b5b6000612f3c84828501612e3a565b91505092915050565b600081519050919050565b600082825260208201905092915050565b6000819050602082019050919050565b612f7a81612d64565b82525050565b600081519050919050565b600082825260208201905092915050565b60005b83811015612fba578082015181840152602081019050612f9f565b60008484015250505050565b6000601f19601f8301169050919050565b6000612fe282612f80565b612fec8185612f8b565b9350612ffc818560208601612f9c565b61300581612fc6565b840191505092915050565b600061ffff82169050919050565b61302781613010565b82525050565b600063ffffffff82169050919050565b6130468161302d565b82525050565b600081519050919050565b600082825260208201905092915050565b6000819050602082019050919050565b61308181612de7565b82525050565b60006130938383613078565b60208301905092915050565b6000602082019050919050565b60006130b78261304c565b6130c18185613057565b93506130cc83613068565b8060005b838110156130fd5781516130e48882613087565b97506130ef8361309f565b9250506001810190506130d0565b5085935050505092915050565b600081519050919050565b600082825260208201905092915050565b6000819050602082019050919050565b60006131428383612f71565b60208301905092915050565b6000602082019050919050565b60006131668261310a565b6131708185613115565b935061317b83613126565b8060005b838110156131ac5781516131938882613136565b975061319e8361314e565b92505060018101905061317f565b5085935050505092915050565b6000610140830160008301516131d26000860182612f71565b50602083015184820360208601526131ea8282612fd7565b915050604083015184820360408601526132048282612fd7565b9150506060830151848203606086015261321e8282612fd7565b9150506080830151613233608086018261301e565b5060a083015161324660a086018261303d565b5060c083015184820360c086015261325e82826130ac565b91505060e083015184820360e0860152613278828261315b565b915050610100830151848203610100860152613294828261315b565b9150506101208301516132ab610120860182612f71565b508091505092915050565b60006132c283836131b9565b905092915050565b6000602082019050919050565b60006132e282612f45565b6132ec8185612f50565b9350836020820285016132fe85612f61565b8060005b8581101561333a578484038952815161331b85826132b6565b9450613326836132ca565b925060208a01995050600181019050613302565b50829750879550505050505092915050565b6000602082019050818103600083015261336681846132d7565b905092915050565b61337781612d64565b82525050565b6000602082019050613392600083018461336e565b92915050565b600080604083850312156133af576133ae612d5a565b5b60006133bd85828601612d85565b92505060206133ce85828601612d85565b9150509250929050565b6133e181612ee2565b81146133ec57600080fd5b50565b6000813590506133fe816133d8565b92915050565b6000806040838503121561341b5761341a612d5a565b5b600061342985828601612e3a565b925050602061343a858286016133ef565b9150509250929050565b600080fd5b600080fd5b7f4e487b7100000000000000000000000000000000000000000000000000000000600052604160045260246000fd5b61348682612fc6565b810181811067ffffffffffffffff821117156134a5576134a461344e565b5b80604052505050565b60006134b8612d50565b90506134c4828261347d565b919050565b600067ffffffffffffffff8211156134e4576134e361344e565b5b6134ed82612fc6565b9050602081019050919050565b82818337600083830152505050565b600061351c613517846134c9565b6134ae565b90508281526020810184848401111561353857613537613449565b5b6135438482856134fa565b509392505050565b600082601f8301126135605761355f613444565b5b8135613570848260208601613509565b91505092915050565b6000806000806080858703121561359357613592612d5a565b5b60006135a187828801612e3a565b94505060206135b287828801612e3a565b93505060406135c387828801612d85565b925050606085013567ffffffffffffffff8111156135e4576135e3612d5f565b5b6135f08782880161354b565b91505092959194509250565b600067ffffffffffffffff8211156136175761361661344e565b5b61362082612fc6565b9050602081019050919050565b600061364061363b846135fc565b6134ae565b90508281526020810184848401111561365c5761365b613449565b5b6136678482856134fa565b509392505050565b600082601f83011261368457613683613444565b5b813561369484826020860161362d565b91505092915050565b6136a681613010565b81146136b157600080fd5b50565b6000813590506136c38161369d565b92915050565b6136d28161302d565b81146136dd57600080fd5b50565b6000813590506136ef816136c9565b92915050565b600080600080600080600080610100898b03121561371657613715612d5a565b5b600089013567ffffffffffffffff81111561373457613733612d5f565b5b6137408b828c0161366f565b985050602089013567ffffffffffffffff81111561376157613760612d5f565b5b61376d8b828c0161366f565b975050604089013567ffffffffffffffff81111561378e5761378d612d5f565b5b61379a8b828c0161366f565b965050606089013567ffffffffffffffff8111156137bb576137ba612d5f565b5b6137c78b828c0161366f565b95505060806137d88b828c01612d85565b94505060a06137e98b828c01612d85565b93505060c06137fa8b828c016136b4565b92505060e061380b8b828c016136e0565b9150509295985092959890939650565b6000806040838503121561383257613831612d5a565b5b600061384085828601612e3a565b925050602061385185828601612e3a565b9150509250929050565b600082825260208201905092915050565b600061387782612f80565b613881818561385b565b9350613891818560208601612f9c565b61389a81612fc6565b840191505092915050565b6138ae81613010565b82525050565b6138bd8161302d565b82525050565b600060e0820190506138d8600083018a61336e565b81810360208301526138ea818961386c565b905081810360408301526138fe818861386c565b90508181036060830152613912818761386c565b905061392160808301866138a5565b61392e60a08301856138b4565b61393b60c083018461336e565b98975050505050505050565b7f596f7520646f206e6f74206f776e207468697320746f6b656e00000000000000600082015250565b600061397d60198361385b565b915061398882613947565b602082019050919050565b600060208201905081810360008301526139ac81613970565b9050919050565b7f596f7520646f206e6f74206f776e20746861742070686f6e6549640000000000600082015250565b60006139e9601b8361385b565b91506139f4826139b3565b602082019050919050565b60006020820190508181036000830152613a18816139dc565b9050919050565b7f4e487b7100000000000000000000000000000000000000000000000000000000600052601160045260246000fd5b6000613a5982612d64565b915060008203613a6c57613a6b613a1f565b5b600182039050919050565b7f4e487b7100000000000000000000000000000000000000000000000000000000600052603260045260246000fd5b7f4e6f207061796d656e74206e6f20746f6b656e00000000000000000000000000600082015250565b6000613adc60138361385b565b9150613ae782613aa6565b602082019050919050565b60006020820190508181036000830152613b0b81613acf565b9050919050565b6000613b1d82612d64565b9150613b2883612d64565b9250828203905081811115613b4057613b3f613a1f565b5b92915050565b7f4e487b7100000000000000000000000000000000000000000000000000000000600052602260045260246000fd5b60006002820490506001821680613b8d57607f821691505b602082108103613ba057613b9f613b46565b5b50919050565b6000613bb182612d64565b91507fffffffffffffffffffffffffffffffffffffffffffffffffffffffffffffffff8203613be357613be2613a1f565b5b600182019050919050565b600081905092915050565b6000613c0482612f80565b613c0e8185613bee565b9350613c1e818560208601612f9c565b80840191505092915050565b6000613c368284613bf9565b915081905092915050565b7f494d454920616c72656164792065786973747300000000000000000000000000600082015250565b6000613c7760138361385b565b9150613c8282613c41565b602082019050919050565b60006020820190508181036000830152613ca681613c6a565b9050919050565b60008190508160005260206000209050919050565b60006020601f8301049050919050565b600082821b905092915050565b600060088302613d0f7fffffffffffffffffffffffffffffffffffffffffffffffffffffffffffffffff82613cd2565b613d198683613cd2565b95508019841693508086168417925050509392505050565b6000819050919050565b6000613d56613d51613d4c84612d64565b613d31565b612d64565b9050919050565b6000819050919050565b613d7083613d3b565b613d84613d7c82613d5d565b848454613cdf565b825550505050565b600090565b613d99613d8c565b613da4818484613d67565b505050565b5b81811015613dc857613dbd600082613d91565b600181019050613daa565b5050565b601f821115613e0d57613dde81613cad565b613de784613cc2565b81016020851015613df6578190505b613e0a613e0285613cc2565b830182613da9565b50505b505050565b600082821c905092915050565b6000613e3060001984600802613e12565b1980831691505092915050565b6000613e498383613e1f565b9150826002028217905092915050565b613e6282612f80565b67ffffffffffffffff811115613e7b57613e7a61344e565b5b613e858254613b75565b613e90828285613dcc565b600060209050601f831160018114613ec35760008415613eb1578287015190505b613ebb8582613e3d565b865550613f23565b601f198416613ed186613cad565b60005b82811015613ef957848901518255600182019150602085019450602081019050613ed4565b86831015613f165784890151613f12601f891682613e1f565b8355505b6001600288020188555050505b505050505050565b7f5472616e7366657220697320746f20616464726573732030206f7220746f207460008201527f6865206f776e6572000000000000000000000000000000000000000000000000602082015250565b6000613f8760288361385b565b9150613f9282613f2b565b604082019050919050565b60006020820190508181036000830152613fb681613f7a565b9050919050565b7f46726f6d206973206e6f7420746865206f776e65720000000000000000000000600082015250565b6000613ff360158361385b565b9150613ffe82613fbd565b602082019050919050565b6000602082019050818103600083015261402281613fe6565b9050919050565b7f5468652073656e646572206973206e6f7420746865206f776e65722c20616e2060008201527f617070726f766564206163636f756e742c20616e20617070726f766564206f7060208201527f657261746f7220666f7220616c6c20746f6b656e73206f722074686520746f6b60408201527f656e206973206f6e2073616c6500000000000000000000000000000000000000606082015250565b60006140d1606d8361385b565b91506140dc82614029565b608082019050919050565b60006020820190508181036000830152614100816140c4565b905091905056fea26469706673582212207a5cbb7c66e7bb7f635a4fa7cebf8122735c280b6d376ffa1c31f94f0703ac6c64736f6c63430008130033",
  "immutableReferences": {},
  "source": "// SPDX-License-Identifier: MIT\r\npragma solidity >=0.4.22 <0.9.0;\r\n\r\nimport \"./IERC721.sol\";\r\nimport \"./SecondHandChain.sol\";\r\n\r\ncontract ERC721 is IERC721, SecondHandChain {\r\n\r\n    function balanceOf(address _owner) external view returns (uint256){\r\n        return phonesPerOwner[_owner];\r\n    }\r\n\r\n    function ownerOf(uint256 _tokenId) external view returns (address){\r\n        return phoneOwner[_tokenId];\r\n    }\r\n\r\n    function _validationPreTransfer(address _from, address _to, uint _phoneId) private view {        \r\n        require(_to != address(0) && _to != _from, \"Transfer is to address 0 or to the owner\" );\r\n        require(_from == phoneOwner[_phoneId] , \"From is not the owner\");\r\n        require(msg.sender == phoneOwner[_phoneId]\r\n            || msg.sender == phoneApproval[_phoneId]\r\n            || msg.sender == approvalForAll[msg.sender]\r\n            || ( isPhoneOnSale[_phoneId] && phoneApproval[_phoneId] == address(this))\r\n            , \"The sender is not the owner, an approved account, an approved operator for all tokens or the token is on sale\"\r\n        );\r\n    }\r\n\r\n\r\n    function _transfer(address _from, address _to, uint _phoneId) private {\r\n        phonesPerOwner[_from]--;\r\n        phonesPerOwner[_to]++;\r\n        phoneOwner[_phoneId]=_to;\r\n        phones[_phoneId].owners.push(_to);\r\n        phones[_phoneId].saleTime.push(block.timestamp);\r\n        phones[_phoneId].salePrice.push(phones[_phoneId].price);\r\n        isPhoneOnSale[_phoneId] = false;\r\n        numberOfPhonesOnSale--;\r\n        phoneApproval[_phoneId] = address(0);\r\n    }\r\n\r\n    function safeTransferFrom(address _from, address _to, uint256 _tokenId, bytes memory data) external payable{\r\n        _validationPreTransfer(_from, _to, _tokenId);\r\n\r\n        require(msg.value >= phones[_tokenId].price, \"No payment no token\");\r\n\r\n        if (msg.value > phones[_tokenId].price){\r\n            payable(msg.sender).transfer(msg.value - phones[_tokenId].price);\r\n        }\r\n\r\n        payable(phoneOwner[_tokenId]).transfer(phones[_tokenId].price);\r\n    \r\n        _transfer(_from, _to, _tokenId);\r\n        emit Transfer(_from, _to, _tokenId);\r\n    }\r\n\r\n    function safeTransferFrom(address _from, address _to, uint256 _tokenId) external payable{\r\n        _validationPreTransfer(_from, _to, _tokenId);\r\n\r\n        require(msg.value >= phones[_tokenId].price, \"No payment no token\");\r\n\r\n        if (msg.value > phones[_tokenId].price){\r\n            payable(msg.sender).transfer(msg.value - phones[_tokenId].price);\r\n        }\r\n\r\n        payable(phoneOwner[_tokenId]).transfer(phones[_tokenId].price);\r\n\r\n        _transfer(_from, _to, _tokenId);\r\n        emit Transfer(_from, _to, _tokenId);\r\n    }\r\n\r\n    function transferFrom(address _from, address _to, uint256 _tokenId) external payable{\r\n        _validationPreTransfer(_from, _to, _tokenId);\r\n        require(msg.value >= phones[_tokenId].price, \"No payment no token\");\r\n        \r\n        if (msg.value > phones[_tokenId].price){\r\n            payable(msg.sender).transfer(msg.value - phones[_tokenId].price);\r\n        }\r\n\r\n        payable(phoneOwner[_tokenId]).transfer(phones[_tokenId].price);\r\n        _transfer(_from, _to, _tokenId);\r\n        emit Transfer(_from, _to, _tokenId);\r\n    }\r\n\r\n    function approve(address _approved, uint256 _tokenId) external payable {\r\n        require(msg.sender == phoneOwner[_tokenId], \"You do not own this token\");\r\n        phoneApproval[_tokenId]=_approved;\r\n        emit Approval(phoneOwner[_tokenId], _approved, _tokenId);\r\n    }\r\n\r\n    function setApprovalForAll(address _operator, bool _approved) external {\r\n        if(_approved){\r\n            approvalForAll[msg.sender]=_operator;\r\n        }else{\r\n            approvalForAll[msg.sender]=address(0);\r\n        }\r\n\r\n        emit ApprovalForAll(msg.sender, _operator, _approved);\r\n    }\r\n\r\n    function getApproved(uint256 _tokenId) external view returns (address) {\r\n        return phoneApproval[_tokenId];\r\n    }\r\n\r\n    function isApprovedForAll(address _owner, address _operator) external view returns (bool) {\r\n        if (approvalForAll[_owner]==_operator){\r\n            return true;\r\n        }\r\n        return false;\r\n    }\r\n\r\n}",
  "sourcePath": "D:\\TFG\\ubu-secondhandchain\\truffle\\contracts\\ERC721.sol",
  "compiler": {
    "name": "solc",
    "version": "0.8.19+commit.7dd6d404.Emscripten.clang"
  },
  "schemaVersion": "3.4.13",
  "updatedAt": "2023-05-08T19:11:39.756Z",
  "networkType": "ethereum",
  "devdoc": {
    "events": {
      "Approval(address,address,uint256)": {
        "details": "This emits when the approved address for an NFT is changed or  reaffirmed. The zero address indicates there is no approved address.  When a Transfer event emits, this also indicates that the approved  address for that NFT (if any) is reset to none."
      },
      "ApprovalForAll(address,address,bool)": {
        "details": "This emits when an operator is enabled or disabled for an owner.  The operator can manage all NFTs of the owner."
      },
      "Transfer(address,address,uint256)": {
        "details": "This emits when ownership of any NFT changes by any mechanism.  This event emits when NFTs are created (`from` == 0) and destroyed  (`to` == 0). Exception: during contract creation, any number of NFTs  may be created and assigned without emitting Transfer. At the time of  any transfer, the approved address for that NFT (if any) is reset to none."
      }
    },
    "kind": "dev",
    "methods": {
      "approve(address,uint256)": {
        "details": "The zero address indicates there is no approved address.  Throws unless `msg.sender` is the current NFT owner, or an authorized  operator of the current owner.",
        "params": {
          "_approved": "The new approved NFT controller",
          "_tokenId": "The NFT to approve"
        }
      },
      "balanceOf(address)": {
        "details": "NFTs assigned to the zero address are considered invalid, and this  function throws for queries about the zero address.",
        "params": {
          "_owner": "An address for whom to query the balance"
        },
        "returns": {
          "_0": "The number of NFTs owned by `_owner`, possibly zero"
        }
      },
      "getApproved(uint256)": {
        "details": "Throws if `_tokenId` is not a valid NFT.",
        "params": {
          "_tokenId": "The NFT to find the approved address for"
        },
        "returns": {
          "_0": "The approved address for this NFT, or the zero address if there is none"
        }
      },
      "isApprovedForAll(address,address)": {
        "params": {
          "_operator": "The address that acts on behalf of the owner",
          "_owner": "The address that owns the NFTs"
        },
        "returns": {
          "_0": "True if `_operator` is an approved operator for `_owner`, false otherwise"
        }
      },
      "ownerOf(uint256)": {
        "details": "NFTs assigned to zero address are considered invalid, and queries  about them do throw.",
        "params": {
          "_tokenId": "The identifier for an NFT"
        },
        "returns": {
          "_0": "The address of the owner of the NFT"
        }
      },
      "safeTransferFrom(address,address,uint256)": {
        "details": "This works identically to the other function with an extra data parameter,  except this function just sets data to \"\".",
        "params": {
          "_from": "The current owner of the NFT",
          "_to": "The new owner",
          "_tokenId": "The NFT to transfer"
        }
      },
      "safeTransferFrom(address,address,uint256,bytes)": {
        "details": "Throws unless `msg.sender` is the current owner, an authorized  operator, or the approved address for this NFT. Throws if `_from` is  not the current owner. Throws if `_to` is the zero address. Throws if  `_tokenId` is not a valid NFT. When transfer is complete, this function  checks if `_to` is a smart contract (code size > 0). If so, it calls  `onERC721Received` on `_to` and throws if the return value is not  `bytes4(keccak256(\"onERC721Received(address,address,uint256,bytes)\"))`.",
        "params": {
          "_from": "The current owner of the NFT",
          "_to": "The new owner",
          "_tokenId": "The NFT to transfer",
          "data": "Additional data with no specified format, sent in call to `_to`"
        }
      },
      "setApprovalForAll(address,bool)": {
        "details": "Emits the ApprovalForAll event. The contract MUST allow  multiple operators per owner.",
        "params": {
          "_approved": "True if the operator is approved, false to revoke approval",
          "_operator": "Address to add to the set of authorized operators"
        }
      },
      "transferFrom(address,address,uint256)": {
        "details": "Throws unless `msg.sender` is the current owner, an authorized  operator, or the approved address for this NFT. Throws if `_from` is  not the current owner. Throws if `_to` is the zero address. Throws if  `_tokenId` is not a valid NFT.",
        "params": {
          "_from": "The current owner of the NFT",
          "_to": "The new owner",
          "_tokenId": "The NFT to transfer"
        }
      }
    },
    "version": 1
  },
  "userdoc": {
    "kind": "user",
    "methods": {
      "approve(address,uint256)": {
        "notice": "Change or reaffirm the approved address for an NFT"
      },
      "balanceOf(address)": {
        "notice": "Count all NFTs assigned to an owner"
      },
      "getApproved(uint256)": {
        "notice": "Get the approved address for a single NFT"
      },
      "isApprovedForAll(address,address)": {
        "notice": "Query if an address is an authorized operator for another address"
      },
      "ownerOf(uint256)": {
        "notice": "Find the owner of an NFT"
      },
      "safeTransferFrom(address,address,uint256)": {
        "notice": "Transfers the ownership of an NFT from one address to another address"
      },
      "safeTransferFrom(address,address,uint256,bytes)": {
        "notice": "Transfers the ownership of an NFT from one address to another address"
      },
      "setApprovalForAll(address,bool)": {
        "notice": "Enable or disable approval for a third party (\"operator\") to manage  all of `msg.sender`'s assets"
      },
      "transferFrom(address,address,uint256)": {
        "notice": "Transfer ownership of an NFT -- THE CALLER IS RESPONSIBLE  TO CONFIRM THAT `_to` IS CAPABLE OF RECEIVING NFTS OR ELSE  THEY MAY BE PERMANENTLY LOST"
      }
    },
    "version": 1
  }
}