{
  "contractName": "ERC721Metadata",
  "abi": [
    {
      "anonymous": false,
      "inputs": [
        {
          "indexed": true,
          "internalType": "address",
          "name": "_owner",
          "type": "address"
        },
        {
          "indexed": true,
          "internalType": "address",
          "name": "_approved",
          "type": "address"
        },
        {
          "indexed": true,
          "internalType": "uint256",
          "name": "_tokenId",
          "type": "uint256"
        }
      ],
      "name": "Approval",
      "type": "event"
    },
    {
      "anonymous": false,
      "inputs": [
        {
          "indexed": true,
          "internalType": "address",
          "name": "_owner",
          "type": "address"
        },
        {
          "indexed": true,
          "internalType": "address",
          "name": "_operator",
          "type": "address"
        },
        {
          "indexed": false,
          "internalType": "bool",
          "name": "_approved",
          "type": "bool"
        }
      ],
      "name": "ApprovalForAll",
      "type": "event"
    },
    {
      "anonymous": false,
      "inputs": [
        {
          "indexed": true,
          "internalType": "address",
          "name": "_from",
          "type": "address"
        },
        {
          "indexed": true,
          "internalType": "address",
          "name": "_to",
          "type": "address"
        },
        {
          "indexed": true,
          "internalType": "uint256",
          "name": "_tokenId",
          "type": "uint256"
        }
      ],
      "name": "Transfer",
      "type": "event"
    },
    {
      "inputs": [
        {
          "internalType": "address",
          "name": "_approved",
          "type": "address"
        },
        {
          "internalType": "uint256",
          "name": "_tokenId",
          "type": "uint256"
        }
      ],
      "name": "approve",
      "outputs": [],
      "stateMutability": "payable",
      "type": "function",
      "payable": true
    },
    {
      "inputs": [
        {
          "internalType": "address",
          "name": "_owner",
          "type": "address"
        }
      ],
      "name": "balanceOf",
      "outputs": [
        {
          "internalType": "uint256",
          "name": "",
          "type": "uint256"
        }
      ],
      "stateMutability": "view",
      "type": "function",
      "constant": true
    },
    {
      "inputs": [
        {
          "internalType": "string",
          "name": "_model",
          "type": "string"
        },
        {
          "internalType": "string",
          "name": "_imei",
          "type": "string"
        },
        {
          "internalType": "string",
          "name": "_brand",
          "type": "string"
        },
        {
          "internalType": "string",
          "name": "_colour",
          "type": "string"
        },
        {
          "internalType": "uint256",
          "name": "_price",
          "type": "uint256"
        },
        {
          "internalType": "uint256",
          "name": "_salePrice",
          "type": "uint256"
        },
        {
          "internalType": "uint16",
          "name": "_ram",
          "type": "uint16"
        },
        {
          "internalType": "uint32",
          "name": "_mem",
          "type": "uint32"
        },
        {
          "internalType": "string",
          "name": "_url",
          "type": "string"
        }
      ],
      "name": "createPhone",
      "outputs": [],
      "stateMutability": "nonpayable",
      "type": "function"
    },
    {
      "inputs": [
        {
          "internalType": "address",
          "name": "_address",
          "type": "address"
        }
      ],
      "name": "getAllPhonesInAddress",
      "outputs": [
        {
          "components": [
            {
              "internalType": "uint256",
              "name": "id",
              "type": "uint256"
            },
            {
              "internalType": "string",
              "name": "model",
              "type": "string"
            },
            {
              "internalType": "string",
              "name": "brand",
              "type": "string"
            },
            {
              "internalType": "string",
              "name": "colour",
              "type": "string"
            },
            {
              "internalType": "uint16",
              "name": "ram",
              "type": "uint16"
            },
            {
              "internalType": "uint32",
              "name": "mem",
              "type": "uint32"
            },
            {
              "internalType": "address[]",
              "name": "owners",
              "type": "address[]"
            },
            {
              "internalType": "uint256[]",
              "name": "saleTime",
              "type": "uint256[]"
            },
            {
              "internalType": "uint256[]",
              "name": "salePrice",
              "type": "uint256[]"
            },
            {
              "internalType": "uint256",
              "name": "price",
              "type": "uint256"
            },
            {
              "internalType": "string",
              "name": "url",
              "type": "string"
            }
          ],
          "internalType": "struct SecondHandChain.Phone[]",
          "name": "",
          "type": "tuple[]"
        }
      ],
      "stateMutability": "view",
      "type": "function",
      "constant": true
    },
    {
      "inputs": [],
      "name": "getAllPhonesOnSale",
      "outputs": [
        {
          "components": [
            {
              "internalType": "uint256",
              "name": "id",
              "type": "uint256"
            },
            {
              "internalType": "string",
              "name": "model",
              "type": "string"
            },
            {
              "internalType": "string",
              "name": "brand",
              "type": "string"
            },
            {
              "internalType": "string",
              "name": "colour",
              "type": "string"
            },
            {
              "internalType": "uint16",
              "name": "ram",
              "type": "uint16"
            },
            {
              "internalType": "uint32",
              "name": "mem",
              "type": "uint32"
            },
            {
              "internalType": "address[]",
              "name": "owners",
              "type": "address[]"
            },
            {
              "internalType": "uint256[]",
              "name": "saleTime",
              "type": "uint256[]"
            },
            {
              "internalType": "uint256[]",
              "name": "salePrice",
              "type": "uint256[]"
            },
            {
              "internalType": "uint256",
              "name": "price",
              "type": "uint256"
            },
            {
              "internalType": "string",
              "name": "url",
              "type": "string"
            }
          ],
          "internalType": "struct SecondHandChain.Phone[]",
          "name": "",
          "type": "tuple[]"
        }
      ],
      "stateMutability": "view",
      "type": "function",
      "constant": true
    },
    {
      "inputs": [
        {
          "internalType": "uint256",
          "name": "_tokenId",
          "type": "uint256"
        }
      ],
      "name": "getApproved",
      "outputs": [
        {
          "internalType": "address",
          "name": "",
          "type": "address"
        }
      ],
      "stateMutability": "view",
      "type": "function",
      "constant": true
    },
    {
      "inputs": [
        {
          "internalType": "uint256",
          "name": "_id",
          "type": "uint256"
        }
      ],
      "name": "getIsPhoneOnSale",
      "outputs": [
        {
          "internalType": "bool",
          "name": "",
          "type": "bool"
        }
      ],
      "stateMutability": "view",
      "type": "function",
      "constant": true
    },
    {
      "inputs": [
        {
          "internalType": "uint256",
          "name": "_id",
          "type": "uint256"
        }
      ],
      "name": "getPhoneOwner",
      "outputs": [
        {
          "internalType": "address",
          "name": "",
          "type": "address"
        }
      ],
      "stateMutability": "view",
      "type": "function",
      "constant": true
    },
    {
      "inputs": [],
      "name": "getPhones",
      "outputs": [
        {
          "components": [
            {
              "internalType": "uint256",
              "name": "id",
              "type": "uint256"
            },
            {
              "internalType": "string",
              "name": "model",
              "type": "string"
            },
            {
              "internalType": "string",
              "name": "brand",
              "type": "string"
            },
            {
              "internalType": "string",
              "name": "colour",
              "type": "string"
            },
            {
              "internalType": "uint16",
              "name": "ram",
              "type": "uint16"
            },
            {
              "internalType": "uint32",
              "name": "mem",
              "type": "uint32"
            },
            {
              "internalType": "address[]",
              "name": "owners",
              "type": "address[]"
            },
            {
              "internalType": "uint256[]",
              "name": "saleTime",
              "type": "uint256[]"
            },
            {
              "internalType": "uint256[]",
              "name": "salePrice",
              "type": "uint256[]"
            },
            {
              "internalType": "uint256",
              "name": "price",
              "type": "uint256"
            },
            {
              "internalType": "string",
              "name": "url",
              "type": "string"
            }
          ],
          "internalType": "struct SecondHandChain.Phone[]",
          "name": "",
          "type": "tuple[]"
        }
      ],
      "stateMutability": "view",
      "type": "function",
      "constant": true
    },
    {
      "inputs": [
        {
          "internalType": "string",
          "name": "_imei",
          "type": "string"
        }
      ],
      "name": "imeiRegistered",
      "outputs": [
        {
          "internalType": "bool",
          "name": "",
          "type": "bool"
        }
      ],
      "stateMutability": "view",
      "type": "function",
      "constant": true
    },
    {
      "inputs": [
        {
          "internalType": "address",
          "name": "_owner",
          "type": "address"
        },
        {
          "internalType": "address",
          "name": "_operator",
          "type": "address"
        }
      ],
      "name": "isApprovedForAll",
      "outputs": [
        {
          "internalType": "bool",
          "name": "",
          "type": "bool"
        }
      ],
      "stateMutability": "view",
      "type": "function",
      "constant": true
    },
    {
      "inputs": [
        {
          "internalType": "uint256",
          "name": "_tokenId",
          "type": "uint256"
        }
      ],
      "name": "ownerOf",
      "outputs": [
        {
          "internalType": "address",
          "name": "",
          "type": "address"
        }
      ],
      "stateMutability": "view",
      "type": "function",
      "constant": true
    },
    {
      "inputs": [
        {
          "internalType": "uint256",
          "name": "",
          "type": "uint256"
        }
      ],
      "name": "phones",
      "outputs": [
        {
          "internalType": "uint256",
          "name": "id",
          "type": "uint256"
        },
        {
          "internalType": "string",
          "name": "model",
          "type": "string"
        },
        {
          "internalType": "string",
          "name": "brand",
          "type": "string"
        },
        {
          "internalType": "string",
          "name": "colour",
          "type": "string"
        },
        {
          "internalType": "uint16",
          "name": "ram",
          "type": "uint16"
        },
        {
          "internalType": "uint32",
          "name": "mem",
          "type": "uint32"
        },
        {
          "internalType": "uint256",
          "name": "price",
          "type": "uint256"
        },
        {
          "internalType": "string",
          "name": "url",
          "type": "string"
        }
      ],
      "stateMutability": "view",
      "type": "function",
      "constant": true
    },
    {
      "inputs": [
        {
          "internalType": "uint256",
          "name": "_price",
          "type": "uint256"
        },
        {
          "internalType": "uint256",
          "name": "_phoneId",
          "type": "uint256"
        }
      ],
      "name": "putPhoneOnSale",
      "outputs": [],
      "stateMutability": "nonpayable",
      "type": "function"
    },
    {
      "inputs": [
        {
          "internalType": "uint256",
          "name": "_phoneId",
          "type": "uint256"
        }
      ],
      "name": "removePhoneFromSale",
      "outputs": [],
      "stateMutability": "nonpayable",
      "type": "function"
    },
    {
      "inputs": [
        {
          "internalType": "address",
          "name": "_from",
          "type": "address"
        },
        {
          "internalType": "address",
          "name": "_to",
          "type": "address"
        },
        {
          "internalType": "uint256",
          "name": "_tokenId",
          "type": "uint256"
        }
      ],
      "name": "safeTransferFrom",
      "outputs": [],
      "stateMutability": "payable",
      "type": "function",
      "payable": true
    },
    {
      "inputs": [
        {
          "internalType": "address",
          "name": "_from",
          "type": "address"
        },
        {
          "internalType": "address",
          "name": "_to",
          "type": "address"
        },
        {
          "internalType": "uint256",
          "name": "_tokenId",
          "type": "uint256"
        },
        {
          "internalType": "bytes",
          "name": "data",
          "type": "bytes"
        }
      ],
      "name": "safeTransferFrom",
      "outputs": [],
      "stateMutability": "payable",
      "type": "function",
      "payable": true
    },
    {
      "inputs": [
        {
          "internalType": "address",
          "name": "_operator",
          "type": "address"
        },
        {
          "internalType": "bool",
          "name": "_approved",
          "type": "bool"
        }
      ],
      "name": "setApprovalForAll",
      "outputs": [],
      "stateMutability": "nonpayable",
      "type": "function"
    },
    {
      "inputs": [
        {
          "internalType": "address",
          "name": "_from",
          "type": "address"
        },
        {
          "internalType": "address",
          "name": "_to",
          "type": "address"
        },
        {
          "internalType": "uint256",
          "name": "_tokenId",
          "type": "uint256"
        }
      ],
      "name": "transferFrom",
      "outputs": [],
      "stateMutability": "payable",
      "type": "function",
      "payable": true
    },
    {
      "inputs": [],
      "name": "name",
      "outputs": [
        {
          "internalType": "string",
          "name": "_name",
          "type": "string"
        }
      ],
      "stateMutability": "view",
      "type": "function",
      "constant": true
    },
    {
      "inputs": [],
      "name": "symbol",
      "outputs": [
        {
          "internalType": "string",
          "name": "_symbol",
          "type": "string"
        }
      ],
      "stateMutability": "view",
      "type": "function",
      "constant": true
    },
    {
      "inputs": [
        {
          "internalType": "uint256",
          "name": "_tokenId",
          "type": "uint256"
        }
      ],
      "name": "tokenURI",
      "outputs": [
        {
          "internalType": "string",
          "name": "",
          "type": "string"
        }
      ],
      "stateMutability": "view",
      "type": "function",
      "constant": true
    }
  ],
  "bytecode": "0x608060405234801561001057600080fd5b506146d0806100206000396000f3fe6080604052600436106101355760003560e01c806374c97cd5116100ab578063c87b56dd1161006f578063c87b56dd14610400578063d4dbc41c1461043d578063d72bbae214610468578063e985e9c5146104a5578063f09e19f2146104e2578063f37306531461051f57610135565b806374c97cd51461033e57806395d89b4114610367578063a22cb46514610392578063b88d4fde146103bb578063bc2a1c28146103d757610135565b80633664e2de116100fd5780633664e2de14610203578063418696fa1461024057806342842e0e1461027d5780635b884f6f146102995780636352211e146102c457806370a082311461030157610135565b806306fdde031461013a578063081812fc14610165578063095ea7b3146101a257806323b104fa146101be57806323b872dd146101e7575b600080fd5b34801561014657600080fd5b5061014f610563565b60405161015c9190613276565b60405180910390f35b34801561017157600080fd5b5061018c600480360381019061018791906132e2565b610583565b6040516101999190613350565b60405180910390f35b6101bc60048036038101906101b79190613397565b6105c0565b005b3480156101ca57600080fd5b506101e560048036038101906101e091906132e2565b610745565b005b61020160048036038101906101fc91906133d7565b610880565b005b34801561020f57600080fd5b5061022a600480360381019061022591906132e2565b610aa2565b6040516102379190613445565b60405180910390f35b34801561024c57600080fd5b5061026760048036038101906102629190613460565b610acc565b604051610274919061386a565b60405180910390f35b610297600480360381019061029291906133d7565b611035565b005b3480156102a557600080fd5b506102ae611257565b6040516102bb919061386a565b60405180910390f35b3480156102d057600080fd5b506102eb60048036038101906102e691906132e2565b611741565b6040516102f89190613350565b60405180910390f35b34801561030d57600080fd5b5061032860048036038101906103239190613460565b61177e565b604051610335919061389b565b60405180910390f35b34801561034a57600080fd5b50610365600480360381019061036091906138b6565b6117c7565b005b34801561037357600080fd5b5061037c61192c565b6040516103899190613276565b60405180910390f35b34801561039e57600080fd5b506103b960048036038101906103b49190613922565b61194c565b005b6103d560048036038101906103d09190613a97565b611abe565b005b3480156103e357600080fd5b506103fe60048036038101906103f99190613c13565b611ce1565b005b34801561040c57600080fd5b50610427600480360381019061042291906132e2565b61218d565b6040516104349190613276565b60405180910390f35b34801561044957600080fd5b50610452612244565b60405161045f919061386a565b60405180910390f35b34801561047457600080fd5b5061048f600480360381019061048a9190613d69565b612684565b60405161049c9190613445565b60405180910390f35b3480156104b157600080fd5b506104cc60048036038101906104c79190613db2565b6126b9565b6040516104d99190613445565b60405180910390f35b3480156104ee57600080fd5b50610509600480360381019061050491906132e2565b612761565b6040516105169190613350565b60405180910390f35b34801561052b57600080fd5b50610546600480360381019061054191906132e2565b61279e565b60405161055a989796959493929190613e10565b60405180910390f35b606060405180606001604052806030815260200161466b60309139905090565b60006007600083815260200190815260200160002060009054906101000a900473ffffffffffffffffffffffffffffffffffffffff169050919050565b6002600082815260200190815260200160002060009054906101000a900473ffffffffffffffffffffffffffffffffffffffff1673ffffffffffffffffffffffffffffffffffffffff163373ffffffffffffffffffffffffffffffffffffffff1614610661576040517f08c379a000000000000000000000000000000000000000000000000000000000815260040161065890613ef6565b60405180910390fd5b816007600083815260200190815260200160002060006101000a81548173ffffffffffffffffffffffffffffffffffffffff021916908373ffffffffffffffffffffffffffffffffffffffff160217905550808273ffffffffffffffffffffffffffffffffffffffff166002600084815260200190815260200160002060009054906101000a900473ffffffffffffffffffffffffffffffffffffffff1673ffffffffffffffffffffffffffffffffffffffff167f8c5be1e5ebec7d5bd14f71427d1e84f3dd0314c0f7b2291e5b200ac8c7c3b92560405160405180910390a45050565b3373ffffffffffffffffffffffffffffffffffffffff166002600083815260200190815260200160002060009054906101000a900473ffffffffffffffffffffffffffffffffffffffff1673ffffffffffffffffffffffffffffffffffffffff16146107e6576040517f08c379a00000000000000000000000000000000000000000000000000000000081526004016107dd90613f62565b60405180910390fd5b60006006600083815260200190815260200160002060006101000a81548160ff02191690831515021790555060006007600083815260200190815260200160002060006101000a81548173ffffffffffffffffffffffffffffffffffffffff021916908373ffffffffffffffffffffffffffffffffffffffff1602179055506001600081548092919061087890613fb1565b919050555050565b61088b838383612a34565b6000818154811061089f5761089e613fda565b5b90600052602060002090600a0201600801543410156108f3576040517f08c379a00000000000000000000000000000000000000000000000000000000081526004016108ea90614055565b60405180910390fd5b6000818154811061090757610906613fda565b5b90600052602060002090600a020160080154341115610998573373ffffffffffffffffffffffffffffffffffffffff166108fc6000838154811061094e5761094d613fda565b5b90600052602060002090600a0201600801543461096b9190614075565b9081150290604051600060405180830381858888f19350505050158015610996573d6000803e3d6000fd5b505b6002600082815260200190815260200160002060009054906101000a900473ffffffffffffffffffffffffffffffffffffffff1673ffffffffffffffffffffffffffffffffffffffff166108fc600083815481106109f9576109f8613fda565b5b90600052602060002090600a0201600801549081150290604051600060405180830381858888f19350505050158015610a36573d6000803e3d6000fd5b50610a42838383612db3565b808273ffffffffffffffffffffffffffffffffffffffff168473ffffffffffffffffffffffffffffffffffffffff167fddf252ad1be2c89b69c2b068fc378daa952ba7f163c4a11628f55a4df523b3ef60405160405180910390a4505050565b60006006600083815260200190815260200160002060009054906101000a900460ff169050919050565b60606000600360008473ffffffffffffffffffffffffffffffffffffffff1673ffffffffffffffffffffffffffffffffffffffff1681526020019081526020016000205467ffffffffffffffff811115610b2957610b2861396c565b5b604051908082528060200260200182016040528015610b6257816020015b610b4f61308e565b815260200190600190039081610b475790505b5090506000805b60008054905081101561102a578473ffffffffffffffffffffffffffffffffffffffff166002600083815260200190815260200160002060009054906101000a900473ffffffffffffffffffffffffffffffffffffffff1673ffffffffffffffffffffffffffffffffffffffff16036110175760008181548110610bf057610bef613fda565b5b90600052602060002090600a02016040518061016001604052908160008201548152602001600182018054610c24906140d8565b80601f0160208091040260200160405190810160405280929190818152602001828054610c50906140d8565b8015610c9d5780601f10610c7257610100808354040283529160200191610c9d565b820191906000526020600020905b815481529060010190602001808311610c8057829003601f168201915b50505050508152602001600282018054610cb6906140d8565b80601f0160208091040260200160405190810160405280929190818152602001828054610ce2906140d8565b8015610d2f5780601f10610d0457610100808354040283529160200191610d2f565b820191906000526020600020905b815481529060010190602001808311610d1257829003601f168201915b50505050508152602001600382018054610d48906140d8565b80601f0160208091040260200160405190810160405280929190818152602001828054610d74906140d8565b8015610dc15780601f10610d9657610100808354040283529160200191610dc1565b820191906000526020600020905b815481529060010190602001808311610da457829003601f168201915b505050505081526020016004820160009054906101000a900461ffff1661ffff1661ffff1681526020016004820160029054906101000a900463ffffffff1663ffffffff1663ffffffff16815260200160058201805480602002602001604051908101604052809291908181526020018280548015610e9557602002820191906000526020600020905b8160009054906101000a900473ffffffffffffffffffffffffffffffffffffffff1673ffffffffffffffffffffffffffffffffffffffff1681526020019060010190808311610e4b575b5050505050815260200160068201805480602002602001604051908101604052809291908181526020018280548015610eed57602002820191906000526020600020905b815481526020019060010190808311610ed9575b5050505050815260200160078201805480602002602001604051908101604052809291908181526020018280548015610f4557602002820191906000526020600020905b815481526020019060010190808311610f31575b5050505050815260200160088201548152602001600982018054610f68906140d8565b80601f0160208091040260200160405190810160405280929190818152602001828054610f94906140d8565b8015610fe15780601f10610fb657610100808354040283529160200191610fe1565b820191906000526020600020905b815481529060010190602001808311610fc457829003601f168201915b505050505081525050838381518110610ffd57610ffc613fda565b5b6020026020010181905250818061101390614109565b9250505b808061102290614109565b915050610b69565b508192505050919050565b611040838383612a34565b6000818154811061105457611053613fda565b5b90600052602060002090600a0201600801543410156110a8576040517f08c379a000000000000000000000000000000000000000000000000000000000815260040161109f90614055565b60405180910390fd5b600081815481106110bc576110bb613fda565b5b90600052602060002090600a02016008015434111561114d573373ffffffffffffffffffffffffffffffffffffffff166108fc6000838154811061110357611102613fda565b5b90600052602060002090600a020160080154346111209190614075565b9081150290604051600060405180830381858888f1935050505015801561114b573d6000803e3d6000fd5b505b6002600082815260200190815260200160002060009054906101000a900473ffffffffffffffffffffffffffffffffffffffff1673ffffffffffffffffffffffffffffffffffffffff166108fc600083815481106111ae576111ad613fda565b5b90600052602060002090600a0201600801549081150290604051600060405180830381858888f193505050501580156111eb573d6000803e3d6000fd5b506111f7838383612db3565b808273ffffffffffffffffffffffffffffffffffffffff168473ffffffffffffffffffffffffffffffffffffffff167fddf252ad1be2c89b69c2b068fc378daa952ba7f163c4a11628f55a4df523b3ef60405160405180910390a4505050565b6060600060015467ffffffffffffffff8111156112775761127661396c565b5b6040519080825280602002602001820160405280156112b057816020015b61129d61308e565b8152602001906001900390816112955790505b5090506000805b600080549050811015611738576006600082815260200190815260200160002060009054906101000a900460ff161561172557600081815481106112fe576112fd613fda565b5b90600052602060002090600a02016040518061016001604052908160008201548152602001600182018054611332906140d8565b80601f016020809104026020016040519081016040528092919081815260200182805461135e906140d8565b80156113ab5780601f10611380576101008083540402835291602001916113ab565b820191906000526020600020905b81548152906001019060200180831161138e57829003601f168201915b505050505081526020016002820180546113c4906140d8565b80601f01602080910402602001604051908101604052809291908181526020018280546113f0906140d8565b801561143d5780601f106114125761010080835404028352916020019161143d565b820191906000526020600020905b81548152906001019060200180831161142057829003601f168201915b50505050508152602001600382018054611456906140d8565b80601f0160208091040260200160405190810160405280929190818152602001828054611482906140d8565b80156114cf5780601f106114a4576101008083540402835291602001916114cf565b820191906000526020600020905b8154815290600101906020018083116114b257829003601f168201915b505050505081526020016004820160009054906101000a900461ffff1661ffff1661ffff1681526020016004820160029054906101000a900463ffffffff1663ffffffff1663ffffffff168152602001600582018054806020026020016040519081016040528092919081815260200182805480156115a357602002820191906000526020600020905b8160009054906101000a900473ffffffffffffffffffffffffffffffffffffffff1673ffffffffffffffffffffffffffffffffffffffff1681526020019060010190808311611559575b50505050508152602001600682018054806020026020016040519081016040528092919081815260200182805480156115fb57602002820191906000526020600020905b8154815260200190600101908083116115e7575b505050505081526020016007820180548060200260200160405190810160405280929190818152602001828054801561165357602002820191906000526020600020905b81548152602001906001019080831161163f575b5050505050815260200160088201548152602001600982018054611676906140d8565b80601f01602080910402602001604051908101604052809291908181526020018280546116a2906140d8565b80156116ef5780601f106116c4576101008083540402835291602001916116ef565b820191906000526020600020905b8154815290600101906020018083116116d257829003601f168201915b50505050508152505083838151811061170b5761170a613fda565b5b6020026020010181905250818061172190614109565b9250505b808061173090614109565b9150506112b7565b50819250505090565b60006002600083815260200190815260200160002060009054906101000a900473ffffffffffffffffffffffffffffffffffffffff169050919050565b6000600360008373ffffffffffffffffffffffffffffffffffffffff1673ffffffffffffffffffffffffffffffffffffffff168152602001908152602001600020549050919050565b3373ffffffffffffffffffffffffffffffffffffffff166002600083815260200190815260200160002060009054906101000a900473ffffffffffffffffffffffffffffffffffffffff1673ffffffffffffffffffffffffffffffffffffffff1614611868576040517f08c379a000000000000000000000000000000000000000000000000000000000815260040161185f90613f62565b60405180910390fd5b60016006600083815260200190815260200160002060006101000a81548160ff02191690831515021790555081600082815481106118a9576118a8613fda565b5b90600052602060002090600a020160080181905550306007600083815260200190815260200160002060006101000a81548173ffffffffffffffffffffffffffffffffffffffff021916908373ffffffffffffffffffffffffffffffffffffffff1602179055506001600081548092919061192390614109565b91905055505050565b606060405180606001604052806030815260200161466b60309139905090565b80156119d55781600860003373ffffffffffffffffffffffffffffffffffffffff1673ffffffffffffffffffffffffffffffffffffffff16815260200190815260200160002060006101000a81548173ffffffffffffffffffffffffffffffffffffffff021916908373ffffffffffffffffffffffffffffffffffffffff160217905550611a55565b6000600860003373ffffffffffffffffffffffffffffffffffffffff1673ffffffffffffffffffffffffffffffffffffffff16815260200190815260200160002060006101000a81548173ffffffffffffffffffffffffffffffffffffffff021916908373ffffffffffffffffffffffffffffffffffffffff1602179055505b8173ffffffffffffffffffffffffffffffffffffffff163373ffffffffffffffffffffffffffffffffffffffff167f17307eab39ab6107e8899845ad3d59bd9653f200f220920489ca2b5937696c3183604051611ab29190613445565b60405180910390a35050565b611ac9848484612a34565b60008281548110611add57611adc613fda565b5b90600052602060002090600a020160080154341015611b31576040517f08c379a0000000000000000000000000000000000000000000000000000000008152600401611b2890614055565b60405180910390fd5b60008281548110611b4557611b44613fda565b5b90600052602060002090600a020160080154341115611bd6573373ffffffffffffffffffffffffffffffffffffffff166108fc60008481548110611b8c57611b8b613fda565b5b90600052602060002090600a02016008015434611ba99190614075565b9081150290604051600060405180830381858888f19350505050158015611bd4573d6000803e3d6000fd5b505b6002600083815260200190815260200160002060009054906101000a900473ffffffffffffffffffffffffffffffffffffffff1673ffffffffffffffffffffffffffffffffffffffff166108fc60008481548110611c3757611c36613fda565b5b90600052602060002090600a0201600801549081150290604051600060405180830381858888f19350505050158015611c74573d6000803e3d6000fd5b50611c80848484612db3565b818373ffffffffffffffffffffffffffffffffffffffff168573ffffffffffffffffffffffffffffffffffffffff167fddf252ad1be2c89b69c2b068fc378daa952ba7f163c4a11628f55a4df523b3ef60405160405180910390a450505050565b60001515600589604051611cf5919061418d565b908152602001604051809103902060009054906101000a900460ff16151514611d53576040517f08c379a0000000000000000000000000000000000000000000000000000000008152600401611d4a906141f0565b60405180910390fd5b611d5b61308e565b89816020018190525087816040018190525086816060018190525083816080019061ffff16908161ffff1681525050828160a0019063ffffffff16908163ffffffff168152505084816101200181815250508181610140018190525060008190806001815401808255809150506001900390600052602060002090600a0201600090919091909150600082015181600001556020820151816001019081611e0291906143bc565b506040820151816002019081611e1891906143bc565b506060820151816003019081611e2e91906143bc565b5060808201518160040160006101000a81548161ffff021916908361ffff16021790555060a08201518160040160026101000a81548163ffffffff021916908363ffffffff16021790555060c0820151816005019080519060200190611e959291906130f2565b5060e0820151816006019080519060200190611eb292919061317c565b50610100820151816007019080519060200190611ed092919061317c565b506101208201518160080155610140820151816009019081611ef291906143bc565b505050600360003373ffffffffffffffffffffffffffffffffffffffff1673ffffffffffffffffffffffffffffffffffffffff1681526020019081526020016000206000815480929190611f4590614109565b919050555060006001600080549050611f5e9190614075565b90508060008281548110611f7557611f74613fda565b5b90600052602060002090600a02016000018190555060008181548110611f9e57611f9d613fda565b5b90600052602060002090600a0201600501339080600181540180825580915050600190039060005260206000200160009091909190916101000a81548173ffffffffffffffffffffffffffffffffffffffff021916908373ffffffffffffffffffffffffffffffffffffffff1602179055506000818154811061202457612023613fda565b5b90600052602060002090600a0201600601429080600181540180825580915050600190039060005260206000200160009091909190915055600081815481106120705761206f613fda565b5b90600052602060002090600a0201600701879080600181540180825580915050600190039060005260206000200160009091909190915055336002600083815260200190815260200160002060006101000a81548173ffffffffffffffffffffffffffffffffffffffff021916908373ffffffffffffffffffffffffffffffffffffffff1602179055508060048b60405161210b919061418d565b90815260200160405180910390208190555060006006600083815260200190815260200160002060006101000a81548160ff021916908315150217905550600160058b60405161215b919061418d565b908152602001604051809103902060006101000a81548160ff0219169083151502179055505050505050505050505050565b6060600082815481106121a3576121a2613fda565b5b90600052602060002090600a020160090180546121bf906140d8565b80601f01602080910402602001604051908101604052809291908181526020018280546121eb906140d8565b80156122385780601f1061220d57610100808354040283529160200191612238565b820191906000526020600020905b81548152906001019060200180831161221b57829003601f168201915b50505050509050919050565b60606000805480602002602001604051908101604052809291908181526020016000905b8282101561267b57838290600052602060002090600a020160405180610160016040529081600082015481526020016001820180546122a6906140d8565b80601f01602080910402602001604051908101604052809291908181526020018280546122d2906140d8565b801561231f5780601f106122f45761010080835404028352916020019161231f565b820191906000526020600020905b81548152906001019060200180831161230257829003601f168201915b50505050508152602001600282018054612338906140d8565b80601f0160208091040260200160405190810160405280929190818152602001828054612364906140d8565b80156123b15780601f10612386576101008083540402835291602001916123b1565b820191906000526020600020905b81548152906001019060200180831161239457829003601f168201915b505050505081526020016003820180546123ca906140d8565b80601f01602080910402602001604051908101604052809291908181526020018280546123f6906140d8565b80156124435780601f1061241857610100808354040283529160200191612443565b820191906000526020600020905b81548152906001019060200180831161242657829003601f168201915b505050505081526020016004820160009054906101000a900461ffff1661ffff1661ffff1681526020016004820160029054906101000a900463ffffffff1663ffffffff1663ffffffff1681526020016005820180548060200260200160405190810160405280929190818152602001828054801561251757602002820191906000526020600020905b8160009054906101000a900473ffffffffffffffffffffffffffffffffffffffff1673ffffffffffffffffffffffffffffffffffffffff16815260200190600101908083116124cd575b505050505081526020016006820180548060200260200160405190810160405280929190818152602001828054801561256f57602002820191906000526020600020905b81548152602001906001019080831161255b575b50505050508152602001600782018054806020026020016040519081016040528092919081815260200182805480156125c757602002820191906000526020600020905b8154815260200190600101908083116125b3575b50505050508152602001600882015481526020016009820180546125ea906140d8565b80601f0160208091040260200160405190810160405280929190818152602001828054612616906140d8565b80156126635780601f1061263857610100808354040283529160200191612663565b820191906000526020600020905b81548152906001019060200180831161264657829003601f168201915b50505050508152505081526020019060010190612268565b50505050905090565b6000600582604051612696919061418d565b908152602001604051809103902060009054906101000a900460ff169050919050565b60008173ffffffffffffffffffffffffffffffffffffffff16600860008573ffffffffffffffffffffffffffffffffffffffff1673ffffffffffffffffffffffffffffffffffffffff16815260200190815260200160002060009054906101000a900473ffffffffffffffffffffffffffffffffffffffff1673ffffffffffffffffffffffffffffffffffffffff1603612756576001905061275b565b600090505b92915050565b60006002600083815260200190815260200160002060009054906101000a900473ffffffffffffffffffffffffffffffffffffffff169050919050565b600081815481106127ae57600080fd5b90600052602060002090600a02016000915090508060000154908060010180546127d7906140d8565b80601f0160208091040260200160405190810160405280929190818152602001828054612803906140d8565b80156128505780601f1061282557610100808354040283529160200191612850565b820191906000526020600020905b81548152906001019060200180831161283357829003601f168201915b505050505090806002018054612865906140d8565b80601f0160208091040260200160405190810160405280929190818152602001828054612891906140d8565b80156128de5780601f106128b3576101008083540402835291602001916128de565b820191906000526020600020905b8154815290600101906020018083116128c157829003601f168201915b5050505050908060030180546128f3906140d8565b80601f016020809104026020016040519081016040528092919081815260200182805461291f906140d8565b801561296c5780601f106129415761010080835404028352916020019161296c565b820191906000526020600020905b81548152906001019060200180831161294f57829003601f168201915b5050505050908060040160009054906101000a900461ffff16908060040160029054906101000a900463ffffffff16908060080154908060090180546129b1906140d8565b80601f01602080910402602001604051908101604052809291908181526020018280546129dd906140d8565b8015612a2a5780601f106129ff57610100808354040283529160200191612a2a565b820191906000526020600020905b815481529060010190602001808311612a0d57829003601f168201915b5050505050905088565b600073ffffffffffffffffffffffffffffffffffffffff168273ffffffffffffffffffffffffffffffffffffffff1614158015612a9d57508273ffffffffffffffffffffffffffffffffffffffff168273ffffffffffffffffffffffffffffffffffffffff1614155b612adc576040517f08c379a0000000000000000000000000000000000000000000000000000000008152600401612ad390614500565b60405180910390fd5b6002600082815260200190815260200160002060009054906101000a900473ffffffffffffffffffffffffffffffffffffffff1673ffffffffffffffffffffffffffffffffffffffff168373ffffffffffffffffffffffffffffffffffffffff1614612b7d576040517f08c379a0000000000000000000000000000000000000000000000000000000008152600401612b749061456c565b60405180910390fd5b6002600082815260200190815260200160002060009054906101000a900473ffffffffffffffffffffffffffffffffffffffff1673ffffffffffffffffffffffffffffffffffffffff163373ffffffffffffffffffffffffffffffffffffffff161480612c4857506007600082815260200190815260200160002060009054906101000a900473ffffffffffffffffffffffffffffffffffffffff1673ffffffffffffffffffffffffffffffffffffffff163373ffffffffffffffffffffffffffffffffffffffff16145b80612cdd5750600860003373ffffffffffffffffffffffffffffffffffffffff1673ffffffffffffffffffffffffffffffffffffffff16815260200190815260200160002060009054906101000a900473ffffffffffffffffffffffffffffffffffffffff1673ffffffffffffffffffffffffffffffffffffffff163373ffffffffffffffffffffffffffffffffffffffff16145b80612d6f57506006600082815260200190815260200160002060009054906101000a900460ff168015612d6e57503073ffffffffffffffffffffffffffffffffffffffff166007600083815260200190815260200160002060009054906101000a900473ffffffffffffffffffffffffffffffffffffffff1673ffffffffffffffffffffffffffffffffffffffff16145b5b612dae576040517f08c379a0000000000000000000000000000000000000000000000000000000008152600401612da59061464a565b60405180910390fd5b505050565b600360008473ffffffffffffffffffffffffffffffffffffffff1673ffffffffffffffffffffffffffffffffffffffff1681526020019081526020016000206000815480929190612e0390613fb1565b9190505550600360008373ffffffffffffffffffffffffffffffffffffffff1673ffffffffffffffffffffffffffffffffffffffff1681526020019081526020016000206000815480929190612e5890614109565b9190505550816002600083815260200190815260200160002060006101000a81548173ffffffffffffffffffffffffffffffffffffffff021916908373ffffffffffffffffffffffffffffffffffffffff16021790555060008181548110612ec357612ec2613fda565b5b90600052602060002090600a0201600501829080600181540180825580915050600190039060005260206000200160009091909190916101000a81548173ffffffffffffffffffffffffffffffffffffffff021916908373ffffffffffffffffffffffffffffffffffffffff16021790555060008181548110612f4957612f48613fda565b5b90600052602060002090600a020160060142908060018154018082558091505060019003906000526020600020016000909190919091505560008181548110612f9557612f94613fda565b5b90600052602060002090600a020160070160008281548110612fba57612fb9613fda565b5b90600052602060002090600a020160080154908060018154018082558091505060019003906000526020600020016000909190919091505560006006600083815260200190815260200160002060006101000a81548160ff0219169083151502179055506001600081548092919061303190613fb1565b919050555060006007600083815260200190815260200160002060006101000a81548173ffffffffffffffffffffffffffffffffffffffff021916908373ffffffffffffffffffffffffffffffffffffffff160217905550505050565b60405180610160016040528060008152602001606081526020016060815260200160608152602001600061ffff168152602001600063ffffffff16815260200160608152602001606081526020016060815260200160008152602001606081525090565b82805482825590600052602060002090810192821561316b579160200282015b8281111561316a5782518260006101000a81548173ffffffffffffffffffffffffffffffffffffffff021916908373ffffffffffffffffffffffffffffffffffffffff16021790555091602001919060010190613112565b5b50905061317891906131c9565b5090565b8280548282559060005260206000209081019282156131b8579160200282015b828111156131b757825182559160200191906001019061319c565b5b5090506131c591906131c9565b5090565b5b808211156131e25760008160009055506001016131ca565b5090565b600081519050919050565b600082825260208201905092915050565b60005b83811015613220578082015181840152602081019050613205565b60008484015250505050565b6000601f19601f8301169050919050565b6000613248826131e6565b61325281856131f1565b9350613262818560208601613202565b61326b8161322c565b840191505092915050565b60006020820190508181036000830152613290818461323d565b905092915050565b6000604051905090565b600080fd5b600080fd5b6000819050919050565b6132bf816132ac565b81146132ca57600080fd5b50565b6000813590506132dc816132b6565b92915050565b6000602082840312156132f8576132f76132a2565b5b6000613306848285016132cd565b91505092915050565b600073ffffffffffffffffffffffffffffffffffffffff82169050919050565b600061333a8261330f565b9050919050565b61334a8161332f565b82525050565b60006020820190506133656000830184613341565b92915050565b6133748161332f565b811461337f57600080fd5b50565b6000813590506133918161336b565b92915050565b600080604083850312156133ae576133ad6132a2565b5b60006133bc85828601613382565b92505060206133cd858286016132cd565b9150509250929050565b6000806000606084860312156133f0576133ef6132a2565b5b60006133fe86828701613382565b935050602061340f86828701613382565b9250506040613420868287016132cd565b9150509250925092565b60008115159050919050565b61343f8161342a565b82525050565b600060208201905061345a6000830184613436565b92915050565b600060208284031215613476576134756132a2565b5b600061348484828501613382565b91505092915050565b600081519050919050565b600082825260208201905092915050565b6000819050602082019050919050565b6134c2816132ac565b82525050565b600082825260208201905092915050565b60006134e4826131e6565b6134ee81856134c8565b93506134fe818560208601613202565b6135078161322c565b840191505092915050565b600061ffff82169050919050565b61352981613512565b82525050565b600063ffffffff82169050919050565b6135488161352f565b82525050565b600081519050919050565b600082825260208201905092915050565b6000819050602082019050919050565b6135838161332f565b82525050565b6000613595838361357a565b60208301905092915050565b6000602082019050919050565b60006135b98261354e565b6135c38185613559565b93506135ce8361356a565b8060005b838110156135ff5781516135e68882613589565b97506135f1836135a1565b9250506001810190506135d2565b5085935050505092915050565b600081519050919050565b600082825260208201905092915050565b6000819050602082019050919050565b600061364483836134b9565b60208301905092915050565b6000602082019050919050565b60006136688261360c565b6136728185613617565b935061367d83613628565b8060005b838110156136ae5781516136958882613638565b97506136a083613650565b925050600181019050613681565b5085935050505092915050565b6000610160830160008301516136d460008601826134b9565b50602083015184820360208601526136ec82826134d9565b9150506040830151848203604086015261370682826134d9565b9150506060830151848203606086015261372082826134d9565b91505060808301516137356080860182613520565b5060a083015161374860a086018261353f565b5060c083015184820360c086015261376082826135ae565b91505060e083015184820360e086015261377a828261365d565b915050610100830151848203610100860152613796828261365d565b9150506101208301516137ad6101208601826134b9565b506101408301518482036101408601526137c782826134d9565b9150508091505092915050565b60006137e083836136bb565b905092915050565b6000602082019050919050565b60006138008261348d565b61380a8185613498565b93508360208202850161381c856134a9565b8060005b85811015613858578484038952815161383985826137d4565b9450613844836137e8565b925060208a01995050600181019050613820565b50829750879550505050505092915050565b6000602082019050818103600083015261388481846137f5565b905092915050565b613895816132ac565b82525050565b60006020820190506138b0600083018461388c565b92915050565b600080604083850312156138cd576138cc6132a2565b5b60006138db858286016132cd565b92505060206138ec858286016132cd565b9150509250929050565b6138ff8161342a565b811461390a57600080fd5b50565b60008135905061391c816138f6565b92915050565b60008060408385031215613939576139386132a2565b5b600061394785828601613382565b92505060206139588582860161390d565b9150509250929050565b600080fd5b600080fd5b7f4e487b7100000000000000000000000000000000000000000000000000000000600052604160045260246000fd5b6139a48261322c565b810181811067ffffffffffffffff821117156139c3576139c261396c565b5b80604052505050565b60006139d6613298565b90506139e2828261399b565b919050565b600067ffffffffffffffff821115613a0257613a0161396c565b5b613a0b8261322c565b9050602081019050919050565b82818337600083830152505050565b6000613a3a613a35846139e7565b6139cc565b905082815260208101848484011115613a5657613a55613967565b5b613a61848285613a18565b509392505050565b600082601f830112613a7e57613a7d613962565b5b8135613a8e848260208601613a27565b91505092915050565b60008060008060808587031215613ab157613ab06132a2565b5b6000613abf87828801613382565b9450506020613ad087828801613382565b9350506040613ae1878288016132cd565b925050606085013567ffffffffffffffff811115613b0257613b016132a7565b5b613b0e87828801613a69565b91505092959194509250565b600067ffffffffffffffff821115613b3557613b3461396c565b5b613b3e8261322c565b9050602081019050919050565b6000613b5e613b5984613b1a565b6139cc565b905082815260208101848484011115613b7a57613b79613967565b5b613b85848285613a18565b509392505050565b600082601f830112613ba257613ba1613962565b5b8135613bb2848260208601613b4b565b91505092915050565b613bc481613512565b8114613bcf57600080fd5b50565b600081359050613be181613bbb565b92915050565b613bf08161352f565b8114613bfb57600080fd5b50565b600081359050613c0d81613be7565b92915050565b60008060008060008060008060006101208a8c031215613c3657613c356132a2565b5b60008a013567ffffffffffffffff811115613c5457613c536132a7565b5b613c608c828d01613b8d565b99505060208a013567ffffffffffffffff811115613c8157613c806132a7565b5b613c8d8c828d01613b8d565b98505060408a013567ffffffffffffffff811115613cae57613cad6132a7565b5b613cba8c828d01613b8d565b97505060608a013567ffffffffffffffff811115613cdb57613cda6132a7565b5b613ce78c828d01613b8d565b9650506080613cf88c828d016132cd565b95505060a0613d098c828d016132cd565b94505060c0613d1a8c828d01613bd2565b93505060e0613d2b8c828d01613bfe565b9250506101008a013567ffffffffffffffff811115613d4d57613d4c6132a7565b5b613d598c828d01613b8d565b9150509295985092959850929598565b600060208284031215613d7f57613d7e6132a2565b5b600082013567ffffffffffffffff811115613d9d57613d9c6132a7565b5b613da984828501613b8d565b91505092915050565b60008060408385031215613dc957613dc86132a2565b5b6000613dd785828601613382565b9250506020613de885828601613382565b9150509250929050565b613dfb81613512565b82525050565b613e0a8161352f565b82525050565b600061010082019050613e26600083018b61388c565b8181036020830152613e38818a61323d565b90508181036040830152613e4c818961323d565b90508181036060830152613e60818861323d565b9050613e6f6080830187613df2565b613e7c60a0830186613e01565b613e8960c083018561388c565b81810360e0830152613e9b818461323d565b90509998505050505050505050565b7f596f7520646f206e6f74206f776e207468697320746f6b656e00000000000000600082015250565b6000613ee06019836131f1565b9150613eeb82613eaa565b602082019050919050565b60006020820190508181036000830152613f0f81613ed3565b9050919050565b7f596f7520646f206e6f74206f776e20746861742070686f6e6549640000000000600082015250565b6000613f4c601b836131f1565b9150613f5782613f16565b602082019050919050565b60006020820190508181036000830152613f7b81613f3f565b9050919050565b7f4e487b7100000000000000000000000000000000000000000000000000000000600052601160045260246000fd5b6000613fbc826132ac565b915060008203613fcf57613fce613f82565b5b600182039050919050565b7f4e487b7100000000000000000000000000000000000000000000000000000000600052603260045260246000fd5b7f4e6f207061796d656e74206e6f20746f6b656e00000000000000000000000000600082015250565b600061403f6013836131f1565b915061404a82614009565b602082019050919050565b6000602082019050818103600083015261406e81614032565b9050919050565b6000614080826132ac565b915061408b836132ac565b92508282039050818111156140a3576140a2613f82565b5b92915050565b7f4e487b7100000000000000000000000000000000000000000000000000000000600052602260045260246000fd5b600060028204905060018216806140f057607f821691505b602082108103614103576141026140a9565b5b50919050565b6000614114826132ac565b91507fffffffffffffffffffffffffffffffffffffffffffffffffffffffffffffffff820361414657614145613f82565b5b600182019050919050565b600081905092915050565b6000614167826131e6565b6141718185614151565b9350614181818560208601613202565b80840191505092915050565b6000614199828461415c565b915081905092915050565b7f494d454920616c72656164792065786973747300000000000000000000000000600082015250565b60006141da6013836131f1565b91506141e5826141a4565b602082019050919050565b60006020820190508181036000830152614209816141cd565b9050919050565b60008190508160005260206000209050919050565b60006020601f8301049050919050565b600082821b905092915050565b6000600883026142727fffffffffffffffffffffffffffffffffffffffffffffffffffffffffffffffff82614235565b61427c8683614235565b95508019841693508086168417925050509392505050565b6000819050919050565b60006142b96142b46142af846132ac565b614294565b6132ac565b9050919050565b6000819050919050565b6142d38361429e565b6142e76142df826142c0565b848454614242565b825550505050565b600090565b6142fc6142ef565b6143078184846142ca565b505050565b5b8181101561432b576143206000826142f4565b60018101905061430d565b5050565b601f8211156143705761434181614210565b61434a84614225565b81016020851015614359578190505b61436d61436585614225565b83018261430c565b50505b505050565b600082821c905092915050565b600061439360001984600802614375565b1980831691505092915050565b60006143ac8383614382565b9150826002028217905092915050565b6143c5826131e6565b67ffffffffffffffff8111156143de576143dd61396c565b5b6143e882546140d8565b6143f382828561432f565b600060209050601f8311600181146144265760008415614414578287015190505b61441e85826143a0565b865550614486565b601f19841661443486614210565b60005b8281101561445c57848901518255600182019150602085019450602081019050614437565b868310156144795784890151614475601f891682614382565b8355505b6001600288020188555050505b505050505050565b7f5472616e7366657220697320746f20616464726573732030206f7220746f207460008201527f6865206f776e6572000000000000000000000000000000000000000000000000602082015250565b60006144ea6028836131f1565b91506144f58261448e565b604082019050919050565b60006020820190508181036000830152614519816144dd565b9050919050565b7f46726f6d206973206e6f7420746865206f776e65720000000000000000000000600082015250565b60006145566015836131f1565b915061456182614520565b602082019050919050565b6000602082019050818103600083015261458581614549565b9050919050565b7f5468652073656e646572206973206e6f7420746865206f776e65722c20616e2060008201527f617070726f766564206163636f756e742c20616e20617070726f766564206f7060208201527f657261746f7220666f7220616c6c20746f6b656e73206f722074686520746f6b60408201527f656e206973206f6e2073616c6500000000000000000000000000000000000000606082015250565b6000614634606d836131f1565b915061463f8261458c565b608082019050919050565b6000602082019050818103600083015261466381614627565b905091905056fe4e465420636f6c6c656374696f6e206f66207265616c2070686f6e65732076616c69646174656420627920494d454920a26469706673582212203a191b28a1c012462d9b368c70656ed9a2d985b94e19e81f7546bfdc6d84be2764736f6c63430008130033",
  "immutableReferences": {},
  "source": "// SPDX-License-Identifier: MIT\r\npragma solidity >=0.4.22 <0.9.0;\r\n\r\nimport \"./ERC721.sol\";\r\nimport \"./IERC721Metadata.sol\";\r\n\r\ncontract ERC721Metadata is ERC721, IERC721Metadata  {\r\n\r\n    function name() external view returns (string memory _name){\r\n        return \"NFT collection of real phones validated by IMEI \";\r\n    }\r\n\r\n    function symbol() external view returns (string memory _symbol){\r\n        return \"NFT collection of real phones validated by IMEI \";\r\n    }\r\n\r\n    function tokenURI(uint256 _tokenId) external view returns (string memory){\r\n        return phones[_tokenId].url;\r\n    }\r\n}",
  "sourcePath": "D:\\TFG\\ubu-secondhandchain\\truffle\\contracts\\ERC721Metadata.sol",
  "compiler": {
    "name": "solc",
    "version": "0.8.19+commit.7dd6d404.Emscripten.clang"
  },
  "schemaVersion": "3.4.13",
  "updatedAt": "2023-06-18T18:02:50.105Z",
  "networkType": "ethereum",
  "devdoc": {
    "events": {
      "Approval(address,address,uint256)": {
        "details": "This emits when the approved address for an NFT is changed or  reaffirmed. The zero address indicates there is no approved address.  When a Transfer event emits, this also indicates that the approved  address for that NFT (if any) is reset to none."
      },
      "ApprovalForAll(address,address,bool)": {
        "details": "This emits when an operator is enabled or disabled for an owner.  The operator can manage all NFTs of the owner."
      },
      "Transfer(address,address,uint256)": {
        "details": "This emits when ownership of any NFT changes by any mechanism.  This event emits when NFTs are created (`from` == 0) and destroyed  (`to` == 0). Exception: during contract creation, any number of NFTs  may be created and assigned without emitting Transfer. At the time of  any transfer, the approved address for that NFT (if any) is reset to none."
      }
    },
    "kind": "dev",
    "methods": {
      "approve(address,uint256)": {
        "details": "The zero address indicates there is no approved address.  Throws unless `msg.sender` is the current NFT owner, or an authorized  operator of the current owner.",
        "params": {
          "_approved": "The new approved NFT controller",
          "_tokenId": "The NFT to approve"
        }
      },
      "balanceOf(address)": {
        "details": "NFTs assigned to the zero address are considered invalid, and this  function throws for queries about the zero address.",
        "params": {
          "_owner": "An address for whom to query the balance"
        },
        "returns": {
          "_0": "The number of NFTs owned by `_owner`, possibly zero"
        }
      },
      "getApproved(uint256)": {
        "details": "Throws if `_tokenId` is not a valid NFT.",
        "params": {
          "_tokenId": "The NFT to find the approved address for"
        },
        "returns": {
          "_0": "The approved address for this NFT, or the zero address if there is none"
        }
      },
      "isApprovedForAll(address,address)": {
        "params": {
          "_operator": "The address that acts on behalf of the owner",
          "_owner": "The address that owns the NFTs"
        },
        "returns": {
          "_0": "True if `_operator` is an approved operator for `_owner`, false otherwise"
        }
      },
      "ownerOf(uint256)": {
        "details": "NFTs assigned to zero address are considered invalid, and queries  about them do throw.",
        "params": {
          "_tokenId": "The identifier for an NFT"
        },
        "returns": {
          "_0": "The address of the owner of the NFT"
        }
      },
      "safeTransferFrom(address,address,uint256)": {
        "details": "This works identically to the other function with an extra data parameter,  except this function just sets data to \"\".",
        "params": {
          "_from": "The current owner of the NFT",
          "_to": "The new owner",
          "_tokenId": "The NFT to transfer"
        }
      },
      "safeTransferFrom(address,address,uint256,bytes)": {
        "details": "Throws unless `msg.sender` is the current owner, an authorized  operator, or the approved address for this NFT. Throws if `_from` is  not the current owner. Throws if `_to` is the zero address. Throws if  `_tokenId` is not a valid NFT. When transfer is complete, this function  checks if `_to` is a smart contract (code size > 0). If so, it calls  `onERC721Received` on `_to` and throws if the return value is not  `bytes4(keccak256(\"onERC721Received(address,address,uint256,bytes)\"))`.",
        "params": {
          "_from": "The current owner of the NFT",
          "_to": "The new owner",
          "_tokenId": "The NFT to transfer",
          "data": "Additional data with no specified format, sent in call to `_to`"
        }
      },
      "setApprovalForAll(address,bool)": {
        "details": "Emits the ApprovalForAll event. The contract MUST allow  multiple operators per owner.",
        "params": {
          "_approved": "True if the operator is approved, false to revoke approval",
          "_operator": "Address to add to the set of authorized operators"
        }
      },
      "tokenURI(uint256)": {
        "details": "Throws if `_tokenId` is not a valid NFT. URIs are defined in RFC  3986. The URI may point to a JSON file that conforms to the \"ERC721  Metadata JSON Schema\"."
      },
      "transferFrom(address,address,uint256)": {
        "details": "Throws unless `msg.sender` is the current owner, an authorized  operator, or the approved address for this NFT. Throws if `_from` is  not the current owner. Throws if `_to` is the zero address. Throws if  `_tokenId` is not a valid NFT.",
        "params": {
          "_from": "The current owner of the NFT",
          "_to": "The new owner",
          "_tokenId": "The NFT to transfer"
        }
      }
    },
    "version": 1
  },
  "userdoc": {
    "kind": "user",
    "methods": {
      "approve(address,uint256)": {
        "notice": "Change or reaffirm the approved address for an NFT"
      },
      "balanceOf(address)": {
        "notice": "Count all NFTs assigned to an owner"
      },
      "getApproved(uint256)": {
        "notice": "Get the approved address for a single NFT"
      },
      "isApprovedForAll(address,address)": {
        "notice": "Query if an address is an authorized operator for another address"
      },
      "name()": {
        "notice": "A descriptive name for a collection of NFTs in this contract"
      },
      "ownerOf(uint256)": {
        "notice": "Find the owner of an NFT"
      },
      "safeTransferFrom(address,address,uint256)": {
        "notice": "Transfers the ownership of an NFT from one address to another address"
      },
      "safeTransferFrom(address,address,uint256,bytes)": {
        "notice": "Transfers the ownership of an NFT from one address to another address"
      },
      "setApprovalForAll(address,bool)": {
        "notice": "Enable or disable approval for a third party (\"operator\") to manage  all of `msg.sender`'s assets"
      },
      "symbol()": {
        "notice": "An abbreviated name for NFTs in this contract"
      },
      "tokenURI(uint256)": {
        "notice": "A distinct Uniform Resource Identifier (URI) for a given asset."
      },
      "transferFrom(address,address,uint256)": {
        "notice": "Transfer ownership of an NFT -- THE CALLER IS RESPONSIBLE  TO CONFIRM THAT `_to` IS CAPABLE OF RECEIVING NFTS OR ELSE  THEY MAY BE PERMANENTLY LOST"
      }
    },
    "version": 1
  }
}