{
  "contractName": "ERC721",
  "abi": [
    {
      "anonymous": false,
      "inputs": [
        {
          "indexed": true,
          "internalType": "address",
          "name": "_owner",
          "type": "address"
        },
        {
          "indexed": true,
          "internalType": "address",
          "name": "_approved",
          "type": "address"
        },
        {
          "indexed": true,
          "internalType": "uint256",
          "name": "_tokenId",
          "type": "uint256"
        }
      ],
      "name": "Approval",
      "type": "event"
    },
    {
      "anonymous": false,
      "inputs": [
        {
          "indexed": true,
          "internalType": "address",
          "name": "_owner",
          "type": "address"
        },
        {
          "indexed": true,
          "internalType": "address",
          "name": "_operator",
          "type": "address"
        },
        {
          "indexed": false,
          "internalType": "bool",
          "name": "_approved",
          "type": "bool"
        }
      ],
      "name": "ApprovalForAll",
      "type": "event"
    },
    {
      "anonymous": false,
      "inputs": [
        {
          "indexed": true,
          "internalType": "address",
          "name": "_from",
          "type": "address"
        },
        {
          "indexed": true,
          "internalType": "address",
          "name": "_to",
          "type": "address"
        },
        {
          "indexed": true,
          "internalType": "uint256",
          "name": "_tokenId",
          "type": "uint256"
        }
      ],
      "name": "Transfer",
      "type": "event"
    },
    {
      "inputs": [
        {
          "internalType": "string",
          "name": "_model",
          "type": "string"
        },
        {
          "internalType": "string",
          "name": "_imei",
          "type": "string"
        },
        {
          "internalType": "string",
          "name": "_brand",
          "type": "string"
        },
        {
          "internalType": "string",
          "name": "_colour",
          "type": "string"
        },
        {
          "internalType": "uint256",
          "name": "_price",
          "type": "uint256"
        },
        {
          "internalType": "uint256",
          "name": "_salePrice",
          "type": "uint256"
        },
        {
          "internalType": "uint16",
          "name": "_ram",
          "type": "uint16"
        },
        {
          "internalType": "uint32",
          "name": "_mem",
          "type": "uint32"
        }
      ],
      "name": "createPhone",
      "outputs": [],
      "stateMutability": "nonpayable",
      "type": "function"
    },
    {
      "inputs": [
        {
          "internalType": "address",
          "name": "_address",
          "type": "address"
        }
      ],
      "name": "getAllPhonesInAddress",
      "outputs": [
        {
          "components": [
            {
              "internalType": "uint256",
              "name": "id",
              "type": "uint256"
            },
            {
              "internalType": "string",
              "name": "model",
              "type": "string"
            },
            {
              "internalType": "string",
              "name": "brand",
              "type": "string"
            },
            {
              "internalType": "string",
              "name": "colour",
              "type": "string"
            },
            {
              "internalType": "uint16",
              "name": "ram",
              "type": "uint16"
            },
            {
              "internalType": "uint32",
              "name": "mem",
              "type": "uint32"
            },
            {
              "internalType": "address[]",
              "name": "owners",
              "type": "address[]"
            },
            {
              "internalType": "uint256[]",
              "name": "saleTime",
              "type": "uint256[]"
            },
            {
              "internalType": "uint256[]",
              "name": "salePrice",
              "type": "uint256[]"
            },
            {
              "internalType": "uint256",
              "name": "price",
              "type": "uint256"
            }
          ],
          "internalType": "struct SecondHandChain.Phone[]",
          "name": "",
          "type": "tuple[]"
        }
      ],
      "stateMutability": "view",
      "type": "function",
      "constant": true
    },
    {
      "inputs": [],
      "name": "getAllPhonesOnSale",
      "outputs": [
        {
          "components": [
            {
              "internalType": "uint256",
              "name": "id",
              "type": "uint256"
            },
            {
              "internalType": "string",
              "name": "model",
              "type": "string"
            },
            {
              "internalType": "string",
              "name": "brand",
              "type": "string"
            },
            {
              "internalType": "string",
              "name": "colour",
              "type": "string"
            },
            {
              "internalType": "uint16",
              "name": "ram",
              "type": "uint16"
            },
            {
              "internalType": "uint32",
              "name": "mem",
              "type": "uint32"
            },
            {
              "internalType": "address[]",
              "name": "owners",
              "type": "address[]"
            },
            {
              "internalType": "uint256[]",
              "name": "saleTime",
              "type": "uint256[]"
            },
            {
              "internalType": "uint256[]",
              "name": "salePrice",
              "type": "uint256[]"
            },
            {
              "internalType": "uint256",
              "name": "price",
              "type": "uint256"
            }
          ],
          "internalType": "struct SecondHandChain.Phone[]",
          "name": "",
          "type": "tuple[]"
        }
      ],
      "stateMutability": "view",
      "type": "function",
      "constant": true
    },
    {
      "inputs": [
        {
          "internalType": "uint256",
          "name": "_id",
          "type": "uint256"
        }
      ],
      "name": "getIsPhoneOnSale",
      "outputs": [
        {
          "internalType": "bool",
          "name": "",
          "type": "bool"
        }
      ],
      "stateMutability": "view",
      "type": "function",
      "constant": true
    },
    {
      "inputs": [
        {
          "internalType": "uint256",
          "name": "_id",
          "type": "uint256"
        }
      ],
      "name": "getPhoneOwner",
      "outputs": [
        {
          "internalType": "address",
          "name": "",
          "type": "address"
        }
      ],
      "stateMutability": "view",
      "type": "function",
      "constant": true
    },
    {
      "inputs": [],
      "name": "getPhones",
      "outputs": [
        {
          "components": [
            {
              "internalType": "uint256",
              "name": "id",
              "type": "uint256"
            },
            {
              "internalType": "string",
              "name": "model",
              "type": "string"
            },
            {
              "internalType": "string",
              "name": "brand",
              "type": "string"
            },
            {
              "internalType": "string",
              "name": "colour",
              "type": "string"
            },
            {
              "internalType": "uint16",
              "name": "ram",
              "type": "uint16"
            },
            {
              "internalType": "uint32",
              "name": "mem",
              "type": "uint32"
            },
            {
              "internalType": "address[]",
              "name": "owners",
              "type": "address[]"
            },
            {
              "internalType": "uint256[]",
              "name": "saleTime",
              "type": "uint256[]"
            },
            {
              "internalType": "uint256[]",
              "name": "salePrice",
              "type": "uint256[]"
            },
            {
              "internalType": "uint256",
              "name": "price",
              "type": "uint256"
            }
          ],
          "internalType": "struct SecondHandChain.Phone[]",
          "name": "",
          "type": "tuple[]"
        }
      ],
      "stateMutability": "view",
      "type": "function",
      "constant": true
    },
    {
      "inputs": [
        {
          "internalType": "string",
          "name": "_imei",
          "type": "string"
        }
      ],
      "name": "imeiRegistered",
      "outputs": [
        {
          "internalType": "bool",
          "name": "",
          "type": "bool"
        }
      ],
      "stateMutability": "view",
      "type": "function",
      "constant": true
    },
    {
      "inputs": [
        {
          "internalType": "uint256",
          "name": "",
          "type": "uint256"
        }
      ],
      "name": "phones",
      "outputs": [
        {
          "internalType": "uint256",
          "name": "id",
          "type": "uint256"
        },
        {
          "internalType": "string",
          "name": "model",
          "type": "string"
        },
        {
          "internalType": "string",
          "name": "brand",
          "type": "string"
        },
        {
          "internalType": "string",
          "name": "colour",
          "type": "string"
        },
        {
          "internalType": "uint16",
          "name": "ram",
          "type": "uint16"
        },
        {
          "internalType": "uint32",
          "name": "mem",
          "type": "uint32"
        },
        {
          "internalType": "uint256",
          "name": "price",
          "type": "uint256"
        }
      ],
      "stateMutability": "view",
      "type": "function",
      "constant": true
    },
    {
      "inputs": [
        {
          "internalType": "uint256",
          "name": "_price",
          "type": "uint256"
        },
        {
          "internalType": "uint256",
          "name": "_phoneId",
          "type": "uint256"
        }
      ],
      "name": "putPhoneOnSale",
      "outputs": [],
      "stateMutability": "nonpayable",
      "type": "function"
    },
    {
      "inputs": [
        {
          "internalType": "uint256",
          "name": "_phoneId",
          "type": "uint256"
        }
      ],
      "name": "removePhoneFromSale",
      "outputs": [],
      "stateMutability": "nonpayable",
      "type": "function"
    },
    {
      "inputs": [
        {
          "internalType": "address",
          "name": "_owner",
          "type": "address"
        }
      ],
      "name": "balanceOf",
      "outputs": [
        {
          "internalType": "uint256",
          "name": "",
          "type": "uint256"
        }
      ],
      "stateMutability": "view",
      "type": "function",
      "constant": true
    },
    {
      "inputs": [
        {
          "internalType": "uint256",
          "name": "_tokenId",
          "type": "uint256"
        }
      ],
      "name": "ownerOf",
      "outputs": [
        {
          "internalType": "address",
          "name": "",
          "type": "address"
        }
      ],
      "stateMutability": "view",
      "type": "function",
      "constant": true
    },
    {
      "inputs": [
        {
          "internalType": "address",
          "name": "_from",
          "type": "address"
        },
        {
          "internalType": "address",
          "name": "_to",
          "type": "address"
        },
        {
          "internalType": "uint256",
          "name": "_tokenId",
          "type": "uint256"
        }
      ],
      "name": "safeTransferFrom",
      "outputs": [],
      "stateMutability": "payable",
      "type": "function",
      "payable": true
    },
    {
      "inputs": [
        {
          "internalType": "address",
          "name": "_from",
          "type": "address"
        },
        {
          "internalType": "address",
          "name": "_to",
          "type": "address"
        },
        {
          "internalType": "uint256",
          "name": "_tokenId",
          "type": "uint256"
        },
        {
          "internalType": "bytes",
          "name": "data",
          "type": "bytes"
        }
      ],
      "name": "safeTransferFrom",
      "outputs": [],
      "stateMutability": "payable",
      "type": "function",
      "payable": true
    },
    {
      "inputs": [
        {
          "internalType": "address",
          "name": "_from",
          "type": "address"
        },
        {
          "internalType": "address",
          "name": "_to",
          "type": "address"
        },
        {
          "internalType": "uint256",
          "name": "_tokenId",
          "type": "uint256"
        }
      ],
      "name": "transferFrom",
      "outputs": [],
      "stateMutability": "payable",
      "type": "function",
      "payable": true
    },
    {
      "inputs": [
        {
          "internalType": "address",
          "name": "_approved",
          "type": "address"
        },
        {
          "internalType": "uint256",
          "name": "_tokenId",
          "type": "uint256"
        }
      ],
      "name": "approve",
      "outputs": [],
      "stateMutability": "payable",
      "type": "function",
      "payable": true
    },
    {
      "inputs": [
        {
          "internalType": "address",
          "name": "_operator",
          "type": "address"
        },
        {
          "internalType": "bool",
          "name": "_approved",
          "type": "bool"
        }
      ],
      "name": "setApprovalForAll",
      "outputs": [],
      "stateMutability": "nonpayable",
      "type": "function"
    },
    {
      "inputs": [
        {
          "internalType": "uint256",
          "name": "_tokenId",
          "type": "uint256"
        }
      ],
      "name": "getApproved",
      "outputs": [
        {
          "internalType": "address",
          "name": "",
          "type": "address"
        }
      ],
      "stateMutability": "view",
      "type": "function",
      "constant": true
    },
    {
      "inputs": [
        {
          "internalType": "address",
          "name": "_owner",
          "type": "address"
        },
        {
          "internalType": "address",
          "name": "_operator",
          "type": "address"
        }
      ],
      "name": "isApprovedForAll",
      "outputs": [
        {
          "internalType": "bool",
          "name": "",
          "type": "bool"
        }
      ],
      "stateMutability": "view",
      "type": "function",
      "constant": true
    }
  ],
  "bytecode": "0x608060405234801561001057600080fd5b50614203806100206000396000f3fe6080604052600436106101145760003560e01c806370a08231116100a0578063d4dbc41c11610064578063d4dbc41c14610389578063d72bbae2146103b4578063e985e9c5146103f1578063f09e19f21461042e578063f37306531461046b57610114565b806370a08231146102b557806374c97cd5146102f2578063a22cb4651461031b578063b88d4fde14610344578063c19944161461036057610114565b80633664e2de116100e75780633664e2de146101b7578063418696fa146101f457806342842e0e146102315780635b884f6f1461024d5780636352211e1461027857610114565b8063081812fc14610119578063095ea7b31461015657806323b104fa1461017257806323b872dd1461019b575b600080fd5b34801561012557600080fd5b50610140600480360381019061013b9190612e17565b6104ae565b60405161014d9190612e85565b60405180910390f35b610170600480360381019061016b9190612ecc565b6104eb565b005b34801561017e57600080fd5b5061019960048036038101906101949190612e17565b610670565b005b6101b560048036038101906101b09190612f0c565b6107ab565b005b3480156101c357600080fd5b506101de60048036038101906101d99190612e17565b6109cd565b6040516101eb9190612f7a565b60405180910390f35b34801561020057600080fd5b5061021b60048036038101906102169190612f95565b6109f7565b60405161022891906133c9565b60405180910390f35b61024b60048036038101906102469190612f0c565b610ece565b005b34801561025957600080fd5b506102626110f0565b60405161026f91906133c9565b60405180910390f35b34801561028457600080fd5b5061029f600480360381019061029a9190612e17565b611548565b6040516102ac9190612e85565b60405180910390f35b3480156102c157600080fd5b506102dc60048036038101906102d79190612f95565b611585565b6040516102e991906133fa565b60405180910390f35b3480156102fe57600080fd5b5061031960048036038101906103149190613415565b6115ce565b005b34801561032757600080fd5b50610342600480360381019061033d9190613481565b611733565b005b61035e600480360381019061035991906135f6565b6118a5565b005b34801561036c57600080fd5b5061038760048036038101906103829190613772565b611ac8565b005b34801561039557600080fd5b5061039e611f52565b6040516103ab91906133c9565b60405180910390f35b3480156103c057600080fd5b506103db60048036038101906103d69190613898565b612300565b6040516103e89190612f7a565b60405180910390f35b3480156103fd57600080fd5b50610418600480360381019061041391906138e1565b612335565b6040516104259190612f7a565b60405180910390f35b34801561043a57600080fd5b5061045560048036038101906104509190612e17565b6123dd565b6040516104629190612e85565b60405180910390f35b34801561047757600080fd5b50610492600480360381019061048d9190612e17565b61241a565b6040516104a59796959493929190613989565b60405180910390f35b60006007600083815260200190815260200160002060009054906101000a900473ffffffffffffffffffffffffffffffffffffffff169050919050565b6002600082815260200190815260200160002060009054906101000a900473ffffffffffffffffffffffffffffffffffffffff1673ffffffffffffffffffffffffffffffffffffffff163373ffffffffffffffffffffffffffffffffffffffff161461058c576040517f08c379a000000000000000000000000000000000000000000000000000000000815260040161058390613a59565b60405180910390fd5b816007600083815260200190815260200160002060006101000a81548173ffffffffffffffffffffffffffffffffffffffff021916908373ffffffffffffffffffffffffffffffffffffffff160217905550808273ffffffffffffffffffffffffffffffffffffffff166002600084815260200190815260200160002060009054906101000a900473ffffffffffffffffffffffffffffffffffffffff1673ffffffffffffffffffffffffffffffffffffffff167f8c5be1e5ebec7d5bd14f71427d1e84f3dd0314c0f7b2291e5b200ac8c7c3b92560405160405180910390a45050565b3373ffffffffffffffffffffffffffffffffffffffff166002600083815260200190815260200160002060009054906101000a900473ffffffffffffffffffffffffffffffffffffffff1673ffffffffffffffffffffffffffffffffffffffff1614610711576040517f08c379a000000000000000000000000000000000000000000000000000000000815260040161070890613ac5565b60405180910390fd5b60006006600083815260200190815260200160002060006101000a81548160ff02191690831515021790555060006007600083815260200190815260200160002060006101000a81548173ffffffffffffffffffffffffffffffffffffffff021916908373ffffffffffffffffffffffffffffffffffffffff160217905550600160008154809291906107a390613b14565b919050555050565b6107b6838383612622565b600081815481106107ca576107c9613b3d565b5b90600052602060002090600902016008015434101561081e576040517f08c379a000000000000000000000000000000000000000000000000000000000815260040161081590613bb8565b60405180910390fd5b6000818154811061083257610831613b3d565b5b9060005260206000209060090201600801543411156108c3573373ffffffffffffffffffffffffffffffffffffffff166108fc6000838154811061087957610878613b3d565b5b906000526020600020906009020160080154346108969190613bd8565b9081150290604051600060405180830381858888f193505050501580156108c1573d6000803e3d6000fd5b505b6002600082815260200190815260200160002060009054906101000a900473ffffffffffffffffffffffffffffffffffffffff1673ffffffffffffffffffffffffffffffffffffffff166108fc6000838154811061092457610923613b3d565b5b9060005260206000209060090201600801549081150290604051600060405180830381858888f19350505050158015610961573d6000803e3d6000fd5b5061096d8383836129a1565b808273ffffffffffffffffffffffffffffffffffffffff168473ffffffffffffffffffffffffffffffffffffffff167fddf252ad1be2c89b69c2b068fc378daa952ba7f163c4a11628f55a4df523b3ef60405160405180910390a4505050565b60006006600083815260200190815260200160002060009054906101000a900460ff169050919050565b60606000600360008473ffffffffffffffffffffffffffffffffffffffff1673ffffffffffffffffffffffffffffffffffffffff1681526020019081526020016000205467ffffffffffffffff811115610a5457610a536134cb565b5b604051908082528060200260200182016040528015610a8d57816020015b610a7a612c7c565b815260200190600190039081610a725790505b5090506000805b600080549050811015610ec3578473ffffffffffffffffffffffffffffffffffffffff166002600083815260200190815260200160002060009054906101000a900473ffffffffffffffffffffffffffffffffffffffff1673ffffffffffffffffffffffffffffffffffffffff1603610eb05760008181548110610b1b57610b1a613b3d565b5b90600052602060002090600902016040518061014001604052908160008201548152602001600182018054610b4f90613c3b565b80601f0160208091040260200160405190810160405280929190818152602001828054610b7b90613c3b565b8015610bc85780601f10610b9d57610100808354040283529160200191610bc8565b820191906000526020600020905b815481529060010190602001808311610bab57829003601f168201915b50505050508152602001600282018054610be190613c3b565b80601f0160208091040260200160405190810160405280929190818152602001828054610c0d90613c3b565b8015610c5a5780601f10610c2f57610100808354040283529160200191610c5a565b820191906000526020600020905b815481529060010190602001808311610c3d57829003601f168201915b50505050508152602001600382018054610c7390613c3b565b80601f0160208091040260200160405190810160405280929190818152602001828054610c9f90613c3b565b8015610cec5780601f10610cc157610100808354040283529160200191610cec565b820191906000526020600020905b815481529060010190602001808311610ccf57829003601f168201915b505050505081526020016004820160009054906101000a900461ffff1661ffff1661ffff1681526020016004820160029054906101000a900463ffffffff1663ffffffff1663ffffffff16815260200160058201805480602002602001604051908101604052809291908181526020018280548015610dc057602002820191906000526020600020905b8160009054906101000a900473ffffffffffffffffffffffffffffffffffffffff1673ffffffffffffffffffffffffffffffffffffffff1681526020019060010190808311610d76575b5050505050815260200160068201805480602002602001604051908101604052809291908181526020018280548015610e1857602002820191906000526020600020905b815481526020019060010190808311610e04575b5050505050815260200160078201805480602002602001604051908101604052809291908181526020018280548015610e7057602002820191906000526020600020905b815481526020019060010190808311610e5c575b50505050508152602001600882015481525050838381518110610e9657610e95613b3d565b5b60200260200101819052508180610eac90613c6c565b9250505b8080610ebb90613c6c565b915050610a94565b508192505050919050565b610ed9838383612622565b60008181548110610eed57610eec613b3d565b5b906000526020600020906009020160080154341015610f41576040517f08c379a0000000000000000000000000000000000000000000000000000000008152600401610f3890613bb8565b60405180910390fd5b60008181548110610f5557610f54613b3d565b5b906000526020600020906009020160080154341115610fe6573373ffffffffffffffffffffffffffffffffffffffff166108fc60008381548110610f9c57610f9b613b3d565b5b90600052602060002090600902016008015434610fb99190613bd8565b9081150290604051600060405180830381858888f19350505050158015610fe4573d6000803e3d6000fd5b505b6002600082815260200190815260200160002060009054906101000a900473ffffffffffffffffffffffffffffffffffffffff1673ffffffffffffffffffffffffffffffffffffffff166108fc6000838154811061104757611046613b3d565b5b9060005260206000209060090201600801549081150290604051600060405180830381858888f19350505050158015611084573d6000803e3d6000fd5b506110908383836129a1565b808273ffffffffffffffffffffffffffffffffffffffff168473ffffffffffffffffffffffffffffffffffffffff167fddf252ad1be2c89b69c2b068fc378daa952ba7f163c4a11628f55a4df523b3ef60405160405180910390a4505050565b6060600060015467ffffffffffffffff8111156111105761110f6134cb565b5b60405190808252806020026020018201604052801561114957816020015b611136612c7c565b81526020019060019003908161112e5790505b5090506000805b60008054905081101561153f576006600082815260200190815260200160002060009054906101000a900460ff161561152c576000818154811061119757611196613b3d565b5b906000526020600020906009020160405180610140016040529081600082015481526020016001820180546111cb90613c3b565b80601f01602080910402602001604051908101604052809291908181526020018280546111f790613c3b565b80156112445780601f1061121957610100808354040283529160200191611244565b820191906000526020600020905b81548152906001019060200180831161122757829003601f168201915b5050505050815260200160028201805461125d90613c3b565b80601f016020809104026020016040519081016040528092919081815260200182805461128990613c3b565b80156112d65780601f106112ab576101008083540402835291602001916112d6565b820191906000526020600020905b8154815290600101906020018083116112b957829003601f168201915b505050505081526020016003820180546112ef90613c3b565b80601f016020809104026020016040519081016040528092919081815260200182805461131b90613c3b565b80156113685780601f1061133d57610100808354040283529160200191611368565b820191906000526020600020905b81548152906001019060200180831161134b57829003601f168201915b505050505081526020016004820160009054906101000a900461ffff1661ffff1661ffff1681526020016004820160029054906101000a900463ffffffff1663ffffffff1663ffffffff1681526020016005820180548060200260200160405190810160405280929190818152602001828054801561143c57602002820191906000526020600020905b8160009054906101000a900473ffffffffffffffffffffffffffffffffffffffff1673ffffffffffffffffffffffffffffffffffffffff16815260200190600101908083116113f2575b505050505081526020016006820180548060200260200160405190810160405280929190818152602001828054801561149457602002820191906000526020600020905b815481526020019060010190808311611480575b50505050508152602001600782018054806020026020016040519081016040528092919081815260200182805480156114ec57602002820191906000526020600020905b8154815260200190600101908083116114d8575b5050505050815260200160088201548152505083838151811061151257611511613b3d565b5b6020026020010181905250818061152890613c6c565b9250505b808061153790613c6c565b915050611150565b50819250505090565b60006002600083815260200190815260200160002060009054906101000a900473ffffffffffffffffffffffffffffffffffffffff169050919050565b6000600360008373ffffffffffffffffffffffffffffffffffffffff1673ffffffffffffffffffffffffffffffffffffffff168152602001908152602001600020549050919050565b3373ffffffffffffffffffffffffffffffffffffffff166002600083815260200190815260200160002060009054906101000a900473ffffffffffffffffffffffffffffffffffffffff1673ffffffffffffffffffffffffffffffffffffffff161461166f576040517f08c379a000000000000000000000000000000000000000000000000000000000815260040161166690613ac5565b60405180910390fd5b60016006600083815260200190815260200160002060006101000a81548160ff02191690831515021790555081600082815481106116b0576116af613b3d565b5b906000526020600020906009020160080181905550306007600083815260200190815260200160002060006101000a81548173ffffffffffffffffffffffffffffffffffffffff021916908373ffffffffffffffffffffffffffffffffffffffff1602179055506001600081548092919061172a90613c6c565b91905055505050565b80156117bc5781600860003373ffffffffffffffffffffffffffffffffffffffff1673ffffffffffffffffffffffffffffffffffffffff16815260200190815260200160002060006101000a81548173ffffffffffffffffffffffffffffffffffffffff021916908373ffffffffffffffffffffffffffffffffffffffff16021790555061183c565b6000600860003373ffffffffffffffffffffffffffffffffffffffff1673ffffffffffffffffffffffffffffffffffffffff16815260200190815260200160002060006101000a81548173ffffffffffffffffffffffffffffffffffffffff021916908373ffffffffffffffffffffffffffffffffffffffff1602179055505b8173ffffffffffffffffffffffffffffffffffffffff163373ffffffffffffffffffffffffffffffffffffffff167f17307eab39ab6107e8899845ad3d59bd9653f200f220920489ca2b5937696c31836040516118999190612f7a565b60405180910390a35050565b6118b0848484612622565b600082815481106118c4576118c3613b3d565b5b906000526020600020906009020160080154341015611918576040517f08c379a000000000000000000000000000000000000000000000000000000000815260040161190f90613bb8565b60405180910390fd5b6000828154811061192c5761192b613b3d565b5b9060005260206000209060090201600801543411156119bd573373ffffffffffffffffffffffffffffffffffffffff166108fc6000848154811061197357611972613b3d565b5b906000526020600020906009020160080154346119909190613bd8565b9081150290604051600060405180830381858888f193505050501580156119bb573d6000803e3d6000fd5b505b6002600083815260200190815260200160002060009054906101000a900473ffffffffffffffffffffffffffffffffffffffff1673ffffffffffffffffffffffffffffffffffffffff166108fc60008481548110611a1e57611a1d613b3d565b5b9060005260206000209060090201600801549081150290604051600060405180830381858888f19350505050158015611a5b573d6000803e3d6000fd5b50611a678484846129a1565b818373ffffffffffffffffffffffffffffffffffffffff168573ffffffffffffffffffffffffffffffffffffffff167fddf252ad1be2c89b69c2b068fc378daa952ba7f163c4a11628f55a4df523b3ef60405160405180910390a450505050565b60001515600588604051611adc9190613cf0565b908152602001604051809103902060009054906101000a900460ff16151514611b3a576040517f08c379a0000000000000000000000000000000000000000000000000000000008152600401611b3190613d53565b60405180910390fd5b611b42612c7c565b88816020018190525086816040018190525085816060018190525082816080019061ffff16908161ffff1681525050818160a0019063ffffffff16908163ffffffff168152505083816101200181815250506000819080600181540180825580915050600190039060005260206000209060090201600090919091909150600082015181600001556020820151816001019081611bdf9190613f1f565b506040820151816002019081611bf59190613f1f565b506060820151816003019081611c0b9190613f1f565b5060808201518160040160006101000a81548161ffff021916908361ffff16021790555060a08201518160040160026101000a81548163ffffffff021916908363ffffffff16021790555060c0820151816005019080519060200190611c72929190612cd9565b5060e0820151816006019080519060200190611c8f929190612d63565b50610100820151816007019080519060200190611cad929190612d63565b5061012082015181600801555050600360003373ffffffffffffffffffffffffffffffffffffffff1673ffffffffffffffffffffffffffffffffffffffff1681526020019081526020016000206000815480929190611d0b90613c6c565b919050555060006001600080549050611d249190613bd8565b90508060008281548110611d3b57611d3a613b3d565b5b90600052602060002090600902016000018190555060008181548110611d6457611d63613b3d565b5b9060005260206000209060090201600501339080600181540180825580915050600190039060005260206000200160009091909190916101000a81548173ffffffffffffffffffffffffffffffffffffffff021916908373ffffffffffffffffffffffffffffffffffffffff16021790555060008181548110611dea57611de9613b3d565b5b906000526020600020906009020160060142908060018154018082558091505060019003906000526020600020016000909190919091505560008181548110611e3657611e35613b3d565b5b9060005260206000209060090201600701869080600181540180825580915050600190039060005260206000200160009091909190915055336002600083815260200190815260200160002060006101000a81548173ffffffffffffffffffffffffffffffffffffffff021916908373ffffffffffffffffffffffffffffffffffffffff1602179055508060048a604051611ed19190613cf0565b90815260200160405180910390208190555060006006600083815260200190815260200160002060006101000a81548160ff021916908315150217905550600160058a604051611f219190613cf0565b908152602001604051809103902060006101000a81548160ff02191690831515021790555050505050505050505050565b60606000805480602002602001604051908101604052809291908181526020016000905b828210156122f757838290600052602060002090600902016040518061014001604052908160008201548152602001600182018054611fb490613c3b565b80601f0160208091040260200160405190810160405280929190818152602001828054611fe090613c3b565b801561202d5780601f106120025761010080835404028352916020019161202d565b820191906000526020600020905b81548152906001019060200180831161201057829003601f168201915b5050505050815260200160028201805461204690613c3b565b80601f016020809104026020016040519081016040528092919081815260200182805461207290613c3b565b80156120bf5780601f10612094576101008083540402835291602001916120bf565b820191906000526020600020905b8154815290600101906020018083116120a257829003601f168201915b505050505081526020016003820180546120d890613c3b565b80601f016020809104026020016040519081016040528092919081815260200182805461210490613c3b565b80156121515780601f1061212657610100808354040283529160200191612151565b820191906000526020600020905b81548152906001019060200180831161213457829003601f168201915b505050505081526020016004820160009054906101000a900461ffff1661ffff1661ffff1681526020016004820160029054906101000a900463ffffffff1663ffffffff1663ffffffff1681526020016005820180548060200260200160405190810160405280929190818152602001828054801561222557602002820191906000526020600020905b8160009054906101000a900473ffffffffffffffffffffffffffffffffffffffff1673ffffffffffffffffffffffffffffffffffffffff16815260200190600101908083116121db575b505050505081526020016006820180548060200260200160405190810160405280929190818152602001828054801561227d57602002820191906000526020600020905b815481526020019060010190808311612269575b50505050508152602001600782018054806020026020016040519081016040528092919081815260200182805480156122d557602002820191906000526020600020905b8154815260200190600101908083116122c1575b5050505050815260200160088201548152505081526020019060010190611f76565b50505050905090565b60006005826040516123129190613cf0565b908152602001604051809103902060009054906101000a900460ff169050919050565b60008173ffffffffffffffffffffffffffffffffffffffff16600860008573ffffffffffffffffffffffffffffffffffffffff1673ffffffffffffffffffffffffffffffffffffffff16815260200190815260200160002060009054906101000a900473ffffffffffffffffffffffffffffffffffffffff1673ffffffffffffffffffffffffffffffffffffffff16036123d257600190506123d7565b600090505b92915050565b60006002600083815260200190815260200160002060009054906101000a900473ffffffffffffffffffffffffffffffffffffffff169050919050565b6000818154811061242a57600080fd5b906000526020600020906009020160009150905080600001549080600101805461245390613c3b565b80601f016020809104026020016040519081016040528092919081815260200182805461247f90613c3b565b80156124cc5780601f106124a1576101008083540402835291602001916124cc565b820191906000526020600020905b8154815290600101906020018083116124af57829003601f168201915b5050505050908060020180546124e190613c3b565b80601f016020809104026020016040519081016040528092919081815260200182805461250d90613c3b565b801561255a5780601f1061252f5761010080835404028352916020019161255a565b820191906000526020600020905b81548152906001019060200180831161253d57829003601f168201915b50505050509080600301805461256f90613c3b565b80601f016020809104026020016040519081016040528092919081815260200182805461259b90613c3b565b80156125e85780601f106125bd576101008083540402835291602001916125e8565b820191906000526020600020905b8154815290600101906020018083116125cb57829003601f168201915b5050505050908060040160009054906101000a900461ffff16908060040160029054906101000a900463ffffffff16908060080154905087565b600073ffffffffffffffffffffffffffffffffffffffff168273ffffffffffffffffffffffffffffffffffffffff161415801561268b57508273ffffffffffffffffffffffffffffffffffffffff168273ffffffffffffffffffffffffffffffffffffffff1614155b6126ca576040517f08c379a00000000000000000000000000000000000000000000000000000000081526004016126c190614063565b60405180910390fd5b6002600082815260200190815260200160002060009054906101000a900473ffffffffffffffffffffffffffffffffffffffff1673ffffffffffffffffffffffffffffffffffffffff168373ffffffffffffffffffffffffffffffffffffffff161461276b576040517f08c379a0000000000000000000000000000000000000000000000000000000008152600401612762906140cf565b60405180910390fd5b6002600082815260200190815260200160002060009054906101000a900473ffffffffffffffffffffffffffffffffffffffff1673ffffffffffffffffffffffffffffffffffffffff163373ffffffffffffffffffffffffffffffffffffffff16148061283657506007600082815260200190815260200160002060009054906101000a900473ffffffffffffffffffffffffffffffffffffffff1673ffffffffffffffffffffffffffffffffffffffff163373ffffffffffffffffffffffffffffffffffffffff16145b806128cb5750600860003373ffffffffffffffffffffffffffffffffffffffff1673ffffffffffffffffffffffffffffffffffffffff16815260200190815260200160002060009054906101000a900473ffffffffffffffffffffffffffffffffffffffff1673ffffffffffffffffffffffffffffffffffffffff163373ffffffffffffffffffffffffffffffffffffffff16145b8061295d57506006600082815260200190815260200160002060009054906101000a900460ff16801561295c57503073ffffffffffffffffffffffffffffffffffffffff166007600083815260200190815260200160002060009054906101000a900473ffffffffffffffffffffffffffffffffffffffff1673ffffffffffffffffffffffffffffffffffffffff16145b5b61299c576040517f08c379a0000000000000000000000000000000000000000000000000000000008152600401612993906141ad565b60405180910390fd5b505050565b600360008473ffffffffffffffffffffffffffffffffffffffff1673ffffffffffffffffffffffffffffffffffffffff16815260200190815260200160002060008154809291906129f190613b14565b9190505550600360008373ffffffffffffffffffffffffffffffffffffffff1673ffffffffffffffffffffffffffffffffffffffff1681526020019081526020016000206000815480929190612a4690613c6c565b9190505550816002600083815260200190815260200160002060006101000a81548173ffffffffffffffffffffffffffffffffffffffff021916908373ffffffffffffffffffffffffffffffffffffffff16021790555060008181548110612ab157612ab0613b3d565b5b9060005260206000209060090201600501829080600181540180825580915050600190039060005260206000200160009091909190916101000a81548173ffffffffffffffffffffffffffffffffffffffff021916908373ffffffffffffffffffffffffffffffffffffffff16021790555060008181548110612b3757612b36613b3d565b5b906000526020600020906009020160060142908060018154018082558091505060019003906000526020600020016000909190919091505560008181548110612b8357612b82613b3d565b5b906000526020600020906009020160070160008281548110612ba857612ba7613b3d565b5b906000526020600020906009020160080154908060018154018082558091505060019003906000526020600020016000909190919091505560006006600083815260200190815260200160002060006101000a81548160ff02191690831515021790555060016000815480929190612c1f90613b14565b919050555060006007600083815260200190815260200160002060006101000a81548173ffffffffffffffffffffffffffffffffffffffff021916908373ffffffffffffffffffffffffffffffffffffffff160217905550505050565b60405180610140016040528060008152602001606081526020016060815260200160608152602001600061ffff168152602001600063ffffffff168152602001606081526020016060815260200160608152602001600081525090565b828054828255906000526020600020908101928215612d52579160200282015b82811115612d515782518260006101000a81548173ffffffffffffffffffffffffffffffffffffffff021916908373ffffffffffffffffffffffffffffffffffffffff16021790555091602001919060010190612cf9565b5b509050612d5f9190612db0565b5090565b828054828255906000526020600020908101928215612d9f579160200282015b82811115612d9e578251825591602001919060010190612d83565b5b509050612dac9190612db0565b5090565b5b80821115612dc9576000816000905550600101612db1565b5090565b6000604051905090565b600080fd5b600080fd5b6000819050919050565b612df481612de1565b8114612dff57600080fd5b50565b600081359050612e1181612deb565b92915050565b600060208284031215612e2d57612e2c612dd7565b5b6000612e3b84828501612e02565b91505092915050565b600073ffffffffffffffffffffffffffffffffffffffff82169050919050565b6000612e6f82612e44565b9050919050565b612e7f81612e64565b82525050565b6000602082019050612e9a6000830184612e76565b92915050565b612ea981612e64565b8114612eb457600080fd5b50565b600081359050612ec681612ea0565b92915050565b60008060408385031215612ee357612ee2612dd7565b5b6000612ef185828601612eb7565b9250506020612f0285828601612e02565b9150509250929050565b600080600060608486031215612f2557612f24612dd7565b5b6000612f3386828701612eb7565b9350506020612f4486828701612eb7565b9250506040612f5586828701612e02565b9150509250925092565b60008115159050919050565b612f7481612f5f565b82525050565b6000602082019050612f8f6000830184612f6b565b92915050565b600060208284031215612fab57612faa612dd7565b5b6000612fb984828501612eb7565b91505092915050565b600081519050919050565b600082825260208201905092915050565b6000819050602082019050919050565b612ff781612de1565b82525050565b600081519050919050565b600082825260208201905092915050565b60005b8381101561303757808201518184015260208101905061301c565b60008484015250505050565b6000601f19601f8301169050919050565b600061305f82612ffd565b6130698185613008565b9350613079818560208601613019565b61308281613043565b840191505092915050565b600061ffff82169050919050565b6130a48161308d565b82525050565b600063ffffffff82169050919050565b6130c3816130aa565b82525050565b600081519050919050565b600082825260208201905092915050565b6000819050602082019050919050565b6130fe81612e64565b82525050565b600061311083836130f5565b60208301905092915050565b6000602082019050919050565b6000613134826130c9565b61313e81856130d4565b9350613149836130e5565b8060005b8381101561317a5781516131618882613104565b975061316c8361311c565b92505060018101905061314d565b5085935050505092915050565b600081519050919050565b600082825260208201905092915050565b6000819050602082019050919050565b60006131bf8383612fee565b60208301905092915050565b6000602082019050919050565b60006131e382613187565b6131ed8185613192565b93506131f8836131a3565b8060005b8381101561322957815161321088826131b3565b975061321b836131cb565b9250506001810190506131fc565b5085935050505092915050565b60006101408301600083015161324f6000860182612fee565b50602083015184820360208601526132678282613054565b915050604083015184820360408601526132818282613054565b9150506060830151848203606086015261329b8282613054565b91505060808301516132b0608086018261309b565b5060a08301516132c360a08601826130ba565b5060c083015184820360c08601526132db8282613129565b91505060e083015184820360e08601526132f582826131d8565b91505061010083015184820361010086015261331182826131d8565b915050610120830151613328610120860182612fee565b508091505092915050565b600061333f8383613236565b905092915050565b6000602082019050919050565b600061335f82612fc2565b6133698185612fcd565b93508360208202850161337b85612fde565b8060005b858110156133b757848403895281516133988582613333565b94506133a383613347565b925060208a0199505060018101905061337f565b50829750879550505050505092915050565b600060208201905081810360008301526133e38184613354565b905092915050565b6133f481612de1565b82525050565b600060208201905061340f60008301846133eb565b92915050565b6000806040838503121561342c5761342b612dd7565b5b600061343a85828601612e02565b925050602061344b85828601612e02565b9150509250929050565b61345e81612f5f565b811461346957600080fd5b50565b60008135905061347b81613455565b92915050565b6000806040838503121561349857613497612dd7565b5b60006134a685828601612eb7565b92505060206134b78582860161346c565b9150509250929050565b600080fd5b600080fd5b7f4e487b7100000000000000000000000000000000000000000000000000000000600052604160045260246000fd5b61350382613043565b810181811067ffffffffffffffff82111715613522576135216134cb565b5b80604052505050565b6000613535612dcd565b905061354182826134fa565b919050565b600067ffffffffffffffff821115613561576135606134cb565b5b61356a82613043565b9050602081019050919050565b82818337600083830152505050565b600061359961359484613546565b61352b565b9050828152602081018484840111156135b5576135b46134c6565b5b6135c0848285613577565b509392505050565b600082601f8301126135dd576135dc6134c1565b5b81356135ed848260208601613586565b91505092915050565b600080600080608085870312156136105761360f612dd7565b5b600061361e87828801612eb7565b945050602061362f87828801612eb7565b935050604061364087828801612e02565b925050606085013567ffffffffffffffff81111561366157613660612ddc565b5b61366d878288016135c8565b91505092959194509250565b600067ffffffffffffffff821115613694576136936134cb565b5b61369d82613043565b9050602081019050919050565b60006136bd6136b884613679565b61352b565b9050828152602081018484840111156136d9576136d86134c6565b5b6136e4848285613577565b509392505050565b600082601f830112613701576137006134c1565b5b81356137118482602086016136aa565b91505092915050565b6137238161308d565b811461372e57600080fd5b50565b6000813590506137408161371a565b92915050565b61374f816130aa565b811461375a57600080fd5b50565b60008135905061376c81613746565b92915050565b600080600080600080600080610100898b03121561379357613792612dd7565b5b600089013567ffffffffffffffff8111156137b1576137b0612ddc565b5b6137bd8b828c016136ec565b985050602089013567ffffffffffffffff8111156137de576137dd612ddc565b5b6137ea8b828c016136ec565b975050604089013567ffffffffffffffff81111561380b5761380a612ddc565b5b6138178b828c016136ec565b965050606089013567ffffffffffffffff81111561383857613837612ddc565b5b6138448b828c016136ec565b95505060806138558b828c01612e02565b94505060a06138668b828c01612e02565b93505060c06138778b828c01613731565b92505060e06138888b828c0161375d565b9150509295985092959890939650565b6000602082840312156138ae576138ad612dd7565b5b600082013567ffffffffffffffff8111156138cc576138cb612ddc565b5b6138d8848285016136ec565b91505092915050565b600080604083850312156138f8576138f7612dd7565b5b600061390685828601612eb7565b925050602061391785828601612eb7565b9150509250929050565b600082825260208201905092915050565b600061393d82612ffd565b6139478185613921565b9350613957818560208601613019565b61396081613043565b840191505092915050565b6139748161308d565b82525050565b613983816130aa565b82525050565b600060e08201905061399e600083018a6133eb565b81810360208301526139b08189613932565b905081810360408301526139c48188613932565b905081810360608301526139d88187613932565b90506139e7608083018661396b565b6139f460a083018561397a565b613a0160c08301846133eb565b98975050505050505050565b7f596f7520646f206e6f74206f776e207468697320746f6b656e00000000000000600082015250565b6000613a43601983613921565b9150613a4e82613a0d565b602082019050919050565b60006020820190508181036000830152613a7281613a36565b9050919050565b7f596f7520646f206e6f74206f776e20746861742070686f6e6549640000000000600082015250565b6000613aaf601b83613921565b9150613aba82613a79565b602082019050919050565b60006020820190508181036000830152613ade81613aa2565b9050919050565b7f4e487b7100000000000000000000000000000000000000000000000000000000600052601160045260246000fd5b6000613b1f82612de1565b915060008203613b3257613b31613ae5565b5b600182039050919050565b7f4e487b7100000000000000000000000000000000000000000000000000000000600052603260045260246000fd5b7f4e6f207061796d656e74206e6f20746f6b656e00000000000000000000000000600082015250565b6000613ba2601383613921565b9150613bad82613b6c565b602082019050919050565b60006020820190508181036000830152613bd181613b95565b9050919050565b6000613be382612de1565b9150613bee83612de1565b9250828203905081811115613c0657613c05613ae5565b5b92915050565b7f4e487b7100000000000000000000000000000000000000000000000000000000600052602260045260246000fd5b60006002820490506001821680613c5357607f821691505b602082108103613c6657613c65613c0c565b5b50919050565b6000613c7782612de1565b91507fffffffffffffffffffffffffffffffffffffffffffffffffffffffffffffffff8203613ca957613ca8613ae5565b5b600182019050919050565b600081905092915050565b6000613cca82612ffd565b613cd48185613cb4565b9350613ce4818560208601613019565b80840191505092915050565b6000613cfc8284613cbf565b915081905092915050565b7f494d454920616c72656164792065786973747300000000000000000000000000600082015250565b6000613d3d601383613921565b9150613d4882613d07565b602082019050919050565b60006020820190508181036000830152613d6c81613d30565b9050919050565b60008190508160005260206000209050919050565b60006020601f8301049050919050565b600082821b905092915050565b600060088302613dd57fffffffffffffffffffffffffffffffffffffffffffffffffffffffffffffffff82613d98565b613ddf8683613d98565b95508019841693508086168417925050509392505050565b6000819050919050565b6000613e1c613e17613e1284612de1565b613df7565b612de1565b9050919050565b6000819050919050565b613e3683613e01565b613e4a613e4282613e23565b848454613da5565b825550505050565b600090565b613e5f613e52565b613e6a818484613e2d565b505050565b5b81811015613e8e57613e83600082613e57565b600181019050613e70565b5050565b601f821115613ed357613ea481613d73565b613ead84613d88565b81016020851015613ebc578190505b613ed0613ec885613d88565b830182613e6f565b50505b505050565b600082821c905092915050565b6000613ef660001984600802613ed8565b1980831691505092915050565b6000613f0f8383613ee5565b9150826002028217905092915050565b613f2882612ffd565b67ffffffffffffffff811115613f4157613f406134cb565b5b613f4b8254613c3b565b613f56828285613e92565b600060209050601f831160018114613f895760008415613f77578287015190505b613f818582613f03565b865550613fe9565b601f198416613f9786613d73565b60005b82811015613fbf57848901518255600182019150602085019450602081019050613f9a565b86831015613fdc5784890151613fd8601f891682613ee5565b8355505b6001600288020188555050505b505050505050565b7f5472616e7366657220697320746f20616464726573732030206f7220746f207460008201527f6865206f776e6572000000000000000000000000000000000000000000000000602082015250565b600061404d602883613921565b915061405882613ff1565b604082019050919050565b6000602082019050818103600083015261407c81614040565b9050919050565b7f46726f6d206973206e6f7420746865206f776e65720000000000000000000000600082015250565b60006140b9601583613921565b91506140c482614083565b602082019050919050565b600060208201905081810360008301526140e8816140ac565b9050919050565b7f5468652073656e646572206973206e6f7420746865206f776e65722c20616e2060008201527f617070726f766564206163636f756e742c20616e20617070726f766564206f7060208201527f657261746f7220666f7220616c6c20746f6b656e73206f722074686520746f6b60408201527f656e206973206f6e2073616c6500000000000000000000000000000000000000606082015250565b6000614197606d83613921565b91506141a2826140ef565b608082019050919050565b600060208201905081810360008301526141c68161418a565b905091905056fea2646970667358221220f10a244c02d37461fd2b307cac156fd5fc6371f769bd5c7e85346c8f16cd0eb764736f6c63430008130033",
  "immutableReferences": {},
  "source": "// SPDX-License-Identifier: MIT\r\npragma solidity >=0.4.22 <0.9.0;\r\n\r\nimport \"./IERC721.sol\";\r\nimport \"./SecondHandChain.sol\";\r\n\r\ncontract ERC721 is IERC721, SecondHandChain {\r\n\r\n    function balanceOf(address _owner) external view returns (uint256){\r\n        return phonesPerOwner[_owner];\r\n    }\r\n\r\n    function ownerOf(uint256 _tokenId) external view returns (address){\r\n        return phoneOwner[_tokenId];\r\n    }\r\n\r\n    function _validationPreTransfer(address _from, address _to, uint _phoneId) private view {        \r\n        require(_to != address(0) && _to != _from, \"Transfer is to address 0 or to the owner\" );\r\n        require(_from == phoneOwner[_phoneId] , \"From is not the owner\");\r\n        require(msg.sender == phoneOwner[_phoneId]\r\n            || msg.sender == phoneApproval[_phoneId]\r\n            || msg.sender == approvalForAll[msg.sender]\r\n            || ( isPhoneOnSale[_phoneId] && phoneApproval[_phoneId] == address(this))\r\n            , \"The sender is not the owner, an approved account, an approved operator for all tokens or the token is on sale\"\r\n        );\r\n    }\r\n\r\n\r\n    function _transfer(address _from, address _to, uint _phoneId) private {\r\n        phonesPerOwner[_from]--;\r\n        phonesPerOwner[_to]++;\r\n        phoneOwner[_phoneId]=_to;\r\n        phones[_phoneId].owners.push(_to);\r\n        phones[_phoneId].saleTime.push(block.timestamp);\r\n        phones[_phoneId].salePrice.push(phones[_phoneId].price);\r\n        isPhoneOnSale[_phoneId] = false;\r\n        numberOfPhonesOnSale--;\r\n        phoneApproval[_phoneId] = address(0);\r\n    }\r\n\r\n    function safeTransferFrom(address _from, address _to, uint256 _tokenId, bytes memory data) external payable{\r\n        _validationPreTransfer(_from, _to, _tokenId);\r\n\r\n        require(msg.value >= phones[_tokenId].price, \"No payment no token\");\r\n\r\n        if (msg.value > phones[_tokenId].price){\r\n            payable(msg.sender).transfer(msg.value - phones[_tokenId].price);\r\n        }\r\n\r\n        payable(phoneOwner[_tokenId]).transfer(phones[_tokenId].price);\r\n    \r\n        _transfer(_from, _to, _tokenId);\r\n        emit Transfer(_from, _to, _tokenId);\r\n    }\r\n\r\n    function safeTransferFrom(address _from, address _to, uint256 _tokenId) external payable{\r\n        _validationPreTransfer(_from, _to, _tokenId);\r\n\r\n        require(msg.value >= phones[_tokenId].price, \"No payment no token\");\r\n\r\n        if (msg.value > phones[_tokenId].price){\r\n            payable(msg.sender).transfer(msg.value - phones[_tokenId].price);\r\n        }\r\n\r\n        payable(phoneOwner[_tokenId]).transfer(phones[_tokenId].price);\r\n\r\n        _transfer(_from, _to, _tokenId);\r\n        emit Transfer(_from, _to, _tokenId);\r\n    }\r\n\r\n    function transferFrom(address _from, address _to, uint256 _tokenId) external payable{\r\n        _validationPreTransfer(_from, _to, _tokenId);\r\n        require(msg.value >= phones[_tokenId].price, \"No payment no token\");\r\n        \r\n        if (msg.value > phones[_tokenId].price){\r\n            payable(msg.sender).transfer(msg.value - phones[_tokenId].price);\r\n        }\r\n\r\n        payable(phoneOwner[_tokenId]).transfer(phones[_tokenId].price);\r\n        _transfer(_from, _to, _tokenId);\r\n        emit Transfer(_from, _to, _tokenId);\r\n    }\r\n\r\n    function approve(address _approved, uint256 _tokenId) external payable {\r\n        require(msg.sender == phoneOwner[_tokenId], \"You do not own this token\");\r\n        phoneApproval[_tokenId]=_approved;\r\n        emit Approval(phoneOwner[_tokenId], _approved, _tokenId);\r\n    }\r\n\r\n    function setApprovalForAll(address _operator, bool _approved) external {\r\n        if(_approved){\r\n            approvalForAll[msg.sender]=_operator;\r\n        }else{\r\n            approvalForAll[msg.sender]=address(0);\r\n        }\r\n\r\n        emit ApprovalForAll(msg.sender, _operator, _approved);\r\n    }\r\n\r\n    function getApproved(uint256 _tokenId) external view returns (address) {\r\n        return phoneApproval[_tokenId];\r\n    }\r\n\r\n    function isApprovedForAll(address _owner, address _operator) external view returns (bool) {\r\n        if (approvalForAll[_owner]==_operator){\r\n            return true;\r\n        }\r\n        return false;\r\n    }\r\n\r\n}",
  "sourcePath": "D:\\TFG\\ubu-secondhandchain\\truffle\\contracts\\ERC721.sol",
  "compiler": {
    "name": "solc",
    "version": "0.8.19+commit.7dd6d404.Emscripten.clang"
  },
  "schemaVersion": "3.4.13",
  "updatedAt": "2023-06-16T20:03:26.606Z",
  "networkType": "ethereum",
  "devdoc": {
    "events": {
      "Approval(address,address,uint256)": {
        "details": "This emits when the approved address for an NFT is changed or  reaffirmed. The zero address indicates there is no approved address.  When a Transfer event emits, this also indicates that the approved  address for that NFT (if any) is reset to none."
      },
      "ApprovalForAll(address,address,bool)": {
        "details": "This emits when an operator is enabled or disabled for an owner.  The operator can manage all NFTs of the owner."
      },
      "Transfer(address,address,uint256)": {
        "details": "This emits when ownership of any NFT changes by any mechanism.  This event emits when NFTs are created (`from` == 0) and destroyed  (`to` == 0). Exception: during contract creation, any number of NFTs  may be created and assigned without emitting Transfer. At the time of  any transfer, the approved address for that NFT (if any) is reset to none."
      }
    },
    "kind": "dev",
    "methods": {
      "approve(address,uint256)": {
        "details": "The zero address indicates there is no approved address.  Throws unless `msg.sender` is the current NFT owner, or an authorized  operator of the current owner.",
        "params": {
          "_approved": "The new approved NFT controller",
          "_tokenId": "The NFT to approve"
        }
      },
      "balanceOf(address)": {
        "details": "NFTs assigned to the zero address are considered invalid, and this  function throws for queries about the zero address.",
        "params": {
          "_owner": "An address for whom to query the balance"
        },
        "returns": {
          "_0": "The number of NFTs owned by `_owner`, possibly zero"
        }
      },
      "getApproved(uint256)": {
        "details": "Throws if `_tokenId` is not a valid NFT.",
        "params": {
          "_tokenId": "The NFT to find the approved address for"
        },
        "returns": {
          "_0": "The approved address for this NFT, or the zero address if there is none"
        }
      },
      "isApprovedForAll(address,address)": {
        "params": {
          "_operator": "The address that acts on behalf of the owner",
          "_owner": "The address that owns the NFTs"
        },
        "returns": {
          "_0": "True if `_operator` is an approved operator for `_owner`, false otherwise"
        }
      },
      "ownerOf(uint256)": {
        "details": "NFTs assigned to zero address are considered invalid, and queries  about them do throw.",
        "params": {
          "_tokenId": "The identifier for an NFT"
        },
        "returns": {
          "_0": "The address of the owner of the NFT"
        }
      },
      "safeTransferFrom(address,address,uint256)": {
        "details": "This works identically to the other function with an extra data parameter,  except this function just sets data to \"\".",
        "params": {
          "_from": "The current owner of the NFT",
          "_to": "The new owner",
          "_tokenId": "The NFT to transfer"
        }
      },
      "safeTransferFrom(address,address,uint256,bytes)": {
        "details": "Throws unless `msg.sender` is the current owner, an authorized  operator, or the approved address for this NFT. Throws if `_from` is  not the current owner. Throws if `_to` is the zero address. Throws if  `_tokenId` is not a valid NFT. When transfer is complete, this function  checks if `_to` is a smart contract (code size > 0). If so, it calls  `onERC721Received` on `_to` and throws if the return value is not  `bytes4(keccak256(\"onERC721Received(address,address,uint256,bytes)\"))`.",
        "params": {
          "_from": "The current owner of the NFT",
          "_to": "The new owner",
          "_tokenId": "The NFT to transfer",
          "data": "Additional data with no specified format, sent in call to `_to`"
        }
      },
      "setApprovalForAll(address,bool)": {
        "details": "Emits the ApprovalForAll event. The contract MUST allow  multiple operators per owner.",
        "params": {
          "_approved": "True if the operator is approved, false to revoke approval",
          "_operator": "Address to add to the set of authorized operators"
        }
      },
      "transferFrom(address,address,uint256)": {
        "details": "Throws unless `msg.sender` is the current owner, an authorized  operator, or the approved address for this NFT. Throws if `_from` is  not the current owner. Throws if `_to` is the zero address. Throws if  `_tokenId` is not a valid NFT.",
        "params": {
          "_from": "The current owner of the NFT",
          "_to": "The new owner",
          "_tokenId": "The NFT to transfer"
        }
      }
    },
    "version": 1
  },
  "userdoc": {
    "kind": "user",
    "methods": {
      "approve(address,uint256)": {
        "notice": "Change or reaffirm the approved address for an NFT"
      },
      "balanceOf(address)": {
        "notice": "Count all NFTs assigned to an owner"
      },
      "getApproved(uint256)": {
        "notice": "Get the approved address for a single NFT"
      },
      "isApprovedForAll(address,address)": {
        "notice": "Query if an address is an authorized operator for another address"
      },
      "ownerOf(uint256)": {
        "notice": "Find the owner of an NFT"
      },
      "safeTransferFrom(address,address,uint256)": {
        "notice": "Transfers the ownership of an NFT from one address to another address"
      },
      "safeTransferFrom(address,address,uint256,bytes)": {
        "notice": "Transfers the ownership of an NFT from one address to another address"
      },
      "setApprovalForAll(address,bool)": {
        "notice": "Enable or disable approval for a third party (\"operator\") to manage  all of `msg.sender`'s assets"
      },
      "transferFrom(address,address,uint256)": {
        "notice": "Transfer ownership of an NFT -- THE CALLER IS RESPONSIBLE  TO CONFIRM THAT `_to` IS CAPABLE OF RECEIVING NFTS OR ELSE  THEY MAY BE PERMANENTLY LOST"
      }
    },
    "version": 1
  }
}