{
  "contractName": "ERC721",
  "abi": [
    {
      "anonymous": false,
      "inputs": [
        {
          "indexed": true,
          "internalType": "address",
          "name": "_owner",
          "type": "address"
        },
        {
          "indexed": true,
          "internalType": "address",
          "name": "_approved",
          "type": "address"
        },
        {
          "indexed": true,
          "internalType": "uint256",
          "name": "_tokenId",
          "type": "uint256"
        }
      ],
      "name": "Approval",
      "type": "event"
    },
    {
      "anonymous": false,
      "inputs": [
        {
          "indexed": true,
          "internalType": "address",
          "name": "_owner",
          "type": "address"
        },
        {
          "indexed": true,
          "internalType": "address",
          "name": "_operator",
          "type": "address"
        },
        {
          "indexed": false,
          "internalType": "bool",
          "name": "_approved",
          "type": "bool"
        }
      ],
      "name": "ApprovalForAll",
      "type": "event"
    },
    {
      "anonymous": false,
      "inputs": [
        {
          "indexed": true,
          "internalType": "address",
          "name": "_from",
          "type": "address"
        },
        {
          "indexed": true,
          "internalType": "address",
          "name": "_to",
          "type": "address"
        },
        {
          "indexed": true,
          "internalType": "uint256",
          "name": "_tokenId",
          "type": "uint256"
        }
      ],
      "name": "Transfer",
      "type": "event"
    },
    {
      "inputs": [
        {
          "internalType": "string",
          "name": "_model",
          "type": "string"
        },
        {
          "internalType": "string",
          "name": "_imei",
          "type": "string"
        },
        {
          "internalType": "string",
          "name": "_brand",
          "type": "string"
        },
        {
          "internalType": "string",
          "name": "_colour",
          "type": "string"
        },
        {
          "internalType": "uint256",
          "name": "_price",
          "type": "uint256"
        },
        {
          "internalType": "uint256",
          "name": "_salePrice",
          "type": "uint256"
        },
        {
          "internalType": "uint16",
          "name": "_ram",
          "type": "uint16"
        },
        {
          "internalType": "uint32",
          "name": "_mem",
          "type": "uint32"
        }
      ],
      "name": "_createPhone",
      "outputs": [],
      "stateMutability": "nonpayable",
      "type": "function"
    },
    {
      "inputs": [
        {
          "internalType": "address",
          "name": "_address",
          "type": "address"
        }
      ],
      "name": "getAllPhonesInAddress",
      "outputs": [
        {
          "internalType": "uint256[]",
          "name": "",
          "type": "uint256[]"
        }
      ],
      "stateMutability": "view",
      "type": "function",
      "constant": true
    },
    {
      "inputs": [
        {
          "internalType": "uint256",
          "name": "_id",
          "type": "uint256"
        }
      ],
      "name": "getIsPhoneOnSale",
      "outputs": [
        {
          "internalType": "bool",
          "name": "",
          "type": "bool"
        }
      ],
      "stateMutability": "view",
      "type": "function",
      "constant": true
    },
    {
      "inputs": [
        {
          "internalType": "uint256",
          "name": "_id",
          "type": "uint256"
        }
      ],
      "name": "getPhoneOwner",
      "outputs": [
        {
          "internalType": "address",
          "name": "",
          "type": "address"
        }
      ],
      "stateMutability": "view",
      "type": "function",
      "constant": true
    },
    {
      "inputs": [],
      "name": "getPhones",
      "outputs": [
        {
          "components": [
            {
              "internalType": "string",
              "name": "model",
              "type": "string"
            },
            {
              "internalType": "string",
              "name": "brand",
              "type": "string"
            },
            {
              "internalType": "string",
              "name": "colour",
              "type": "string"
            },
            {
              "internalType": "uint16",
              "name": "ram",
              "type": "uint16"
            },
            {
              "internalType": "uint32",
              "name": "mem",
              "type": "uint32"
            },
            {
              "internalType": "address[]",
              "name": "owners",
              "type": "address[]"
            },
            {
              "internalType": "uint256[]",
              "name": "saleTime",
              "type": "uint256[]"
            },
            {
              "internalType": "uint256[]",
              "name": "salePrice",
              "type": "uint256[]"
            },
            {
              "internalType": "uint256",
              "name": "price",
              "type": "uint256"
            }
          ],
          "internalType": "struct SecondHandChain.Phone[]",
          "name": "",
          "type": "tuple[]"
        }
      ],
      "stateMutability": "view",
      "type": "function",
      "constant": true
    },
    {
      "inputs": [
        {
          "internalType": "uint256",
          "name": "",
          "type": "uint256"
        }
      ],
      "name": "phones",
      "outputs": [
        {
          "internalType": "string",
          "name": "model",
          "type": "string"
        },
        {
          "internalType": "string",
          "name": "brand",
          "type": "string"
        },
        {
          "internalType": "string",
          "name": "colour",
          "type": "string"
        },
        {
          "internalType": "uint16",
          "name": "ram",
          "type": "uint16"
        },
        {
          "internalType": "uint32",
          "name": "mem",
          "type": "uint32"
        },
        {
          "internalType": "uint256",
          "name": "price",
          "type": "uint256"
        }
      ],
      "stateMutability": "view",
      "type": "function",
      "constant": true
    },
    {
      "inputs": [
        {
          "internalType": "uint256",
          "name": "_price",
          "type": "uint256"
        },
        {
          "internalType": "uint256",
          "name": "_phoneId",
          "type": "uint256"
        }
      ],
      "name": "putPhoneOnSale",
      "outputs": [],
      "stateMutability": "nonpayable",
      "type": "function"
    },
    {
      "inputs": [
        {
          "internalType": "uint256",
          "name": "_phoneId",
          "type": "uint256"
        }
      ],
      "name": "removePhoneFromSale",
      "outputs": [],
      "stateMutability": "nonpayable",
      "type": "function"
    },
    {
      "inputs": [
        {
          "internalType": "address",
          "name": "_owner",
          "type": "address"
        }
      ],
      "name": "balanceOf",
      "outputs": [
        {
          "internalType": "uint256",
          "name": "",
          "type": "uint256"
        }
      ],
      "stateMutability": "view",
      "type": "function",
      "constant": true
    },
    {
      "inputs": [
        {
          "internalType": "uint256",
          "name": "_tokenId",
          "type": "uint256"
        }
      ],
      "name": "ownerOf",
      "outputs": [
        {
          "internalType": "address",
          "name": "",
          "type": "address"
        }
      ],
      "stateMutability": "view",
      "type": "function",
      "constant": true
    },
    {
      "inputs": [
        {
          "internalType": "address",
          "name": "_from",
          "type": "address"
        },
        {
          "internalType": "address",
          "name": "_to",
          "type": "address"
        },
        {
          "internalType": "uint256",
          "name": "_tokenId",
          "type": "uint256"
        }
      ],
      "name": "safeTransferFrom",
      "outputs": [],
      "stateMutability": "payable",
      "type": "function",
      "payable": true
    },
    {
      "inputs": [
        {
          "internalType": "address",
          "name": "_from",
          "type": "address"
        },
        {
          "internalType": "address",
          "name": "_to",
          "type": "address"
        },
        {
          "internalType": "uint256",
          "name": "_tokenId",
          "type": "uint256"
        }
      ],
      "name": "transferFrom",
      "outputs": [],
      "stateMutability": "payable",
      "type": "function",
      "payable": true
    },
    {
      "inputs": [
        {
          "internalType": "address",
          "name": "_approved",
          "type": "address"
        },
        {
          "internalType": "uint256",
          "name": "_tokenId",
          "type": "uint256"
        }
      ],
      "name": "approve",
      "outputs": [],
      "stateMutability": "payable",
      "type": "function",
      "payable": true
    },
    {
      "inputs": [
        {
          "internalType": "address",
          "name": "_operator",
          "type": "address"
        },
        {
          "internalType": "bool",
          "name": "_approved",
          "type": "bool"
        }
      ],
      "name": "setApprovalForAll",
      "outputs": [],
      "stateMutability": "nonpayable",
      "type": "function"
    },
    {
      "inputs": [
        {
          "internalType": "uint256",
          "name": "_tokenId",
          "type": "uint256"
        }
      ],
      "name": "getApproved",
      "outputs": [
        {
          "internalType": "address",
          "name": "",
          "type": "address"
        }
      ],
      "stateMutability": "view",
      "type": "function",
      "constant": true
    },
    {
      "inputs": [
        {
          "internalType": "address",
          "name": "_owner",
          "type": "address"
        },
        {
          "internalType": "address",
          "name": "_operator",
          "type": "address"
        }
      ],
      "name": "isApprovedForAll",
      "outputs": [
        {
          "internalType": "bool",
          "name": "",
          "type": "bool"
        }
      ],
      "stateMutability": "view",
      "type": "function",
      "constant": true
    }
  ],
  "bytecode": "0x608060405234801561001057600080fd5b50613595806100206000396000f3fe6080604052600436106100f35760003560e01c806370a082311161008a578063e985e9c511610059578063e985e9c514610323578063f09e19f214610360578063f37306531461039d578063f4938a8e146103df576100f3565b806370a082311461026957806374c97cd5146102a6578063a22cb465146102cf578063d4dbc41c146102f8576100f3565b80633664e2de116100c65780633664e2de14610196578063418696fa146101d357806342842e0e146102105780636352211e1461022c576100f3565b8063081812fc146100f8578063095ea7b31461013557806323b104fa1461015157806323b872dd1461017a575b600080fd5b34801561010457600080fd5b5061011f600480360381019061011a91906122a8565b610408565b60405161012c9190612316565b60405180910390f35b61014f600480360381019061014a919061235d565b610445565b005b34801561015d57600080fd5b50610178600480360381019061017391906122a8565b6105ca565b005b610194600480360381019061018f919061239d565b6106ed565b005b3480156101a257600080fd5b506101bd60048036038101906101b891906122a8565b61090f565b6040516101ca919061240b565b60405180910390f35b3480156101df57600080fd5b506101fa60048036038101906101f59190612426565b610939565b6040516102079190612511565b60405180910390f35b61022a6004803603810190610225919061239d565b610a8b565b005b34801561023857600080fd5b50610253600480360381019061024e91906122a8565b610cad565b6040516102609190612316565b60405180910390f35b34801561027557600080fd5b50610290600480360381019061028b9190612426565b610cea565b60405161029d9190612542565b60405180910390f35b3480156102b257600080fd5b506102cd60048036038101906102c8919061255d565b610d33565b005b3480156102db57600080fd5b506102f660048036038101906102f191906125c9565b610e80565b005b34801561030457600080fd5b5061030d610ff2565b60405161031a91906129ac565b60405180910390f35b34801561032f57600080fd5b5061034a600480360381019061034591906129ce565b611396565b604051610357919061240b565b60405180910390f35b34801561036c57600080fd5b50610387600480360381019061038291906122a8565b61143e565b6040516103949190612316565b60405180910390f35b3480156103a957600080fd5b506103c460048036038101906103bf91906122a8565b61147b565b6040516103d696959493929190612a76565b60405180910390f35b3480156103eb57600080fd5b5061040660048036038101906104019190612c79565b61167d565b005b60006006600083815260200190815260200160002060009054906101000a900473ffffffffffffffffffffffffffffffffffffffff169050919050565b6001600082815260200190815260200160002060009054906101000a900473ffffffffffffffffffffffffffffffffffffffff1673ffffffffffffffffffffffffffffffffffffffff163373ffffffffffffffffffffffffffffffffffffffff16146104e6576040517f08c379a00000000000000000000000000000000000000000000000000000000081526004016104dd90612deb565b60405180910390fd5b816006600083815260200190815260200160002060006101000a81548173ffffffffffffffffffffffffffffffffffffffff021916908373ffffffffffffffffffffffffffffffffffffffff160217905550808273ffffffffffffffffffffffffffffffffffffffff166001600084815260200190815260200160002060009054906101000a900473ffffffffffffffffffffffffffffffffffffffff1673ffffffffffffffffffffffffffffffffffffffff167f8c5be1e5ebec7d5bd14f71427d1e84f3dd0314c0f7b2291e5b200ac8c7c3b92560405160405180910390a45050565b3373ffffffffffffffffffffffffffffffffffffffff166001600083815260200190815260200160002060009054906101000a900473ffffffffffffffffffffffffffffffffffffffff1673ffffffffffffffffffffffffffffffffffffffff161461066b576040517f08c379a000000000000000000000000000000000000000000000000000000000815260040161066290612e57565b60405180910390fd5b60006005600083815260200190815260200160002060006101000a81548160ff02191690831515021790555060006006600083815260200190815260200160002060006101000a81548173ffffffffffffffffffffffffffffffffffffffff021916908373ffffffffffffffffffffffffffffffffffffffff16021790555050565b6106f8838383611ad2565b6000818154811061070c5761070b612e77565b5b906000526020600020906008020160070154341015610760576040517f08c379a000000000000000000000000000000000000000000000000000000000815260040161075790612ef2565b60405180910390fd5b6000818154811061077457610773612e77565b5b906000526020600020906008020160070154341115610805573373ffffffffffffffffffffffffffffffffffffffff166108fc600083815481106107bb576107ba612e77565b5b906000526020600020906008020160070154346107d89190612f41565b9081150290604051600060405180830381858888f19350505050158015610803573d6000803e3d6000fd5b505b6001600082815260200190815260200160002060009054906101000a900473ffffffffffffffffffffffffffffffffffffffff1673ffffffffffffffffffffffffffffffffffffffff166108fc6000838154811061086657610865612e77565b5b9060005260206000209060080201600701549081150290604051600060405180830381858888f193505050501580156108a3573d6000803e3d6000fd5b506108af838383611e51565b808273ffffffffffffffffffffffffffffffffffffffff168473ffffffffffffffffffffffffffffffffffffffff167fddf252ad1be2c89b69c2b068fc378daa952ba7f163c4a11628f55a4df523b3ef60405160405180910390a4505050565b60006005600083815260200190815260200160002060009054906101000a900460ff169050919050565b60606000600260008473ffffffffffffffffffffffffffffffffffffffff1673ffffffffffffffffffffffffffffffffffffffff1681526020019081526020016000205467ffffffffffffffff81111561099657610995612af6565b5b6040519080825280602002602001820160405280156109c45781602001602082028036833780820191505090505b5090506000805b600080549050811015610a80578473ffffffffffffffffffffffffffffffffffffffff166001600083815260200190815260200160002060009054906101000a900473ffffffffffffffffffffffffffffffffffffffff1673ffffffffffffffffffffffffffffffffffffffff1603610a6d5780838381518110610a5257610a51612e77565b5b6020026020010181815250508180610a6990612f75565b9250505b8080610a7890612f75565b9150506109cb565b508192505050919050565b610a96838383611ad2565b60008181548110610aaa57610aa9612e77565b5b906000526020600020906008020160070154341015610afe576040517f08c379a0000000000000000000000000000000000000000000000000000000008152600401610af590612ef2565b60405180910390fd5b60008181548110610b1257610b11612e77565b5b906000526020600020906008020160070154341115610ba3573373ffffffffffffffffffffffffffffffffffffffff166108fc60008381548110610b5957610b58612e77565b5b90600052602060002090600802016007015434610b769190612f41565b9081150290604051600060405180830381858888f19350505050158015610ba1573d6000803e3d6000fd5b505b6001600082815260200190815260200160002060009054906101000a900473ffffffffffffffffffffffffffffffffffffffff1673ffffffffffffffffffffffffffffffffffffffff166108fc60008381548110610c0457610c03612e77565b5b9060005260206000209060080201600701549081150290604051600060405180830381858888f19350505050158015610c41573d6000803e3d6000fd5b50610c4d838383611e51565b808273ffffffffffffffffffffffffffffffffffffffff168473ffffffffffffffffffffffffffffffffffffffff167fddf252ad1be2c89b69c2b068fc378daa952ba7f163c4a11628f55a4df523b3ef60405160405180910390a4505050565b60006001600083815260200190815260200160002060009054906101000a900473ffffffffffffffffffffffffffffffffffffffff169050919050565b6000600260008373ffffffffffffffffffffffffffffffffffffffff1673ffffffffffffffffffffffffffffffffffffffff168152602001908152602001600020549050919050565b3373ffffffffffffffffffffffffffffffffffffffff166001600083815260200190815260200160002060009054906101000a900473ffffffffffffffffffffffffffffffffffffffff1673ffffffffffffffffffffffffffffffffffffffff1614610dd4576040517f08c379a0000000000000000000000000000000000000000000000000000000008152600401610dcb90612e57565b60405180910390fd5b60016005600083815260200190815260200160002060006101000a81548160ff0219169083151502179055508160008281548110610e1557610e14612e77565b5b906000526020600020906008020160070181905550306006600083815260200190815260200160002060006101000a81548173ffffffffffffffffffffffffffffffffffffffff021916908373ffffffffffffffffffffffffffffffffffffffff1602179055505050565b8015610f095781600760003373ffffffffffffffffffffffffffffffffffffffff1673ffffffffffffffffffffffffffffffffffffffff16815260200190815260200160002060006101000a81548173ffffffffffffffffffffffffffffffffffffffff021916908373ffffffffffffffffffffffffffffffffffffffff160217905550610f89565b6000600760003373ffffffffffffffffffffffffffffffffffffffff1673ffffffffffffffffffffffffffffffffffffffff16815260200190815260200160002060006101000a81548173ffffffffffffffffffffffffffffffffffffffff021916908373ffffffffffffffffffffffffffffffffffffffff1602179055505b8173ffffffffffffffffffffffffffffffffffffffff163373ffffffffffffffffffffffffffffffffffffffff167f17307eab39ab6107e8899845ad3d59bd9653f200f220920489ca2b5937696c3183604051610fe6919061240b565b60405180910390a35050565b60606000805480602002602001604051908101604052809291908181526020016000905b8282101561138d57838290600052602060002090600802016040518061012001604052908160008201805461104a90612fec565b80601f016020809104026020016040519081016040528092919081815260200182805461107690612fec565b80156110c35780601f10611098576101008083540402835291602001916110c3565b820191906000526020600020905b8154815290600101906020018083116110a657829003601f168201915b505050505081526020016001820180546110dc90612fec565b80601f016020809104026020016040519081016040528092919081815260200182805461110890612fec565b80156111555780601f1061112a57610100808354040283529160200191611155565b820191906000526020600020905b81548152906001019060200180831161113857829003601f168201915b5050505050815260200160028201805461116e90612fec565b80601f016020809104026020016040519081016040528092919081815260200182805461119a90612fec565b80156111e75780601f106111bc576101008083540402835291602001916111e7565b820191906000526020600020905b8154815290600101906020018083116111ca57829003601f168201915b505050505081526020016003820160009054906101000a900461ffff1661ffff1661ffff1681526020016003820160029054906101000a900463ffffffff1663ffffffff1663ffffffff168152602001600482018054806020026020016040519081016040528092919081815260200182805480156112bb57602002820191906000526020600020905b8160009054906101000a900473ffffffffffffffffffffffffffffffffffffffff1673ffffffffffffffffffffffffffffffffffffffff1681526020019060010190808311611271575b505050505081526020016005820180548060200260200160405190810160405280929190818152602001828054801561131357602002820191906000526020600020905b8154815260200190600101908083116112ff575b505050505081526020016006820180548060200260200160405190810160405280929190818152602001828054801561136b57602002820191906000526020600020905b815481526020019060010190808311611357575b5050505050815260200160078201548152505081526020019060010190611016565b50505050905090565b60008173ffffffffffffffffffffffffffffffffffffffff16600760008573ffffffffffffffffffffffffffffffffffffffff1673ffffffffffffffffffffffffffffffffffffffff16815260200190815260200160002060009054906101000a900473ffffffffffffffffffffffffffffffffffffffff1673ffffffffffffffffffffffffffffffffffffffff16036114335760019050611438565b600090505b92915050565b60006001600083815260200190815260200160002060009054906101000a900473ffffffffffffffffffffffffffffffffffffffff169050919050565b6000818154811061148b57600080fd5b90600052602060002090600802016000915090508060000180546114ae90612fec565b80601f01602080910402602001604051908101604052809291908181526020018280546114da90612fec565b80156115275780601f106114fc57610100808354040283529160200191611527565b820191906000526020600020905b81548152906001019060200180831161150a57829003601f168201915b50505050509080600101805461153c90612fec565b80601f016020809104026020016040519081016040528092919081815260200182805461156890612fec565b80156115b55780601f1061158a576101008083540402835291602001916115b5565b820191906000526020600020905b81548152906001019060200180831161159857829003601f168201915b5050505050908060020180546115ca90612fec565b80601f01602080910402602001604051908101604052809291908181526020018280546115f690612fec565b80156116435780601f1061161857610100808354040283529160200191611643565b820191906000526020600020905b81548152906001019060200180831161162657829003601f168201915b5050505050908060030160009054906101000a900461ffff16908060030160029054906101000a900463ffffffff16908060070154905086565b600015156004886040516116919190613059565b908152602001604051809103902060009054906101000a900460ff161515146116ef576040517f08c379a00000000000000000000000000000000000000000000000000000000081526004016116e6906130bc565b60405180910390fd5b6116f7612114565b88816000018190525086816020018190525085816040018190525082816060019061ffff16908161ffff168152505081816080019063ffffffff16908163ffffffff168152505083816101000181815250506000819080600181540180825580915050600190039060005260206000209060080201600090919091909150600082015181600001908161178a9190613288565b5060208201518160010190816117a09190613288565b5060408201518160020190816117b69190613288565b5060608201518160030160006101000a81548161ffff021916908361ffff16021790555060808201518160030160026101000a81548163ffffffff021916908363ffffffff16021790555060a082015181600401908051906020019061181d92919061216a565b5060c082015181600501908051906020019061183a9291906121f4565b5060e08201518160060190805190602001906118579291906121f4565b5061010082015181600701555050600260003373ffffffffffffffffffffffffffffffffffffffff1673ffffffffffffffffffffffffffffffffffffffff16815260200190815260200160002060008154809291906118b590612f75565b9190505550600060016000805490506118ce9190612f41565b9050600081815481106118e4576118e3612e77565b5b9060005260206000209060080201600401339080600181540180825580915050600190039060005260206000200160009091909190916101000a81548173ffffffffffffffffffffffffffffffffffffffff021916908373ffffffffffffffffffffffffffffffffffffffff1602179055506000818154811061196a57611969612e77565b5b9060005260206000209060080201600501429080600181540180825580915050600190039060005260206000200160009091909190915055600081815481106119b6576119b5612e77565b5b9060005260206000209060080201600601869080600181540180825580915050600190039060005260206000200160009091909190915055336001600083815260200190815260200160002060006101000a81548173ffffffffffffffffffffffffffffffffffffffff021916908373ffffffffffffffffffffffffffffffffffffffff1602179055508060038a604051611a519190613059565b90815260200160405180910390208190555060006005600083815260200190815260200160002060006101000a81548160ff021916908315150217905550600160048a604051611aa19190613059565b908152602001604051809103902060006101000a81548160ff02191690831515021790555050505050505050505050565b600073ffffffffffffffffffffffffffffffffffffffff168273ffffffffffffffffffffffffffffffffffffffff1614158015611b3b57508273ffffffffffffffffffffffffffffffffffffffff168273ffffffffffffffffffffffffffffffffffffffff1614155b611b7a576040517f08c379a0000000000000000000000000000000000000000000000000000000008152600401611b71906133cc565b60405180910390fd5b6001600082815260200190815260200160002060009054906101000a900473ffffffffffffffffffffffffffffffffffffffff1673ffffffffffffffffffffffffffffffffffffffff168373ffffffffffffffffffffffffffffffffffffffff1614611c1b576040517f08c379a0000000000000000000000000000000000000000000000000000000008152600401611c1290613438565b60405180910390fd5b6001600082815260200190815260200160002060009054906101000a900473ffffffffffffffffffffffffffffffffffffffff1673ffffffffffffffffffffffffffffffffffffffff163373ffffffffffffffffffffffffffffffffffffffff161480611ce657506006600082815260200190815260200160002060009054906101000a900473ffffffffffffffffffffffffffffffffffffffff1673ffffffffffffffffffffffffffffffffffffffff163373ffffffffffffffffffffffffffffffffffffffff16145b80611d7b5750600760003373ffffffffffffffffffffffffffffffffffffffff1673ffffffffffffffffffffffffffffffffffffffff16815260200190815260200160002060009054906101000a900473ffffffffffffffffffffffffffffffffffffffff1673ffffffffffffffffffffffffffffffffffffffff163373ffffffffffffffffffffffffffffffffffffffff16145b80611e0d57506005600082815260200190815260200160002060009054906101000a900460ff168015611e0c57503073ffffffffffffffffffffffffffffffffffffffff166006600083815260200190815260200160002060009054906101000a900473ffffffffffffffffffffffffffffffffffffffff1673ffffffffffffffffffffffffffffffffffffffff16145b5b611e4c576040517f08c379a0000000000000000000000000000000000000000000000000000000008152600401611e4390613516565b60405180910390fd5b505050565b600260008473ffffffffffffffffffffffffffffffffffffffff1673ffffffffffffffffffffffffffffffffffffffff1681526020019081526020016000206000815480929190611ea190613536565b9190505550600260008373ffffffffffffffffffffffffffffffffffffffff1673ffffffffffffffffffffffffffffffffffffffff1681526020019081526020016000206000815480929190611ef690612f75565b9190505550816001600083815260200190815260200160002060006101000a81548173ffffffffffffffffffffffffffffffffffffffff021916908373ffffffffffffffffffffffffffffffffffffffff16021790555060008181548110611f6157611f60612e77565b5b9060005260206000209060080201600401829080600181540180825580915050600190039060005260206000200160009091909190916101000a81548173ffffffffffffffffffffffffffffffffffffffff021916908373ffffffffffffffffffffffffffffffffffffffff16021790555060008181548110611fe757611fe6612e77565b5b90600052602060002090600802016005014290806001815401808255809150506001900390600052602060002001600090919091909150556000818154811061203357612032612e77565b5b90600052602060002090600802016006016000828154811061205857612057612e77565b5b906000526020600020906008020160070154908060018154018082558091505060019003906000526020600020016000909190919091505560006005600083815260200190815260200160002060006101000a81548160ff02191690831515021790555060006006600083815260200190815260200160002060006101000a81548173ffffffffffffffffffffffffffffffffffffffff021916908373ffffffffffffffffffffffffffffffffffffffff160217905550505050565b604051806101200160405280606081526020016060815260200160608152602001600061ffff168152602001600063ffffffff168152602001606081526020016060815260200160608152602001600081525090565b8280548282559060005260206000209081019282156121e3579160200282015b828111156121e25782518260006101000a81548173ffffffffffffffffffffffffffffffffffffffff021916908373ffffffffffffffffffffffffffffffffffffffff1602179055509160200191906001019061218a565b5b5090506121f09190612241565b5090565b828054828255906000526020600020908101928215612230579160200282015b8281111561222f578251825591602001919060010190612214565b5b50905061223d9190612241565b5090565b5b8082111561225a576000816000905550600101612242565b5090565b6000604051905090565b600080fd5b600080fd5b6000819050919050565b61228581612272565b811461229057600080fd5b50565b6000813590506122a28161227c565b92915050565b6000602082840312156122be576122bd612268565b5b60006122cc84828501612293565b91505092915050565b600073ffffffffffffffffffffffffffffffffffffffff82169050919050565b6000612300826122d5565b9050919050565b612310816122f5565b82525050565b600060208201905061232b6000830184612307565b92915050565b61233a816122f5565b811461234557600080fd5b50565b60008135905061235781612331565b92915050565b6000806040838503121561237457612373612268565b5b600061238285828601612348565b925050602061239385828601612293565b9150509250929050565b6000806000606084860312156123b6576123b5612268565b5b60006123c486828701612348565b93505060206123d586828701612348565b92505060406123e686828701612293565b9150509250925092565b60008115159050919050565b612405816123f0565b82525050565b600060208201905061242060008301846123fc565b92915050565b60006020828403121561243c5761243b612268565b5b600061244a84828501612348565b91505092915050565b600081519050919050565b600082825260208201905092915050565b6000819050602082019050919050565b61248881612272565b82525050565b600061249a838361247f565b60208301905092915050565b6000602082019050919050565b60006124be82612453565b6124c8818561245e565b93506124d38361246f565b8060005b838110156125045781516124eb888261248e565b97506124f6836124a6565b9250506001810190506124d7565b5085935050505092915050565b6000602082019050818103600083015261252b81846124b3565b905092915050565b61253c81612272565b82525050565b60006020820190506125576000830184612533565b92915050565b6000806040838503121561257457612573612268565b5b600061258285828601612293565b925050602061259385828601612293565b9150509250929050565b6125a6816123f0565b81146125b157600080fd5b50565b6000813590506125c38161259d565b92915050565b600080604083850312156125e0576125df612268565b5b60006125ee85828601612348565b92505060206125ff858286016125b4565b9150509250929050565b600081519050919050565b600082825260208201905092915050565b6000819050602082019050919050565b600081519050919050565b600082825260208201905092915050565b60005b8381101561266f578082015181840152602081019050612654565b60008484015250505050565b6000601f19601f8301169050919050565b600061269782612635565b6126a18185612640565b93506126b1818560208601612651565b6126ba8161267b565b840191505092915050565b600061ffff82169050919050565b6126dc816126c5565b82525050565b600063ffffffff82169050919050565b6126fb816126e2565b82525050565b600081519050919050565b600082825260208201905092915050565b6000819050602082019050919050565b612736816122f5565b82525050565b6000612748838361272d565b60208301905092915050565b6000602082019050919050565b600061276c82612701565b612776818561270c565b93506127818361271d565b8060005b838110156127b2578151612799888261273c565b97506127a483612754565b925050600181019050612785565b5085935050505092915050565b600082825260208201905092915050565b60006127db82612453565b6127e581856127bf565b93506127f08361246f565b8060005b83811015612821578151612808888261248e565b9750612813836124a6565b9250506001810190506127f4565b5085935050505092915050565b600061012083016000830151848203600086015261284c828261268c565b91505060208301518482036020860152612866828261268c565b91505060408301518482036040860152612880828261268c565b915050606083015161289560608601826126d3565b5060808301516128a860808601826126f2565b5060a083015184820360a08601526128c08282612761565b91505060c083015184820360c08601526128da82826127d0565b91505060e083015184820360e08601526128f482826127d0565b91505061010083015161290b61010086018261247f565b508091505092915050565b6000612922838361282e565b905092915050565b6000602082019050919050565b600061294282612609565b61294c8185612614565b93508360208202850161295e85612625565b8060005b8581101561299a578484038952815161297b8582612916565b94506129868361292a565b925060208a01995050600181019050612962565b50829750879550505050505092915050565b600060208201905081810360008301526129c68184612937565b905092915050565b600080604083850312156129e5576129e4612268565b5b60006129f385828601612348565b9250506020612a0485828601612348565b9150509250929050565b600082825260208201905092915050565b6000612a2a82612635565b612a348185612a0e565b9350612a44818560208601612651565b612a4d8161267b565b840191505092915050565b612a61816126c5565b82525050565b612a70816126e2565b82525050565b600060c0820190508181036000830152612a908189612a1f565b90508181036020830152612aa48188612a1f565b90508181036040830152612ab88187612a1f565b9050612ac76060830186612a58565b612ad46080830185612a67565b612ae160a0830184612533565b979650505050505050565b600080fd5b600080fd5b7f4e487b7100000000000000000000000000000000000000000000000000000000600052604160045260246000fd5b612b2e8261267b565b810181811067ffffffffffffffff82111715612b4d57612b4c612af6565b5b80604052505050565b6000612b6061225e565b9050612b6c8282612b25565b919050565b600067ffffffffffffffff821115612b8c57612b8b612af6565b5b612b958261267b565b9050602081019050919050565b82818337600083830152505050565b6000612bc4612bbf84612b71565b612b56565b905082815260208101848484011115612be057612bdf612af1565b5b612beb848285612ba2565b509392505050565b600082601f830112612c0857612c07612aec565b5b8135612c18848260208601612bb1565b91505092915050565b612c2a816126c5565b8114612c3557600080fd5b50565b600081359050612c4781612c21565b92915050565b612c56816126e2565b8114612c6157600080fd5b50565b600081359050612c7381612c4d565b92915050565b600080600080600080600080610100898b031215612c9a57612c99612268565b5b600089013567ffffffffffffffff811115612cb857612cb761226d565b5b612cc48b828c01612bf3565b985050602089013567ffffffffffffffff811115612ce557612ce461226d565b5b612cf18b828c01612bf3565b975050604089013567ffffffffffffffff811115612d1257612d1161226d565b5b612d1e8b828c01612bf3565b965050606089013567ffffffffffffffff811115612d3f57612d3e61226d565b5b612d4b8b828c01612bf3565b9550506080612d5c8b828c01612293565b94505060a0612d6d8b828c01612293565b93505060c0612d7e8b828c01612c38565b92505060e0612d8f8b828c01612c64565b9150509295985092959890939650565b7f596f7520646f206e6f74206f776e207468697320746f6b656e00000000000000600082015250565b6000612dd5601983612a0e565b9150612de082612d9f565b602082019050919050565b60006020820190508181036000830152612e0481612dc8565b9050919050565b7f596f7520646f206e6f74206f776e20746861742070686f6e6549640000000000600082015250565b6000612e41601b83612a0e565b9150612e4c82612e0b565b602082019050919050565b60006020820190508181036000830152612e7081612e34565b9050919050565b7f4e487b7100000000000000000000000000000000000000000000000000000000600052603260045260246000fd5b7f4e6f207061796d656e74206e6f20746f6b656e00000000000000000000000000600082015250565b6000612edc601383612a0e565b9150612ee782612ea6565b602082019050919050565b60006020820190508181036000830152612f0b81612ecf565b9050919050565b7f4e487b7100000000000000000000000000000000000000000000000000000000600052601160045260246000fd5b6000612f4c82612272565b9150612f5783612272565b9250828203905081811115612f6f57612f6e612f12565b5b92915050565b6000612f8082612272565b91507fffffffffffffffffffffffffffffffffffffffffffffffffffffffffffffffff8203612fb257612fb1612f12565b5b600182019050919050565b7f4e487b7100000000000000000000000000000000000000000000000000000000600052602260045260246000fd5b6000600282049050600182168061300457607f821691505b60208210810361301757613016612fbd565b5b50919050565b600081905092915050565b600061303382612635565b61303d818561301d565b935061304d818560208601612651565b80840191505092915050565b60006130658284613028565b915081905092915050565b7f494d454920616c72656164792065786973747300000000000000000000000000600082015250565b60006130a6601383612a0e565b91506130b182613070565b602082019050919050565b600060208201905081810360008301526130d581613099565b9050919050565b60008190508160005260206000209050919050565b60006020601f8301049050919050565b600082821b905092915050565b60006008830261313e7fffffffffffffffffffffffffffffffffffffffffffffffffffffffffffffffff82613101565b6131488683613101565b95508019841693508086168417925050509392505050565b6000819050919050565b600061318561318061317b84612272565b613160565b612272565b9050919050565b6000819050919050565b61319f8361316a565b6131b36131ab8261318c565b84845461310e565b825550505050565b600090565b6131c86131bb565b6131d3818484613196565b505050565b5b818110156131f7576131ec6000826131c0565b6001810190506131d9565b5050565b601f82111561323c5761320d816130dc565b613216846130f1565b81016020851015613225578190505b613239613231856130f1565b8301826131d8565b50505b505050565b600082821c905092915050565b600061325f60001984600802613241565b1980831691505092915050565b6000613278838361324e565b9150826002028217905092915050565b61329182612635565b67ffffffffffffffff8111156132aa576132a9612af6565b5b6132b48254612fec565b6132bf8282856131fb565b600060209050601f8311600181146132f257600084156132e0578287015190505b6132ea858261326c565b865550613352565b601f198416613300866130dc565b60005b8281101561332857848901518255600182019150602085019450602081019050613303565b868310156133455784890151613341601f89168261324e565b8355505b6001600288020188555050505b505050505050565b7f5472616e7366657220697320746f20616464726573732030206f7220746f207460008201527f6865206f776e6572000000000000000000000000000000000000000000000000602082015250565b60006133b6602883612a0e565b91506133c18261335a565b604082019050919050565b600060208201905081810360008301526133e5816133a9565b9050919050565b7f46726f6d206973206e6f7420746865206f776e65720000000000000000000000600082015250565b6000613422601583612a0e565b915061342d826133ec565b602082019050919050565b6000602082019050818103600083015261345181613415565b9050919050565b7f5468652073656e646572206973206e6f7420746865206f776e65722c20616e2060008201527f617070726f766564206163636f756e742c20616e20617070726f766564206f7060208201527f657261746f7220666f7220616c6c20746f6b656e73206f722074686520746f6b60408201527f656e206973206f6e2073616c6500000000000000000000000000000000000000606082015250565b6000613500606d83612a0e565b915061350b82613458565b608082019050919050565b6000602082019050818103600083015261352f816134f3565b9050919050565b600061354182612272565b91506000820361355457613553612f12565b5b60018203905091905056fea2646970667358221220a570d0293b796cff9f472710a0333936a5b48549a10e39a77ce162364b23f0aa64736f6c63430008130033",
  "immutableReferences": {},
  "source": "// SPDX-License-Identifier: MIT\r\npragma solidity >=0.4.22 <0.9.0;\r\n\r\nimport \"./IERC721.sol\";\r\nimport \"./SecondHandChain.sol\";\r\n\r\ncontract ERC721 is IERC721, SecondHandChain {\r\n\r\n    function balanceOf(address _owner) external view returns (uint256){\r\n        return phonesPerOwner[_owner];\r\n    }\r\n\r\n    function ownerOf(uint256 _tokenId) external view returns (address){\r\n        return phoneOwner[_tokenId];\r\n    }\r\n\r\n    function _validationPreTransfer(address _from, address _to, uint _phoneId) private view {        \r\n        require(_to != address(0) && _to != _from, \"Transfer is to address 0 or to the owner\" );\r\n        require(_from == phoneOwner[_phoneId] , \"From is not the owner\");\r\n        require(msg.sender == phoneOwner[_phoneId]\r\n            || msg.sender == phoneApproval[_phoneId]\r\n            || msg.sender == approvalForAll[msg.sender]\r\n            || ( isPhoneOnSale[_phoneId] && phoneApproval[_phoneId] == address(this))\r\n            , \"The sender is not the owner, an approved account, an approved operator for all tokens or the token is on sale\"\r\n        );\r\n    }\r\n\r\n\r\n    function _transfer(address _from, address _to, uint _phoneId) private {\r\n        phonesPerOwner[_from]--;\r\n        phonesPerOwner[_to]++;\r\n        phoneOwner[_phoneId]=_to;\r\n        phones[_phoneId].owners.push(_to);\r\n        phones[_phoneId].saleTime.push(block.timestamp);\r\n        phones[_phoneId].salePrice.push(phones[_phoneId].price);\r\n        isPhoneOnSale[_phoneId] = false;\r\n        phoneApproval[_phoneId] = address(0);\r\n    } \r\n\r\n    function safeTransferFrom(address _from, address _to, uint256 _tokenId) external payable{\r\n        _validationPreTransfer(_from, _to, _tokenId);\r\n\r\n        require(msg.value >= phones[_tokenId].price, \"No payment no token\");\r\n\r\n        if (msg.value > phones[_tokenId].price){\r\n            payable(msg.sender).transfer(msg.value - phones[_tokenId].price);\r\n        }\r\n\r\n        payable(phoneOwner[_tokenId]).transfer(phones[_tokenId].price);\r\n\r\n        _transfer(_from, _to, _tokenId);\r\n        emit Transfer(_from, _to, _tokenId);\r\n    }\r\n\r\n    function transferFrom(address _from, address _to, uint256 _tokenId) external payable{\r\n        _validationPreTransfer(_from, _to, _tokenId);\r\n        require(msg.value >= phones[_tokenId].price, \"No payment no token\");\r\n        \r\n        if (msg.value > phones[_tokenId].price){\r\n            payable(msg.sender).transfer(msg.value - phones[_tokenId].price);\r\n        }\r\n\r\n        payable(phoneOwner[_tokenId]).transfer(phones[_tokenId].price);\r\n        _transfer(_from, _to, _tokenId);\r\n        emit Transfer(_from, _to, _tokenId); \r\n    }\r\n\r\n    function approve(address _approved, uint256 _tokenId) external payable {\r\n        require(msg.sender == phoneOwner[_tokenId], \"You do not own this token\");\r\n        phoneApproval[_tokenId]=_approved;\r\n        emit Approval(phoneOwner[_tokenId], _approved, _tokenId);\r\n    }\r\n\r\n    function setApprovalForAll(address _operator, bool _approved) external {\r\n        if(_approved){\r\n            approvalForAll[msg.sender]=_operator;\r\n        }else{\r\n            approvalForAll[msg.sender]=address(0);\r\n        }\r\n\r\n        emit ApprovalForAll(msg.sender, _operator, _approved);\r\n    }\r\n\r\n    function getApproved(uint256 _tokenId) external view returns (address) {\r\n        return phoneApproval[_tokenId];\r\n    }\r\n\r\n    function isApprovedForAll(address _owner, address _operator) external view returns (bool) {\r\n        if (approvalForAll[_owner]==_operator){\r\n            return true;\r\n        }\r\n        return false;\r\n    }\r\n\r\n}",
  "sourcePath": "D:\\TFG\\ubu-secondhandchain\\truffle\\contracts\\ERC721.sol",
  "compiler": {
    "name": "solc",
    "version": "0.8.19+commit.7dd6d404.Emscripten.clang"
  },
  "schemaVersion": "3.4.13",
  "updatedAt": "2023-04-16T15:40:37.887Z",
  "networkType": "ethereum",
  "devdoc": {
    "events": {
      "Approval(address,address,uint256)": {
        "details": "This emits when the approved address for an NFT is changed or  reaffirmed. The zero address indicates there is no approved address.  When a Transfer event emits, this also indicates that the approved  address for that NFT (if any) is reset to none."
      },
      "ApprovalForAll(address,address,bool)": {
        "details": "This emits when an operator is enabled or disabled for an owner.  The operator can manage all NFTs of the owner."
      },
      "Transfer(address,address,uint256)": {
        "details": "This emits when ownership of any NFT changes by any mechanism.  This event emits when NFTs are created (`from` == 0) and destroyed  (`to` == 0). Exception: during contract creation, any number of NFTs  may be created and assigned without emitting Transfer. At the time of  any transfer, the approved address for that NFT (if any) is reset to none."
      }
    },
    "kind": "dev",
    "methods": {
      "approve(address,uint256)": {
        "details": "The zero address indicates there is no approved address.  Throws unless `msg.sender` is the current NFT owner, or an authorized  operator of the current owner.",
        "params": {
          "_approved": "The new approved NFT controller",
          "_tokenId": "The NFT to approve"
        }
      },
      "balanceOf(address)": {
        "details": "NFTs assigned to the zero address are considered invalid, and this  function throws for queries about the zero address.",
        "params": {
          "_owner": "An address for whom to query the balance"
        },
        "returns": {
          "_0": "The number of NFTs owned by `_owner`, possibly zero"
        }
      },
      "getApproved(uint256)": {
        "details": "Throws if `_tokenId` is not a valid NFT.",
        "params": {
          "_tokenId": "The NFT to find the approved address for"
        },
        "returns": {
          "_0": "The approved address for this NFT, or the zero address if there is none"
        }
      },
      "isApprovedForAll(address,address)": {
        "params": {
          "_operator": "The address that acts on behalf of the owner",
          "_owner": "The address that owns the NFTs"
        },
        "returns": {
          "_0": "True if `_operator` is an approved operator for `_owner`, false otherwise"
        }
      },
      "ownerOf(uint256)": {
        "details": "NFTs assigned to zero address are considered invalid, and queries  about them do throw.",
        "params": {
          "_tokenId": "The identifier for an NFT"
        },
        "returns": {
          "_0": "The address of the owner of the NFT"
        }
      },
      "safeTransferFrom(address,address,uint256)": {
        "details": "This works identically to the other function with an extra data parameter,  except this function just sets data to \"\".",
        "params": {
          "_from": "The current owner of the NFT",
          "_to": "The new owner",
          "_tokenId": "The NFT to transfer"
        }
      },
      "setApprovalForAll(address,bool)": {
        "details": "Emits the ApprovalForAll event. The contract MUST allow  multiple operators per owner.",
        "params": {
          "_approved": "True if the operator is approved, false to revoke approval",
          "_operator": "Address to add to the set of authorized operators"
        }
      },
      "transferFrom(address,address,uint256)": {
        "details": "Throws unless `msg.sender` is the current owner, an authorized  operator, or the approved address for this NFT. Throws if `_from` is  not the current owner. Throws if `_to` is the zero address. Throws if  `_tokenId` is not a valid NFT.",
        "params": {
          "_from": "The current owner of the NFT",
          "_to": "The new owner",
          "_tokenId": "The NFT to transfer"
        }
      }
    },
    "version": 1
  },
  "userdoc": {
    "kind": "user",
    "methods": {
      "approve(address,uint256)": {
        "notice": "Change or reaffirm the approved address for an NFT"
      },
      "balanceOf(address)": {
        "notice": "Count all NFTs assigned to an owner"
      },
      "getApproved(uint256)": {
        "notice": "Get the approved address for a single NFT"
      },
      "isApprovedForAll(address,address)": {
        "notice": "Query if an address is an authorized operator for another address"
      },
      "ownerOf(uint256)": {
        "notice": "Find the owner of an NFT"
      },
      "safeTransferFrom(address,address,uint256)": {
        "notice": "Transfers the ownership of an NFT from one address to another address"
      },
      "setApprovalForAll(address,bool)": {
        "notice": "Enable or disable approval for a third party (\"operator\") to manage  all of `msg.sender`'s assets"
      },
      "transferFrom(address,address,uint256)": {
        "notice": "Transfer ownership of an NFT -- THE CALLER IS RESPONSIBLE  TO CONFIRM THAT `_to` IS CAPABLE OF RECEIVING NFTS OR ELSE  THEY MAY BE PERMANENTLY LOST"
      }
    },
    "version": 1
  }
}