{
  "contractName": "SecondHandChain",
  "abi": [
    {
      "inputs": [
        {
          "internalType": "uint256",
          "name": "",
          "type": "uint256"
        }
      ],
      "name": "phones",
      "outputs": [
        {
          "internalType": "uint256",
          "name": "id",
          "type": "uint256"
        },
        {
          "internalType": "string",
          "name": "model",
          "type": "string"
        },
        {
          "internalType": "string",
          "name": "brand",
          "type": "string"
        },
        {
          "internalType": "string",
          "name": "colour",
          "type": "string"
        },
        {
          "internalType": "uint16",
          "name": "ram",
          "type": "uint16"
        },
        {
          "internalType": "uint32",
          "name": "mem",
          "type": "uint32"
        },
        {
          "internalType": "uint256",
          "name": "price",
          "type": "uint256"
        }
      ],
      "stateMutability": "view",
      "type": "function",
      "constant": true
    },
    {
      "inputs": [],
      "name": "getPhones",
      "outputs": [
        {
          "components": [
            {
              "internalType": "uint256",
              "name": "id",
              "type": "uint256"
            },
            {
              "internalType": "string",
              "name": "model",
              "type": "string"
            },
            {
              "internalType": "string",
              "name": "brand",
              "type": "string"
            },
            {
              "internalType": "string",
              "name": "colour",
              "type": "string"
            },
            {
              "internalType": "uint16",
              "name": "ram",
              "type": "uint16"
            },
            {
              "internalType": "uint32",
              "name": "mem",
              "type": "uint32"
            },
            {
              "internalType": "address[]",
              "name": "owners",
              "type": "address[]"
            },
            {
              "internalType": "uint256[]",
              "name": "saleTime",
              "type": "uint256[]"
            },
            {
              "internalType": "uint256[]",
              "name": "salePrice",
              "type": "uint256[]"
            },
            {
              "internalType": "uint256",
              "name": "price",
              "type": "uint256"
            }
          ],
          "internalType": "struct SecondHandChain.Phone[]",
          "name": "",
          "type": "tuple[]"
        }
      ],
      "stateMutability": "view",
      "type": "function",
      "constant": true
    },
    {
      "inputs": [
        {
          "internalType": "uint256",
          "name": "_id",
          "type": "uint256"
        }
      ],
      "name": "getPhoneOwner",
      "outputs": [
        {
          "internalType": "address",
          "name": "",
          "type": "address"
        }
      ],
      "stateMutability": "view",
      "type": "function",
      "constant": true
    },
    {
      "inputs": [
        {
          "internalType": "address",
          "name": "_address",
          "type": "address"
        }
      ],
      "name": "getAllPhonesInAddress",
      "outputs": [
        {
          "components": [
            {
              "internalType": "uint256",
              "name": "id",
              "type": "uint256"
            },
            {
              "internalType": "string",
              "name": "model",
              "type": "string"
            },
            {
              "internalType": "string",
              "name": "brand",
              "type": "string"
            },
            {
              "internalType": "string",
              "name": "colour",
              "type": "string"
            },
            {
              "internalType": "uint16",
              "name": "ram",
              "type": "uint16"
            },
            {
              "internalType": "uint32",
              "name": "mem",
              "type": "uint32"
            },
            {
              "internalType": "address[]",
              "name": "owners",
              "type": "address[]"
            },
            {
              "internalType": "uint256[]",
              "name": "saleTime",
              "type": "uint256[]"
            },
            {
              "internalType": "uint256[]",
              "name": "salePrice",
              "type": "uint256[]"
            },
            {
              "internalType": "uint256",
              "name": "price",
              "type": "uint256"
            }
          ],
          "internalType": "struct SecondHandChain.Phone[]",
          "name": "",
          "type": "tuple[]"
        }
      ],
      "stateMutability": "view",
      "type": "function",
      "constant": true
    },
    {
      "inputs": [],
      "name": "getAllPhonesOnSale",
      "outputs": [
        {
          "components": [
            {
              "internalType": "uint256",
              "name": "id",
              "type": "uint256"
            },
            {
              "internalType": "string",
              "name": "model",
              "type": "string"
            },
            {
              "internalType": "string",
              "name": "brand",
              "type": "string"
            },
            {
              "internalType": "string",
              "name": "colour",
              "type": "string"
            },
            {
              "internalType": "uint16",
              "name": "ram",
              "type": "uint16"
            },
            {
              "internalType": "uint32",
              "name": "mem",
              "type": "uint32"
            },
            {
              "internalType": "address[]",
              "name": "owners",
              "type": "address[]"
            },
            {
              "internalType": "uint256[]",
              "name": "saleTime",
              "type": "uint256[]"
            },
            {
              "internalType": "uint256[]",
              "name": "salePrice",
              "type": "uint256[]"
            },
            {
              "internalType": "uint256",
              "name": "price",
              "type": "uint256"
            }
          ],
          "internalType": "struct SecondHandChain.Phone[]",
          "name": "",
          "type": "tuple[]"
        }
      ],
      "stateMutability": "view",
      "type": "function",
      "constant": true
    },
    {
      "inputs": [
        {
          "internalType": "uint256",
          "name": "_id",
          "type": "uint256"
        }
      ],
      "name": "getIsPhoneOnSale",
      "outputs": [
        {
          "internalType": "bool",
          "name": "",
          "type": "bool"
        }
      ],
      "stateMutability": "view",
      "type": "function",
      "constant": true
    },
    {
      "inputs": [
        {
          "internalType": "uint256",
          "name": "_price",
          "type": "uint256"
        },
        {
          "internalType": "uint256",
          "name": "_phoneId",
          "type": "uint256"
        }
      ],
      "name": "putPhoneOnSale",
      "outputs": [],
      "stateMutability": "nonpayable",
      "type": "function"
    },
    {
      "inputs": [
        {
          "internalType": "uint256",
          "name": "_phoneId",
          "type": "uint256"
        }
      ],
      "name": "removePhoneFromSale",
      "outputs": [],
      "stateMutability": "nonpayable",
      "type": "function"
    },
    {
      "inputs": [
        {
          "internalType": "string",
          "name": "_model",
          "type": "string"
        },
        {
          "internalType": "string",
          "name": "_imei",
          "type": "string"
        },
        {
          "internalType": "string",
          "name": "_brand",
          "type": "string"
        },
        {
          "internalType": "string",
          "name": "_colour",
          "type": "string"
        },
        {
          "internalType": "uint256",
          "name": "_price",
          "type": "uint256"
        },
        {
          "internalType": "uint256",
          "name": "_salePrice",
          "type": "uint256"
        },
        {
          "internalType": "uint16",
          "name": "_ram",
          "type": "uint16"
        },
        {
          "internalType": "uint32",
          "name": "_mem",
          "type": "uint32"
        }
      ],
      "name": "createPhone",
      "outputs": [],
      "stateMutability": "nonpayable",
      "type": "function"
    }
  ],
  "bytecode": "0x608060405234801561001057600080fd5b50612870806100206000396000f3fe608060405234801561001057600080fd5b50600436106100935760003560e01c806374c97cd51161006657806374c97cd514610132578063c19944161461014e578063d4dbc41c1461016a578063f09e19f214610188578063f3730653146101b857610093565b806323b104fa146100985780633664e2de146100b4578063418696fa146100e45780635b884f6f14610114575b600080fd5b6100b260048036038101906100ad91906119ff565b6101ee565b005b6100ce60048036038101906100c991906119ff565b610329565b6040516100db9190611a47565b60405180910390f35b6100fe60048036038101906100f99190611ac0565b610353565b60405161010b9190611ef4565b60405180910390f35b61011c61082a565b6040516101299190611ef4565b60405180910390f35b61014c60048036038101906101479190611f16565b610c82565b005b610168600480360381019061016391906120e3565b610de7565b005b610172611271565b60405161017f9190611ef4565b60405180910390f35b6101a2600480360381019061019d91906119ff565b61161f565b6040516101af9190612218565b60405180910390f35b6101d260048036038101906101cd91906119ff565b61165c565b6040516101e597969594939291906122aa565b60405180910390f35b3373ffffffffffffffffffffffffffffffffffffffff166002600083815260200190815260200160002060009054906101000a900473ffffffffffffffffffffffffffffffffffffffff1673ffffffffffffffffffffffffffffffffffffffff161461028f576040517f08c379a00000000000000000000000000000000000000000000000000000000081526004016102869061237a565b60405180910390fd5b60006006600083815260200190815260200160002060006101000a81548160ff02191690831515021790555060006007600083815260200190815260200160002060006101000a81548173ffffffffffffffffffffffffffffffffffffffff021916908373ffffffffffffffffffffffffffffffffffffffff16021790555060016000815480929190610321906123c9565b919050555050565b60006006600083815260200190815260200160002060009054906101000a900460ff169050919050565b60606000600360008473ffffffffffffffffffffffffffffffffffffffff1673ffffffffffffffffffffffffffffffffffffffff1681526020019081526020016000205467ffffffffffffffff8111156103b0576103af611f60565b5b6040519080825280602002602001820160405280156103e957816020015b6103d6611864565b8152602001906001900390816103ce5790505b5090506000805b60008054905081101561081f578473ffffffffffffffffffffffffffffffffffffffff166002600083815260200190815260200160002060009054906101000a900473ffffffffffffffffffffffffffffffffffffffff1673ffffffffffffffffffffffffffffffffffffffff160361080c5760008181548110610477576104766123f2565b5b906000526020600020906009020160405180610140016040529081600082015481526020016001820180546104ab90612450565b80601f01602080910402602001604051908101604052809291908181526020018280546104d790612450565b80156105245780601f106104f957610100808354040283529160200191610524565b820191906000526020600020905b81548152906001019060200180831161050757829003601f168201915b5050505050815260200160028201805461053d90612450565b80601f016020809104026020016040519081016040528092919081815260200182805461056990612450565b80156105b65780601f1061058b576101008083540402835291602001916105b6565b820191906000526020600020905b81548152906001019060200180831161059957829003601f168201915b505050505081526020016003820180546105cf90612450565b80601f01602080910402602001604051908101604052809291908181526020018280546105fb90612450565b80156106485780601f1061061d57610100808354040283529160200191610648565b820191906000526020600020905b81548152906001019060200180831161062b57829003601f168201915b505050505081526020016004820160009054906101000a900461ffff1661ffff1661ffff1681526020016004820160029054906101000a900463ffffffff1663ffffffff1663ffffffff1681526020016005820180548060200260200160405190810160405280929190818152602001828054801561071c57602002820191906000526020600020905b8160009054906101000a900473ffffffffffffffffffffffffffffffffffffffff1673ffffffffffffffffffffffffffffffffffffffff16815260200190600101908083116106d2575b505050505081526020016006820180548060200260200160405190810160405280929190818152602001828054801561077457602002820191906000526020600020905b815481526020019060010190808311610760575b50505050508152602001600782018054806020026020016040519081016040528092919081815260200182805480156107cc57602002820191906000526020600020905b8154815260200190600101908083116107b8575b505050505081526020016008820154815250508383815181106107f2576107f16123f2565b5b6020026020010181905250818061080890612481565b9250505b808061081790612481565b9150506103f0565b508192505050919050565b6060600060015467ffffffffffffffff81111561084a57610849611f60565b5b60405190808252806020026020018201604052801561088357816020015b610870611864565b8152602001906001900390816108685790505b5090506000805b600080549050811015610c79576006600082815260200190815260200160002060009054906101000a900460ff1615610c6657600081815481106108d1576108d06123f2565b5b9060005260206000209060090201604051806101400160405290816000820154815260200160018201805461090590612450565b80601f016020809104026020016040519081016040528092919081815260200182805461093190612450565b801561097e5780601f106109535761010080835404028352916020019161097e565b820191906000526020600020905b81548152906001019060200180831161096157829003601f168201915b5050505050815260200160028201805461099790612450565b80601f01602080910402602001604051908101604052809291908181526020018280546109c390612450565b8015610a105780601f106109e557610100808354040283529160200191610a10565b820191906000526020600020905b8154815290600101906020018083116109f357829003601f168201915b50505050508152602001600382018054610a2990612450565b80601f0160208091040260200160405190810160405280929190818152602001828054610a5590612450565b8015610aa25780601f10610a7757610100808354040283529160200191610aa2565b820191906000526020600020905b815481529060010190602001808311610a8557829003601f168201915b505050505081526020016004820160009054906101000a900461ffff1661ffff1661ffff1681526020016004820160029054906101000a900463ffffffff1663ffffffff1663ffffffff16815260200160058201805480602002602001604051908101604052809291908181526020018280548015610b7657602002820191906000526020600020905b8160009054906101000a900473ffffffffffffffffffffffffffffffffffffffff1673ffffffffffffffffffffffffffffffffffffffff1681526020019060010190808311610b2c575b5050505050815260200160068201805480602002602001604051908101604052809291908181526020018280548015610bce57602002820191906000526020600020905b815481526020019060010190808311610bba575b5050505050815260200160078201805480602002602001604051908101604052809291908181526020018280548015610c2657602002820191906000526020600020905b815481526020019060010190808311610c12575b50505050508152602001600882015481525050838381518110610c4c57610c4b6123f2565b5b60200260200101819052508180610c6290612481565b9250505b8080610c7190612481565b91505061088a565b50819250505090565b3373ffffffffffffffffffffffffffffffffffffffff166002600083815260200190815260200160002060009054906101000a900473ffffffffffffffffffffffffffffffffffffffff1673ffffffffffffffffffffffffffffffffffffffff1614610d23576040517f08c379a0000000000000000000000000000000000000000000000000000000008152600401610d1a9061237a565b60405180910390fd5b60016006600083815260200190815260200160002060006101000a81548160ff0219169083151502179055508160008281548110610d6457610d636123f2565b5b906000526020600020906009020160080181905550306007600083815260200190815260200160002060006101000a81548173ffffffffffffffffffffffffffffffffffffffff021916908373ffffffffffffffffffffffffffffffffffffffff16021790555060016000815480929190610dde90612481565b91905055505050565b60001515600588604051610dfb9190612505565b908152602001604051809103902060009054906101000a900460ff16151514610e59576040517f08c379a0000000000000000000000000000000000000000000000000000000008152600401610e5090612568565b60405180910390fd5b610e61611864565b88816020018190525086816040018190525085816060018190525082816080019061ffff16908161ffff1681525050818160a0019063ffffffff16908163ffffffff168152505083816101200181815250506000819080600181540180825580915050600190039060005260206000209060090201600090919091909150600082015181600001556020820151816001019081610efe9190612734565b506040820151816002019081610f149190612734565b506060820151816003019081610f2a9190612734565b5060808201518160040160006101000a81548161ffff021916908361ffff16021790555060a08201518160040160026101000a81548163ffffffff021916908363ffffffff16021790555060c0820151816005019080519060200190610f919291906118c1565b5060e0820151816006019080519060200190610fae92919061194b565b50610100820151816007019080519060200190610fcc92919061194b565b5061012082015181600801555050600360003373ffffffffffffffffffffffffffffffffffffffff1673ffffffffffffffffffffffffffffffffffffffff168152602001908152602001600020600081548092919061102a90612481565b9190505550600060016000805490506110439190612806565b9050806000828154811061105a576110596123f2565b5b90600052602060002090600902016000018190555060008181548110611083576110826123f2565b5b9060005260206000209060090201600501339080600181540180825580915050600190039060005260206000200160009091909190916101000a81548173ffffffffffffffffffffffffffffffffffffffff021916908373ffffffffffffffffffffffffffffffffffffffff16021790555060008181548110611109576111086123f2565b5b906000526020600020906009020160060142908060018154018082558091505060019003906000526020600020016000909190919091505560008181548110611155576111546123f2565b5b9060005260206000209060090201600701869080600181540180825580915050600190039060005260206000200160009091909190915055336002600083815260200190815260200160002060006101000a81548173ffffffffffffffffffffffffffffffffffffffff021916908373ffffffffffffffffffffffffffffffffffffffff1602179055508060048a6040516111f09190612505565b90815260200160405180910390208190555060006006600083815260200190815260200160002060006101000a81548160ff021916908315150217905550600160058a6040516112409190612505565b908152602001604051809103902060006101000a81548160ff02191690831515021790555050505050505050505050565b60606000805480602002602001604051908101604052809291908181526020016000905b82821015611616578382906000526020600020906009020160405180610140016040529081600082015481526020016001820180546112d390612450565b80601f01602080910402602001604051908101604052809291908181526020018280546112ff90612450565b801561134c5780601f106113215761010080835404028352916020019161134c565b820191906000526020600020905b81548152906001019060200180831161132f57829003601f168201915b5050505050815260200160028201805461136590612450565b80601f016020809104026020016040519081016040528092919081815260200182805461139190612450565b80156113de5780601f106113b3576101008083540402835291602001916113de565b820191906000526020600020905b8154815290600101906020018083116113c157829003601f168201915b505050505081526020016003820180546113f790612450565b80601f016020809104026020016040519081016040528092919081815260200182805461142390612450565b80156114705780601f1061144557610100808354040283529160200191611470565b820191906000526020600020905b81548152906001019060200180831161145357829003601f168201915b505050505081526020016004820160009054906101000a900461ffff1661ffff1661ffff1681526020016004820160029054906101000a900463ffffffff1663ffffffff1663ffffffff1681526020016005820180548060200260200160405190810160405280929190818152602001828054801561154457602002820191906000526020600020905b8160009054906101000a900473ffffffffffffffffffffffffffffffffffffffff1673ffffffffffffffffffffffffffffffffffffffff16815260200190600101908083116114fa575b505050505081526020016006820180548060200260200160405190810160405280929190818152602001828054801561159c57602002820191906000526020600020905b815481526020019060010190808311611588575b50505050508152602001600782018054806020026020016040519081016040528092919081815260200182805480156115f457602002820191906000526020600020905b8154815260200190600101908083116115e0575b5050505050815260200160088201548152505081526020019060010190611295565b50505050905090565b60006002600083815260200190815260200160002060009054906101000a900473ffffffffffffffffffffffffffffffffffffffff169050919050565b6000818154811061166c57600080fd5b906000526020600020906009020160009150905080600001549080600101805461169590612450565b80601f01602080910402602001604051908101604052809291908181526020018280546116c190612450565b801561170e5780601f106116e35761010080835404028352916020019161170e565b820191906000526020600020905b8154815290600101906020018083116116f157829003601f168201915b50505050509080600201805461172390612450565b80601f016020809104026020016040519081016040528092919081815260200182805461174f90612450565b801561179c5780601f106117715761010080835404028352916020019161179c565b820191906000526020600020905b81548152906001019060200180831161177f57829003601f168201915b5050505050908060030180546117b190612450565b80601f01602080910402602001604051908101604052809291908181526020018280546117dd90612450565b801561182a5780601f106117ff5761010080835404028352916020019161182a565b820191906000526020600020905b81548152906001019060200180831161180d57829003601f168201915b5050505050908060040160009054906101000a900461ffff16908060040160029054906101000a900463ffffffff16908060080154905087565b60405180610140016040528060008152602001606081526020016060815260200160608152602001600061ffff168152602001600063ffffffff168152602001606081526020016060815260200160608152602001600081525090565b82805482825590600052602060002090810192821561193a579160200282015b828111156119395782518260006101000a81548173ffffffffffffffffffffffffffffffffffffffff021916908373ffffffffffffffffffffffffffffffffffffffff160217905550916020019190600101906118e1565b5b5090506119479190611998565b5090565b828054828255906000526020600020908101928215611987579160200282015b8281111561198657825182559160200191906001019061196b565b5b5090506119949190611998565b5090565b5b808211156119b1576000816000905550600101611999565b5090565b6000604051905090565b600080fd5b600080fd5b6000819050919050565b6119dc816119c9565b81146119e757600080fd5b50565b6000813590506119f9816119d3565b92915050565b600060208284031215611a1557611a146119bf565b5b6000611a23848285016119ea565b91505092915050565b60008115159050919050565b611a4181611a2c565b82525050565b6000602082019050611a5c6000830184611a38565b92915050565b600073ffffffffffffffffffffffffffffffffffffffff82169050919050565b6000611a8d82611a62565b9050919050565b611a9d81611a82565b8114611aa857600080fd5b50565b600081359050611aba81611a94565b92915050565b600060208284031215611ad657611ad56119bf565b5b6000611ae484828501611aab565b91505092915050565b600081519050919050565b600082825260208201905092915050565b6000819050602082019050919050565b611b22816119c9565b82525050565b600081519050919050565b600082825260208201905092915050565b60005b83811015611b62578082015181840152602081019050611b47565b60008484015250505050565b6000601f19601f8301169050919050565b6000611b8a82611b28565b611b948185611b33565b9350611ba4818560208601611b44565b611bad81611b6e565b840191505092915050565b600061ffff82169050919050565b611bcf81611bb8565b82525050565b600063ffffffff82169050919050565b611bee81611bd5565b82525050565b600081519050919050565b600082825260208201905092915050565b6000819050602082019050919050565b611c2981611a82565b82525050565b6000611c3b8383611c20565b60208301905092915050565b6000602082019050919050565b6000611c5f82611bf4565b611c698185611bff565b9350611c7483611c10565b8060005b83811015611ca5578151611c8c8882611c2f565b9750611c9783611c47565b925050600181019050611c78565b5085935050505092915050565b600081519050919050565b600082825260208201905092915050565b6000819050602082019050919050565b6000611cea8383611b19565b60208301905092915050565b6000602082019050919050565b6000611d0e82611cb2565b611d188185611cbd565b9350611d2383611cce565b8060005b83811015611d54578151611d3b8882611cde565b9750611d4683611cf6565b925050600181019050611d27565b5085935050505092915050565b600061014083016000830151611d7a6000860182611b19565b5060208301518482036020860152611d928282611b7f565b91505060408301518482036040860152611dac8282611b7f565b91505060608301518482036060860152611dc68282611b7f565b9150506080830151611ddb6080860182611bc6565b5060a0830151611dee60a0860182611be5565b5060c083015184820360c0860152611e068282611c54565b91505060e083015184820360e0860152611e208282611d03565b915050610100830151848203610100860152611e3c8282611d03565b915050610120830151611e53610120860182611b19565b508091505092915050565b6000611e6a8383611d61565b905092915050565b6000602082019050919050565b6000611e8a82611aed565b611e948185611af8565b935083602082028501611ea685611b09565b8060005b85811015611ee25784840389528151611ec38582611e5e565b9450611ece83611e72565b925060208a01995050600181019050611eaa565b50829750879550505050505092915050565b60006020820190508181036000830152611f0e8184611e7f565b905092915050565b60008060408385031215611f2d57611f2c6119bf565b5b6000611f3b858286016119ea565b9250506020611f4c858286016119ea565b9150509250929050565b600080fd5b600080fd5b7f4e487b7100000000000000000000000000000000000000000000000000000000600052604160045260246000fd5b611f9882611b6e565b810181811067ffffffffffffffff82111715611fb757611fb6611f60565b5b80604052505050565b6000611fca6119b5565b9050611fd68282611f8f565b919050565b600067ffffffffffffffff821115611ff657611ff5611f60565b5b611fff82611b6e565b9050602081019050919050565b82818337600083830152505050565b600061202e61202984611fdb565b611fc0565b90508281526020810184848401111561204a57612049611f5b565b5b61205584828561200c565b509392505050565b600082601f83011261207257612071611f56565b5b813561208284826020860161201b565b91505092915050565b61209481611bb8565b811461209f57600080fd5b50565b6000813590506120b18161208b565b92915050565b6120c081611bd5565b81146120cb57600080fd5b50565b6000813590506120dd816120b7565b92915050565b600080600080600080600080610100898b031215612104576121036119bf565b5b600089013567ffffffffffffffff811115612122576121216119c4565b5b61212e8b828c0161205d565b985050602089013567ffffffffffffffff81111561214f5761214e6119c4565b5b61215b8b828c0161205d565b975050604089013567ffffffffffffffff81111561217c5761217b6119c4565b5b6121888b828c0161205d565b965050606089013567ffffffffffffffff8111156121a9576121a86119c4565b5b6121b58b828c0161205d565b95505060806121c68b828c016119ea565b94505060a06121d78b828c016119ea565b93505060c06121e88b828c016120a2565b92505060e06121f98b828c016120ce565b9150509295985092959890939650565b61221281611a82565b82525050565b600060208201905061222d6000830184612209565b92915050565b61223c816119c9565b82525050565b600082825260208201905092915050565b600061225e82611b28565b6122688185612242565b9350612278818560208601611b44565b61228181611b6e565b840191505092915050565b61229581611bb8565b82525050565b6122a481611bd5565b82525050565b600060e0820190506122bf600083018a612233565b81810360208301526122d18189612253565b905081810360408301526122e58188612253565b905081810360608301526122f98187612253565b9050612308608083018661228c565b61231560a083018561229b565b61232260c0830184612233565b98975050505050505050565b7f596f7520646f206e6f74206f776e20746861742070686f6e6549640000000000600082015250565b6000612364601b83612242565b915061236f8261232e565b602082019050919050565b6000602082019050818103600083015261239381612357565b9050919050565b7f4e487b7100000000000000000000000000000000000000000000000000000000600052601160045260246000fd5b60006123d4826119c9565b9150600082036123e7576123e661239a565b5b600182039050919050565b7f4e487b7100000000000000000000000000000000000000000000000000000000600052603260045260246000fd5b7f4e487b7100000000000000000000000000000000000000000000000000000000600052602260045260246000fd5b6000600282049050600182168061246857607f821691505b60208210810361247b5761247a612421565b5b50919050565b600061248c826119c9565b91507fffffffffffffffffffffffffffffffffffffffffffffffffffffffffffffffff82036124be576124bd61239a565b5b600182019050919050565b600081905092915050565b60006124df82611b28565b6124e981856124c9565b93506124f9818560208601611b44565b80840191505092915050565b600061251182846124d4565b915081905092915050565b7f494d454920616c72656164792065786973747300000000000000000000000000600082015250565b6000612552601383612242565b915061255d8261251c565b602082019050919050565b6000602082019050818103600083015261258181612545565b9050919050565b60008190508160005260206000209050919050565b60006020601f8301049050919050565b600082821b905092915050565b6000600883026125ea7fffffffffffffffffffffffffffffffffffffffffffffffffffffffffffffffff826125ad565b6125f486836125ad565b95508019841693508086168417925050509392505050565b6000819050919050565b600061263161262c612627846119c9565b61260c565b6119c9565b9050919050565b6000819050919050565b61264b83612616565b61265f61265782612638565b8484546125ba565b825550505050565b600090565b612674612667565b61267f818484612642565b505050565b5b818110156126a35761269860008261266c565b600181019050612685565b5050565b601f8211156126e8576126b981612588565b6126c28461259d565b810160208510156126d1578190505b6126e56126dd8561259d565b830182612684565b50505b505050565b600082821c905092915050565b600061270b600019846008026126ed565b1980831691505092915050565b600061272483836126fa565b9150826002028217905092915050565b61273d82611b28565b67ffffffffffffffff81111561275657612755611f60565b5b6127608254612450565b61276b8282856126a7565b600060209050601f83116001811461279e576000841561278c578287015190505b6127968582612718565b8655506127fe565b601f1984166127ac86612588565b60005b828110156127d4578489015182556001820191506020850194506020810190506127af565b868310156127f157848901516127ed601f8916826126fa565b8355505b6001600288020188555050505b505050505050565b6000612811826119c9565b915061281c836119c9565b92508282039050818111156128345761283361239a565b5b9291505056fea2646970667358221220a714a22dbd9334d418b5a733b71745358970521d20901360e05d7e0af5f7762964736f6c63430008130033",
  "immutableReferences": {},
  "source": "// SPDX-License-Identifier: MIT\r\npragma solidity >=0.4.22 <0.9.0;\r\n\r\n\r\n/*\r\n  truffle migrate --network development\r\n  truffle develop\r\n\r\n  truffle compile\r\n  truffle migrate\r\n  SecondHandChain.deployed().then(function(instance) {contr=instance;});\r\n  contr._createPhone(\"iphone 10\",\"werwe3\",\"apple\",\"green\",3000,1900,8,90);\r\n  contr.getAllPhonesInAddress('0xcb32167472db9f1ee15b51c4a6fb2815a1f3a7e7');\r\n\r\n\r\n\r\n  let instance = await ERC721.deployed()\r\n  instance.createPhone(\"iphone 10\",\"werwe3\",\"apple\",\"green\",3000,1900,8,90,{from: accounts[3]})\r\n  instance.ownerOf(0)\r\n  instance.putPhoneOnSale('10000000000000000000',0)\r\n  let actualBalance0 = await web3.eth.getBalance(accounts[0]);\r\n  let actualBalance1 = await web3.eth.getBalance(accounts[1]);\r\n  truffle migrate --reset\r\n  instance.safeTransferFrom('0xf99C16ed15DE5e7A30C8460ae1e81B28fDf47797','0xb62a4ee782019cDd813Ff320818C1fbECfBE8a8a',0, {from: '0xb62a4ee782019cDd813Ff320818C1fbECfBE8a8a', value: 100000000000000000})\r\n  instance.putPhoneOnSale(2,0,{from: '0xf99C16ed15DE5e7A30C8460ae1e81B28fDf47797'})\r\n  instance.safeTransferFrom(accounts[0],accounts[3],0, {from: accounts[3], value: 9})\r\n\r\n  truffle console\r\n  instance.safeTransferFrom(accounts[2],accounts[4],0, {from: accounts[4], value: 10000000000000000000})\r\n  instance.putPhoneOnSale('10000000000000000000',0, {from:accounts[2]})\r\n\r\n*/\r\n\r\ncontract SecondHandChain {\r\n\r\n  struct Phone {\r\n    uint256 id;\r\n    string model;\r\n    string brand;\r\n    string colour;\r\n    uint16 ram;\r\n    uint32 mem;\r\n    address[] owners;\r\n    uint[] saleTime;\r\n    uint[] salePrice;\r\n    uint price;\r\n  }\r\n\r\n  Phone[] public phones;\r\n  uint256 numberOfPhonesOnSale;\r\n\r\n  mapping (uint => address) phoneOwner;\r\n  mapping (address => uint) phonesPerOwner;\r\n  mapping (string => uint) imeiPhoneId;\r\n  mapping (string => bool) isImeiRegistered;\r\n  mapping (uint => bool) isPhoneOnSale;\r\n  mapping (uint => address) phoneApproval;\r\n  mapping (address => address) approvalForAll;\r\n\r\n  function getPhones() public view returns( Phone[] memory){\r\n    return phones;\r\n  }\r\n\r\n  function getPhoneOwner(uint _id) public view returns(address){\r\n    return phoneOwner[_id];\r\n  }\r\n\r\n  function imeiRegistered(string memory _imei) private view returns(bool){\r\n    return isImeiRegistered[_imei];\r\n  }\r\n\r\n  function getAllPhonesInAddress(address _address) external view returns(Phone[] memory){\r\n    Phone[] memory _phones = new Phone[](phonesPerOwner[_address]) ;\r\n    uint j=0;\r\n    for (uint256 i= 0; i < phones.length; i++) {\r\n      if (phoneOwner[i]==_address) {\r\n        _phones[j]=phones[i];\r\n       j++;\r\n      }\r\n    }\r\n    return _phones;\r\n  }\r\n\r\n  function getAllPhonesOnSale() external view returns(Phone[] memory){\r\n    Phone[] memory _phones = new Phone[](numberOfPhonesOnSale) ;\r\n    uint j=0;\r\n    for (uint256 i= 0; i < phones.length; i++) {\r\n      if (isPhoneOnSale[i]) {\r\n        _phones[j]=phones[i];\r\n       j++;\r\n      }\r\n    }\r\n    return _phones;\r\n  }\r\n\r\n\r\n\r\n  function getIsPhoneOnSale(uint _id) external view returns(bool){\r\n    return isPhoneOnSale[_id];\r\n  }\r\n\r\n  function putPhoneOnSale(uint _price, uint _phoneId) external {\r\n    require(phoneOwner[_phoneId]==msg.sender, \"You do not own that phoneId\");\r\n    isPhoneOnSale[_phoneId]=true;\r\n    phones[_phoneId].price=_price;\r\n    phoneApproval[_phoneId] = address(this);\r\n    numberOfPhonesOnSale++;\r\n  }\r\n\r\n  function removePhoneFromSale(uint _phoneId) external {\r\n    require(phoneOwner[_phoneId]==msg.sender, \"You do not own that phoneId\");\r\n    isPhoneOnSale[_phoneId]=false;\r\n    phoneApproval[_phoneId] = address(0);\r\n    numberOfPhonesOnSale--;\r\n  }\r\n\r\n  function createPhone(\r\n    string memory _model,\r\n    string memory _imei,\r\n    string memory _brand,\r\n    string memory _colour,\r\n    uint _price,\r\n    uint _salePrice,\r\n    uint16 _ram,\r\n    uint32 _mem \r\n    ) public {\r\n\r\n    require(isImeiRegistered[_imei]==false, \"IMEI already exists\");\r\n\r\n    Phone memory phone;\r\n    phone.model = _model;\r\n    phone.brand = _brand;\r\n    phone.colour = _colour;\r\n    phone.ram = _ram;\r\n    phone.mem = _mem;\r\n    phone.price = _salePrice;\r\n\r\n\r\n    phones.push(phone);\r\n    phonesPerOwner[msg.sender]++;\r\n    uint id = phones.length-1;\r\n    phones[id].id=id;\r\n    phones[id].owners.push(msg.sender);\r\n    phones[id].saleTime.push(block.timestamp);\r\n    phones[id].salePrice.push(_price);\r\n\r\n    phoneOwner[id]=msg.sender;\r\n    imeiPhoneId[_imei]=id;\r\n    isPhoneOnSale[id] = false;\r\n    isImeiRegistered[_imei]=true;\r\n  }\r\n}\r\n",
  "sourcePath": "D:\\TFG\\ubu-secondhandchain\\truffle\\contracts\\SecondHandChain.sol",
  "compiler": {
    "name": "solc",
    "version": "0.8.19+commit.7dd6d404.Emscripten.clang"
  },
  "schemaVersion": "3.4.13",
  "updatedAt": "2023-05-08T19:40:40.521Z",
  "networkType": "ethereum",
  "devdoc": {
    "kind": "dev",
    "methods": {},
    "version": 1
  },
  "userdoc": {
    "kind": "user",
    "methods": {},
    "version": 1
  }
}