{
  "contractName": "SecondHandChain",
  "abi": [
    {
      "inputs": [
        {
          "internalType": "uint256",
          "name": "",
          "type": "uint256"
        }
      ],
      "name": "phones",
      "outputs": [
        {
          "internalType": "uint256",
          "name": "id",
          "type": "uint256"
        },
        {
          "internalType": "string",
          "name": "model",
          "type": "string"
        },
        {
          "internalType": "string",
          "name": "brand",
          "type": "string"
        },
        {
          "internalType": "string",
          "name": "colour",
          "type": "string"
        },
        {
          "internalType": "uint16",
          "name": "ram",
          "type": "uint16"
        },
        {
          "internalType": "uint32",
          "name": "mem",
          "type": "uint32"
        },
        {
          "internalType": "uint256",
          "name": "price",
          "type": "uint256"
        }
      ],
      "stateMutability": "view",
      "type": "function",
      "constant": true
    },
    {
      "inputs": [],
      "name": "getPhones",
      "outputs": [
        {
          "components": [
            {
              "internalType": "uint256",
              "name": "id",
              "type": "uint256"
            },
            {
              "internalType": "string",
              "name": "model",
              "type": "string"
            },
            {
              "internalType": "string",
              "name": "brand",
              "type": "string"
            },
            {
              "internalType": "string",
              "name": "colour",
              "type": "string"
            },
            {
              "internalType": "uint16",
              "name": "ram",
              "type": "uint16"
            },
            {
              "internalType": "uint32",
              "name": "mem",
              "type": "uint32"
            },
            {
              "internalType": "address[]",
              "name": "owners",
              "type": "address[]"
            },
            {
              "internalType": "uint256[]",
              "name": "saleTime",
              "type": "uint256[]"
            },
            {
              "internalType": "uint256[]",
              "name": "salePrice",
              "type": "uint256[]"
            },
            {
              "internalType": "uint256",
              "name": "price",
              "type": "uint256"
            }
          ],
          "internalType": "struct SecondHandChain.Phone[]",
          "name": "",
          "type": "tuple[]"
        }
      ],
      "stateMutability": "view",
      "type": "function",
      "constant": true
    },
    {
      "inputs": [
        {
          "internalType": "uint256",
          "name": "_id",
          "type": "uint256"
        }
      ],
      "name": "getPhoneOwner",
      "outputs": [
        {
          "internalType": "address",
          "name": "",
          "type": "address"
        }
      ],
      "stateMutability": "view",
      "type": "function",
      "constant": true
    },
    {
      "inputs": [
        {
          "internalType": "string",
          "name": "_imei",
          "type": "string"
        }
      ],
      "name": "imeiRegistered",
      "outputs": [
        {
          "internalType": "bool",
          "name": "",
          "type": "bool"
        }
      ],
      "stateMutability": "view",
      "type": "function",
      "constant": true
    },
    {
      "inputs": [
        {
          "internalType": "address",
          "name": "_address",
          "type": "address"
        }
      ],
      "name": "getAllPhonesInAddress",
      "outputs": [
        {
          "components": [
            {
              "internalType": "uint256",
              "name": "id",
              "type": "uint256"
            },
            {
              "internalType": "string",
              "name": "model",
              "type": "string"
            },
            {
              "internalType": "string",
              "name": "brand",
              "type": "string"
            },
            {
              "internalType": "string",
              "name": "colour",
              "type": "string"
            },
            {
              "internalType": "uint16",
              "name": "ram",
              "type": "uint16"
            },
            {
              "internalType": "uint32",
              "name": "mem",
              "type": "uint32"
            },
            {
              "internalType": "address[]",
              "name": "owners",
              "type": "address[]"
            },
            {
              "internalType": "uint256[]",
              "name": "saleTime",
              "type": "uint256[]"
            },
            {
              "internalType": "uint256[]",
              "name": "salePrice",
              "type": "uint256[]"
            },
            {
              "internalType": "uint256",
              "name": "price",
              "type": "uint256"
            }
          ],
          "internalType": "struct SecondHandChain.Phone[]",
          "name": "",
          "type": "tuple[]"
        }
      ],
      "stateMutability": "view",
      "type": "function",
      "constant": true
    },
    {
      "inputs": [],
      "name": "getAllPhonesOnSale",
      "outputs": [
        {
          "components": [
            {
              "internalType": "uint256",
              "name": "id",
              "type": "uint256"
            },
            {
              "internalType": "string",
              "name": "model",
              "type": "string"
            },
            {
              "internalType": "string",
              "name": "brand",
              "type": "string"
            },
            {
              "internalType": "string",
              "name": "colour",
              "type": "string"
            },
            {
              "internalType": "uint16",
              "name": "ram",
              "type": "uint16"
            },
            {
              "internalType": "uint32",
              "name": "mem",
              "type": "uint32"
            },
            {
              "internalType": "address[]",
              "name": "owners",
              "type": "address[]"
            },
            {
              "internalType": "uint256[]",
              "name": "saleTime",
              "type": "uint256[]"
            },
            {
              "internalType": "uint256[]",
              "name": "salePrice",
              "type": "uint256[]"
            },
            {
              "internalType": "uint256",
              "name": "price",
              "type": "uint256"
            }
          ],
          "internalType": "struct SecondHandChain.Phone[]",
          "name": "",
          "type": "tuple[]"
        }
      ],
      "stateMutability": "view",
      "type": "function",
      "constant": true
    },
    {
      "inputs": [
        {
          "internalType": "uint256",
          "name": "_id",
          "type": "uint256"
        }
      ],
      "name": "getIsPhoneOnSale",
      "outputs": [
        {
          "internalType": "bool",
          "name": "",
          "type": "bool"
        }
      ],
      "stateMutability": "view",
      "type": "function",
      "constant": true
    },
    {
      "inputs": [
        {
          "internalType": "uint256",
          "name": "_price",
          "type": "uint256"
        },
        {
          "internalType": "uint256",
          "name": "_phoneId",
          "type": "uint256"
        }
      ],
      "name": "putPhoneOnSale",
      "outputs": [],
      "stateMutability": "nonpayable",
      "type": "function"
    },
    {
      "inputs": [
        {
          "internalType": "uint256",
          "name": "_phoneId",
          "type": "uint256"
        }
      ],
      "name": "removePhoneFromSale",
      "outputs": [],
      "stateMutability": "nonpayable",
      "type": "function"
    },
    {
      "inputs": [
        {
          "internalType": "string",
          "name": "_model",
          "type": "string"
        },
        {
          "internalType": "string",
          "name": "_imei",
          "type": "string"
        },
        {
          "internalType": "string",
          "name": "_brand",
          "type": "string"
        },
        {
          "internalType": "string",
          "name": "_colour",
          "type": "string"
        },
        {
          "internalType": "uint256",
          "name": "_price",
          "type": "uint256"
        },
        {
          "internalType": "uint256",
          "name": "_salePrice",
          "type": "uint256"
        },
        {
          "internalType": "uint16",
          "name": "_ram",
          "type": "uint16"
        },
        {
          "internalType": "uint32",
          "name": "_mem",
          "type": "uint32"
        }
      ],
      "name": "createPhone",
      "outputs": [],
      "stateMutability": "nonpayable",
      "type": "function"
    }
  ],
  "bytecode": "0x608060405234801561001057600080fd5b50612929806100206000396000f3fe608060405234801561001057600080fd5b506004361061009e5760003560e01c8063c199441611610066578063c199441614610159578063d4dbc41c14610175578063d72bbae214610193578063f09e19f2146101c3578063f3730653146101f35761009e565b806323b104fa146100a35780633664e2de146100bf578063418696fa146100ef5780635b884f6f1461011f57806374c97cd51461013d575b600080fd5b6100bd60048036038101906100b89190611a6f565b610229565b005b6100d960048036038101906100d49190611a6f565b610364565b6040516100e69190611ab7565b60405180910390f35b61010960048036038101906101049190611b30565b61038e565b6040516101169190611f64565b60405180910390f35b610127610865565b6040516101349190611f64565b60405180910390f35b61015760048036038101906101529190611f86565b610cbd565b005b610173600480360381019061016e9190612153565b610e22565b005b61017d6112ac565b60405161018a9190611f64565b60405180910390f35b6101ad60048036038101906101a89190612279565b61165a565b6040516101ba9190611ab7565b60405180910390f35b6101dd60048036038101906101d89190611a6f565b61168f565b6040516101ea91906122d1565b60405180910390f35b61020d60048036038101906102089190611a6f565b6116cc565b6040516102209796959493929190612363565b60405180910390f35b3373ffffffffffffffffffffffffffffffffffffffff166002600083815260200190815260200160002060009054906101000a900473ffffffffffffffffffffffffffffffffffffffff1673ffffffffffffffffffffffffffffffffffffffff16146102ca576040517f08c379a00000000000000000000000000000000000000000000000000000000081526004016102c190612433565b60405180910390fd5b60006006600083815260200190815260200160002060006101000a81548160ff02191690831515021790555060006007600083815260200190815260200160002060006101000a81548173ffffffffffffffffffffffffffffffffffffffff021916908373ffffffffffffffffffffffffffffffffffffffff1602179055506001600081548092919061035c90612482565b919050555050565b60006006600083815260200190815260200160002060009054906101000a900460ff169050919050565b60606000600360008473ffffffffffffffffffffffffffffffffffffffff1673ffffffffffffffffffffffffffffffffffffffff1681526020019081526020016000205467ffffffffffffffff8111156103eb576103ea611fd0565b5b60405190808252806020026020018201604052801561042457816020015b6104116118d4565b8152602001906001900390816104095790505b5090506000805b60008054905081101561085a578473ffffffffffffffffffffffffffffffffffffffff166002600083815260200190815260200160002060009054906101000a900473ffffffffffffffffffffffffffffffffffffffff1673ffffffffffffffffffffffffffffffffffffffff160361084757600081815481106104b2576104b16124ab565b5b906000526020600020906009020160405180610140016040529081600082015481526020016001820180546104e690612509565b80601f016020809104026020016040519081016040528092919081815260200182805461051290612509565b801561055f5780601f106105345761010080835404028352916020019161055f565b820191906000526020600020905b81548152906001019060200180831161054257829003601f168201915b5050505050815260200160028201805461057890612509565b80601f01602080910402602001604051908101604052809291908181526020018280546105a490612509565b80156105f15780601f106105c6576101008083540402835291602001916105f1565b820191906000526020600020905b8154815290600101906020018083116105d457829003601f168201915b5050505050815260200160038201805461060a90612509565b80601f016020809104026020016040519081016040528092919081815260200182805461063690612509565b80156106835780601f1061065857610100808354040283529160200191610683565b820191906000526020600020905b81548152906001019060200180831161066657829003601f168201915b505050505081526020016004820160009054906101000a900461ffff1661ffff1661ffff1681526020016004820160029054906101000a900463ffffffff1663ffffffff1663ffffffff1681526020016005820180548060200260200160405190810160405280929190818152602001828054801561075757602002820191906000526020600020905b8160009054906101000a900473ffffffffffffffffffffffffffffffffffffffff1673ffffffffffffffffffffffffffffffffffffffff168152602001906001019080831161070d575b50505050508152602001600682018054806020026020016040519081016040528092919081815260200182805480156107af57602002820191906000526020600020905b81548152602001906001019080831161079b575b505050505081526020016007820180548060200260200160405190810160405280929190818152602001828054801561080757602002820191906000526020600020905b8154815260200190600101908083116107f3575b5050505050815260200160088201548152505083838151811061082d5761082c6124ab565b5b602002602001018190525081806108439061253a565b9250505b80806108529061253a565b91505061042b565b508192505050919050565b6060600060015467ffffffffffffffff81111561088557610884611fd0565b5b6040519080825280602002602001820160405280156108be57816020015b6108ab6118d4565b8152602001906001900390816108a35790505b5090506000805b600080549050811015610cb4576006600082815260200190815260200160002060009054906101000a900460ff1615610ca1576000818154811061090c5761090b6124ab565b5b9060005260206000209060090201604051806101400160405290816000820154815260200160018201805461094090612509565b80601f016020809104026020016040519081016040528092919081815260200182805461096c90612509565b80156109b95780601f1061098e576101008083540402835291602001916109b9565b820191906000526020600020905b81548152906001019060200180831161099c57829003601f168201915b505050505081526020016002820180546109d290612509565b80601f01602080910402602001604051908101604052809291908181526020018280546109fe90612509565b8015610a4b5780601f10610a2057610100808354040283529160200191610a4b565b820191906000526020600020905b815481529060010190602001808311610a2e57829003601f168201915b50505050508152602001600382018054610a6490612509565b80601f0160208091040260200160405190810160405280929190818152602001828054610a9090612509565b8015610add5780601f10610ab257610100808354040283529160200191610add565b820191906000526020600020905b815481529060010190602001808311610ac057829003601f168201915b505050505081526020016004820160009054906101000a900461ffff1661ffff1661ffff1681526020016004820160029054906101000a900463ffffffff1663ffffffff1663ffffffff16815260200160058201805480602002602001604051908101604052809291908181526020018280548015610bb157602002820191906000526020600020905b8160009054906101000a900473ffffffffffffffffffffffffffffffffffffffff1673ffffffffffffffffffffffffffffffffffffffff1681526020019060010190808311610b67575b5050505050815260200160068201805480602002602001604051908101604052809291908181526020018280548015610c0957602002820191906000526020600020905b815481526020019060010190808311610bf5575b5050505050815260200160078201805480602002602001604051908101604052809291908181526020018280548015610c6157602002820191906000526020600020905b815481526020019060010190808311610c4d575b50505050508152602001600882015481525050838381518110610c8757610c866124ab565b5b60200260200101819052508180610c9d9061253a565b9250505b8080610cac9061253a565b9150506108c5565b50819250505090565b3373ffffffffffffffffffffffffffffffffffffffff166002600083815260200190815260200160002060009054906101000a900473ffffffffffffffffffffffffffffffffffffffff1673ffffffffffffffffffffffffffffffffffffffff1614610d5e576040517f08c379a0000000000000000000000000000000000000000000000000000000008152600401610d5590612433565b60405180910390fd5b60016006600083815260200190815260200160002060006101000a81548160ff0219169083151502179055508160008281548110610d9f57610d9e6124ab565b5b906000526020600020906009020160080181905550306007600083815260200190815260200160002060006101000a81548173ffffffffffffffffffffffffffffffffffffffff021916908373ffffffffffffffffffffffffffffffffffffffff16021790555060016000815480929190610e199061253a565b91905055505050565b60001515600588604051610e3691906125be565b908152602001604051809103902060009054906101000a900460ff16151514610e94576040517f08c379a0000000000000000000000000000000000000000000000000000000008152600401610e8b90612621565b60405180910390fd5b610e9c6118d4565b88816020018190525086816040018190525085816060018190525082816080019061ffff16908161ffff1681525050818160a0019063ffffffff16908163ffffffff168152505083816101200181815250506000819080600181540180825580915050600190039060005260206000209060090201600090919091909150600082015181600001556020820151816001019081610f3991906127ed565b506040820151816002019081610f4f91906127ed565b506060820151816003019081610f6591906127ed565b5060808201518160040160006101000a81548161ffff021916908361ffff16021790555060a08201518160040160026101000a81548163ffffffff021916908363ffffffff16021790555060c0820151816005019080519060200190610fcc929190611931565b5060e0820151816006019080519060200190610fe99291906119bb565b506101008201518160070190805190602001906110079291906119bb565b5061012082015181600801555050600360003373ffffffffffffffffffffffffffffffffffffffff1673ffffffffffffffffffffffffffffffffffffffff16815260200190815260200160002060008154809291906110659061253a565b91905055506000600160008054905061107e91906128bf565b90508060008281548110611095576110946124ab565b5b906000526020600020906009020160000181905550600081815481106110be576110bd6124ab565b5b9060005260206000209060090201600501339080600181540180825580915050600190039060005260206000200160009091909190916101000a81548173ffffffffffffffffffffffffffffffffffffffff021916908373ffffffffffffffffffffffffffffffffffffffff16021790555060008181548110611144576111436124ab565b5b9060005260206000209060090201600601429080600181540180825580915050600190039060005260206000200160009091909190915055600081815481106111905761118f6124ab565b5b9060005260206000209060090201600701869080600181540180825580915050600190039060005260206000200160009091909190915055336002600083815260200190815260200160002060006101000a81548173ffffffffffffffffffffffffffffffffffffffff021916908373ffffffffffffffffffffffffffffffffffffffff1602179055508060048a60405161122b91906125be565b90815260200160405180910390208190555060006006600083815260200190815260200160002060006101000a81548160ff021916908315150217905550600160058a60405161127b91906125be565b908152602001604051809103902060006101000a81548160ff02191690831515021790555050505050505050505050565b60606000805480602002602001604051908101604052809291908181526020016000905b828210156116515783829060005260206000209060090201604051806101400160405290816000820154815260200160018201805461130e90612509565b80601f016020809104026020016040519081016040528092919081815260200182805461133a90612509565b80156113875780601f1061135c57610100808354040283529160200191611387565b820191906000526020600020905b81548152906001019060200180831161136a57829003601f168201915b505050505081526020016002820180546113a090612509565b80601f01602080910402602001604051908101604052809291908181526020018280546113cc90612509565b80156114195780601f106113ee57610100808354040283529160200191611419565b820191906000526020600020905b8154815290600101906020018083116113fc57829003601f168201915b5050505050815260200160038201805461143290612509565b80601f016020809104026020016040519081016040528092919081815260200182805461145e90612509565b80156114ab5780601f10611480576101008083540402835291602001916114ab565b820191906000526020600020905b81548152906001019060200180831161148e57829003601f168201915b505050505081526020016004820160009054906101000a900461ffff1661ffff1661ffff1681526020016004820160029054906101000a900463ffffffff1663ffffffff1663ffffffff1681526020016005820180548060200260200160405190810160405280929190818152602001828054801561157f57602002820191906000526020600020905b8160009054906101000a900473ffffffffffffffffffffffffffffffffffffffff1673ffffffffffffffffffffffffffffffffffffffff1681526020019060010190808311611535575b50505050508152602001600682018054806020026020016040519081016040528092919081815260200182805480156115d757602002820191906000526020600020905b8154815260200190600101908083116115c3575b505050505081526020016007820180548060200260200160405190810160405280929190818152602001828054801561162f57602002820191906000526020600020905b81548152602001906001019080831161161b575b50505050508152602001600882015481525050815260200190600101906112d0565b50505050905090565b600060058260405161166c91906125be565b908152602001604051809103902060009054906101000a900460ff169050919050565b60006002600083815260200190815260200160002060009054906101000a900473ffffffffffffffffffffffffffffffffffffffff169050919050565b600081815481106116dc57600080fd5b906000526020600020906009020160009150905080600001549080600101805461170590612509565b80601f016020809104026020016040519081016040528092919081815260200182805461173190612509565b801561177e5780601f106117535761010080835404028352916020019161177e565b820191906000526020600020905b81548152906001019060200180831161176157829003601f168201915b50505050509080600201805461179390612509565b80601f01602080910402602001604051908101604052809291908181526020018280546117bf90612509565b801561180c5780601f106117e15761010080835404028352916020019161180c565b820191906000526020600020905b8154815290600101906020018083116117ef57829003601f168201915b50505050509080600301805461182190612509565b80601f016020809104026020016040519081016040528092919081815260200182805461184d90612509565b801561189a5780601f1061186f5761010080835404028352916020019161189a565b820191906000526020600020905b81548152906001019060200180831161187d57829003601f168201915b5050505050908060040160009054906101000a900461ffff16908060040160029054906101000a900463ffffffff16908060080154905087565b60405180610140016040528060008152602001606081526020016060815260200160608152602001600061ffff168152602001600063ffffffff168152602001606081526020016060815260200160608152602001600081525090565b8280548282559060005260206000209081019282156119aa579160200282015b828111156119a95782518260006101000a81548173ffffffffffffffffffffffffffffffffffffffff021916908373ffffffffffffffffffffffffffffffffffffffff16021790555091602001919060010190611951565b5b5090506119b79190611a08565b5090565b8280548282559060005260206000209081019282156119f7579160200282015b828111156119f65782518255916020019190600101906119db565b5b509050611a049190611a08565b5090565b5b80821115611a21576000816000905550600101611a09565b5090565b6000604051905090565b600080fd5b600080fd5b6000819050919050565b611a4c81611a39565b8114611a5757600080fd5b50565b600081359050611a6981611a43565b92915050565b600060208284031215611a8557611a84611a2f565b5b6000611a9384828501611a5a565b91505092915050565b60008115159050919050565b611ab181611a9c565b82525050565b6000602082019050611acc6000830184611aa8565b92915050565b600073ffffffffffffffffffffffffffffffffffffffff82169050919050565b6000611afd82611ad2565b9050919050565b611b0d81611af2565b8114611b1857600080fd5b50565b600081359050611b2a81611b04565b92915050565b600060208284031215611b4657611b45611a2f565b5b6000611b5484828501611b1b565b91505092915050565b600081519050919050565b600082825260208201905092915050565b6000819050602082019050919050565b611b9281611a39565b82525050565b600081519050919050565b600082825260208201905092915050565b60005b83811015611bd2578082015181840152602081019050611bb7565b60008484015250505050565b6000601f19601f8301169050919050565b6000611bfa82611b98565b611c048185611ba3565b9350611c14818560208601611bb4565b611c1d81611bde565b840191505092915050565b600061ffff82169050919050565b611c3f81611c28565b82525050565b600063ffffffff82169050919050565b611c5e81611c45565b82525050565b600081519050919050565b600082825260208201905092915050565b6000819050602082019050919050565b611c9981611af2565b82525050565b6000611cab8383611c90565b60208301905092915050565b6000602082019050919050565b6000611ccf82611c64565b611cd98185611c6f565b9350611ce483611c80565b8060005b83811015611d15578151611cfc8882611c9f565b9750611d0783611cb7565b925050600181019050611ce8565b5085935050505092915050565b600081519050919050565b600082825260208201905092915050565b6000819050602082019050919050565b6000611d5a8383611b89565b60208301905092915050565b6000602082019050919050565b6000611d7e82611d22565b611d888185611d2d565b9350611d9383611d3e565b8060005b83811015611dc4578151611dab8882611d4e565b9750611db683611d66565b925050600181019050611d97565b5085935050505092915050565b600061014083016000830151611dea6000860182611b89565b5060208301518482036020860152611e028282611bef565b91505060408301518482036040860152611e1c8282611bef565b91505060608301518482036060860152611e368282611bef565b9150506080830151611e4b6080860182611c36565b5060a0830151611e5e60a0860182611c55565b5060c083015184820360c0860152611e768282611cc4565b91505060e083015184820360e0860152611e908282611d73565b915050610100830151848203610100860152611eac8282611d73565b915050610120830151611ec3610120860182611b89565b508091505092915050565b6000611eda8383611dd1565b905092915050565b6000602082019050919050565b6000611efa82611b5d565b611f048185611b68565b935083602082028501611f1685611b79565b8060005b85811015611f525784840389528151611f338582611ece565b9450611f3e83611ee2565b925060208a01995050600181019050611f1a565b50829750879550505050505092915050565b60006020820190508181036000830152611f7e8184611eef565b905092915050565b60008060408385031215611f9d57611f9c611a2f565b5b6000611fab85828601611a5a565b9250506020611fbc85828601611a5a565b9150509250929050565b600080fd5b600080fd5b7f4e487b7100000000000000000000000000000000000000000000000000000000600052604160045260246000fd5b61200882611bde565b810181811067ffffffffffffffff8211171561202757612026611fd0565b5b80604052505050565b600061203a611a25565b90506120468282611fff565b919050565b600067ffffffffffffffff82111561206657612065611fd0565b5b61206f82611bde565b9050602081019050919050565b82818337600083830152505050565b600061209e6120998461204b565b612030565b9050828152602081018484840111156120ba576120b9611fcb565b5b6120c584828561207c565b509392505050565b600082601f8301126120e2576120e1611fc6565b5b81356120f284826020860161208b565b91505092915050565b61210481611c28565b811461210f57600080fd5b50565b600081359050612121816120fb565b92915050565b61213081611c45565b811461213b57600080fd5b50565b60008135905061214d81612127565b92915050565b600080600080600080600080610100898b03121561217457612173611a2f565b5b600089013567ffffffffffffffff81111561219257612191611a34565b5b61219e8b828c016120cd565b985050602089013567ffffffffffffffff8111156121bf576121be611a34565b5b6121cb8b828c016120cd565b975050604089013567ffffffffffffffff8111156121ec576121eb611a34565b5b6121f88b828c016120cd565b965050606089013567ffffffffffffffff81111561221957612218611a34565b5b6122258b828c016120cd565b95505060806122368b828c01611a5a565b94505060a06122478b828c01611a5a565b93505060c06122588b828c01612112565b92505060e06122698b828c0161213e565b9150509295985092959890939650565b60006020828403121561228f5761228e611a2f565b5b600082013567ffffffffffffffff8111156122ad576122ac611a34565b5b6122b9848285016120cd565b91505092915050565b6122cb81611af2565b82525050565b60006020820190506122e660008301846122c2565b92915050565b6122f581611a39565b82525050565b600082825260208201905092915050565b600061231782611b98565b61232181856122fb565b9350612331818560208601611bb4565b61233a81611bde565b840191505092915050565b61234e81611c28565b82525050565b61235d81611c45565b82525050565b600060e082019050612378600083018a6122ec565b818103602083015261238a818961230c565b9050818103604083015261239e818861230c565b905081810360608301526123b2818761230c565b90506123c16080830186612345565b6123ce60a0830185612354565b6123db60c08301846122ec565b98975050505050505050565b7f596f7520646f206e6f74206f776e20746861742070686f6e6549640000000000600082015250565b600061241d601b836122fb565b9150612428826123e7565b602082019050919050565b6000602082019050818103600083015261244c81612410565b9050919050565b7f4e487b7100000000000000000000000000000000000000000000000000000000600052601160045260246000fd5b600061248d82611a39565b9150600082036124a05761249f612453565b5b600182039050919050565b7f4e487b7100000000000000000000000000000000000000000000000000000000600052603260045260246000fd5b7f4e487b7100000000000000000000000000000000000000000000000000000000600052602260045260246000fd5b6000600282049050600182168061252157607f821691505b602082108103612534576125336124da565b5b50919050565b600061254582611a39565b91507fffffffffffffffffffffffffffffffffffffffffffffffffffffffffffffffff820361257757612576612453565b5b600182019050919050565b600081905092915050565b600061259882611b98565b6125a28185612582565b93506125b2818560208601611bb4565b80840191505092915050565b60006125ca828461258d565b915081905092915050565b7f494d454920616c72656164792065786973747300000000000000000000000000600082015250565b600061260b6013836122fb565b9150612616826125d5565b602082019050919050565b6000602082019050818103600083015261263a816125fe565b9050919050565b60008190508160005260206000209050919050565b60006020601f8301049050919050565b600082821b905092915050565b6000600883026126a37fffffffffffffffffffffffffffffffffffffffffffffffffffffffffffffffff82612666565b6126ad8683612666565b95508019841693508086168417925050509392505050565b6000819050919050565b60006126ea6126e56126e084611a39565b6126c5565b611a39565b9050919050565b6000819050919050565b612704836126cf565b612718612710826126f1565b848454612673565b825550505050565b600090565b61272d612720565b6127388184846126fb565b505050565b5b8181101561275c57612751600082612725565b60018101905061273e565b5050565b601f8211156127a15761277281612641565b61277b84612656565b8101602085101561278a578190505b61279e61279685612656565b83018261273d565b50505b505050565b600082821c905092915050565b60006127c4600019846008026127a6565b1980831691505092915050565b60006127dd83836127b3565b9150826002028217905092915050565b6127f682611b98565b67ffffffffffffffff81111561280f5761280e611fd0565b5b6128198254612509565b612824828285612760565b600060209050601f8311600181146128575760008415612845578287015190505b61284f85826127d1565b8655506128b7565b601f19841661286586612641565b60005b8281101561288d57848901518255600182019150602085019450602081019050612868565b868310156128aa57848901516128a6601f8916826127b3565b8355505b6001600288020188555050505b505050505050565b60006128ca82611a39565b91506128d583611a39565b92508282039050818111156128ed576128ec612453565b5b9291505056fea2646970667358221220945a8c6026edc614a16661b43fe7ad07a6dd9fbb02a5835a2148eec6ca919c6864736f6c63430008130033",
  "immutableReferences": {},
  "source": "// SPDX-License-Identifier: MIT\r\npragma solidity >=0.4.22 <0.9.0;\r\n\r\n/*\r\n  truffle migrate --network development\r\n  truffle develop\r\n\r\n  truffle compile\r\n  truffle migrate\r\n  SecondHandChain.deployed().then(function(instance) {contr=instance;});\r\n  contr._createPhone(\"iphone 10\",\"werwe3\",\"apple\",\"green\",3000,1900,8,90);\r\n  contr.getAllPhonesInAddress('0xcb32167472db9f1ee15b51c4a6fb2815a1f3a7e7');\r\n\r\n\r\n\r\n  let instance = await ERC721.deployed()\r\n  instance.createPhone(\"iphone 10\",\"werwe3\",\"apple\",\"green\",3000,1900,8,90,{from: accounts[3]})\r\n  instance.ownerOf(0)\r\n  instance.putPhoneOnSale('10000000000000000000',0)\r\n  let actualBalance0 = await web3.eth.getBalance(accounts[0]);\r\n  let actualBalance1 = await web3.eth.getBalance(accounts[1]);\r\n  truffle migrate --reset\r\n  instance.safeTransferFrom('0xf99C16ed15DE5e7A30C8460ae1e81B28fDf47797','0xb62a4ee782019cDd813Ff320818C1fbECfBE8a8a',0, {from: '0xb62a4ee782019cDd813Ff320818C1fbECfBE8a8a', value: 100000000000000000})\r\n  instance.putPhoneOnSale(2,0,{from: '0xf99C16ed15DE5e7A30C8460ae1e81B28fDf47797'})\r\n  instance.safeTransferFrom(accounts[0],accounts[3],0, {from: accounts[3], value: 9})\r\n\r\n  truffle console\r\n  instance.safeTransferFrom(accounts[2],accounts[4],0, {from: accounts[4], value: 10000000000000000000})\r\n  instance.putPhoneOnSale('10000000000000000000',0, {from:accounts[2]})\r\n\r\n*/\r\n\r\ncontract SecondHandChain {\r\n    struct Phone {\r\n        uint256 id;\r\n        string model;\r\n        string brand;\r\n        string colour;\r\n        uint16 ram;\r\n        uint32 mem;\r\n        address[] owners;\r\n        uint[] saleTime;\r\n        uint[] salePrice;\r\n        uint price;\r\n    }\r\n\r\n    Phone[] public phones;\r\n    uint256 numberOfPhonesOnSale;\r\n\r\n    mapping(uint => address) phoneOwner;\r\n    mapping(address => uint) phonesPerOwner;\r\n    mapping(string => uint) imeiPhoneId;\r\n    mapping(string => bool) isImeiRegistered;\r\n    mapping(uint => bool) isPhoneOnSale;\r\n    mapping(uint => address) phoneApproval;\r\n    mapping(address => address) approvalForAll;\r\n\r\n    function getPhones() public view returns (Phone[] memory) {\r\n        return phones;\r\n    }\r\n\r\n    function getPhoneOwner(uint _id) public view returns (address) {\r\n        return phoneOwner[_id];\r\n    }\r\n\r\n    function imeiRegistered(string memory _imei) public view returns (bool) {\r\n        return isImeiRegistered[_imei];\r\n    }\r\n\r\n    function getAllPhonesInAddress(\r\n        address _address\r\n    ) external view returns (Phone[] memory) {\r\n        Phone[] memory _phones = new Phone[](phonesPerOwner[_address]);\r\n        uint j = 0;\r\n        for (uint256 i = 0; i < phones.length; i++) {\r\n            if (phoneOwner[i] == _address) {\r\n                _phones[j] = phones[i];\r\n                j++;\r\n            }\r\n        }\r\n        return _phones;\r\n    }\r\n\r\n    function getAllPhonesOnSale() external view returns (Phone[] memory) {\r\n        Phone[] memory _phones = new Phone[](numberOfPhonesOnSale);\r\n        uint j = 0;\r\n        for (uint256 i = 0; i < phones.length; i++) {\r\n            if (isPhoneOnSale[i]) {\r\n                _phones[j] = phones[i];\r\n                j++;\r\n            }\r\n        }\r\n        return _phones;\r\n    }\r\n\r\n    function getIsPhoneOnSale(uint _id) external view returns (bool) {\r\n        return isPhoneOnSale[_id];\r\n    }\r\n\r\n    function putPhoneOnSale(uint _price, uint _phoneId) external {\r\n        require(\r\n            phoneOwner[_phoneId] == msg.sender,\r\n            \"You do not own that phoneId\"\r\n        );\r\n        isPhoneOnSale[_phoneId] = true;\r\n        phones[_phoneId].price = _price;\r\n        phoneApproval[_phoneId] = address(this);\r\n        numberOfPhonesOnSale++;\r\n    }\r\n\r\n    function removePhoneFromSale(uint _phoneId) external {\r\n        require(\r\n            phoneOwner[_phoneId] == msg.sender,\r\n            \"You do not own that phoneId\"\r\n        );\r\n        isPhoneOnSale[_phoneId] = false;\r\n        phoneApproval[_phoneId] = address(0);\r\n        numberOfPhonesOnSale--;\r\n    }\r\n\r\n    function createPhone(\r\n        string memory _model,\r\n        string memory _imei,\r\n        string memory _brand,\r\n        string memory _colour,\r\n        uint _price,\r\n        uint _salePrice,\r\n        uint16 _ram,\r\n        uint32 _mem\r\n    ) public {\r\n        require(isImeiRegistered[_imei] == false, \"IMEI already exists\");\r\n\r\n        Phone memory phone;\r\n        phone.model = _model;\r\n        phone.brand = _brand;\r\n        phone.colour = _colour;\r\n        phone.ram = _ram;\r\n        phone.mem = _mem;\r\n        phone.price = _salePrice;\r\n\r\n        phones.push(phone);\r\n        phonesPerOwner[msg.sender]++;\r\n        uint id = phones.length - 1;\r\n        phones[id].id = id;\r\n        phones[id].owners.push(msg.sender);\r\n        phones[id].saleTime.push(block.timestamp);\r\n        phones[id].salePrice.push(_price);\r\n\r\n        phoneOwner[id] = msg.sender;\r\n        imeiPhoneId[_imei] = id;\r\n        isPhoneOnSale[id] = false;\r\n        isImeiRegistered[_imei] = true;\r\n    }\r\n}\r\n",
  "sourcePath": "D:\\TFG\\ubu-secondhandchain\\truffle\\contracts\\SecondHandChain.sol",
  "compiler": {
    "name": "solc",
    "version": "0.8.19+commit.7dd6d404.Emscripten.clang"
  },
  "schemaVersion": "3.4.13",
  "updatedAt": "2023-05-21T17:02:26.857Z",
  "networkType": "ethereum",
  "devdoc": {
    "kind": "dev",
    "methods": {},
    "version": 1
  },
  "userdoc": {
    "kind": "user",
    "methods": {},
    "version": 1
  }
}