{
  "contractName": "SecondHandChain",
  "abi": [
    {
      "inputs": [
        {
          "internalType": "uint256",
          "name": "",
          "type": "uint256"
        }
      ],
      "name": "phones",
      "outputs": [
        {
          "internalType": "string",
          "name": "model",
          "type": "string"
        },
        {
          "internalType": "string",
          "name": "brand",
          "type": "string"
        },
        {
          "internalType": "string",
          "name": "colour",
          "type": "string"
        },
        {
          "internalType": "uint16",
          "name": "ram",
          "type": "uint16"
        },
        {
          "internalType": "uint32",
          "name": "mem",
          "type": "uint32"
        },
        {
          "internalType": "uint256",
          "name": "price",
          "type": "uint256"
        }
      ],
      "stateMutability": "view",
      "type": "function",
      "constant": true
    },
    {
      "inputs": [],
      "name": "getPhones",
      "outputs": [
        {
          "components": [
            {
              "internalType": "string",
              "name": "model",
              "type": "string"
            },
            {
              "internalType": "string",
              "name": "brand",
              "type": "string"
            },
            {
              "internalType": "string",
              "name": "colour",
              "type": "string"
            },
            {
              "internalType": "uint16",
              "name": "ram",
              "type": "uint16"
            },
            {
              "internalType": "uint32",
              "name": "mem",
              "type": "uint32"
            },
            {
              "internalType": "address[]",
              "name": "owners",
              "type": "address[]"
            },
            {
              "internalType": "uint256[]",
              "name": "saleTime",
              "type": "uint256[]"
            },
            {
              "internalType": "uint256[]",
              "name": "salePrice",
              "type": "uint256[]"
            },
            {
              "internalType": "uint256",
              "name": "price",
              "type": "uint256"
            }
          ],
          "internalType": "struct SecondHandChain.Phone[]",
          "name": "",
          "type": "tuple[]"
        }
      ],
      "stateMutability": "view",
      "type": "function",
      "constant": true
    },
    {
      "inputs": [
        {
          "internalType": "uint256",
          "name": "_id",
          "type": "uint256"
        }
      ],
      "name": "getPhoneOwner",
      "outputs": [
        {
          "internalType": "address",
          "name": "",
          "type": "address"
        }
      ],
      "stateMutability": "view",
      "type": "function",
      "constant": true
    },
    {
      "inputs": [
        {
          "internalType": "address",
          "name": "_address",
          "type": "address"
        }
      ],
      "name": "getAllPhonesInAddress",
      "outputs": [
        {
          "internalType": "uint256[]",
          "name": "",
          "type": "uint256[]"
        }
      ],
      "stateMutability": "view",
      "type": "function",
      "constant": true
    },
    {
      "inputs": [
        {
          "internalType": "uint256",
          "name": "_id",
          "type": "uint256"
        }
      ],
      "name": "getIsPhoneOnSale",
      "outputs": [
        {
          "internalType": "bool",
          "name": "",
          "type": "bool"
        }
      ],
      "stateMutability": "view",
      "type": "function",
      "constant": true
    },
    {
      "inputs": [
        {
          "internalType": "uint256",
          "name": "_price",
          "type": "uint256"
        },
        {
          "internalType": "uint256",
          "name": "_phoneId",
          "type": "uint256"
        }
      ],
      "name": "putPhoneOnSale",
      "outputs": [],
      "stateMutability": "nonpayable",
      "type": "function"
    },
    {
      "inputs": [
        {
          "internalType": "uint256",
          "name": "_phoneId",
          "type": "uint256"
        }
      ],
      "name": "removePhoneFromSale",
      "outputs": [],
      "stateMutability": "nonpayable",
      "type": "function"
    },
    {
      "inputs": [
        {
          "internalType": "string",
          "name": "_model",
          "type": "string"
        },
        {
          "internalType": "string",
          "name": "_imei",
          "type": "string"
        },
        {
          "internalType": "string",
          "name": "_brand",
          "type": "string"
        },
        {
          "internalType": "string",
          "name": "_colour",
          "type": "string"
        },
        {
          "internalType": "uint256",
          "name": "_price",
          "type": "uint256"
        },
        {
          "internalType": "uint256",
          "name": "_salePrice",
          "type": "uint256"
        },
        {
          "internalType": "uint16",
          "name": "_ram",
          "type": "uint16"
        },
        {
          "internalType": "uint32",
          "name": "_mem",
          "type": "uint32"
        }
      ],
      "name": "_createPhone",
      "outputs": [],
      "stateMutability": "nonpayable",
      "type": "function"
    }
  ],
  "bytecode": "0x608060405234801561001057600080fd5b50612032806100206000396000f3fe608060405234801561001057600080fd5b50600436106100885760003560e01c8063d4dbc41c1161005b578063d4dbc41c14610125578063f09e19f214610143578063f373065314610173578063f4938a8e146101a857610088565b806323b104fa1461008d5780633664e2de146100a9578063418696fa146100d957806374c97cd514610109575b600080fd5b6100a760048036038101906100a2919061117c565b6101c4565b005b6100c360048036038101906100be919061117c565b6102e7565b6040516100d091906111c4565b60405180910390f35b6100f360048036038101906100ee919061123d565b610311565b6040516101009190611328565b60405180910390f35b610123600480360381019061011e919061134a565b610463565b005b61012d6105b0565b60405161013a919061172d565b60405180910390f35b61015d6004803603810190610158919061117c565b610954565b60405161016a919061175e565b60405180910390f35b61018d6004803603810190610188919061117c565b610991565b60405161019f969594939291906117f0565b60405180910390f35b6101c260048036038101906101bd91906119f3565b610b93565b005b3373ffffffffffffffffffffffffffffffffffffffff166001600083815260200190815260200160002060009054906101000a900473ffffffffffffffffffffffffffffffffffffffff1673ffffffffffffffffffffffffffffffffffffffff1614610265576040517f08c379a000000000000000000000000000000000000000000000000000000000815260040161025c90611b65565b60405180910390fd5b60006005600083815260200190815260200160002060006101000a81548160ff02191690831515021790555060006006600083815260200190815260200160002060006101000a81548173ffffffffffffffffffffffffffffffffffffffff021916908373ffffffffffffffffffffffffffffffffffffffff16021790555050565b60006005600083815260200190815260200160002060009054906101000a900460ff169050919050565b60606000600260008473ffffffffffffffffffffffffffffffffffffffff1673ffffffffffffffffffffffffffffffffffffffff1681526020019081526020016000205467ffffffffffffffff81111561036e5761036d611870565b5b60405190808252806020026020018201604052801561039c5781602001602082028036833780820191505090505b5090506000805b600080549050811015610458578473ffffffffffffffffffffffffffffffffffffffff166001600083815260200190815260200160002060009054906101000a900473ffffffffffffffffffffffffffffffffffffffff1673ffffffffffffffffffffffffffffffffffffffff1603610445578083838151811061042a57610429611b85565b5b602002602001018181525050818061044190611be3565b9250505b808061045090611be3565b9150506103a3565b508192505050919050565b3373ffffffffffffffffffffffffffffffffffffffff166001600083815260200190815260200160002060009054906101000a900473ffffffffffffffffffffffffffffffffffffffff1673ffffffffffffffffffffffffffffffffffffffff1614610504576040517f08c379a00000000000000000000000000000000000000000000000000000000081526004016104fb90611b65565b60405180910390fd5b60016005600083815260200190815260200160002060006101000a81548160ff021916908315150217905550816000828154811061054557610544611b85565b5b906000526020600020906008020160070181905550306006600083815260200190815260200160002060006101000a81548173ffffffffffffffffffffffffffffffffffffffff021916908373ffffffffffffffffffffffffffffffffffffffff1602179055505050565b60606000805480602002602001604051908101604052809291908181526020016000905b8282101561094b57838290600052602060002090600802016040518061012001604052908160008201805461060890611c5a565b80601f016020809104026020016040519081016040528092919081815260200182805461063490611c5a565b80156106815780601f1061065657610100808354040283529160200191610681565b820191906000526020600020905b81548152906001019060200180831161066457829003601f168201915b5050505050815260200160018201805461069a90611c5a565b80601f01602080910402602001604051908101604052809291908181526020018280546106c690611c5a565b80156107135780601f106106e857610100808354040283529160200191610713565b820191906000526020600020905b8154815290600101906020018083116106f657829003601f168201915b5050505050815260200160028201805461072c90611c5a565b80601f016020809104026020016040519081016040528092919081815260200182805461075890611c5a565b80156107a55780601f1061077a576101008083540402835291602001916107a5565b820191906000526020600020905b81548152906001019060200180831161078857829003601f168201915b505050505081526020016003820160009054906101000a900461ffff1661ffff1661ffff1681526020016003820160029054906101000a900463ffffffff1663ffffffff1663ffffffff1681526020016004820180548060200260200160405190810160405280929190818152602001828054801561087957602002820191906000526020600020905b8160009054906101000a900473ffffffffffffffffffffffffffffffffffffffff1673ffffffffffffffffffffffffffffffffffffffff168152602001906001019080831161082f575b50505050508152602001600582018054806020026020016040519081016040528092919081815260200182805480156108d157602002820191906000526020600020905b8154815260200190600101908083116108bd575b505050505081526020016006820180548060200260200160405190810160405280929190818152602001828054801561092957602002820191906000526020600020905b815481526020019060010190808311610915575b50505050508152602001600782015481525050815260200190600101906105d4565b50505050905090565b60006001600083815260200190815260200160002060009054906101000a900473ffffffffffffffffffffffffffffffffffffffff169050919050565b600081815481106109a157600080fd5b90600052602060002090600802016000915090508060000180546109c490611c5a565b80601f01602080910402602001604051908101604052809291908181526020018280546109f090611c5a565b8015610a3d5780601f10610a1257610100808354040283529160200191610a3d565b820191906000526020600020905b815481529060010190602001808311610a2057829003601f168201915b505050505090806001018054610a5290611c5a565b80601f0160208091040260200160405190810160405280929190818152602001828054610a7e90611c5a565b8015610acb5780601f10610aa057610100808354040283529160200191610acb565b820191906000526020600020905b815481529060010190602001808311610aae57829003601f168201915b505050505090806002018054610ae090611c5a565b80601f0160208091040260200160405190810160405280929190818152602001828054610b0c90611c5a565b8015610b595780601f10610b2e57610100808354040283529160200191610b59565b820191906000526020600020905b815481529060010190602001808311610b3c57829003601f168201915b5050505050908060030160009054906101000a900461ffff16908060030160029054906101000a900463ffffffff16908060070154905086565b60001515600488604051610ba79190611cc7565b908152602001604051809103902060009054906101000a900460ff16151514610c05576040517f08c379a0000000000000000000000000000000000000000000000000000000008152600401610bfc90611d2a565b60405180910390fd5b610c0d610fe8565b88816000018190525086816020018190525085816040018190525082816060019061ffff16908161ffff168152505081816080019063ffffffff16908163ffffffff1681525050838161010001818152505060008190806001815401808255809150506001900390600052602060002090600802016000909190919091506000820151816000019081610ca09190611ef6565b506020820151816001019081610cb69190611ef6565b506040820151816002019081610ccc9190611ef6565b5060608201518160030160006101000a81548161ffff021916908361ffff16021790555060808201518160030160026101000a81548163ffffffff021916908363ffffffff16021790555060a0820151816004019080519060200190610d3392919061103e565b5060c0820151816005019080519060200190610d509291906110c8565b5060e0820151816006019080519060200190610d6d9291906110c8565b5061010082015181600701555050600260003373ffffffffffffffffffffffffffffffffffffffff1673ffffffffffffffffffffffffffffffffffffffff1681526020019081526020016000206000815480929190610dcb90611be3565b919050555060006001600080549050610de49190611fc8565b905060008181548110610dfa57610df9611b85565b5b9060005260206000209060080201600401339080600181540180825580915050600190039060005260206000200160009091909190916101000a81548173ffffffffffffffffffffffffffffffffffffffff021916908373ffffffffffffffffffffffffffffffffffffffff16021790555060008181548110610e8057610e7f611b85565b5b906000526020600020906008020160050142908060018154018082558091505060019003906000526020600020016000909190919091505560008181548110610ecc57610ecb611b85565b5b9060005260206000209060080201600601869080600181540180825580915050600190039060005260206000200160009091909190915055336001600083815260200190815260200160002060006101000a81548173ffffffffffffffffffffffffffffffffffffffff021916908373ffffffffffffffffffffffffffffffffffffffff1602179055508060038a604051610f679190611cc7565b90815260200160405180910390208190555060006005600083815260200190815260200160002060006101000a81548160ff021916908315150217905550600160048a604051610fb79190611cc7565b908152602001604051809103902060006101000a81548160ff02191690831515021790555050505050505050505050565b604051806101200160405280606081526020016060815260200160608152602001600061ffff168152602001600063ffffffff168152602001606081526020016060815260200160608152602001600081525090565b8280548282559060005260206000209081019282156110b7579160200282015b828111156110b65782518260006101000a81548173ffffffffffffffffffffffffffffffffffffffff021916908373ffffffffffffffffffffffffffffffffffffffff1602179055509160200191906001019061105e565b5b5090506110c49190611115565b5090565b828054828255906000526020600020908101928215611104579160200282015b828111156111035782518255916020019190600101906110e8565b5b5090506111119190611115565b5090565b5b8082111561112e576000816000905550600101611116565b5090565b6000604051905090565b600080fd5b600080fd5b6000819050919050565b61115981611146565b811461116457600080fd5b50565b60008135905061117681611150565b92915050565b6000602082840312156111925761119161113c565b5b60006111a084828501611167565b91505092915050565b60008115159050919050565b6111be816111a9565b82525050565b60006020820190506111d960008301846111b5565b92915050565b600073ffffffffffffffffffffffffffffffffffffffff82169050919050565b600061120a826111df565b9050919050565b61121a816111ff565b811461122557600080fd5b50565b60008135905061123781611211565b92915050565b6000602082840312156112535761125261113c565b5b600061126184828501611228565b91505092915050565b600081519050919050565b600082825260208201905092915050565b6000819050602082019050919050565b61129f81611146565b82525050565b60006112b18383611296565b60208301905092915050565b6000602082019050919050565b60006112d58261126a565b6112df8185611275565b93506112ea83611286565b8060005b8381101561131b57815161130288826112a5565b975061130d836112bd565b9250506001810190506112ee565b5085935050505092915050565b6000602082019050818103600083015261134281846112ca565b905092915050565b600080604083850312156113615761136061113c565b5b600061136f85828601611167565b925050602061138085828601611167565b9150509250929050565b600081519050919050565b600082825260208201905092915050565b6000819050602082019050919050565b600081519050919050565b600082825260208201905092915050565b60005b838110156113f05780820151818401526020810190506113d5565b60008484015250505050565b6000601f19601f8301169050919050565b6000611418826113b6565b61142281856113c1565b93506114328185602086016113d2565b61143b816113fc565b840191505092915050565b600061ffff82169050919050565b61145d81611446565b82525050565b600063ffffffff82169050919050565b61147c81611463565b82525050565b600081519050919050565b600082825260208201905092915050565b6000819050602082019050919050565b6114b7816111ff565b82525050565b60006114c983836114ae565b60208301905092915050565b6000602082019050919050565b60006114ed82611482565b6114f7818561148d565b93506115028361149e565b8060005b8381101561153357815161151a88826114bd565b9750611525836114d5565b925050600181019050611506565b5085935050505092915050565b600082825260208201905092915050565b600061155c8261126a565b6115668185611540565b935061157183611286565b8060005b838110156115a257815161158988826112a5565b9750611594836112bd565b925050600181019050611575565b5085935050505092915050565b60006101208301600083015184820360008601526115cd828261140d565b915050602083015184820360208601526115e7828261140d565b91505060408301518482036040860152611601828261140d565b91505060608301516116166060860182611454565b5060808301516116296080860182611473565b5060a083015184820360a086015261164182826114e2565b91505060c083015184820360c086015261165b8282611551565b91505060e083015184820360e08601526116758282611551565b91505061010083015161168c610100860182611296565b508091505092915050565b60006116a383836115af565b905092915050565b6000602082019050919050565b60006116c38261138a565b6116cd8185611395565b9350836020820285016116df856113a6565b8060005b8581101561171b57848403895281516116fc8582611697565b9450611707836116ab565b925060208a019950506001810190506116e3565b50829750879550505050505092915050565b6000602082019050818103600083015261174781846116b8565b905092915050565b611758816111ff565b82525050565b6000602082019050611773600083018461174f565b92915050565b600082825260208201905092915050565b6000611795826113b6565b61179f8185611779565b93506117af8185602086016113d2565b6117b8816113fc565b840191505092915050565b6117cc81611446565b82525050565b6117db81611463565b82525050565b6117ea81611146565b82525050565b600060c082019050818103600083015261180a818961178a565b9050818103602083015261181e818861178a565b90508181036040830152611832818761178a565b905061184160608301866117c3565b61184e60808301856117d2565b61185b60a08301846117e1565b979650505050505050565b600080fd5b600080fd5b7f4e487b7100000000000000000000000000000000000000000000000000000000600052604160045260246000fd5b6118a8826113fc565b810181811067ffffffffffffffff821117156118c7576118c6611870565b5b80604052505050565b60006118da611132565b90506118e6828261189f565b919050565b600067ffffffffffffffff82111561190657611905611870565b5b61190f826113fc565b9050602081019050919050565b82818337600083830152505050565b600061193e611939846118eb565b6118d0565b90508281526020810184848401111561195a5761195961186b565b5b61196584828561191c565b509392505050565b600082601f83011261198257611981611866565b5b813561199284826020860161192b565b91505092915050565b6119a481611446565b81146119af57600080fd5b50565b6000813590506119c18161199b565b92915050565b6119d081611463565b81146119db57600080fd5b50565b6000813590506119ed816119c7565b92915050565b600080600080600080600080610100898b031215611a1457611a1361113c565b5b600089013567ffffffffffffffff811115611a3257611a31611141565b5b611a3e8b828c0161196d565b985050602089013567ffffffffffffffff811115611a5f57611a5e611141565b5b611a6b8b828c0161196d565b975050604089013567ffffffffffffffff811115611a8c57611a8b611141565b5b611a988b828c0161196d565b965050606089013567ffffffffffffffff811115611ab957611ab8611141565b5b611ac58b828c0161196d565b9550506080611ad68b828c01611167565b94505060a0611ae78b828c01611167565b93505060c0611af88b828c016119b2565b92505060e0611b098b828c016119de565b9150509295985092959890939650565b7f596f7520646f206e6f74206f776e20746861742070686f6e6549640000000000600082015250565b6000611b4f601b83611779565b9150611b5a82611b19565b602082019050919050565b60006020820190508181036000830152611b7e81611b42565b9050919050565b7f4e487b7100000000000000000000000000000000000000000000000000000000600052603260045260246000fd5b7f4e487b7100000000000000000000000000000000000000000000000000000000600052601160045260246000fd5b6000611bee82611146565b91507fffffffffffffffffffffffffffffffffffffffffffffffffffffffffffffffff8203611c2057611c1f611bb4565b5b600182019050919050565b7f4e487b7100000000000000000000000000000000000000000000000000000000600052602260045260246000fd5b60006002820490506001821680611c7257607f821691505b602082108103611c8557611c84611c2b565b5b50919050565b600081905092915050565b6000611ca1826113b6565b611cab8185611c8b565b9350611cbb8185602086016113d2565b80840191505092915050565b6000611cd38284611c96565b915081905092915050565b7f494d454920616c72656164792065786973747300000000000000000000000000600082015250565b6000611d14601383611779565b9150611d1f82611cde565b602082019050919050565b60006020820190508181036000830152611d4381611d07565b9050919050565b60008190508160005260206000209050919050565b60006020601f8301049050919050565b600082821b905092915050565b600060088302611dac7fffffffffffffffffffffffffffffffffffffffffffffffffffffffffffffffff82611d6f565b611db68683611d6f565b95508019841693508086168417925050509392505050565b6000819050919050565b6000611df3611dee611de984611146565b611dce565b611146565b9050919050565b6000819050919050565b611e0d83611dd8565b611e21611e1982611dfa565b848454611d7c565b825550505050565b600090565b611e36611e29565b611e41818484611e04565b505050565b5b81811015611e6557611e5a600082611e2e565b600181019050611e47565b5050565b601f821115611eaa57611e7b81611d4a565b611e8484611d5f565b81016020851015611e93578190505b611ea7611e9f85611d5f565b830182611e46565b50505b505050565b600082821c905092915050565b6000611ecd60001984600802611eaf565b1980831691505092915050565b6000611ee68383611ebc565b9150826002028217905092915050565b611eff826113b6565b67ffffffffffffffff811115611f1857611f17611870565b5b611f228254611c5a565b611f2d828285611e69565b600060209050601f831160018114611f605760008415611f4e578287015190505b611f588582611eda565b865550611fc0565b601f198416611f6e86611d4a565b60005b82811015611f9657848901518255600182019150602085019450602081019050611f71565b86831015611fb35784890151611faf601f891682611ebc565b8355505b6001600288020188555050505b505050505050565b6000611fd382611146565b9150611fde83611146565b9250828203905081811115611ff657611ff5611bb4565b5b9291505056fea26469706673582212203ec253cd8733c21878a80222179ae5ede2833079534287c0fa4b92769367c0cb64736f6c63430008130033",
  "immutableReferences": {},
  "source": "// SPDX-License-Identifier: MIT\npragma solidity >=0.4.22 <0.9.0;\n\n\n/*\n  truffle migrate --network development\n  truffle develop\n\n  truffle compile\n  truffle migrate\n  SecondHandChain.deployed().then(function(instance) {contr=instance;});\n  contr._createPhone(\"iphone 10\",\"werwe3\",\"apple\",\"green\",3000,1900,8,90);\n  contr.getAllPhonesInAddress('0xcb32167472db9f1ee15b51c4a6fb2815a1f3a7e7');\n\n\n\n  let instance = await ERC721.deployed()\n  instance._createPhone(\"iphone 10\",\"werwe3\",\"apple\",\"green\",3000,1900,8,90,{from: accounts[3]})\n  instance.ownerOf(0)\n  instance.putPhoneOnSale(1000000000000000000,0)\n  let actualBalance0 = await web3.eth.getBalance(accounts[0]);\n  let actualBalance1 = await web3.eth.getBalance(accounts[1]);\n  truffle migrate --reset\n  instance.safeTransferFrom('0xf99C16ed15DE5e7A30C8460ae1e81B28fDf47797','0xb62a4ee782019cDd813Ff320818C1fbECfBE8a8a',0, {from: '0xb62a4ee782019cDd813Ff320818C1fbECfBE8a8a', value: 100000000000000000})\n  instance.putPhoneOnSale(2,0,{from: '0xf99C16ed15DE5e7A30C8460ae1e81B28fDf47797'})\n  instance.safeTransferFrom(accounts[0],accounts[3],0, {from: accounts[3], value: 9})\n\n  truffle console\n  instance.safeTransferFrom(accounts[2],accounts[4],0, {from: accounts[4], value: 1000000000000000000})\n  instance.putPhoneOnSale('1000000000000000000',0, {from:accounts[2]})\n\n*/\n\ncontract SecondHandChain {\n\n  struct Phone {\n    string model;\n    string brand;\n    string colour;\n    uint16 ram;\n    uint32 mem;\n    address[] owners;\n    uint[] saleTime;\n    uint[] salePrice;\n    uint price;\n  }\n\n  Phone[] public phones;\n  mapping (uint => address) phoneOwner;\n  mapping (address => uint) phonesPerOwner;\n  mapping (string => uint) imeiPhoneId;\n  mapping (string => bool) isImeiRegistered;\n  mapping (uint => bool) isPhoneOnSale;\n  mapping (uint => address) phoneApproval;\n  mapping (address => address) approvalForAll;\n\n  function getPhones() public view returns( Phone[] memory){\n    return phones;\n  }\n\n  function getPhoneOwner(uint _id) public view returns(address){\n    return phoneOwner[_id];\n  }\n\n  function imeiRegistered(string memory _imei) private view returns(bool){\n    return isImeiRegistered[_imei];\n  }\n\n  function getAllPhonesInAddress(address _address) external view returns(uint[] memory){\n    uint[] memory _phonesIds = new uint[](phonesPerOwner[_address]) ;\n    uint j=0;\n    for (uint256 i= 0; i < phones.length; i++) {\n      if (phoneOwner[i]==_address) {\n        _phonesIds[j]=i;\n       j++;\n      }\n    }\n    return _phonesIds;\n  }\n\n  function getIsPhoneOnSale(uint _id) external view returns(bool){\n    return isPhoneOnSale[_id];\n  }\n\n  function putPhoneOnSale(uint _price, uint _phoneId) external {\n    require(phoneOwner[_phoneId]==msg.sender, \"You do not own that phoneId\");\n    isPhoneOnSale[_phoneId]=true;\n    phones[_phoneId].price=_price;\n    phoneApproval[_phoneId] = address(this);\n  }\n\n  function removePhoneFromSale(uint _phoneId) external {\n    require(phoneOwner[_phoneId]==msg.sender, \"You do not own that phoneId\");\n    isPhoneOnSale[_phoneId]=false;\n    phoneApproval[_phoneId] = address(0);\n  }\n\n  function _createPhone(\n    string memory _model,\n    string memory _imei,\n    string memory _brand,\n    string memory _colour,\n    uint _price,\n    uint _salePrice,\n    uint16 _ram,\n    uint32 _mem \n    ) public {\n\n    require(isImeiRegistered[_imei]==false, \"IMEI already exists\");\n\n    Phone memory phone;\n    phone.model = _model;\n    phone.brand = _brand;\n    phone.colour = _colour;\n    phone.ram = _ram;\n    phone.mem = _mem;\n    phone.price = _salePrice;\n\n\n    phones.push(phone);\n    phonesPerOwner[msg.sender]++;\n    uint id = phones.length-1;\n    phones[id].owners.push(msg.sender);\n    phones[id].saleTime.push(block.timestamp);\n    phones[id].salePrice.push(_price);\n\n    phoneOwner[id]=msg.sender;\n    imeiPhoneId[_imei]=id;\n    isPhoneOnSale[id] = false;\n    isImeiRegistered[_imei]=true;\n  }\n}\n",
  "sourcePath": "D:\\TFG\\ubu-secondhandchain\\truffle\\contracts\\SecondHandChain.sol",
  "compiler": {
    "name": "solc",
    "version": "0.8.19+commit.7dd6d404.Emscripten.clang"
  },
  "schemaVersion": "3.4.13",
  "updatedAt": "2023-04-16T15:26:19.020Z",
  "networkType": "ethereum",
  "devdoc": {
    "kind": "dev",
    "methods": {},
    "version": 1
  },
  "userdoc": {
    "kind": "user",
    "methods": {},
    "version": 1
  }
}