{
  "contractName": "SecondHandChain",
  "abi": [
    {
      "inputs": [
        {
          "internalType": "string",
          "name": "",
          "type": "string"
        }
      ],
      "name": "imeiPhoneId",
      "outputs": [
        {
          "internalType": "uint256",
          "name": "",
          "type": "uint256"
        }
      ],
      "stateMutability": "view",
      "type": "function",
      "constant": true
    },
    {
      "inputs": [
        {
          "internalType": "string",
          "name": "",
          "type": "string"
        }
      ],
      "name": "isImeiRegistered",
      "outputs": [
        {
          "internalType": "bool",
          "name": "",
          "type": "bool"
        }
      ],
      "stateMutability": "view",
      "type": "function",
      "constant": true
    },
    {
      "inputs": [
        {
          "internalType": "uint256",
          "name": "",
          "type": "uint256"
        }
      ],
      "name": "phoneOwner",
      "outputs": [
        {
          "internalType": "address",
          "name": "",
          "type": "address"
        }
      ],
      "stateMutability": "view",
      "type": "function",
      "constant": true
    },
    {
      "inputs": [
        {
          "internalType": "uint256",
          "name": "",
          "type": "uint256"
        }
      ],
      "name": "phones",
      "outputs": [
        {
          "internalType": "string",
          "name": "imei",
          "type": "string"
        },
        {
          "internalType": "string",
          "name": "model",
          "type": "string"
        },
        {
          "internalType": "string",
          "name": "brand",
          "type": "string"
        },
        {
          "internalType": "string",
          "name": "colour",
          "type": "string"
        },
        {
          "internalType": "uint16",
          "name": "ram",
          "type": "uint16"
        },
        {
          "internalType": "uint32",
          "name": "mem",
          "type": "uint32"
        }
      ],
      "stateMutability": "view",
      "type": "function",
      "constant": true
    },
    {
      "inputs": [],
      "name": "getPhones",
      "outputs": [
        {
          "components": [
            {
              "internalType": "string",
              "name": "imei",
              "type": "string"
            },
            {
              "internalType": "string",
              "name": "model",
              "type": "string"
            },
            {
              "internalType": "string",
              "name": "brand",
              "type": "string"
            },
            {
              "internalType": "string",
              "name": "colour",
              "type": "string"
            },
            {
              "internalType": "uint16",
              "name": "ram",
              "type": "uint16"
            },
            {
              "internalType": "uint32",
              "name": "mem",
              "type": "uint32"
            },
            {
              "internalType": "address[]",
              "name": "owners",
              "type": "address[]"
            },
            {
              "internalType": "uint256[]",
              "name": "saleTime",
              "type": "uint256[]"
            }
          ],
          "internalType": "struct SecondHandChain.Phone[]",
          "name": "",
          "type": "tuple[]"
        }
      ],
      "stateMutability": "view",
      "type": "function",
      "constant": true
    },
    {
      "inputs": [
        {
          "internalType": "uint256",
          "name": "_id",
          "type": "uint256"
        }
      ],
      "name": "getPhoneOwner",
      "outputs": [
        {
          "internalType": "address",
          "name": "",
          "type": "address"
        }
      ],
      "stateMutability": "view",
      "type": "function",
      "constant": true
    },
    {
      "inputs": [
        {
          "internalType": "string",
          "name": "_model",
          "type": "string"
        },
        {
          "internalType": "string",
          "name": "_imei",
          "type": "string"
        },
        {
          "internalType": "string",
          "name": "_brand",
          "type": "string"
        },
        {
          "internalType": "string",
          "name": "_colour",
          "type": "string"
        },
        {
          "internalType": "uint16",
          "name": "_ram",
          "type": "uint16"
        },
        {
          "internalType": "uint32",
          "name": "_mem",
          "type": "uint32"
        }
      ],
      "name": "_createPhone",
      "outputs": [],
      "stateMutability": "nonpayable",
      "type": "function"
    }
  ],
  "bytecode": "0x608060405234801561001057600080fd5b50611ae7806100206000396000f3fe608060405234801561001057600080fd5b506004361061007d5760003560e01c8063d4dbc41c1161005b578063d4dbc41c14610112578063eb25bc8814610130578063f09e19f21461014c578063f37306531461017c5761007d565b80634c03ad3414610082578063785de003146100b2578063b46e3d4c146100e2575b600080fd5b61009c60048036038101906100979190610ef2565b6101b1565b6040516100a99190610f54565b60405180910390f35b6100cc60048036038101906100c79190610f9b565b6101df565b6040516100d99190611009565b60405180910390f35b6100fc60048036038101906100f79190610ef2565b610212565b604051610109919061103f565b60405180910390f35b61011a610248565b6040516101279190611426565b60405180910390f35b61014a600480360381019061014591906114a0565b61061c565b005b61016660048036038101906101619190610f9b565b61098e565b6040516101739190611009565b60405180910390f35b61019660048036038101906101919190610f9b565b6109cb565b6040516101a896959493929190611605565b60405180910390f35b6002818051602081018201805184825260208301602085012081835280955050505050506000915090505481565b60016020528060005260406000206000915054906101000a900473ffffffffffffffffffffffffffffffffffffffff1681565b6003818051602081018201805184825260208301602085012081835280955050505050506000915054906101000a900460ff1681565b60606000805480602002602001604051908101604052809291908181526020016000905b828210156106135783829060005260206000209060070201604051806101000160405290816000820180546102a0906116b1565b80601f01602080910402602001604051908101604052809291908181526020018280546102cc906116b1565b80156103195780601f106102ee57610100808354040283529160200191610319565b820191906000526020600020905b8154815290600101906020018083116102fc57829003601f168201915b50505050508152602001600182018054610332906116b1565b80601f016020809104026020016040519081016040528092919081815260200182805461035e906116b1565b80156103ab5780601f10610380576101008083540402835291602001916103ab565b820191906000526020600020905b81548152906001019060200180831161038e57829003601f168201915b505050505081526020016002820180546103c4906116b1565b80601f01602080910402602001604051908101604052809291908181526020018280546103f0906116b1565b801561043d5780601f106104125761010080835404028352916020019161043d565b820191906000526020600020905b81548152906001019060200180831161042057829003601f168201915b50505050508152602001600382018054610456906116b1565b80601f0160208091040260200160405190810160405280929190818152602001828054610482906116b1565b80156104cf5780601f106104a4576101008083540402835291602001916104cf565b820191906000526020600020905b8154815290600101906020018083116104b257829003601f168201915b505050505081526020016004820160009054906101000a900461ffff1661ffff1661ffff1681526020016004820160029054906101000a900463ffffffff1663ffffffff1663ffffffff168152602001600582018054806020026020016040519081016040528092919081815260200182805480156105a357602002820191906000526020600020905b8160009054906101000a900473ffffffffffffffffffffffffffffffffffffffff1673ffffffffffffffffffffffffffffffffffffffff1681526020019060010190808311610559575b50505050508152602001600682018054806020026020016040519081016040528092919081815260200182805480156105fb57602002820191906000526020600020905b8154815260200190600101908083116105e7575b5050505050815250508152602001906001019061026c565b50505050905090565b60001515600386604051610630919061171e565b908152602001604051809103902060009054906101000a900460ff1615151461068e576040517f08c379a000000000000000000000000000000000000000000000000000000000815260040161068590611781565b60405180910390fd5b610696610c55565b85816000018190525086816020018190525084816040018190525083816060018190525082816080019061ffff16908161ffff1681525050818160a0019063ffffffff16908163ffffffff168152505060008190806001815401808255809150506001900390600052602060002090600702016000909190919091506000820151816000019081610727919061194d565b50602082015181600101908161073d919061194d565b506040820151816002019081610753919061194d565b506060820151816003019081610769919061194d565b5060808201518160040160006101000a81548161ffff021916908361ffff16021790555060a08201518160040160026101000a81548163ffffffff021916908363ffffffff16021790555060c08201518160050190805190602001906107d0929190610ca4565b5060e08201518160060190805190602001906107ed929190610d2e565b505050600060016000805490506108049190611a4e565b90506000818154811061081a57610819611a82565b5b9060005260206000209060070201600501339080600181540180825580915050600190039060005260206000200160009091909190916101000a81548173ffffffffffffffffffffffffffffffffffffffff021916908373ffffffffffffffffffffffffffffffffffffffff160217905550600081815481106108a05761089f611a82565b5b9060005260206000209060070201600601429080600181540180825580915050600190039060005260206000200160009091909190915055336001600083815260200190815260200160002060006101000a81548173ffffffffffffffffffffffffffffffffffffffff021916908373ffffffffffffffffffffffffffffffffffffffff1602179055508060028860405161093b919061171e565b908152602001604051809103902081905550600160038860405161095f919061171e565b908152602001604051809103902060006101000a81548160ff0219169083151502179055505050505050505050565b60006001600083815260200190815260200160002060009054906101000a900473ffffffffffffffffffffffffffffffffffffffff169050919050565b600081815481106109db57600080fd5b90600052602060002090600702016000915090508060000180546109fe906116b1565b80601f0160208091040260200160405190810160405280929190818152602001828054610a2a906116b1565b8015610a775780601f10610a4c57610100808354040283529160200191610a77565b820191906000526020600020905b815481529060010190602001808311610a5a57829003601f168201915b505050505090806001018054610a8c906116b1565b80601f0160208091040260200160405190810160405280929190818152602001828054610ab8906116b1565b8015610b055780601f10610ada57610100808354040283529160200191610b05565b820191906000526020600020905b815481529060010190602001808311610ae857829003601f168201915b505050505090806002018054610b1a906116b1565b80601f0160208091040260200160405190810160405280929190818152602001828054610b46906116b1565b8015610b935780601f10610b6857610100808354040283529160200191610b93565b820191906000526020600020905b815481529060010190602001808311610b7657829003601f168201915b505050505090806003018054610ba8906116b1565b80601f0160208091040260200160405190810160405280929190818152602001828054610bd4906116b1565b8015610c215780601f10610bf657610100808354040283529160200191610c21565b820191906000526020600020905b815481529060010190602001808311610c0457829003601f168201915b5050505050908060040160009054906101000a900461ffff16908060040160029054906101000a900463ffffffff16905086565b60405180610100016040528060608152602001606081526020016060815260200160608152602001600061ffff168152602001600063ffffffff16815260200160608152602001606081525090565b828054828255906000526020600020908101928215610d1d579160200282015b82811115610d1c5782518260006101000a81548173ffffffffffffffffffffffffffffffffffffffff021916908373ffffffffffffffffffffffffffffffffffffffff16021790555091602001919060010190610cc4565b5b509050610d2a9190610d7b565b5090565b828054828255906000526020600020908101928215610d6a579160200282015b82811115610d69578251825591602001919060010190610d4e565b5b509050610d779190610d7b565b5090565b5b80821115610d94576000816000905550600101610d7c565b5090565b6000604051905090565b600080fd5b600080fd5b600080fd5b600080fd5b6000601f19601f8301169050919050565b7f4e487b7100000000000000000000000000000000000000000000000000000000600052604160045260246000fd5b610dff82610db6565b810181811067ffffffffffffffff82111715610e1e57610e1d610dc7565b5b80604052505050565b6000610e31610d98565b9050610e3d8282610df6565b919050565b600067ffffffffffffffff821115610e5d57610e5c610dc7565b5b610e6682610db6565b9050602081019050919050565b82818337600083830152505050565b6000610e95610e9084610e42565b610e27565b905082815260208101848484011115610eb157610eb0610db1565b5b610ebc848285610e73565b509392505050565b600082601f830112610ed957610ed8610dac565b5b8135610ee9848260208601610e82565b91505092915050565b600060208284031215610f0857610f07610da2565b5b600082013567ffffffffffffffff811115610f2657610f25610da7565b5b610f3284828501610ec4565b91505092915050565b6000819050919050565b610f4e81610f3b565b82525050565b6000602082019050610f696000830184610f45565b92915050565b610f7881610f3b565b8114610f8357600080fd5b50565b600081359050610f9581610f6f565b92915050565b600060208284031215610fb157610fb0610da2565b5b6000610fbf84828501610f86565b91505092915050565b600073ffffffffffffffffffffffffffffffffffffffff82169050919050565b6000610ff382610fc8565b9050919050565b61100381610fe8565b82525050565b600060208201905061101e6000830184610ffa565b92915050565b60008115159050919050565b61103981611024565b82525050565b60006020820190506110546000830184611030565b92915050565b600081519050919050565b600082825260208201905092915050565b6000819050602082019050919050565b600081519050919050565b600082825260208201905092915050565b60005b838110156110c05780820151818401526020810190506110a5565b60008484015250505050565b60006110d782611086565b6110e18185611091565b93506110f18185602086016110a2565b6110fa81610db6565b840191505092915050565b600061ffff82169050919050565b61111c81611105565b82525050565b600063ffffffff82169050919050565b61113b81611122565b82525050565b600081519050919050565b600082825260208201905092915050565b6000819050602082019050919050565b61117681610fe8565b82525050565b6000611188838361116d565b60208301905092915050565b6000602082019050919050565b60006111ac82611141565b6111b6818561114c565b93506111c18361115d565b8060005b838110156111f25781516111d9888261117c565b97506111e483611194565b9250506001810190506111c5565b5085935050505092915050565b600081519050919050565b600082825260208201905092915050565b6000819050602082019050919050565b61123481610f3b565b82525050565b6000611246838361122b565b60208301905092915050565b6000602082019050919050565b600061126a826111ff565b611274818561120a565b935061127f8361121b565b8060005b838110156112b0578151611297888261123a565b97506112a283611252565b925050600181019050611283565b5085935050505092915050565b60006101008301600083015184820360008601526112db82826110cc565b915050602083015184820360208601526112f582826110cc565b9150506040830151848203604086015261130f82826110cc565b9150506060830151848203606086015261132982826110cc565b915050608083015161133e6080860182611113565b5060a083015161135160a0860182611132565b5060c083015184820360c086015261136982826111a1565b91505060e083015184820360e0860152611383828261125f565b9150508091505092915050565b600061139c83836112bd565b905092915050565b6000602082019050919050565b60006113bc8261105a565b6113c68185611065565b9350836020820285016113d885611076565b8060005b8581101561141457848403895281516113f58582611390565b9450611400836113a4565b925060208a019950506001810190506113dc565b50829750879550505050505092915050565b6000602082019050818103600083015261144081846113b1565b905092915050565b61145181611105565b811461145c57600080fd5b50565b60008135905061146e81611448565b92915050565b61147d81611122565b811461148857600080fd5b50565b60008135905061149a81611474565b92915050565b60008060008060008060c087890312156114bd576114bc610da2565b5b600087013567ffffffffffffffff8111156114db576114da610da7565b5b6114e789828a01610ec4565b965050602087013567ffffffffffffffff81111561150857611507610da7565b5b61151489828a01610ec4565b955050604087013567ffffffffffffffff81111561153557611534610da7565b5b61154189828a01610ec4565b945050606087013567ffffffffffffffff81111561156257611561610da7565b5b61156e89828a01610ec4565b935050608061157f89828a0161145f565b92505060a061159089828a0161148b565b9150509295509295509295565b600082825260208201905092915050565b60006115b982611086565b6115c3818561159d565b93506115d38185602086016110a2565b6115dc81610db6565b840191505092915050565b6115f081611105565b82525050565b6115ff81611122565b82525050565b600060c082019050818103600083015261161f81896115ae565b9050818103602083015261163381886115ae565b9050818103604083015261164781876115ae565b9050818103606083015261165b81866115ae565b905061166a60808301856115e7565b61167760a08301846115f6565b979650505050505050565b7f4e487b7100000000000000000000000000000000000000000000000000000000600052602260045260246000fd5b600060028204905060018216806116c957607f821691505b6020821081036116dc576116db611682565b5b50919050565b600081905092915050565b60006116f882611086565b61170281856116e2565b93506117128185602086016110a2565b80840191505092915050565b600061172a82846116ed565b915081905092915050565b7f494d454920616c72656164792065786973747300000000000000000000000000600082015250565b600061176b60138361159d565b915061177682611735565b602082019050919050565b6000602082019050818103600083015261179a8161175e565b9050919050565b60008190508160005260206000209050919050565b60006020601f8301049050919050565b600082821b905092915050565b6000600883026118037fffffffffffffffffffffffffffffffffffffffffffffffffffffffffffffffff826117c6565b61180d86836117c6565b95508019841693508086168417925050509392505050565b6000819050919050565b600061184a61184561184084610f3b565b611825565b610f3b565b9050919050565b6000819050919050565b6118648361182f565b61187861187082611851565b8484546117d3565b825550505050565b600090565b61188d611880565b61189881848461185b565b505050565b5b818110156118bc576118b1600082611885565b60018101905061189e565b5050565b601f821115611901576118d2816117a1565b6118db846117b6565b810160208510156118ea578190505b6118fe6118f6856117b6565b83018261189d565b50505b505050565b600082821c905092915050565b600061192460001984600802611906565b1980831691505092915050565b600061193d8383611913565b9150826002028217905092915050565b61195682611086565b67ffffffffffffffff81111561196f5761196e610dc7565b5b61197982546116b1565b6119848282856118c0565b600060209050601f8311600181146119b757600084156119a5578287015190505b6119af8582611931565b865550611a17565b601f1984166119c5866117a1565b60005b828110156119ed578489015182556001820191506020850194506020810190506119c8565b86831015611a0a5784890151611a06601f891682611913565b8355505b6001600288020188555050505b505050505050565b7f4e487b7100000000000000000000000000000000000000000000000000000000600052601160045260246000fd5b6000611a5982610f3b565b9150611a6483610f3b565b9250828203905081811115611a7c57611a7b611a1f565b5b92915050565b7f4e487b7100000000000000000000000000000000000000000000000000000000600052603260045260246000fdfea264697066735822122063462cb633d514d1d13d8031c041d74d433ac178b7cb2e828ed03d578c8c13a864736f6c63430008130033",
  "immutableReferences": {},
  "source": "// SPDX-License-Identifier: MIT\npragma solidity >=0.4.22 <0.9.0;\n\n\n/*\n  truffle migrate --network development\n  truffle develop\n\n  truffle compile\n  truffle migrate\n  SecondHandChain.deployed().then(function(instance) {contr=instance;});\n  contr._createPhone(\"iphone 10\",\"werwe3\",\"apple\",\"green\",3,19)\n*/\n\ncontract SecondHandChain {\n\n  struct Phone {\n    string imei;\n    string model;\n    string brand;\n    string colour;\n    uint16 ram;\n    uint32 mem;\n    address[] owners;\n    uint[] saleTime;\n    \n  }\n\n  Phone[] public phones;\n  mapping (uint => address) public phoneOwner;\n  mapping (string => uint) public imeiPhoneId;\n  mapping (string => bool) public isImeiRegistered;\n\n  function getPhones()public view returns( Phone[] memory){\n    return phones;\n  }\n\n  function  getPhoneOwner(uint _id)public view returns(address){\n    return phoneOwner[_id];\n  }\n\n  function _createPhone (\n    string memory _model,\n    string memory _imei,\n    string memory _brand,\n    string memory _colour,\n    uint16 _ram,\n    uint32 _mem \n    ) public {\n\n    require(isImeiRegistered[_imei]==false, \"IMEI already exists\");\n\n    Phone memory phone;\n    phone.imei = _imei;\n    phone.model = _model;\n    phone.brand = _brand;\n    phone.colour = _colour;\n    phone.ram = _ram;\n    phone.mem = _mem;\n\n    phones.push(phone);\n    uint id = phones.length-1;\n    phones[id].owners.push(msg.sender);\n    phones[id].saleTime.push(block.timestamp);\n\n    phoneOwner[id]=msg.sender;\n    imeiPhoneId[_imei]=id;\n    isImeiRegistered[_imei]=true;\n  }\n\n}\n",
  "sourcePath": "D:\\TFG\\ubu-secondhandchain\\truffle\\contracts\\SecondHandChain.sol",
  "compiler": {
    "name": "solc",
    "version": "0.8.19+commit.7dd6d404.Emscripten.clang"
  },
  "schemaVersion": "3.4.13",
  "updatedAt": "2023-03-29T15:14:58.541Z",
  "networkType": "ethereum",
  "devdoc": {
    "kind": "dev",
    "methods": {},
    "version": 1
  },
  "userdoc": {
    "kind": "user",
    "methods": {},
    "version": 1
  }
}