{
  "contractName": "SecondHandChain",
  "abi": [
    {
      "inputs": [
        {
          "internalType": "uint256",
          "name": "",
          "type": "uint256"
        }
      ],
      "name": "phones",
      "outputs": [
        {
          "internalType": "string",
          "name": "model",
          "type": "string"
        },
        {
          "internalType": "string",
          "name": "brand",
          "type": "string"
        },
        {
          "internalType": "string",
          "name": "colour",
          "type": "string"
        },
        {
          "internalType": "uint16",
          "name": "ram",
          "type": "uint16"
        },
        {
          "internalType": "uint32",
          "name": "mem",
          "type": "uint32"
        },
        {
          "internalType": "uint256",
          "name": "price",
          "type": "uint256"
        }
      ],
      "stateMutability": "view",
      "type": "function",
      "constant": true
    },
    {
      "inputs": [],
      "name": "getPhones",
      "outputs": [
        {
          "components": [
            {
              "internalType": "string",
              "name": "model",
              "type": "string"
            },
            {
              "internalType": "string",
              "name": "brand",
              "type": "string"
            },
            {
              "internalType": "string",
              "name": "colour",
              "type": "string"
            },
            {
              "internalType": "uint16",
              "name": "ram",
              "type": "uint16"
            },
            {
              "internalType": "uint32",
              "name": "mem",
              "type": "uint32"
            },
            {
              "internalType": "address[]",
              "name": "owners",
              "type": "address[]"
            },
            {
              "internalType": "uint256[]",
              "name": "saleTime",
              "type": "uint256[]"
            },
            {
              "internalType": "uint256[]",
              "name": "salePrice",
              "type": "uint256[]"
            },
            {
              "internalType": "uint256",
              "name": "price",
              "type": "uint256"
            }
          ],
          "internalType": "struct SecondHandChain.Phone[]",
          "name": "",
          "type": "tuple[]"
        }
      ],
      "stateMutability": "view",
      "type": "function",
      "constant": true
    },
    {
      "inputs": [
        {
          "internalType": "uint256",
          "name": "_id",
          "type": "uint256"
        }
      ],
      "name": "getPhoneOwner",
      "outputs": [
        {
          "internalType": "address",
          "name": "",
          "type": "address"
        }
      ],
      "stateMutability": "view",
      "type": "function",
      "constant": true
    },
    {
      "inputs": [
        {
          "internalType": "address",
          "name": "_address",
          "type": "address"
        }
      ],
      "name": "getAllPhonesInAddress",
      "outputs": [
        {
          "internalType": "uint256[]",
          "name": "",
          "type": "uint256[]"
        }
      ],
      "stateMutability": "view",
      "type": "function",
      "constant": true
    },
    {
      "inputs": [
        {
          "internalType": "uint256",
          "name": "_id",
          "type": "uint256"
        }
      ],
      "name": "getIsPhoneOnSale",
      "outputs": [
        {
          "internalType": "bool",
          "name": "",
          "type": "bool"
        }
      ],
      "stateMutability": "view",
      "type": "function",
      "constant": true
    },
    {
      "inputs": [
        {
          "internalType": "uint256",
          "name": "_price",
          "type": "uint256"
        },
        {
          "internalType": "uint256",
          "name": "_phoneId",
          "type": "uint256"
        }
      ],
      "name": "putPhoneOnSale",
      "outputs": [],
      "stateMutability": "nonpayable",
      "type": "function"
    },
    {
      "inputs": [
        {
          "internalType": "uint256",
          "name": "_phoneId",
          "type": "uint256"
        }
      ],
      "name": "removePhoneFromSale",
      "outputs": [],
      "stateMutability": "nonpayable",
      "type": "function"
    },
    {
      "inputs": [
        {
          "internalType": "string",
          "name": "_model",
          "type": "string"
        },
        {
          "internalType": "string",
          "name": "_imei",
          "type": "string"
        },
        {
          "internalType": "string",
          "name": "_brand",
          "type": "string"
        },
        {
          "internalType": "string",
          "name": "_colour",
          "type": "string"
        },
        {
          "internalType": "uint256",
          "name": "_price",
          "type": "uint256"
        },
        {
          "internalType": "uint256",
          "name": "_salePrice",
          "type": "uint256"
        },
        {
          "internalType": "bool",
          "name": "_isOnSale",
          "type": "bool"
        },
        {
          "internalType": "uint16",
          "name": "_ram",
          "type": "uint16"
        },
        {
          "internalType": "uint32",
          "name": "_mem",
          "type": "uint32"
        }
      ],
      "name": "_createPhone",
      "outputs": [],
      "stateMutability": "nonpayable",
      "type": "function"
    }
  ],
  "bytecode": "0x608060405234801561001057600080fd5b50611fcd806100206000396000f3fe608060405234801561001057600080fd5b50600436106100885760003560e01c8063c37d64e21161005b578063c37d64e214610125578063d4dbc41c14610141578063f09e19f21461015f578063f37306531461018f57610088565b806323b104fa1461008d5780633664e2de146100a9578063418696fa146100d957806374c97cd514610109575b600080fd5b6100a760048036038101906100a291906110d7565b6101c4565b005b6100c360048036038101906100be91906110d7565b610294565b6040516100d0919061111f565b60405180910390f35b6100f360048036038101906100ee9190611198565b6102be565b6040516101009190611283565b60405180910390f35b610123600480360381019061011e91906112a5565b610410565b005b61013f600480360381019061013a91906114cd565b61050b565b005b610149610960565b604051610156919061197b565b60405180910390f35b610179600480360381019061017491906110d7565b610d04565b60405161018691906119ac565b60405180910390f35b6101a960048036038101906101a491906110d7565b610d41565b6040516101bb96959493929190611a3e565b60405180910390f35b3373ffffffffffffffffffffffffffffffffffffffff166001600083815260200190815260200160002060009054906101000a900473ffffffffffffffffffffffffffffffffffffffff1673ffffffffffffffffffffffffffffffffffffffff1614610265576040517f08c379a000000000000000000000000000000000000000000000000000000000815260040161025c90611b00565b60405180910390fd5b60006005600083815260200190815260200160002060006101000a81548160ff02191690831515021790555050565b60006005600083815260200190815260200160002060009054906101000a900460ff169050919050565b60606000600260008473ffffffffffffffffffffffffffffffffffffffff1673ffffffffffffffffffffffffffffffffffffffff1681526020019081526020016000205467ffffffffffffffff81111561031b5761031a611300565b5b6040519080825280602002602001820160405280156103495781602001602082028036833780820191505090505b5090506000805b600080549050811015610405578473ffffffffffffffffffffffffffffffffffffffff166001600083815260200190815260200160002060009054906101000a900473ffffffffffffffffffffffffffffffffffffffff1673ffffffffffffffffffffffffffffffffffffffff16036103f257808383815181106103d7576103d6611b20565b5b60200260200101818152505081806103ee90611b7e565b9250505b80806103fd90611b7e565b915050610350565b508192505050919050565b3373ffffffffffffffffffffffffffffffffffffffff166001600083815260200190815260200160002060009054906101000a900473ffffffffffffffffffffffffffffffffffffffff1673ffffffffffffffffffffffffffffffffffffffff16146104b1576040517f08c379a00000000000000000000000000000000000000000000000000000000081526004016104a890611b00565b60405180910390fd5b60016005600083815260200190815260200160002060006101000a81548160ff02191690831515021790555081600082815481106104f2576104f1611b20565b5b9060005260206000209060080201600701819055505050565b6000151560048960405161051f9190611c02565b908152602001604051809103902060009054906101000a900460ff1615151461057d576040517f08c379a000000000000000000000000000000000000000000000000000000000815260040161057490611c65565b60405180910390fd5b610585610f43565b89816000018190525087816020018190525086816040018190525082816060019061ffff16908161ffff168152505081816080019063ffffffff16908163ffffffff16815250508481610100018181525050600081908060018154018082558091505060019003906000526020600020906008020160009091909190915060008201518160000190816106189190611e91565b50602082015181600101908161062e9190611e91565b5060408201518160020190816106449190611e91565b5060608201518160030160006101000a81548161ffff021916908361ffff16021790555060808201518160030160026101000a81548163ffffffff021916908363ffffffff16021790555060a08201518160040190805190602001906106ab929190610f99565b5060c08201518160050190805190602001906106c8929190611023565b5060e08201518160060190805190602001906106e5929190611023565b5061010082015181600701555050600260003373ffffffffffffffffffffffffffffffffffffffff1673ffffffffffffffffffffffffffffffffffffffff168152602001908152602001600020600081548092919061074390611b7e565b91905055506000600160008054905061075c9190611f63565b90506000818154811061077257610771611b20565b5b9060005260206000209060080201600401339080600181540180825580915050600190039060005260206000200160009091909190916101000a81548173ffffffffffffffffffffffffffffffffffffffff021916908373ffffffffffffffffffffffffffffffffffffffff160217905550600081815481106107f8576107f7611b20565b5b90600052602060002090600802016005014290806001815401808255809150506001900390600052602060002001600090919091909150556000818154811061084457610843611b20565b5b9060005260206000209060080201600601879080600181540180825580915050600190039060005260206000200160009091909190915055336001600083815260200190815260200160002060006101000a81548173ffffffffffffffffffffffffffffffffffffffff021916908373ffffffffffffffffffffffffffffffffffffffff1602179055508060038b6040516108df9190611c02565b908152602001604051809103902081905550846005600083815260200190815260200160002060006101000a81548160ff021916908315150217905550600160048b60405161092e9190611c02565b908152602001604051809103902060006101000a81548160ff0219169083151502179055505050505050505050505050565b60606000805480602002602001604051908101604052809291908181526020016000905b82821015610cfb5783829060005260206000209060080201604051806101200160405290816000820180546109b890611cb4565b80601f01602080910402602001604051908101604052809291908181526020018280546109e490611cb4565b8015610a315780601f10610a0657610100808354040283529160200191610a31565b820191906000526020600020905b815481529060010190602001808311610a1457829003601f168201915b50505050508152602001600182018054610a4a90611cb4565b80601f0160208091040260200160405190810160405280929190818152602001828054610a7690611cb4565b8015610ac35780601f10610a9857610100808354040283529160200191610ac3565b820191906000526020600020905b815481529060010190602001808311610aa657829003601f168201915b50505050508152602001600282018054610adc90611cb4565b80601f0160208091040260200160405190810160405280929190818152602001828054610b0890611cb4565b8015610b555780601f10610b2a57610100808354040283529160200191610b55565b820191906000526020600020905b815481529060010190602001808311610b3857829003601f168201915b505050505081526020016003820160009054906101000a900461ffff1661ffff1661ffff1681526020016003820160029054906101000a900463ffffffff1663ffffffff1663ffffffff16815260200160048201805480602002602001604051908101604052809291908181526020018280548015610c2957602002820191906000526020600020905b8160009054906101000a900473ffffffffffffffffffffffffffffffffffffffff1673ffffffffffffffffffffffffffffffffffffffff1681526020019060010190808311610bdf575b5050505050815260200160058201805480602002602001604051908101604052809291908181526020018280548015610c8157602002820191906000526020600020905b815481526020019060010190808311610c6d575b5050505050815260200160068201805480602002602001604051908101604052809291908181526020018280548015610cd957602002820191906000526020600020905b815481526020019060010190808311610cc5575b5050505050815260200160078201548152505081526020019060010190610984565b50505050905090565b60006001600083815260200190815260200160002060009054906101000a900473ffffffffffffffffffffffffffffffffffffffff169050919050565b60008181548110610d5157600080fd5b9060005260206000209060080201600091509050806000018054610d7490611cb4565b80601f0160208091040260200160405190810160405280929190818152602001828054610da090611cb4565b8015610ded5780601f10610dc257610100808354040283529160200191610ded565b820191906000526020600020905b815481529060010190602001808311610dd057829003601f168201915b505050505090806001018054610e0290611cb4565b80601f0160208091040260200160405190810160405280929190818152602001828054610e2e90611cb4565b8015610e7b5780601f10610e5057610100808354040283529160200191610e7b565b820191906000526020600020905b815481529060010190602001808311610e5e57829003601f168201915b505050505090806002018054610e9090611cb4565b80601f0160208091040260200160405190810160405280929190818152602001828054610ebc90611cb4565b8015610f095780601f10610ede57610100808354040283529160200191610f09565b820191906000526020600020905b815481529060010190602001808311610eec57829003601f168201915b5050505050908060030160009054906101000a900461ffff16908060030160029054906101000a900463ffffffff16908060070154905086565b604051806101200160405280606081526020016060815260200160608152602001600061ffff168152602001600063ffffffff168152602001606081526020016060815260200160608152602001600081525090565b828054828255906000526020600020908101928215611012579160200282015b828111156110115782518260006101000a81548173ffffffffffffffffffffffffffffffffffffffff021916908373ffffffffffffffffffffffffffffffffffffffff16021790555091602001919060010190610fb9565b5b50905061101f9190611070565b5090565b82805482825590600052602060002090810192821561105f579160200282015b8281111561105e578251825591602001919060010190611043565b5b50905061106c9190611070565b5090565b5b80821115611089576000816000905550600101611071565b5090565b6000604051905090565b600080fd5b600080fd5b6000819050919050565b6110b4816110a1565b81146110bf57600080fd5b50565b6000813590506110d1816110ab565b92915050565b6000602082840312156110ed576110ec611097565b5b60006110fb848285016110c2565b91505092915050565b60008115159050919050565b61111981611104565b82525050565b60006020820190506111346000830184611110565b92915050565b600073ffffffffffffffffffffffffffffffffffffffff82169050919050565b60006111658261113a565b9050919050565b6111758161115a565b811461118057600080fd5b50565b6000813590506111928161116c565b92915050565b6000602082840312156111ae576111ad611097565b5b60006111bc84828501611183565b91505092915050565b600081519050919050565b600082825260208201905092915050565b6000819050602082019050919050565b6111fa816110a1565b82525050565b600061120c83836111f1565b60208301905092915050565b6000602082019050919050565b6000611230826111c5565b61123a81856111d0565b9350611245836111e1565b8060005b8381101561127657815161125d8882611200565b975061126883611218565b925050600181019050611249565b5085935050505092915050565b6000602082019050818103600083015261129d8184611225565b905092915050565b600080604083850312156112bc576112bb611097565b5b60006112ca858286016110c2565b92505060206112db858286016110c2565b9150509250929050565b600080fd5b600080fd5b6000601f19601f8301169050919050565b7f4e487b7100000000000000000000000000000000000000000000000000000000600052604160045260246000fd5b611338826112ef565b810181811067ffffffffffffffff8211171561135757611356611300565b5b80604052505050565b600061136a61108d565b9050611376828261132f565b919050565b600067ffffffffffffffff82111561139657611395611300565b5b61139f826112ef565b9050602081019050919050565b82818337600083830152505050565b60006113ce6113c98461137b565b611360565b9050828152602081018484840111156113ea576113e96112ea565b5b6113f58482856113ac565b509392505050565b600082601f830112611412576114116112e5565b5b81356114228482602086016113bb565b91505092915050565b61143481611104565b811461143f57600080fd5b50565b6000813590506114518161142b565b92915050565b600061ffff82169050919050565b61146e81611457565b811461147957600080fd5b50565b60008135905061148b81611465565b92915050565b600063ffffffff82169050919050565b6114aa81611491565b81146114b557600080fd5b50565b6000813590506114c7816114a1565b92915050565b60008060008060008060008060006101208a8c0312156114f0576114ef611097565b5b60008a013567ffffffffffffffff81111561150e5761150d61109c565b5b61151a8c828d016113fd565b99505060208a013567ffffffffffffffff81111561153b5761153a61109c565b5b6115478c828d016113fd565b98505060408a013567ffffffffffffffff8111156115685761156761109c565b5b6115748c828d016113fd565b97505060608a013567ffffffffffffffff8111156115955761159461109c565b5b6115a18c828d016113fd565b96505060806115b28c828d016110c2565b95505060a06115c38c828d016110c2565b94505060c06115d48c828d01611442565b93505060e06115e58c828d0161147c565b9250506101006115f78c828d016114b8565b9150509295985092959850929598565b600081519050919050565b600082825260208201905092915050565b6000819050602082019050919050565b600081519050919050565b600082825260208201905092915050565b60005b8381101561166d578082015181840152602081019050611652565b60008484015250505050565b600061168482611633565b61168e818561163e565b935061169e81856020860161164f565b6116a7816112ef565b840191505092915050565b6116bb81611457565b82525050565b6116ca81611491565b82525050565b600081519050919050565b600082825260208201905092915050565b6000819050602082019050919050565b6117058161115a565b82525050565b600061171783836116fc565b60208301905092915050565b6000602082019050919050565b600061173b826116d0565b61174581856116db565b9350611750836116ec565b8060005b83811015611781578151611768888261170b565b975061177383611723565b925050600181019050611754565b5085935050505092915050565b600082825260208201905092915050565b60006117aa826111c5565b6117b4818561178e565b93506117bf836111e1565b8060005b838110156117f05781516117d78882611200565b97506117e283611218565b9250506001810190506117c3565b5085935050505092915050565b600061012083016000830151848203600086015261181b8282611679565b915050602083015184820360208601526118358282611679565b9150506040830151848203604086015261184f8282611679565b915050606083015161186460608601826116b2565b50608083015161187760808601826116c1565b5060a083015184820360a086015261188f8282611730565b91505060c083015184820360c08601526118a9828261179f565b91505060e083015184820360e08601526118c3828261179f565b9150506101008301516118da6101008601826111f1565b508091505092915050565b60006118f183836117fd565b905092915050565b6000602082019050919050565b600061191182611607565b61191b8185611612565b93508360208202850161192d85611623565b8060005b85811015611969578484038952815161194a85826118e5565b9450611955836118f9565b925060208a01995050600181019050611931565b50829750879550505050505092915050565b600060208201905081810360008301526119958184611906565b905092915050565b6119a68161115a565b82525050565b60006020820190506119c1600083018461199d565b92915050565b600082825260208201905092915050565b60006119e382611633565b6119ed81856119c7565b93506119fd81856020860161164f565b611a06816112ef565b840191505092915050565b611a1a81611457565b82525050565b611a2981611491565b82525050565b611a38816110a1565b82525050565b600060c0820190508181036000830152611a5881896119d8565b90508181036020830152611a6c81886119d8565b90508181036040830152611a8081876119d8565b9050611a8f6060830186611a11565b611a9c6080830185611a20565b611aa960a0830184611a2f565b979650505050505050565b7f596f7520646f206e6f74206f776e20746861742070686f6e6549640000000000600082015250565b6000611aea601b836119c7565b9150611af582611ab4565b602082019050919050565b60006020820190508181036000830152611b1981611add565b9050919050565b7f4e487b7100000000000000000000000000000000000000000000000000000000600052603260045260246000fd5b7f4e487b7100000000000000000000000000000000000000000000000000000000600052601160045260246000fd5b6000611b89826110a1565b91507fffffffffffffffffffffffffffffffffffffffffffffffffffffffffffffffff8203611bbb57611bba611b4f565b5b600182019050919050565b600081905092915050565b6000611bdc82611633565b611be68185611bc6565b9350611bf681856020860161164f565b80840191505092915050565b6000611c0e8284611bd1565b915081905092915050565b7f494d454920616c72656164792065786973747300000000000000000000000000600082015250565b6000611c4f6013836119c7565b9150611c5a82611c19565b602082019050919050565b60006020820190508181036000830152611c7e81611c42565b9050919050565b7f4e487b7100000000000000000000000000000000000000000000000000000000600052602260045260246000fd5b60006002820490506001821680611ccc57607f821691505b602082108103611cdf57611cde611c85565b5b50919050565b60008190508160005260206000209050919050565b60006020601f8301049050919050565b600082821b905092915050565b600060088302611d477fffffffffffffffffffffffffffffffffffffffffffffffffffffffffffffffff82611d0a565b611d518683611d0a565b95508019841693508086168417925050509392505050565b6000819050919050565b6000611d8e611d89611d84846110a1565b611d69565b6110a1565b9050919050565b6000819050919050565b611da883611d73565b611dbc611db482611d95565b848454611d17565b825550505050565b600090565b611dd1611dc4565b611ddc818484611d9f565b505050565b5b81811015611e0057611df5600082611dc9565b600181019050611de2565b5050565b601f821115611e4557611e1681611ce5565b611e1f84611cfa565b81016020851015611e2e578190505b611e42611e3a85611cfa565b830182611de1565b50505b505050565b600082821c905092915050565b6000611e6860001984600802611e4a565b1980831691505092915050565b6000611e818383611e57565b9150826002028217905092915050565b611e9a82611633565b67ffffffffffffffff811115611eb357611eb2611300565b5b611ebd8254611cb4565b611ec8828285611e04565b600060209050601f831160018114611efb5760008415611ee9578287015190505b611ef38582611e75565b865550611f5b565b601f198416611f0986611ce5565b60005b82811015611f3157848901518255600182019150602085019450602081019050611f0c565b86831015611f4e5784890151611f4a601f891682611e57565b8355505b6001600288020188555050505b505050505050565b6000611f6e826110a1565b9150611f79836110a1565b9250828203905081811115611f9157611f90611b4f565b5b9291505056fea264697066735822122056ad1a08d263c09ad91548c8e0046d35217fc8e39237bdf4eb215be246954b7c64736f6c63430008130033",
  "immutableReferences": {},
  "source": "// SPDX-License-Identifier: MIT\npragma solidity >=0.4.22 <0.9.0;\n\n\n/*\n  truffle migrate --network development\n  truffle develop\n\n  truffle compile\n  truffle migrate\n  SecondHandChain.deployed().then(function(instance) {contr=instance;});\n  contr._createPhone(\"iphone 10\",\"werwe3\",\"apple\",\"green\",3000,1900,true,8,90);\n  contr.getAllPhonesInAddress('0xcb32167472db9f1ee15b51c4a6fb2815a1f3a7e7');\n\n*/\n\ncontract SecondHandChain {\n\n  struct Phone {\n    string model;\n    string brand;\n    string colour;\n    uint16 ram;\n    uint32 mem;\n    address[] owners;\n    uint[] saleTime;\n    uint[] salePrice;\n    uint price;\n  }\n\n  Phone[] public phones;\n  mapping (uint => address) phoneOwner;\n  mapping (address => uint) phonesPerOwner;\n  mapping (string => uint) imeiPhoneId;\n  mapping (string => bool) isImeiRegistered;\n  mapping (uint => bool) isPhoneOnSale;\n\n  function getPhones() public view returns( Phone[] memory){\n    return phones;\n  }\n\n  function getPhoneOwner(uint _id) public view returns(address){\n    return phoneOwner[_id];\n  }\n\n  function imeiRegistered(string memory _imei) private view returns(bool){\n    return isImeiRegistered[_imei];\n  }\n\n  function getAllPhonesInAddress(address _address) external view returns(uint[] memory){\n    uint[] memory _phonesIds = new uint[](phonesPerOwner[_address]) ;\n    uint j=0;\n    for (uint256 i= 0; i < phones.length; i++) {\n      if (phoneOwner[i]==_address) {\n        _phonesIds[j]=i;\n       j++;\n      }\n    }\n    return _phonesIds;\n  }\n\n  function getIsPhoneOnSale(uint _id) external view returns(bool){\n    return isPhoneOnSale[_id];\n  }\n\n  function putPhoneOnSale(uint _price, uint _phoneId) external {\n    require(phoneOwner[_phoneId]==msg.sender, \"You do not own that phoneId\");\n    isPhoneOnSale[_phoneId]=true;\n    phones[_phoneId].price=_price;\n  }\n\n  function removePhoneFromSale(uint _phoneId) external {\n    require(phoneOwner[_phoneId]==msg.sender, \"You do not own that phoneId\");\n    isPhoneOnSale[_phoneId]=false;\n  }\n\n  function _createPhone(\n    string memory _model,\n    string memory _imei,\n    string memory _brand,\n    string memory _colour,\n    uint _price,\n    uint _salePrice,\n    bool _isOnSale,\n    uint16 _ram,\n    uint32 _mem \n    ) public {\n\n    require(isImeiRegistered[_imei]==false, \"IMEI already exists\");\n\n    Phone memory phone;\n    phone.model = _model;\n    phone.brand = _brand;\n    phone.colour = _colour;\n    phone.ram = _ram;\n    phone.mem = _mem;\n    phone.price = _salePrice;\n\n\n    phones.push(phone);\n    phonesPerOwner[msg.sender]++;\n    uint id = phones.length-1;\n    phones[id].owners.push(msg.sender);\n    phones[id].saleTime.push(block.timestamp);\n    phones[id].salePrice.push(_price);\n\n    phoneOwner[id]=msg.sender;\n    imeiPhoneId[_imei]=id;\n    isPhoneOnSale[id] = _isOnSale;\n    isImeiRegistered[_imei]=true;\n  }\n\n}\n",
  "sourcePath": "D:\\TFG\\ubu-secondhandchain\\truffle\\contracts\\SecondHandChain.sol",
  "compiler": {
    "name": "solc",
    "version": "0.8.19+commit.7dd6d404.Emscripten.clang"
  },
  "schemaVersion": "3.4.13",
  "updatedAt": "2023-04-10T17:31:00.444Z",
  "networkType": "ethereum",
  "devdoc": {
    "kind": "dev",
    "methods": {},
    "version": 1
  },
  "userdoc": {
    "kind": "user",
    "methods": {},
    "version": 1
  }
}