{
  "contractName": "SecondHandChain",
  "abi": [
    {
      "inputs": [
        {
          "internalType": "uint256",
          "name": "",
          "type": "uint256"
        }
      ],
      "name": "phones",
      "outputs": [
        {
          "internalType": "uint256",
          "name": "id",
          "type": "uint256"
        },
        {
          "internalType": "string",
          "name": "model",
          "type": "string"
        },
        {
          "internalType": "string",
          "name": "brand",
          "type": "string"
        },
        {
          "internalType": "string",
          "name": "colour",
          "type": "string"
        },
        {
          "internalType": "uint16",
          "name": "ram",
          "type": "uint16"
        },
        {
          "internalType": "uint32",
          "name": "mem",
          "type": "uint32"
        },
        {
          "internalType": "uint256",
          "name": "price",
          "type": "uint256"
        },
        {
          "internalType": "string",
          "name": "url",
          "type": "string"
        }
      ],
      "stateMutability": "view",
      "type": "function",
      "constant": true
    },
    {
      "inputs": [],
      "name": "getPhones",
      "outputs": [
        {
          "components": [
            {
              "internalType": "uint256",
              "name": "id",
              "type": "uint256"
            },
            {
              "internalType": "string",
              "name": "model",
              "type": "string"
            },
            {
              "internalType": "string",
              "name": "brand",
              "type": "string"
            },
            {
              "internalType": "string",
              "name": "colour",
              "type": "string"
            },
            {
              "internalType": "uint16",
              "name": "ram",
              "type": "uint16"
            },
            {
              "internalType": "uint32",
              "name": "mem",
              "type": "uint32"
            },
            {
              "internalType": "address[]",
              "name": "owners",
              "type": "address[]"
            },
            {
              "internalType": "uint256[]",
              "name": "saleTime",
              "type": "uint256[]"
            },
            {
              "internalType": "uint256[]",
              "name": "salePrice",
              "type": "uint256[]"
            },
            {
              "internalType": "uint256",
              "name": "price",
              "type": "uint256"
            },
            {
              "internalType": "string",
              "name": "url",
              "type": "string"
            }
          ],
          "internalType": "struct SecondHandChain.Phone[]",
          "name": "",
          "type": "tuple[]"
        }
      ],
      "stateMutability": "view",
      "type": "function",
      "constant": true
    },
    {
      "inputs": [
        {
          "internalType": "uint256",
          "name": "_id",
          "type": "uint256"
        }
      ],
      "name": "getPhoneOwner",
      "outputs": [
        {
          "internalType": "address",
          "name": "",
          "type": "address"
        }
      ],
      "stateMutability": "view",
      "type": "function",
      "constant": true
    },
    {
      "inputs": [
        {
          "internalType": "string",
          "name": "_imei",
          "type": "string"
        }
      ],
      "name": "imeiRegistered",
      "outputs": [
        {
          "internalType": "bool",
          "name": "",
          "type": "bool"
        }
      ],
      "stateMutability": "view",
      "type": "function",
      "constant": true
    },
    {
      "inputs": [
        {
          "internalType": "address",
          "name": "_address",
          "type": "address"
        }
      ],
      "name": "getAllPhonesInAddress",
      "outputs": [
        {
          "components": [
            {
              "internalType": "uint256",
              "name": "id",
              "type": "uint256"
            },
            {
              "internalType": "string",
              "name": "model",
              "type": "string"
            },
            {
              "internalType": "string",
              "name": "brand",
              "type": "string"
            },
            {
              "internalType": "string",
              "name": "colour",
              "type": "string"
            },
            {
              "internalType": "uint16",
              "name": "ram",
              "type": "uint16"
            },
            {
              "internalType": "uint32",
              "name": "mem",
              "type": "uint32"
            },
            {
              "internalType": "address[]",
              "name": "owners",
              "type": "address[]"
            },
            {
              "internalType": "uint256[]",
              "name": "saleTime",
              "type": "uint256[]"
            },
            {
              "internalType": "uint256[]",
              "name": "salePrice",
              "type": "uint256[]"
            },
            {
              "internalType": "uint256",
              "name": "price",
              "type": "uint256"
            },
            {
              "internalType": "string",
              "name": "url",
              "type": "string"
            }
          ],
          "internalType": "struct SecondHandChain.Phone[]",
          "name": "",
          "type": "tuple[]"
        }
      ],
      "stateMutability": "view",
      "type": "function",
      "constant": true
    },
    {
      "inputs": [],
      "name": "getAllPhonesOnSale",
      "outputs": [
        {
          "components": [
            {
              "internalType": "uint256",
              "name": "id",
              "type": "uint256"
            },
            {
              "internalType": "string",
              "name": "model",
              "type": "string"
            },
            {
              "internalType": "string",
              "name": "brand",
              "type": "string"
            },
            {
              "internalType": "string",
              "name": "colour",
              "type": "string"
            },
            {
              "internalType": "uint16",
              "name": "ram",
              "type": "uint16"
            },
            {
              "internalType": "uint32",
              "name": "mem",
              "type": "uint32"
            },
            {
              "internalType": "address[]",
              "name": "owners",
              "type": "address[]"
            },
            {
              "internalType": "uint256[]",
              "name": "saleTime",
              "type": "uint256[]"
            },
            {
              "internalType": "uint256[]",
              "name": "salePrice",
              "type": "uint256[]"
            },
            {
              "internalType": "uint256",
              "name": "price",
              "type": "uint256"
            },
            {
              "internalType": "string",
              "name": "url",
              "type": "string"
            }
          ],
          "internalType": "struct SecondHandChain.Phone[]",
          "name": "",
          "type": "tuple[]"
        }
      ],
      "stateMutability": "view",
      "type": "function",
      "constant": true
    },
    {
      "inputs": [
        {
          "internalType": "uint256",
          "name": "_id",
          "type": "uint256"
        }
      ],
      "name": "getIsPhoneOnSale",
      "outputs": [
        {
          "internalType": "bool",
          "name": "",
          "type": "bool"
        }
      ],
      "stateMutability": "view",
      "type": "function",
      "constant": true
    },
    {
      "inputs": [
        {
          "internalType": "uint256",
          "name": "_price",
          "type": "uint256"
        },
        {
          "internalType": "uint256",
          "name": "_phoneId",
          "type": "uint256"
        }
      ],
      "name": "putPhoneOnSale",
      "outputs": [],
      "stateMutability": "nonpayable",
      "type": "function"
    },
    {
      "inputs": [
        {
          "internalType": "uint256",
          "name": "_phoneId",
          "type": "uint256"
        }
      ],
      "name": "removePhoneFromSale",
      "outputs": [],
      "stateMutability": "nonpayable",
      "type": "function"
    },
    {
      "inputs": [
        {
          "internalType": "string",
          "name": "_model",
          "type": "string"
        },
        {
          "internalType": "string",
          "name": "_imei",
          "type": "string"
        },
        {
          "internalType": "string",
          "name": "_brand",
          "type": "string"
        },
        {
          "internalType": "string",
          "name": "_colour",
          "type": "string"
        },
        {
          "internalType": "uint256",
          "name": "_price",
          "type": "uint256"
        },
        {
          "internalType": "uint256",
          "name": "_salePrice",
          "type": "uint256"
        },
        {
          "internalType": "uint16",
          "name": "_ram",
          "type": "uint16"
        },
        {
          "internalType": "uint32",
          "name": "_mem",
          "type": "uint32"
        },
        {
          "internalType": "string",
          "name": "_url",
          "type": "string"
        }
      ],
      "name": "createPhone",
      "outputs": [],
      "stateMutability": "nonpayable",
      "type": "function"
    }
  ],
  "bytecode": "0x608060405234801561001057600080fd5b50612bf9806100206000396000f3fe608060405234801561001057600080fd5b506004361061009e5760003560e01c8063bc2a1c2811610066578063bc2a1c2814610159578063d4dbc41c14610175578063d72bbae214610193578063f09e19f2146101c3578063f3730653146101f35761009e565b806323b104fa146100a35780633664e2de146100bf578063418696fa146100ef5780635b884f6f1461011f57806374c97cd51461013d575b600080fd5b6100bd60048036038101906100b89190611cdd565b61022a565b005b6100d960048036038101906100d49190611cdd565b610365565b6040516100e69190611d25565b60405180910390f35b61010960048036038101906101049190611d9e565b61038f565b60405161011691906121ee565b60405180910390f35b6101276108f8565b60405161013491906121ee565b60405180910390f35b61015760048036038101906101529190612210565b610de2565b005b610173600480360381019061016e91906123dd565b610f47565b005b61017d6113f3565b60405161018a91906121ee565b60405180910390f35b6101ad60048036038101906101a89190612533565b611833565b6040516101ba9190611d25565b60405180910390f35b6101dd60048036038101906101d89190611cdd565b611868565b6040516101ea919061258b565b60405180910390f35b61020d60048036038101906102089190611cdd565b6118a5565b60405161022198979695949392919061261d565b60405180910390f35b3373ffffffffffffffffffffffffffffffffffffffff166002600083815260200190815260200160002060009054906101000a900473ffffffffffffffffffffffffffffffffffffffff1673ffffffffffffffffffffffffffffffffffffffff16146102cb576040517f08c379a00000000000000000000000000000000000000000000000000000000081526004016102c290612703565b60405180910390fd5b60006006600083815260200190815260200160002060006101000a81548160ff02191690831515021790555060006007600083815260200190815260200160002060006101000a81548173ffffffffffffffffffffffffffffffffffffffff021916908373ffffffffffffffffffffffffffffffffffffffff1602179055506001600081548092919061035d90612752565b919050555050565b60006006600083815260200190815260200160002060009054906101000a900460ff169050919050565b60606000600360008473ffffffffffffffffffffffffffffffffffffffff1673ffffffffffffffffffffffffffffffffffffffff1681526020019081526020016000205467ffffffffffffffff8111156103ec576103eb61225a565b5b60405190808252806020026020018201604052801561042557816020015b610412611b3b565b81526020019060019003908161040a5790505b5090506000805b6000805490508110156108ed578473ffffffffffffffffffffffffffffffffffffffff166002600083815260200190815260200160002060009054906101000a900473ffffffffffffffffffffffffffffffffffffffff1673ffffffffffffffffffffffffffffffffffffffff16036108da57600081815481106104b3576104b261277b565b5b90600052602060002090600a020160405180610160016040529081600082015481526020016001820180546104e7906127d9565b80601f0160208091040260200160405190810160405280929190818152602001828054610513906127d9565b80156105605780601f1061053557610100808354040283529160200191610560565b820191906000526020600020905b81548152906001019060200180831161054357829003601f168201915b50505050508152602001600282018054610579906127d9565b80601f01602080910402602001604051908101604052809291908181526020018280546105a5906127d9565b80156105f25780601f106105c7576101008083540402835291602001916105f2565b820191906000526020600020905b8154815290600101906020018083116105d557829003601f168201915b5050505050815260200160038201805461060b906127d9565b80601f0160208091040260200160405190810160405280929190818152602001828054610637906127d9565b80156106845780601f1061065957610100808354040283529160200191610684565b820191906000526020600020905b81548152906001019060200180831161066757829003601f168201915b505050505081526020016004820160009054906101000a900461ffff1661ffff1661ffff1681526020016004820160029054906101000a900463ffffffff1663ffffffff1663ffffffff1681526020016005820180548060200260200160405190810160405280929190818152602001828054801561075857602002820191906000526020600020905b8160009054906101000a900473ffffffffffffffffffffffffffffffffffffffff1673ffffffffffffffffffffffffffffffffffffffff168152602001906001019080831161070e575b50505050508152602001600682018054806020026020016040519081016040528092919081815260200182805480156107b057602002820191906000526020600020905b81548152602001906001019080831161079c575b505050505081526020016007820180548060200260200160405190810160405280929190818152602001828054801561080857602002820191906000526020600020905b8154815260200190600101908083116107f4575b505050505081526020016008820154815260200160098201805461082b906127d9565b80601f0160208091040260200160405190810160405280929190818152602001828054610857906127d9565b80156108a45780601f10610879576101008083540402835291602001916108a4565b820191906000526020600020905b81548152906001019060200180831161088757829003601f168201915b5050505050815250508383815181106108c0576108bf61277b565b5b602002602001018190525081806108d69061280a565b9250505b80806108e59061280a565b91505061042c565b508192505050919050565b6060600060015467ffffffffffffffff8111156109185761091761225a565b5b60405190808252806020026020018201604052801561095157816020015b61093e611b3b565b8152602001906001900390816109365790505b5090506000805b600080549050811015610dd9576006600082815260200190815260200160002060009054906101000a900460ff1615610dc6576000818154811061099f5761099e61277b565b5b90600052602060002090600a020160405180610160016040529081600082015481526020016001820180546109d3906127d9565b80601f01602080910402602001604051908101604052809291908181526020018280546109ff906127d9565b8015610a4c5780601f10610a2157610100808354040283529160200191610a4c565b820191906000526020600020905b815481529060010190602001808311610a2f57829003601f168201915b50505050508152602001600282018054610a65906127d9565b80601f0160208091040260200160405190810160405280929190818152602001828054610a91906127d9565b8015610ade5780601f10610ab357610100808354040283529160200191610ade565b820191906000526020600020905b815481529060010190602001808311610ac157829003601f168201915b50505050508152602001600382018054610af7906127d9565b80601f0160208091040260200160405190810160405280929190818152602001828054610b23906127d9565b8015610b705780601f10610b4557610100808354040283529160200191610b70565b820191906000526020600020905b815481529060010190602001808311610b5357829003601f168201915b505050505081526020016004820160009054906101000a900461ffff1661ffff1661ffff1681526020016004820160029054906101000a900463ffffffff1663ffffffff1663ffffffff16815260200160058201805480602002602001604051908101604052809291908181526020018280548015610c4457602002820191906000526020600020905b8160009054906101000a900473ffffffffffffffffffffffffffffffffffffffff1673ffffffffffffffffffffffffffffffffffffffff1681526020019060010190808311610bfa575b5050505050815260200160068201805480602002602001604051908101604052809291908181526020018280548015610c9c57602002820191906000526020600020905b815481526020019060010190808311610c88575b5050505050815260200160078201805480602002602001604051908101604052809291908181526020018280548015610cf457602002820191906000526020600020905b815481526020019060010190808311610ce0575b5050505050815260200160088201548152602001600982018054610d17906127d9565b80601f0160208091040260200160405190810160405280929190818152602001828054610d43906127d9565b8015610d905780601f10610d6557610100808354040283529160200191610d90565b820191906000526020600020905b815481529060010190602001808311610d7357829003601f168201915b505050505081525050838381518110610dac57610dab61277b565b5b60200260200101819052508180610dc29061280a565b9250505b8080610dd19061280a565b915050610958565b50819250505090565b3373ffffffffffffffffffffffffffffffffffffffff166002600083815260200190815260200160002060009054906101000a900473ffffffffffffffffffffffffffffffffffffffff1673ffffffffffffffffffffffffffffffffffffffff1614610e83576040517f08c379a0000000000000000000000000000000000000000000000000000000008152600401610e7a90612703565b60405180910390fd5b60016006600083815260200190815260200160002060006101000a81548160ff0219169083151502179055508160008281548110610ec457610ec361277b565b5b90600052602060002090600a020160080181905550306007600083815260200190815260200160002060006101000a81548173ffffffffffffffffffffffffffffffffffffffff021916908373ffffffffffffffffffffffffffffffffffffffff16021790555060016000815480929190610f3e9061280a565b91905055505050565b60001515600589604051610f5b919061288e565b908152602001604051809103902060009054906101000a900460ff16151514610fb9576040517f08c379a0000000000000000000000000000000000000000000000000000000008152600401610fb0906128f1565b60405180910390fd5b610fc1611b3b565b89816020018190525087816040018190525086816060018190525083816080019061ffff16908161ffff1681525050828160a0019063ffffffff16908163ffffffff168152505084816101200181815250508181610140018190525060008190806001815401808255809150506001900390600052602060002090600a02016000909190919091506000820151816000015560208201518160010190816110689190612abd565b50604082015181600201908161107e9190612abd565b5060608201518160030190816110949190612abd565b5060808201518160040160006101000a81548161ffff021916908361ffff16021790555060a08201518160040160026101000a81548163ffffffff021916908363ffffffff16021790555060c08201518160050190805190602001906110fb929190611b9f565b5060e0820151816006019080519060200190611118929190611c29565b50610100820151816007019080519060200190611136929190611c29565b5061012082015181600801556101408201518160090190816111589190612abd565b505050600360003373ffffffffffffffffffffffffffffffffffffffff1673ffffffffffffffffffffffffffffffffffffffff16815260200190815260200160002060008154809291906111ab9061280a565b9190505550600060016000805490506111c49190612b8f565b905080600082815481106111db576111da61277b565b5b90600052602060002090600a020160000181905550600081815481106112045761120361277b565b5b90600052602060002090600a0201600501339080600181540180825580915050600190039060005260206000200160009091909190916101000a81548173ffffffffffffffffffffffffffffffffffffffff021916908373ffffffffffffffffffffffffffffffffffffffff1602179055506000818154811061128a5761128961277b565b5b90600052602060002090600a0201600601429080600181540180825580915050600190039060005260206000200160009091909190915055600081815481106112d6576112d561277b565b5b90600052602060002090600a0201600701879080600181540180825580915050600190039060005260206000200160009091909190915055336002600083815260200190815260200160002060006101000a81548173ffffffffffffffffffffffffffffffffffffffff021916908373ffffffffffffffffffffffffffffffffffffffff1602179055508060048b604051611371919061288e565b90815260200160405180910390208190555060006006600083815260200190815260200160002060006101000a81548160ff021916908315150217905550600160058b6040516113c1919061288e565b908152602001604051809103902060006101000a81548160ff0219169083151502179055505050505050505050505050565b60606000805480602002602001604051908101604052809291908181526020016000905b8282101561182a57838290600052602060002090600a02016040518061016001604052908160008201548152602001600182018054611455906127d9565b80601f0160208091040260200160405190810160405280929190818152602001828054611481906127d9565b80156114ce5780601f106114a3576101008083540402835291602001916114ce565b820191906000526020600020905b8154815290600101906020018083116114b157829003601f168201915b505050505081526020016002820180546114e7906127d9565b80601f0160208091040260200160405190810160405280929190818152602001828054611513906127d9565b80156115605780601f1061153557610100808354040283529160200191611560565b820191906000526020600020905b81548152906001019060200180831161154357829003601f168201915b50505050508152602001600382018054611579906127d9565b80601f01602080910402602001604051908101604052809291908181526020018280546115a5906127d9565b80156115f25780601f106115c7576101008083540402835291602001916115f2565b820191906000526020600020905b8154815290600101906020018083116115d557829003601f168201915b505050505081526020016004820160009054906101000a900461ffff1661ffff1661ffff1681526020016004820160029054906101000a900463ffffffff1663ffffffff1663ffffffff168152602001600582018054806020026020016040519081016040528092919081815260200182805480156116c657602002820191906000526020600020905b8160009054906101000a900473ffffffffffffffffffffffffffffffffffffffff1673ffffffffffffffffffffffffffffffffffffffff168152602001906001019080831161167c575b505050505081526020016006820180548060200260200160405190810160405280929190818152602001828054801561171e57602002820191906000526020600020905b81548152602001906001019080831161170a575b505050505081526020016007820180548060200260200160405190810160405280929190818152602001828054801561177657602002820191906000526020600020905b815481526020019060010190808311611762575b5050505050815260200160088201548152602001600982018054611799906127d9565b80601f01602080910402602001604051908101604052809291908181526020018280546117c5906127d9565b80156118125780601f106117e757610100808354040283529160200191611812565b820191906000526020600020905b8154815290600101906020018083116117f557829003601f168201915b50505050508152505081526020019060010190611417565b50505050905090565b6000600582604051611845919061288e565b908152602001604051809103902060009054906101000a900460ff169050919050565b60006002600083815260200190815260200160002060009054906101000a900473ffffffffffffffffffffffffffffffffffffffff169050919050565b600081815481106118b557600080fd5b90600052602060002090600a02016000915090508060000154908060010180546118de906127d9565b80601f016020809104026020016040519081016040528092919081815260200182805461190a906127d9565b80156119575780601f1061192c57610100808354040283529160200191611957565b820191906000526020600020905b81548152906001019060200180831161193a57829003601f168201915b50505050509080600201805461196c906127d9565b80601f0160208091040260200160405190810160405280929190818152602001828054611998906127d9565b80156119e55780601f106119ba576101008083540402835291602001916119e5565b820191906000526020600020905b8154815290600101906020018083116119c857829003601f168201915b5050505050908060030180546119fa906127d9565b80601f0160208091040260200160405190810160405280929190818152602001828054611a26906127d9565b8015611a735780601f10611a4857610100808354040283529160200191611a73565b820191906000526020600020905b815481529060010190602001808311611a5657829003601f168201915b5050505050908060040160009054906101000a900461ffff16908060040160029054906101000a900463ffffffff1690806008015490806009018054611ab8906127d9565b80601f0160208091040260200160405190810160405280929190818152602001828054611ae4906127d9565b8015611b315780601f10611b0657610100808354040283529160200191611b31565b820191906000526020600020905b815481529060010190602001808311611b1457829003601f168201915b5050505050905088565b60405180610160016040528060008152602001606081526020016060815260200160608152602001600061ffff168152602001600063ffffffff16815260200160608152602001606081526020016060815260200160008152602001606081525090565b828054828255906000526020600020908101928215611c18579160200282015b82811115611c175782518260006101000a81548173ffffffffffffffffffffffffffffffffffffffff021916908373ffffffffffffffffffffffffffffffffffffffff16021790555091602001919060010190611bbf565b5b509050611c259190611c76565b5090565b828054828255906000526020600020908101928215611c65579160200282015b82811115611c64578251825591602001919060010190611c49565b5b509050611c729190611c76565b5090565b5b80821115611c8f576000816000905550600101611c77565b5090565b6000604051905090565b600080fd5b600080fd5b6000819050919050565b611cba81611ca7565b8114611cc557600080fd5b50565b600081359050611cd781611cb1565b92915050565b600060208284031215611cf357611cf2611c9d565b5b6000611d0184828501611cc8565b91505092915050565b60008115159050919050565b611d1f81611d0a565b82525050565b6000602082019050611d3a6000830184611d16565b92915050565b600073ffffffffffffffffffffffffffffffffffffffff82169050919050565b6000611d6b82611d40565b9050919050565b611d7b81611d60565b8114611d8657600080fd5b50565b600081359050611d9881611d72565b92915050565b600060208284031215611db457611db3611c9d565b5b6000611dc284828501611d89565b91505092915050565b600081519050919050565b600082825260208201905092915050565b6000819050602082019050919050565b611e0081611ca7565b82525050565b600081519050919050565b600082825260208201905092915050565b60005b83811015611e40578082015181840152602081019050611e25565b60008484015250505050565b6000601f19601f8301169050919050565b6000611e6882611e06565b611e728185611e11565b9350611e82818560208601611e22565b611e8b81611e4c565b840191505092915050565b600061ffff82169050919050565b611ead81611e96565b82525050565b600063ffffffff82169050919050565b611ecc81611eb3565b82525050565b600081519050919050565b600082825260208201905092915050565b6000819050602082019050919050565b611f0781611d60565b82525050565b6000611f198383611efe565b60208301905092915050565b6000602082019050919050565b6000611f3d82611ed2565b611f478185611edd565b9350611f5283611eee565b8060005b83811015611f83578151611f6a8882611f0d565b9750611f7583611f25565b925050600181019050611f56565b5085935050505092915050565b600081519050919050565b600082825260208201905092915050565b6000819050602082019050919050565b6000611fc88383611df7565b60208301905092915050565b6000602082019050919050565b6000611fec82611f90565b611ff68185611f9b565b935061200183611fac565b8060005b838110156120325781516120198882611fbc565b975061202483611fd4565b925050600181019050612005565b5085935050505092915050565b6000610160830160008301516120586000860182611df7565b50602083015184820360208601526120708282611e5d565b9150506040830151848203604086015261208a8282611e5d565b915050606083015184820360608601526120a48282611e5d565b91505060808301516120b96080860182611ea4565b5060a08301516120cc60a0860182611ec3565b5060c083015184820360c08601526120e48282611f32565b91505060e083015184820360e08601526120fe8282611fe1565b91505061010083015184820361010086015261211a8282611fe1565b915050610120830151612131610120860182611df7565b5061014083015184820361014086015261214b8282611e5d565b9150508091505092915050565b6000612164838361203f565b905092915050565b6000602082019050919050565b600061218482611dcb565b61218e8185611dd6565b9350836020820285016121a085611de7565b8060005b858110156121dc57848403895281516121bd8582612158565b94506121c88361216c565b925060208a019950506001810190506121a4565b50829750879550505050505092915050565b600060208201905081810360008301526122088184612179565b905092915050565b6000806040838503121561222757612226611c9d565b5b600061223585828601611cc8565b925050602061224685828601611cc8565b9150509250929050565b600080fd5b600080fd5b7f4e487b7100000000000000000000000000000000000000000000000000000000600052604160045260246000fd5b61229282611e4c565b810181811067ffffffffffffffff821117156122b1576122b061225a565b5b80604052505050565b60006122c4611c93565b90506122d08282612289565b919050565b600067ffffffffffffffff8211156122f0576122ef61225a565b5b6122f982611e4c565b9050602081019050919050565b82818337600083830152505050565b6000612328612323846122d5565b6122ba565b90508281526020810184848401111561234457612343612255565b5b61234f848285612306565b509392505050565b600082601f83011261236c5761236b612250565b5b813561237c848260208601612315565b91505092915050565b61238e81611e96565b811461239957600080fd5b50565b6000813590506123ab81612385565b92915050565b6123ba81611eb3565b81146123c557600080fd5b50565b6000813590506123d7816123b1565b92915050565b60008060008060008060008060006101208a8c031215612400576123ff611c9d565b5b60008a013567ffffffffffffffff81111561241e5761241d611ca2565b5b61242a8c828d01612357565b99505060208a013567ffffffffffffffff81111561244b5761244a611ca2565b5b6124578c828d01612357565b98505060408a013567ffffffffffffffff81111561247857612477611ca2565b5b6124848c828d01612357565b97505060608a013567ffffffffffffffff8111156124a5576124a4611ca2565b5b6124b18c828d01612357565b96505060806124c28c828d01611cc8565b95505060a06124d38c828d01611cc8565b94505060c06124e48c828d0161239c565b93505060e06124f58c828d016123c8565b9250506101008a013567ffffffffffffffff81111561251757612516611ca2565b5b6125238c828d01612357565b9150509295985092959850929598565b60006020828403121561254957612548611c9d565b5b600082013567ffffffffffffffff81111561256757612566611ca2565b5b61257384828501612357565b91505092915050565b61258581611d60565b82525050565b60006020820190506125a0600083018461257c565b92915050565b6125af81611ca7565b82525050565b600082825260208201905092915050565b60006125d182611e06565b6125db81856125b5565b93506125eb818560208601611e22565b6125f481611e4c565b840191505092915050565b61260881611e96565b82525050565b61261781611eb3565b82525050565b600061010082019050612633600083018b6125a6565b8181036020830152612645818a6125c6565b9050818103604083015261265981896125c6565b9050818103606083015261266d81886125c6565b905061267c60808301876125ff565b61268960a083018661260e565b61269660c08301856125a6565b81810360e08301526126a881846125c6565b90509998505050505050505050565b7f596f7520646f206e6f74206f776e20746861742070686f6e6549640000000000600082015250565b60006126ed601b836125b5565b91506126f8826126b7565b602082019050919050565b6000602082019050818103600083015261271c816126e0565b9050919050565b7f4e487b7100000000000000000000000000000000000000000000000000000000600052601160045260246000fd5b600061275d82611ca7565b9150600082036127705761276f612723565b5b600182039050919050565b7f4e487b7100000000000000000000000000000000000000000000000000000000600052603260045260246000fd5b7f4e487b7100000000000000000000000000000000000000000000000000000000600052602260045260246000fd5b600060028204905060018216806127f157607f821691505b602082108103612804576128036127aa565b5b50919050565b600061281582611ca7565b91507fffffffffffffffffffffffffffffffffffffffffffffffffffffffffffffffff820361284757612846612723565b5b600182019050919050565b600081905092915050565b600061286882611e06565b6128728185612852565b9350612882818560208601611e22565b80840191505092915050565b600061289a828461285d565b915081905092915050565b7f494d454920616c72656164792065786973747300000000000000000000000000600082015250565b60006128db6013836125b5565b91506128e6826128a5565b602082019050919050565b6000602082019050818103600083015261290a816128ce565b9050919050565b60008190508160005260206000209050919050565b60006020601f8301049050919050565b600082821b905092915050565b6000600883026129737fffffffffffffffffffffffffffffffffffffffffffffffffffffffffffffffff82612936565b61297d8683612936565b95508019841693508086168417925050509392505050565b6000819050919050565b60006129ba6129b56129b084611ca7565b612995565b611ca7565b9050919050565b6000819050919050565b6129d48361299f565b6129e86129e0826129c1565b848454612943565b825550505050565b600090565b6129fd6129f0565b612a088184846129cb565b505050565b5b81811015612a2c57612a216000826129f5565b600181019050612a0e565b5050565b601f821115612a7157612a4281612911565b612a4b84612926565b81016020851015612a5a578190505b612a6e612a6685612926565b830182612a0d565b50505b505050565b600082821c905092915050565b6000612a9460001984600802612a76565b1980831691505092915050565b6000612aad8383612a83565b9150826002028217905092915050565b612ac682611e06565b67ffffffffffffffff811115612adf57612ade61225a565b5b612ae982546127d9565b612af4828285612a30565b600060209050601f831160018114612b275760008415612b15578287015190505b612b1f8582612aa1565b865550612b87565b601f198416612b3586612911565b60005b82811015612b5d57848901518255600182019150602085019450602081019050612b38565b86831015612b7a5784890151612b76601f891682612a83565b8355505b6001600288020188555050505b505050505050565b6000612b9a82611ca7565b9150612ba583611ca7565b9250828203905081811115612bbd57612bbc612723565b5b9291505056fea2646970667358221220a3f3d33db0d275042181445f02e426bc445c97d197dad3a1535d0278e299502464736f6c63430008130033",
  "immutableReferences": {},
  "source": "// SPDX-License-Identifier: MIT\r\npragma solidity >=0.4.22 <0.9.0;\r\n\r\n/*\r\n  truffle migrate --network development\r\n  truffle develop\r\n\r\n  truffle compile\r\n  truffle migrate\r\n  SecondHandChain.deployed().then(function(instance) {contr=instance;});\r\n  contr._createPhone(\"iphone 10\",\"werwe3\",\"apple\",\"green\",3000,1900,8,90);\r\n  contr.getAllPhonesInAddress('0xcb32167472db9f1ee15b51c4a6fb2815a1f3a7e7');\r\n\r\n\r\n\r\n  let instance = await ERC721.deployed()\r\n  instance.createPhone(\"iphone 10\",\"werwe3\",\"apple\",\"green\",3000,1900,8,90,{from: accounts[3]})\r\n  instance.ownerOf(0)\r\n  instance.putPhoneOnSale('10000000000000000000',0)\r\n  let actualBalance0 = await web3.eth.getBalance(accounts[0]);\r\n  let actualBalance1 = await web3.eth.getBalance(accounts[1]);\r\n  truffle migrate --reset\r\n  instance.safeTransferFrom('0xf99C16ed15DE5e7A30C8460ae1e81B28fDf47797','0xb62a4ee782019cDd813Ff320818C1fbECfBE8a8a',0, {from: '0xb62a4ee782019cDd813Ff320818C1fbECfBE8a8a', value: 100000000000000000})\r\n  instance.putPhoneOnSale(2,0,{from: '0xf99C16ed15DE5e7A30C8460ae1e81B28fDf47797'})\r\n  instance.safeTransferFrom(accounts[0],accounts[3],0, {from: accounts[3], value: 9})\r\n\r\n  truffle console\r\n  instance.safeTransferFrom(accounts[2],accounts[4],0, {from: accounts[4], value: 10000000000000000000})\r\n  instance.putPhoneOnSale('10000000000000000000',0, {from:accounts[2]})\r\n\r\n*/\r\n\r\ncontract SecondHandChain {\r\n    struct Phone {\r\n        uint256 id;\r\n        string model;\r\n        string brand;\r\n        string colour;\r\n        uint16 ram;\r\n        uint32 mem;\r\n        address[] owners;\r\n        uint[] saleTime;\r\n        uint[] salePrice;\r\n        uint price;\r\n        string url;\r\n    }\r\n\r\n    Phone[] public phones;\r\n    uint256 numberOfPhonesOnSale;\r\n\r\n    mapping(uint => address) phoneOwner;\r\n    mapping(address => uint) phonesPerOwner;\r\n    mapping(string => uint) imeiPhoneId;\r\n    mapping(string => bool) isImeiRegistered;\r\n    mapping(uint => bool) isPhoneOnSale;\r\n    mapping(uint => address) phoneApproval;\r\n    mapping(address => address) approvalForAll;\r\n\r\n    function getPhones() public view returns (Phone[] memory) {\r\n        return phones;\r\n    }\r\n\r\n    function getPhoneOwner(uint _id) public view returns (address) {\r\n        return phoneOwner[_id];\r\n    }\r\n\r\n    function imeiRegistered(string memory _imei) public view returns (bool) {\r\n        return isImeiRegistered[_imei];\r\n    }\r\n\r\n    function getAllPhonesInAddress(\r\n        address _address\r\n    ) external view returns (Phone[] memory) {\r\n        Phone[] memory _phones = new Phone[](phonesPerOwner[_address]);\r\n        uint j = 0;\r\n        for (uint256 i = 0; i < phones.length; i++) {\r\n            if (phoneOwner[i] == _address) {\r\n                _phones[j] = phones[i];\r\n                j++;\r\n            }\r\n        }\r\n        return _phones;\r\n    }\r\n\r\n    function getAllPhonesOnSale() external view returns (Phone[] memory) {\r\n        Phone[] memory _phones = new Phone[](numberOfPhonesOnSale);\r\n        uint j = 0;\r\n        for (uint256 i = 0; i < phones.length; i++) {\r\n            if (isPhoneOnSale[i]) {\r\n                _phones[j] = phones[i];\r\n                j++;\r\n            }\r\n        }\r\n        return _phones;\r\n    }\r\n\r\n    function getIsPhoneOnSale(uint _id) external view returns (bool) {\r\n        return isPhoneOnSale[_id];\r\n    }\r\n\r\n    function putPhoneOnSale(uint _price, uint _phoneId) external {\r\n        require(\r\n            phoneOwner[_phoneId] == msg.sender,\r\n            \"You do not own that phoneId\"\r\n        );\r\n        isPhoneOnSale[_phoneId] = true;\r\n        phones[_phoneId].price = _price;\r\n        phoneApproval[_phoneId] = address(this);\r\n        numberOfPhonesOnSale++;\r\n    }\r\n\r\n    function removePhoneFromSale(uint _phoneId) external {\r\n        require(\r\n            phoneOwner[_phoneId] == msg.sender,\r\n            \"You do not own that phoneId\"\r\n        );\r\n        isPhoneOnSale[_phoneId] = false;\r\n        phoneApproval[_phoneId] = address(0);\r\n        numberOfPhonesOnSale--;\r\n    }\r\n\r\n    function createPhone(\r\n        string memory _model,\r\n        string memory _imei,\r\n        string memory _brand,\r\n        string memory _colour,\r\n        uint _price,\r\n        uint _salePrice,\r\n        uint16 _ram,\r\n        uint32 _mem,\r\n        string  memory _url\r\n    ) public {\r\n        require(isImeiRegistered[_imei] == false, \"IMEI already exists\");\r\n\r\n        Phone memory phone;\r\n        phone.model = _model;\r\n        phone.brand = _brand;\r\n        phone.colour = _colour;\r\n        phone.ram = _ram;\r\n        phone.mem = _mem;\r\n        phone.price = _salePrice;\r\n        phone.url = _url;\r\n\r\n        phones.push(phone);\r\n        phonesPerOwner[msg.sender]++;\r\n        uint id = phones.length - 1;\r\n        phones[id].id = id;\r\n        phones[id].owners.push(msg.sender);\r\n        phones[id].saleTime.push(block.timestamp);\r\n        phones[id].salePrice.push(_price);\r\n\r\n        phoneOwner[id] = msg.sender;\r\n        imeiPhoneId[_imei] = id;\r\n        isPhoneOnSale[id] = false;\r\n        isImeiRegistered[_imei] = true;\r\n    }\r\n}\r\n",
  "sourcePath": "D:\\TFG\\ubu-secondhandchain\\truffle\\contracts\\SecondHandChain.sol",
  "compiler": {
    "name": "solc",
    "version": "0.8.19+commit.7dd6d404.Emscripten.clang"
  },
  "schemaVersion": "3.4.13",
  "updatedAt": "2023-06-18T18:02:50.082Z",
  "networkType": "ethereum",
  "devdoc": {
    "kind": "dev",
    "methods": {},
    "version": 1
  },
  "userdoc": {
    "kind": "user",
    "methods": {},
    "version": 1
  }
}